:020000040000FA
:0400000007EF00F016
:100008005F8275ED19F0DAEF19F00450800B0D6E70
:10001800045004240F6E03AE14EF00F016EF00F046
:1000280017EF00F00F800F50D8B41DEF00F01FEF4E
:1000380000F034EF00F00F28D8A425EF00F027EFE8
:1000480000F02FEF00F0000E016E000E026E000EA1
:10005800036E000E046E038E000E046E3CEF00F07B
:10006800000E016E000E026E000E036E000E046E8E
:100078000850800B0E6E0D500E18D8B446EF00F0E5
:1000880048EF00F049EF00F00D8C085008240E6E80
:1000980007AE51EF00F053EF00F054EF00F00E8080
:1000A8000E50D8B45AEF00F05CEF00F071EF00F09A
:1000B8000E28D8A462EF00F064EF00F06CEF00F0B7
:1000C800000E056E000E066E000E076E000E086E1E
:1000D800078E000E086E79EF00F0000E056E000E18
:1000E800066E000E076E000E086E0F500E5CD8B03C
:1000F80080EF00F082EF00F0A9EF00F00DAC87EF81
:1001080000F089EF00F08BEF00F0800E0D1A0FC0A1
:1001180010F00EC00FF010C00EF001C010F005C0B6
:1001280001F010C005F002C010F006C002F010C0C7
:1001380006F003C010F007C003F010C007F004C0B9
:1001480010F008C004F010C008F0000E106E0F5038
:100158000EC009F00A6A095E000E0A5A0ABEBEEF0E
:1001680000F00A5009E11A0E095CD8A0BEEF00F0B1
:10017800C0EF00F0F7EF00F0015002100310041078
:10018800D8A4C9EF00F0CCEF00F0010ECDEF00F0DD
:10019800000E106E000E016E000E026E000E036E51
:1001A800000E046E0EC00FF000EF01F010A0DFEF9C
:1001B80000F0E1EF00F0E7EF00F0D890103001090F
:1001C800106EE9EF00F0D890103201A0EEEF00F0C9
:1001D800F0EF00F0F1EF00F0108E04340432033237
:1001E800023201320F2A0E500F5CD8A0FEEF00F049
:1001F80000EF01F0DAEF00F00DBC05EF01F007EFBA
:1002080001F047EF01F00F50D8A40DEF01F00FEF08
:1002180001F019EF01F0000E016E000E026E000EE3
:10022800036E000E046E68EF02F0055001260650BA
:100238000222075003220850042204A026EF01F0EE
:1002480028EF01F0D4EF01F010A02DEF01F02FEF0F
:1002580001F035EF01F0D89010300109106E37EF3A
:1002680001F0D890103201A03CEF01F03EEF01F010
:100278003FEF01F0108E04340432033202320132AF
:100288000F2AD4EF01F00550015C065002580750C0
:1002980003580450800A096E0850800A0958D8B0DB
:1002A80058EF01F05AEF01F085EF01F00150055CBD
:1002B800096E025006580A6E035007580B6E045018
:1002C80008580C6EFF0E0924016EFF0E0A20026EFC
:1002D800FF0E0B20036EFF0E0C20046E800E0D1A0D
:1002E800106C1050D8A47BEF01F07DEF01F08DEF7A
:1002F80001F0010E0126000E0222032204228DEFD6
:1003080001F00550015E0650025A0750035A085082
:10031800045A0150021003100410D8A496EF01F0FB
:1003280098EF01F0CDEF01F01050D8A49EEF01F046
:10033800A0EF01F0CDEF01F0000E016E000E026E8D
:10034800000E036E000E046E68EF02F0D8900136BE
:1003580002360336043610AEB4EF01F0B6EF01F002
:10036800B7EF01F0018010A0BCEF01F0BEEF01F083
:10037800C2EF01F0D8801036C4EF01F0D8901036E3
:100388000F50D8B4CAEF01F0CCEF01F0CDEF01F077
:100398000F0603AED2EF01F0D4EF01F0AAEF01F09F
:1003A800000E0E6E10AEDBEF01F0DDEF01F0F5EFA1
:1003B80001F010C009F07F0E0916D8B4E6EF01F07D
:1003C800E8EF01F0ECEF01F0010E0E6EF5EF01F031
:1003D80001A0F1EF01F0F3EF01F0F5EF01F0E8EF24
:1003E80001F00E50D8B4FBEF01F0FDEF01F028EF5B
:1003F80002F0010E0126000E02220322042204A0AC
:1004080008EF02F00AEF02F028EF02F001C009F04D
:1004180002C00AF003C00BF004C00CF00C340C321C
:100428000B320A32093209C001F00AC002F00BC0CF
:1004380003F00CC004F00F28D8B425EF02F027EF22
:1004480002F028EF02F00F2A0F28D8B42EEF02F09E
:1004580030EF02F038EF02F00F50D8A436EF02F078
:1004680038EF02F04AEF02F0000E016E000E026E45
:10047800000E036E000E046E0F50D8A446EF02F073
:1004880048EF02F04AEF02F0000E0D6E0FA04FEF9A
:1004980002F051EF02F054EF02F0038E55EF02F034
:1004A800039ED8900F30046E0DAE5DEF02F05FEF43
:1004B80002F060EF02F0048E01C001F002C002F009
:1004C80003C003F004C004F012000450800B116E46
:1004D80004500424186E03AE74EF02F076EF02F0B5
:1004E80077EF02F018801850D8B47DEF02F07FEF54
:1004F80002F094EF02F01828D8A485EF02F087EFF5
:1005080002F08FEF02F0000E016E000E026E000E78
:10051800036E000E046E038E000E046E9CEF02F054
:10052800000E016E000E026E000E036E000E046EC9
:100538000850800B111A08500824196E07AEA7EF4F
:1005480002F0A9EF02F0AAEF02F019801950D8B40E
:10055800B0EF02F0B2EF02F0C7EF02F01928D8A40A
:10056800B8EF02F0BAEF02F0C2EF02F0000E056E2B
:10057800000E066E000E076E000E086E078E000E47
:10058800086ECFEF02F0000E056E000E066E000E2C
:10059800076E000E086E0550061007100810D8A444
:1005A800D8EF02F0DAEF02F0F2EF02F0000E016E7F
:1005B800000E026E000E036E000E046E800E031213
:1005C8007F0E04121150041201C001F002C002F0A3
:1005D80003C003F004C004F035EF04F01850D8A4A9
:1005E800F8EF02F0FAEF02F004EF03F0000E016EEC
:1005F800000E026E000E036E000E046E35EF04F05E
:10060800195018C009F00A6A095E000E0A5A7F0ECE
:100618000924126E000E0A20136E01C00DF002C0EC
:100628000EF003C00FF004C010F0000E016E000EB3
:10063800026E000E036E000E046E000E146E000EA5
:10064800156E000E166E000E176E000E196E65EF11
:1006580003F01950D8B433EF03F035EF03F04CEF43
:1006680003F0D8900D360E360F361036D890013676
:1006780002360336043617AE44EF03F046EF03F0B4
:1006880047EF03F00180D890143615361636173622
:1006980005500D5C06500E5807500F58085010585A
:1006A800D8A059EF03F05BEF03F064EF03F0178C69
:1006B80005500D5E06500E5A07500F5A0850105A32
:1006C800192A190E19646BEF03F06DEF03F02DEF83
:1006D80003F00D500E100F101010D8B476EF03F081
:1006E80078EF03F090EF03F0148090EF03F0D890C8
:1006F800013602360336043617AE85EF03F087EF6E
:1007080003F088EF03F00180D890143615361636BA
:1007180017361206D8A0130603AE95EF03F097EF2D
:1007280003F07BEF03F0000E196E17AE9EEF03F097
:10073800A0EF03F0C4EF03F0FF0E1414096EFF0ED0
:1007480015140A6EFF0E16140B6E7F0E17140C6E1E
:1007580009500A100B100C10D8B4B5EF03F0B7EF1E
:1007680003F0BBEF03F0010E196EC4EF03F001A014
:10077800C0EF03F0C2EF03F0C4EF03F0B7EF03F0EC
:100788001950D8B4CAEF03F0CCEF03F0F0EF03F040
:10079800010E0126000E02220322042204A0D7EF34
:1007A80003F0D9EF03F0F0EF03F001C009F002C045
:1007B8000AF003C00BF004C00CF00C340C320B32FE
:1007C8000A32093209C001F00AC002F00BC003F076
:1007D8000CC004F0124A132A13BEFBEF03F01350A7
:1007E80008E11228D8A0FBEF03F0FDEF03F008EFB3
:1007F80004F0000E136E1268000E016E000E026EF9
:10080800000E036E000E046E13BE15EF04F01350B5
:1008180006E11204D8B013EF04F015EF04F023EF4B
:1008280004F0000E136E000E126E000E016E000E24
:10083800026E000E036E000E046E000E116E12C0E2
:1008480018F018A02AEF04F02CEF04F02FEF04F0B2
:10085800038E30EF04F0039ED8901830046EE6EF54
:1008680002F012001EC036F01FC037F020C038F06A
:1008780021C039F022C03AF023C03BF024C03CF03C
:1008880025C03DF03DBE4BEF04F04EEF04F0010EE5
:100898004FEF04F0000E346E356A34503510D8B47A
:1008A80058EF04F05AEF04F06AEF04F03D1E3C1EC6
:1008B8003B1E3A1E391E381E371E366C000E372274
:1008C800382239223A223B223C223D22000197BF9E
:1008D80070EF04F072EF04F073EF04F0989397BF91
:1008E80080EF04F0975106E19605D8B07EEF04F04A
:1008F80080EF04F086EF04F0000E316E010E306ECA
:100908008AEF04F096C030F097C031F094C032F00E
:1009180095C033F034503510D8A495EF04F097EF14
:1009280004F09EEF04F098A59CEF04F09EEF04F00D
:10093800A1EF04F03206D8A03306000E3F6E1F0E5A
:100948003E6E000EC46F25EF05F03E06D8A03F06A8
:10095800A50E3E24D96E000E3F20DA6E36C001F097
:1009680037C002F038C003F039C004F03AC005F0CF
:100978003BC006F03CC007F03DC008F00A0E096E07
:10098800000E0A6E000E0B6E000E0C6E000E0D6E41
:10099800000E0E6E000E0F6E000E106ED2EC0DF0F3
:1009A80001C026F002C027F003C028F004C029F0D7
:1009B80005C02AF006C02BF007C02CF008C02DF0A7
:1009C80026C013F028C014F0BAEC19F01350300FF9
:1009D800DF6E3006D8A031063206D8A0330636C0FE
:1009E80001F037C002F038C003F039C004F03AC053
:1009F80005F03BC006F03CC007F03DC008F00A0E09
:100A0800096E000E0A6E000E0B6E000E0C6E000EC4
:100A18000D6E000E0E6E000E0F6E000E106EA3EC23
:100A28000BF001C036F002C037F003C038F004C044
:100A380039F005C03AF006C03BF007C03CF008C0EA
:100A48003DF03FBE30EF05F03F5008E13E04D8A02E
:100A580030EF05F032EF05F063EF05F03650371050
:100A6800381039103A103B103C103D10D8A43FEF15
:100A780005F041EF05F0A9EF04F031BE4EEF05F0A7
:100A8800315006E13004D8B04CEF05F04EEF05F0D8
:100A9800A9EF04F033BE59EF05F0335008E13204F2
:100AA800D8A059EF05F05BEF05F063EF05F0000102
:100AB80098B361EF05F063EF05F0A9EF04F0345047
:100AC8003510D8A46AEF05F06CEF05F074EF05F067
:100AD800000198A572EF05F074EF05F092EF05F0AC
:100AE8003E06D8A03F0634503510D8A47EEF05F056
:100AF80080EF05F086EF05F0000E2F6E2B0E2E6EA0
:100B08008AEF05F0000E2F6E2D0E2E6EA50E3E24D8
:100B1800D96E000E3F20DA6E2EC0DFFF1CC011F028
:100B28001DC012F0A50E3E24136E000E3F20146E59
:100B380032C015F033C016F06CEC12F011C01CF086
:100B480012C01DF0120084B0ACEF05F0AEEF05F056
:100B5800E3EF05F084B0B3EF05F0B5EF05F0E3EF90
:100B680005F05E2A050E5E64BCEF05F0BEEF05F0E9
:100B7800C2EF05F03DEC15F0000E5E6E15EC0FF0BF
:100B88008C8C040E596E0C0E586E340EE82EFED75F
:100B9800582EFCD7592EFAD78C9C040E596E0C0E81
:100BA800586E340EE82EFED7582EFCD7592EFAD799
:100BB80084A0E1EF05F0E3EF05F0DCEF05F084B287
:100BC800E8EF05F0EAEF05F06FEF06F05E04D8A451
:100BD800F0EF05F0F2EF05F000EF06F00001F42B5E
:100BE8003B0EF465FAEF05F0FCEF05F0FEEF05F0BB
:100BF800000EF46F5AEC17F0020E5E18D8A407EF37
:100C080006F009EF06F017EF06F00001F52B170EB6
:100C1800F56511EF06F013EF06F015EF06F0000E7C
:100C2800F56F8EEC17F0030E5E18D8A41EEF06F0D1
:100C380020EF06F02EEF06F00001F02B1E0EF065F7
:100C480028EF06F02AEF06F02CEF06F0010EF06F01
:100C5800BEEC16F0040E5E18D8A435EF06F037EF98
:100C680006F045EF06F00001F12B0C0EF1653FEFA1
:100C780006F041EF06F043EF06F0010EF16F8AEC43
:100C880016F0050E5E18D8A44CEF06F04EEF06F0ED
:100C98005CEF06F00001F22B620EF26556EF06F0EB
:100CA80058EF06F05AEF06F0000EF26FF2EC16F06D
:100CB800030E596E080E586E770EE82EFED7582E82
:100CC800FCD7592EFAD700F084A26DEF06F06FEF2B
:100CD80006F068EF06F084B474EF06F076EF06F0DD
:100CE800FBEF06F05E04D8A47CEF06F07EEF06F07A
:100CF8008CEF06F00001F451D8A485EF06F087EFD9
:100D080006F089EF06F03C0EF46FF4075AEC17F082
:100D1800020E5E18D8A493EF06F095EF06F0A3EF45
:100D280006F00001F551D8A49CEF06F09EEF06F0FE
:100D3800A0EF06F0180EF56FF5078EEC17F0030E0E
:100D48005E18D8A4AAEF06F0ACEF06F0BAEF06F0EA
:100D58000001F005D8A4B3EF06F0B5EF06F0B7EF41
:100D680006F0200EF06FF007BEEC16F0040E5E18C9
:100D7800D8A4C1EF06F0C3EF06F0D1EF06F00001EA
:100D8800F105D8A4CAEF06F0CCEF06F0CEEF06F0D6
:100D98000D0EF16FF1078AEC16F0050E5E18D8A457
:100DA800D8EF06F0DAEF06F0E8EF06F00001F251AE
:100DB800D8A4E1EF06F0E3EF06F0E5EF06F0640EE5
:100DC800F26FF207F2EC16F0030E596E080E586E29
:100DD800770EE82EFED7582EFCD7592EFAD700F0FA
:100DE80084A4F9EF06F0FBEF06F0F4EF06F012002A
:100DF8001C6E020E196E000E1B6E000E186E11EF9F
:100E080007F0120E1B6E100E186E26EF07F0770E05
:100E18001B6E300E186E26EF07F01C50146E156A04
:100E28001550000AD8B41BEF07F026EF07F014504E
:100E38000C0AD8B40BEF07F0020AD8B405EF07F094
:100E480026EF07F01B508009016E020E12EC16F017
:100E5800800E0A6E040ECCEC1BF0800E0A6E0A0E91
:100E6800E6EC1BF0000E016E010E12EC16F0000EFF
:100E78001E6E000E1D6E4EEF07F01D500D24D96E2C
:100E88001E500E20DA6EDF50016E090E12EC16F0BD
:100E98001D4A1E2A0F50146E156A14501D5C1550F9
:100EA8001E58D8A05AEF07F05CEF07F041EF07F0A3
:100EB8001CC001F0010E12EC16F00C0E1C18D8A480
:100EC80068EF07F06AEF07F06FEF07F0800E0A6E21
:100ED8000D0EE6EC1BF01D681E68040E43EC14F0C2
:100EE8001F6E1D06D8A01E061D501E10D8B47FEF19
:100EF80007F081EF07F092EF07F01FB086EF07F0D9
:100F080088EF07F092EF07F01F5018140009D8B4C3
:100F180090EF07F092EF07F071EF07F0800E0A6E7E
:100F28000D0ECCEC1BF01D501E10D8B49EEF07F030
:100F3800A0EF07F041EF08F0060E43EC14F0146E32
:100F48001B0E1416D8A4ABEF07F0ADEF07F03FEF78
:100F580008F0000E196E1F501B14146E14A0B7EF82
:100F680007F0B9EF07F0BBEF07F0010E196E0C0E92
:100F78001C18D8A4C2EF07F0C4EF07F041EF08F03F
:100F88000A0E43EC14F01F6E0C0E43EC14F0070B22
:100F98001A6E1A50D8B4D3EF07F0D5EF07F0F7EF71
:100FA80007F0F80E146EFF0E156E1A501FC016F0DB
:100FB800176AD89016361736D89016361736D8903E
:100FC800163617361626000E1722145016261550F8
:100FD800172212C0D9FF13C0DAFF16C0DEFF17C0F0
:100FE800DDFF01EF08F01F50080D12C0D9FF13C034
:100FF800DAFFF3CFDEFFF4CFDDFF1F50D8A407EFF1
:1010080008F009EF08F00BEF08F0010E1F6E100E44
:101018001F6411EF08F013EF08F015EF08F0100E39
:101028001F6E000E1E6E000E1D6E27EF08F01D507D
:101038001024D96E1E501120DA6E090E43EC14F0FC
:10104800DF6E1D4A1E2A1F50146E156A14501D5C4F
:1010580015501E58D8A033EF08F035EF08F01BEFF5
:1010680008F01D501024D96E1E501120DA6E000EA3
:10107800DF6E41EF08F0020E196E19501200000ED3
:101088002D6E240E2E6EF40E2F6E4A0E306E25C075
:1010980001F026C002F027C003F028C004F0000EBB
:1010A80028EC09F001C029F002C02AF003C02BF097
:1010B80004C02CF02DC001F02EC002F02FC003F0A8
:1010C80030C004F029C005F02AC006F02BC007F094
:1010D8002CC008F069EC02F001C02DF002C02EF01F
:1010E80003C02FF004C030F02850271008E1250471
:1010F8004B0E2658D8B083EF08F085EF08F0A2EF22
:1011080008F0AC942DC001F02EC002F02FC003F0FF
:1011180030C004F0000E056E000E066E800E076EDD
:10112800420E086E69EC02F001C02DF002C02EF0EC
:1011380003C02FF004C030F0BDEF08F0AC842DC020
:1011480001F02EC002F02FC003F030C004F0000EF2
:10115800056E000E066E800E076E410E086E69EC75
:1011680002F001C02DF002C02EF003C02FF004C021
:1011780030F02DC001F02EC002F02FC003F030C0B7
:1011880004F0000E056E000E066E800E076EBF0E90
:10119800086E09EC00F001C02DF002C02EF003C06B
:1011A8002FF004C030F02DC001F02EC002F02FC087
:1011B80003F030C004F021EC10F001C025F002C0AB
:1011C80026F003C027F004C028F025C001F026C08F
:1011D80002F027C003F028C004F0000E28EC09F044
:1011E80001C015F002C016F003C017F004C018F0D3
:1011F8002DC011F02EC012F02FC013F030C014F023
:1012080052EC19F011C019F012C01AF013C01BF0FB
:1012180014C01CF0000E1D6E000E1E6E000E1F6E18
:101228003F0E206EA4EC10F0D8A01DEF09F01FEFC0
:1012380009F025EF09F0010E2526000E26222722A7
:10124800282225C0AFFF1200096E0950D8B42FEF2D
:1012580009F031EF09F053EF09F004BE38EF09F057
:1012680036EF09F053EF09F001C005F002C006F0AF
:1012780003C007F004C008F0051E061E071E081E5E
:10128800052A000E06220722082205C00BF006C018
:101298000CF007C00DF008C00EF05BEF09F001C0BC
:1012A8000BF002C00CF003C00DF004C00EF00150AA
:1012B800021003100410D8A464EF09F066EF09F0D7
:1012C80070EF09F0000E016E000E026E000E036E44
:1012D800000E046E01EF0AF0960E0A6E7AEF09F01E
:1012E8000A2AD8900E320D320C320B32000E0B1433
:1012F800056E000E0C14066E000E0D14076EFE0E21
:101308000E14086E0550061007100810D8A48FEFA9
:1013180009F091EF09F074EF09F09FEF09F00A2A3C
:10132800010E0B26000E0C220D220E22D8900E3232
:101338000D320C320B32000E0B14056E000E0C141D
:10134800066E000E0D14076EFF0E0E14086E055083
:10135800061007100810D8A4B4EF09F0B6EF09F08A
:1013680093EF09F0BEEF09F00A06D8900B360C3659
:101378000D360E360DBEC3EF09F0C5EF09F0CDEFFF
:1013880009F0020E0A60CBEF09F0CDEF09F0B8EFD3
:1013980009F00AB0D2EF09F0D4EF09F0D5EF09F05F
:1013A8000D9ED8900A320AC005F0066A076A086AD4
:1013B80005C008F0076A066A056A05500B12065050
:1013C8000C1207500D1208500E120950D8B4EFEF46
:1013D80009F0F1EF09F0F9EF09F004BEF8EF09F0B0
:1013E800F6EF09F0F9EF09F00E8E0BC001F00CC012
:1013F80002F00DC003F00EC004F0120042C0D9FF85
:1014080043C0DAFFDECFF6FFDDCFF7FF0800F55067
:10141800250AD8A412EF0AF014EF0AF0C0EF0AF078
:1014280042C0D9FF43C0DAFFDE2A000EDD22000EDB
:101438000001956F000E946F94C098F095C099F0D4
:101448009669976942C0D9FF43C0DAFFDECFF6FF3D
:10145800DDCFF7FF0800F550640AD8B436EF0AF07C
:1014680038EF0AF04AEF0AF042C0D9FF43C0DAFF6A
:10147800DECFF6FFDDCFF7FF0800F550690AD8A4E4
:1014880048EF0AF04AEF0AF08AEF0AF042C0D9FFA3
:1014980043C0DAFFDE2A000EDD2244C0D9FF45C072
:1014A800DAFFDFCF46F0020EDE26DFCF47F0000E70
:1014B800DD2246C0D9FF47C0DAFFDECF48F0DDCFD6
:1014C80049F0000E49BEFF0E4A6E4B6E4C6E4D6ED3
:1014D8004E6E4F6E40C01CF041C01DF048C01EF05B
:1014E80049C01FF04AC020F04BC021F04CC022F088
:1014F8004DC023F04EC024F04FC025F036EC04F068
:101508001CC040F01DC041F0DBEF0AF042C0D9FF1B
:1015180043C0DAFFDECFF6FFDDCFF7FF0800F55056
:10152800250AD8A49AEF0AF09CEF0AF0B3EF0AF064
:1015380042C0D9FF43C0DAFFDE2A000EDD22000ECA
:10154800026E250E016E40C003F041C004F007ECA6
:1015580012F0000E416E010E406EDBEF0AF042C041
:10156800D9FF43C0DAFFDE2A000EDD22000E416EED
:10157800000E406EDBEF0AF042C0D9FF43C0DAFF2D
:10158800DECFF6FFDDCFF7FF0800F550016E026AE7
:1015980040C003F041C004F007EC12F042C0D9FF8C
:1015A80043C0DAFFDE2A000EDD22ADEF0AF012009A
:1015B8000AC001F00BC002F0000E046E0A0E036EA2
:1015C8006FEC1BF001C007F002C008F0E3EC1AF062
:1015D80000018D6F0AC001F00BC002F0000E046E0E
:1015E8000A0E036E6FEC1BF0010E0124076E000E4D
:1015F8000220086EE3EC1AF000018E6F0AC001F0B9
:101608000BC002F0000E046E0A0E036E6FEC1BF0A6
:10161800020E0124076E000E0220086EE3EC1AF099
:1016280000018F6F0AC001F00BC002F0000E046EBB
:101638000A0E036E6FEC1BF0030E0124076E000EFA
:101648000220086EE3EC1AF00001906F0AC001F066
:101658000BC002F0000E046E0A0E036E6FEC1BF056
:10166800040E0124076E000E0220086EE3EC1AF047
:101678000001916F0AC001F00BC002F0000E046E69
:101688000A0E036E6FEC1BF0050E0124076E000EA8
:101698000220086EE3EC1AF00001886F0AC001F01E
:1016A8000BC002F0000E046E0A0E036E6FEC1BF006
:1016B800060E0124076E000E0220086EE3EC1AF0F5
:1016C8000001896F0AC001F00BC002F0000E046E21
:1016D8000A0E036E6FEC1BF0070E0124076E000E56
:1016E8000220086EE3EC1AF000018A6F0AC001F0CC
:1016F8000BC002F0000E046E0A0E036E6FEC1BF0B6
:10170800080E0124076E000E0220086EE3EC1AF0A2
:1017180000018B6F0AC001F00BC002F0000E046ECE
:101728000A0E036E6FEC1BF0090E0124076E000E03
:101738000220086EE3EC1AF000018C6F1200000E14
:10174800126E10BEACEF0BF0AAEF0BF0BEEF0BF071
:10175800101E0F1E0E1E0D1E0C1E0B1E0A1E096CDF
:10176800000E0A220B220C220D220E220F2210221A
:10177800010E126E08BEC5EF0BF0C3EF0BF0D7EFEA
:101788000BF0081E071E061E051E041E031E021E61
:10179800016C000E022203220422052206220722DF
:1017A8000822010E121A20EE13F0070EDE6AE80670
:1017B800FDE209500A100B100C100D100E100F103E
:1017C8001010D8B4EAEF0BF0ECEF0BF03EEF0CF092
:1017D800010E116EFAEF0BF0D89009360A360B3667
:1017E8000C360D360E360F361036112A10AEFFEFB6
:1017F8000BF001EF0CF0F0EF0BF0D8901336143625
:10180800153616361736183619361A360950015C49
:101818000A5002580B5003580C5004580D500558E4
:101828000E5006580F50075810500858D8A01FEFF0
:101838000CF021EF0CF032EF0CF00950015E0A5069
:10184800025A0B50035A0C50045A0D50055A0E50A8
:10185800065A0F50075A1050085A1380D890103261
:101868000F320E320D320C320B320A320932112E7F
:1018780001EF0CF01250D8B444EF0CF046EF0CF026
:1018880056EF0CF01A1E191E181E171E161E151ECE
:10189800141E136C000E1422152216221722182269
:1018A80019221A2213C001F014C002F015C003F067
:1018B80016C004F017C005F018C006F019C007F0EC
:1018C8001AC008F0120008C004F009C005F00AC0E8
:1018D80006F00BC007F05CEC1BF004EF0DF0000EF7
:1018E8001A6E000E196E19500A24126E1A500B2027
:1018F800136E08C004F009C005F012C006F013C04A
:1019080007F05CEC1BF01CEC1CF0780ED9EC1BF01B
:10191800400ED9EC1BF00CC0F6FF0DC0F7FFF86ABB
:10192800070EF76403D00800F55005D0F6CFE1FFA5
:10193800F7CFE2FFE750146EE00E1424156E166A16
:10194800FF0E162219C00EF01AC00FF00E3A0F3A09
:10195800F00E0F160E500F0B0F12F00E0E1615C0CC
:1019680010F016C011F0050ED89010361136E82E7A
:10197800B8EF0CF00E501024156E0F501120166E93
:10198800000E186E000E176E710E0E6E700E0F6E32
:1019980015500E2616500F2217500E2618500F22DB
:1019A8000EC0F6FF0FC0F7FF0800F550D9EC1BF08A
:1019B800174A182A18BEEAEF0CF0185009E1100E61
:1019C800175CD8A0EAEF0CF0ECEF0CF0C8EF0CF0C5
:1019D8002EEC1CF0194A1A2A1ABEFCEF0CF01A5009
:1019E80009E1020E195CD8A0FCEF0CF0FEEF0CF038
:1019F80077EF0CF00D0E0826000E09220C4A0D2A6E
:101A08000CC0F6FF0DC0F7FFF86A070EF76403D0A5
:101A18000800F55005D0F6CFE1FFF7CFE2FFE75019
:101A28000009D8A41AEF0DF01CEF0DF073EF0CF0BD
:101A380012004DEC1AF00AC013F00BC014F0000E9F
:101A4800176E010E166EC2EF0DF016C001F017C02A
:101A580002F0000E046E0A0E036E6FEC1BF0050E0A
:101A68000124076E000E0220086EE3EC1AF0156ED2
:101A7800155000018819D8A444EF0DF046EF0DF079
:101A8800C0EF0DF016C001F017C002F0000E046E92
:101A98000A0E036E6FEC1BF0060E0124076E000E93
:101AA8000220086EE3EC1AF0156E15500001891932
:101AB800D8A461EF0DF063EF0DF0C0EF0DF016C084
:101AC80001F017C002F0000E046E0A0E036E6FECF0
:101AD8001BF0070E0124076E000E0220086EE3ECCF
:101AE8001AF0156E155000018A19D8A47EEF0DF072
:101AF80080EF0DF0C0EF0DF016C001F017C002F036
:101B0800000E046E0A0E036E6FEC1BF0080E012423
:101B1800076E000E0220086EE3EC1AF0156E1550E1
:101B280000018B19D8A49BEF0DF09DEF0DF0C0EFCD
:101B38000DF016C001F017C002F0000E046E0A0E78
:101B4800036E6FEC1BF0090E0124076E000E0220D5
:101B5800086EE3EC1AF0156E155000018C19D8A424
:101B6800B8EF0DF0BAEF0DF0C0EF0DF016C011F0A0
:101B780017C012F0D1EF0DF0164A172A1650135C51
:101B880017501458D8B0CBEF0DF0CDEF0DF029EF6A
:101B98000DF0000E126E000E116E1200000E126E85
:101BA80008BEDBEF0DF0D9EF0DF0EDEF0DF0081EDC
:101BB800071E061E051E041E031E021E016C000ED3
:101BC8000222032204220522062207220822010EED
:101BD800126E10BEF4EF0DF0F2EF0DF004EF0EF000
:101BE800101E0F1E0E1E0D1E0C1E0B1E0A1E096C4B
:101BF800000E0A220B220C220D220E220F22102286
:101C080009500A100B100C100D100E100F101010A8
:101C1800D8B411EF0EF013EF0EF05BEF0EF0010EDB
:101C2800116E21EF0EF0D89009360A360B360C36B5
:101C38000D360E360F361036112A10AE26EF0EF07E
:101C480028EF0EF017EF0EF00950015C0A50025809
:101C58000B5003580C5004580D5005580E50065898
:101C68000F50075810500858D8A03DEF0EF03FEF1E
:101C78000EF04FEF0EF00950015E0A50025A0B5059
:101C8800035A0C50045A0D50055A0E50065A0F505C
:101C9800075A1050085AD89010320F320E320D32AF
:101CA8000C320B320A320932112E28EF0EF0125084
:101CB800D8B461EF0EF063EF0EF073EF0EF0081E6C
:101CC800071E061E051E041E031E021E016C000EC2
:101CD800022203220422052206220722082201C02A
:101CE80001F002C002F003C003F004C004F005C014
:101CF80005F006C006F007C007F008C008F012009B
:101D08000001F551FDEC1BF00001F56FF451FDECFD
:101D18001BF00001F46FF351FDEC1BF00001F36FB1
:101D2800C50ED96F000EDA6FD90EDB6F7F0EDC6F30
:101D3800F5C001F0026A000E046E0A0E036ECFECC5
:101D480012F001C0DDF002C0DEF0F5C001F0026A59
:101D5800000E046E0A0E036EEBEC13F001C0DFF008
:101D680002C0E0F004EC19F0C50E026E000E036E1E
:101D78009DEC1AF0C50E0001D96F000EDA6FD90E6E
:101D8800DB6F7F0EDC6FF4C001F0026A000E046E98
:101D98000A0E036ECFEC12F001C0DDF002C0DEF0D7
:101DA800F4C001F0026A000E046E0A0E036EEBEC3A
:101DB80013F001C0DFF002C0E0F004EC19F0C50E2A
:101DC800026E000E036E9DEC1AF0C50E0001D96F6D
:101DD800000EDA6FEE0EDB6F7F0EDC6FF3C001F0E2
:101DE800026A000E046E0A0E036ECFEC12F001C0F8
:101DF800DDF002C0DEF0F3C001F0026A000E046EEE
:101E08000A0E036EEBEC13F001C0DFF002C0E0F045
:101E180004EC19F0C50E026E000E036ED1EC15F03D
:101E280012005E50D8A41BEF0FF01DEF0FF02BEF40
:101E38000FF0000E096E320E086E000E0B6E070EC4
:101E48000A6EDF0E0C6E7F0E0D6E67EC0CF05E04F2
:101E5800D8A431EF0FF033EF0FF041EF0FF0000E81
:101E6800096E320E086E000E0B6E070E0A6EF70E24
:101E78000C6E7F0E0D6E67EC0CF0020E5E18D8A487
:101E880048EF0FF04AEF0FF058EF0FF0000E096E11
:101E9800320E086E000E0B6E070E0A6EE40E0C6E04
:101EA8007F0E0D6E67EC0CF0030E5E18D8A45FEF82
:101EB8000FF061EF0FF06FEF0FF0000E096E320EAA
:101EC800086E000E0B6E070E0A6EF30E0C6E7F0E78
:101ED8000D6E67EC0CF0040E5E18D8A476EF0FF0C8
:101EE80078EF0FF086EF0FF0000E096E320E086ED5
:101EF800000E0B6E070E0A6EFB0E0C6E7F0E0D6E3B
:101F080067EC0CF0050E5E18D8A48DEF0FF08FEF7C
:101F18000FF09DEF0FF0000E096E320E086E000EE6
:101F28000B6E070E0A6EE90E0C6E7F0E0D6E67ECD7
:101F38000CF012000CEC1BF0D00ECDEC1AF0000ED9
:101F4800CDEC1AF020EC1BF0D10ECDEC1AF0010EFE
:101F58008AEC15F00001F36F010E8AEC15F0000110
:101F6800F46F010E8AEC15F00001F56FA351F51915
:101F7800D8B4C1EF0FF0C3EF0FF0C7EF0FF0F5C003
:101F8800A3F08EEC17F00001A251F419D8B4CFEFEA
:101F98000FF0D1EF0FF0D5EF0FF0F4C0A2F05AEC2C
:101FA80017F00001A151F319D8B4DDEF0FF0DFEFFE
:101FB8000FF0E3EF0FF0F3C0A1F026EC17F0010EDD
:101FC8008AEC15F0010E8AEC15F00001F06F010E95
:101FD8008AEC15F00001F16F000E8AEC15F0000193
:101FE800F26FED51F019D8B4FCEF0FF0FEEF0FF0DF
:101FF80002EF10F0BEEC16F0F0C0EDF00001EE516B
:10200800F119D8B40AEF10F00CEF10F010EF10F03F
:10201800F1C0EEF08AEC16F00001EF51F219D8B4D5
:1020280018EF10F01AEF10F01EEF10F0F2C0EFF0FA
:10203800F2EC16F0F8EC1AF01200033404340A6ECD
:102048000A50D8A42AEF10F02CEF10F036EF10F059
:10205800000E016E000E026E000E036E000E046E7E
:10206800A3EF10F001C005F002C006F003C007F0AE
:1020780004C008F0200E46EF10F0D890083207325E
:1020880006320532E82E41EF10F00550096E038E36
:10209800FF0E0116FF0E0216FF0E0316000E0416A1
:1020A800960E0A5E0ABE5DEF10F05BEF10F073EF5C
:1020B80010F00A50800A970FD8B065EF10F067EF5C
:1020C80010F069EF10F02CEF10F0D89004320332C2
:1020D800023201320A3E69EF10F08BEF10F01F0E4A
:1020E8000A6479EF10F07BEF10F083EF10F02CEF1B
:1020F80010F0D89001360236033604360A060A5024
:10210800D8A489EF10F08BEF10F07DEF10F0095094
:10211800D8B491EF10F093EF10F09BEF10F0041E7D
:10212800031E021E016C000E02220322042201C0BB
:1021380001F002C002F003C003F004C004F0120072
:10214800000E1914216E000E1A14226E800E1B1434
:10215800236E7F0E1C14246E21502210231024108D
:10216800D8A4B9EF10F0BBEF10F0C3EF10F0000ED9
:10217800196E000E1A6E000E1B6E000E1C6E000EFD
:102188001D14216E000E1E14226E800E1F14236E65
:102198007F0E2014246E2150221023102410D8A45E
:1021A800D8EF10F0DAEF10F0E2EF10F0000E1D6E2D
:1021B800000E1E6E000E1F6E000E206E1CAEE7EFA6
:1021C80010F0E9EF10F0F2EF10F0196C1A1ED8B009
:1021D8001A2A1B1ED8B01B2A800E1C5620AEF7EFF9
:1021E80010F0F9EF10F002EF11F01D6C1E1ED8B0C0
:1021F8001E2A1F1ED8B01F2A800E2056000E191A3C
:10220800000E1A1A000E1B1A800E1C1A000E1D1A38
:10221800000E1E1A000E1F1A800E201A1D50195C7F
:102228001E501A581F501B5820501C58D8B01FEF6A
:1022380011F021EF11F024EF11F0D89025EF11F0F3
:10224800D88012000F0EC16E0F0E966E959C8C9C56
:10225800F28EF28CB1EC1BF0F2EC1BF0800E256EC6
:10226800250E266E000E276E000E286E43EC08F031
:10227800CC0E026E7F0E036ED1EC15F0100E5D6E63
:10228800390E5C6E0E0EE82EFED75C2EFCD75D2E46
:10229800FAD799EC14F0DBEC18F059EC18F0000EB2
:1022A800086E010E076EE3EC1AF0160AD8B45FEF59
:1022B80011F061EF11F071EF11F0000E0D6E000ECC
:1022C8000C6E2DEC19F0000E096E010E086E160E3C
:1022D8000A6EB5EC1AF077EF11F04DEC1AF00AC05F
:1022E8009AF00BC09BF0A7EC05F05E50D8A47FEFE6
:1022F80011F081EF11F077EF11F00001A051D8B47F
:1023080088EF11F08AEF11F091EF11F09EEC0FF0C9
:1023180084EC0EF0000E0001A06F97EC11F077EF3F
:1023280011F007EF00F0000E266E000E276E48EC45
:102338001BF00009D8B4A3EF11F0A5EF11F006EFD8
:1023480012F0CF0E286E000E296E31EC1AF000093B
:10235800D8B4B1EF11F0B3EF11F004EF12F0000EA2
:102368005B6E000E5A6E000E5B6E000E5A6ECF0E3C
:102378005A24D96E000E5B20DA6E880E5A24E16E5C
:10238800000E5B20E26EDFCFE7FF5A4A5B2A5BBE96
:10239800D7EF11F05B5009E1050E5A5CD8A0D7EFD2
:1023A80011F0D9EF11F0BBEF11F01DEC0DF011C0D9
:1023B80058F012C059F058505910D8A4E6EF11F04F
:1023C800E8EF11F0F6EF11F0F2C08DF0F1C08EF0E9
:1023D800F0C08FF0F5C090F0F4C091F0A2EC1BF0C3
:1023E800FCEF11F058C00AF059C00BF0DCEC0AF011
:1023F80084EC0EF0CF0E016E000E026EF8EC19F0B0
:1024080085EC18F0120003500410D8B40EEF12F047
:1024180010EF12F019EF12F003500410D8A417EFC0
:1024280012F019EF12F01EEF12F0015043EC1CF0FD
:102438006BEF12F020EE04F00350D9260450DA2294
:10244800DE50DE10D8B42BEF12F02DEF12F048EF6B
:1024580012F020EE04F00350D9260450DA2210EED0
:1024680002F00350E1260450E222DE50E65CE6501A
:10247800800A096EDE50800A0958D8B046EF12F07B
:1024880048EF12F06BEF12F020EE02F00350D9265D
:102498000450DA22DECF05F0DDCF06F003C0D9FF05
:1024A80004C0DAFFDECF07F0DDCF08F005500724BF
:1024B800D96E06500820DA6E01C0DFFF20EE02F068
:1024C8000350D9260450DA22DE2A000EDD2212003B
:1024D800000198A172EF12F074EF12F07EEF12F083
:1024E80013C00AF014C00BF011C00CF012C00DF0AC
:1024F80098EC19F016BE83EF12F085EF12F08BEF0F
:1025080012F015C01AF016C01BF08FEF12F0000E73
:102518001B6E000E1A6E000E196E000E186EA1EFDB
:1025280012F0000E026E200E016E11C003F012C0F0
:1025380004F007EC12F0184A192A1A50185C1950BE
:10254800800A176E1B50800A1758D8A0AEEF12F0F9
:10255800B0EF12F095EF12F0000198B1B6EF12F05B
:10256800B8EF12F0C2EF12F013C00AF014C00BF06B
:1025780011C00CF012C00DF098EC19F013C001F066
:1025880014C002F069EC1AF01A500124116E1B50A5
:102598000220126E1200000E066E04BED8EF12F072
:1025A800D6EF12F0DEEF12F0036C041ED8B0042A46
:1025B800010E066E02BEE5EF12F0E3EF12F0EBEF4C
:1025C80012F0016C021ED8B0022A010E061A000E83
:1025D800086E000E076E03500410D8B4F6EF12F020
:1025E800F8EF12F020EF13F0010E056E00EF13F074
:1025F800D89003360436052A04AE05EF13F007EF2A
:1026080013F0FCEF12F0D890073608360350015C3F
:1026180004500258D8A013EF13F015EF13F01AEF77
:1026280013F00350015E0450025A0780D890043218
:102638000332052E07EF13F00650D8B426EF13F037
:1026480028EF13F02CEF13F0076C081ED8B0082AF7
:1026580007C001F008C002F012001CEC1CF0780E54
:10266800D9EC1BF0400ED9EC1BF080EF13F007C03B
:10267800F6FF08C0F7FF0800F5CF0BF0E00E0B24BB
:102688000C6E0D6AFF0E0D220CC001F00DC002F099
:10269800000E046E060E036E6FEC1BF001C00CF00A
:1026A80002C00DF0000E0F6E000E0E6E510E096E78
:1026B8007C0E0A6E0C5009260D500A220E5009266F
:1026C8000F500A2209C0F6FF0AC0F7FF0800F550AC
:1026D800D9EC1BF00E4A0F2A0FBE7CEF13F00F50F7
:1026E80009E1060E0E5CD8A07CEF13F07EEF13F024
:1026F8005AEF13F0074A082A07C0F6FF08C0F7FF89
:102708000800F5500009D8A48CEF13F08EEF13F0F1
:102718003BEF13F02EEC1CF01200000E236E000E9F
:10272800016E0D0E12EC16F020C0D9FF21C0DAFFA1
:10273800930EDF6E20EE01F02050D9262150DA22C8
:10274800200EDF6E080E0A6E080ECCEC1BF020C0BF
:102758000DF021C00EF0020E0F6E20C010F021C047
:1027680011F0240E126E000E136E0C0EFCEC06F027
:10277800266E2650D8A4C3EF13F0C5EF13F0E9EF87
:1027880013F0000E276E27502024D96E000E21204A
:10279800DA6EDF50231A272A030E2764D6EF13F0C8
:1027A800D8EF13F0C7EF13F020EE04F02050D9262D
:1027B8002150DA222350DE18D8B4E5EF13F0E7EF02
:1027C80013F0E9EF13F0020E266E26501200000EE9
:1027D800066E02BEF4EF13F0F2EF13F0FAEF13F007
:1027E800016C021ED8B0022A010E066E04BE01EF6B
:1027F80014F0FFEF13F005EF14F0036C041ED8B0CB
:10280800042A03500410D8B40CEF14F00EEF14F09F
:1028180032EF14F0010E056E16EF14F0D89003365F
:102828000436052A04AE1BEF14F01DEF14F012EF66
:1028380014F00350015C04500258D8A026EF14F09D
:1028480028EF14F02CEF14F00350015E0450025AE4
:10285800D89004320332052E1DEF14F00650D8B478
:1028680038EF14F03AEF14F03EEF14F0016C021E4A
:10287800D8B0022A01C001F002C002F01200036EB3
:10288800000E076E000E066E8B948B920350032485
:102898007E0B016E026A800E0110046E0250056EF6
:1028A800000E096E080E086E04AE5DEF14F05FEFBF
:1028B80014F062EF14F08C8063EF14F08C908B842A
:1028C800D890043605368B940806D8A00906085017
:1028D8000910D8A472EF14F074EF14F058EF14F044
:1028E800000E096E080E086E8B84D89006360736DF
:1028F80083B281EF14F085EF14F0016A012A86EFA4
:1029080014F0016A015006128B940806D8A0090633
:1029180008500910D8A493EF14F095EF14F078EF4D
:1029280014F08B828B8406501200000E34EC1BF0DE
:102938002EEC1CF0AE0E93EC1BF0D50E93EC1BF0B6
:10294800800E93EC1BF0A80E93EC1BF03F0E93EC5B
:102958001BF0D30E93EC1BF0000E93EC1BF0400E13
:1029680093EC1BF08D0E93EC1BF0140E93EC1BF004
:10297800200E93EC1BF0000E93EC1BF0A10E93ECD1
:102988001BF0C80E93EC1BF0DA0E93EC1BF0120E42
:1029980093EC1BF0810E93EC1BF0CF0E93EC1BF025
:1029A800D90E93EC1BF0F10E93EC1BF0DB0E93ECBD
:1029B8001BF0400E93EC1BF0A40E93EC1BF0A60E3C
:1029C80093EC1BF02E0E93EC1BF0AF0E93EC1BF068
:1029D8001200040E0A6E050ECCEC1BF0800E0A6E77
:1029E8000A0EE6EC1BF0000E136E07EF15F00DC093
:1029F800D9FF0EC0DAFFDF50016E090E12EC16F097
:102A08000D4A0E2A132A0F50135CD8A00EEF15F0AA
:102A180010EF15F0FBEF14F0030E016E010E12EC2F
:102A280016F01368050E43EC14F0126E13061350DB
:102A3800D8B421EF15F023EF15F02AEF15F012A402
:102A480028EF15F02AEF15F016EF15F0220E43ECDB
:102A580014F010C0D9FF11C0DAFFDF6E20EE01F0CC
:102A68001050D9261150DA22210E43EC14F0DF6EF3
:102A780012000001F55115EC1AF00001F56FF45140
:102A880015EC1AF00001F46FF35115EC1AF000017F
:102A9800F36FF25115EC1AF00001F26FF15115ECD9
:102AA8001AF00001F16FF05115EC1AF00001F06F07
:102AB8000CEC1BF0D00ECDEC1AF0000ECDEC1AF099
:102AC8000001F351CDEC1AF00001F451CDEC1AF0ED
:102AD8000001F551CDEC1AF0010ECDEC1AF0000111
:102AE800F051CDEC1AF00001F151CDEC1AF00001D3
:102AF800F251CDEC1AF0F8EC1AF0100E0C6E940EA0
:102B0800E82EFED70C2EFCD700D01200026EC7B4F8
:102B180090EF15F092EF15F08BEF15F0C5CF01F09F
:102B28001F0E0116D8A49BEF15F09DEF15F08BEF43
:102B380015F0C586C7B4A3EF15F0A5EF15F09EEF05
:102B480015F0C5CF01F01F0E0116D8A4AEEF15F091
:102B5800B0EF15F09EEF15F0C9CF03F0C7B4B7EF8B
:102B680015F0B9EF15F0B2EF15F0C5CF01F01F0E53
:102B78000116D8A4C2EF15F0C4EF15F0B2EF15F0A6
:102B88000250D8B4CAEF15F0CDEF15F0C58ACEEFD4
:102B980015F0C59AC58803501200E7EF15F002C07A
:102BA800F6FF03C0F7FFF86A070EF76403D00800C2
:102BB800F55005D0F6CFE1FFF7CFE2FFE75008EC7C
:102BC8001CF0024A032A02C0F6FF03C0F7FFF86AA6
:102BD800070EF76403D00800F55005D0F6CFE1FFE3
:102BE800F7CFE2FFE7500009D8A4FDEF15F0FFEF9B
:102BF80015F0D3EF15F00A0EAD6EACA206EF16F085
:102C080008EF16F001EF16F00D0EAD6EACA20FEF47
:102C180016F011EF16F00AEF16F01200026E8B9400
:102C28008B92025002247E0B036E080E046E03AED4
:102C380020EF16F022EF16F025EF16F08C8026EF25
:102C480016F08C908B84D89003368B94040604502D
:102C5800D8A431EF16F033EF16F01BEF16F0080E7C
:102C6800046E01AE3AEF16F03CEF16F03FEF16F0A7
:102C78008C8040EF16F08C908B84D89001368B9422
:102C880004060450D8A44BEF16F04DEF16F035EFBC
:102C980016F08B828B841200000E066E000E056EF5
:102CA80003500410D8B45BEF16F05DEF16F085EF13
:102CB80016F0010E076E65EF16F0D890033604364D
:102CC800072A04AE6AEF16F06CEF16F061EF16F003
:102CD800D890053606360350015C04500258D8A037
:102CE80078EF16F07AEF16F07FEF16F00350015EDA
:102CF8000450025A0580D89004320332072E6CEF34
:102D080016F005C001F006C002F01200C50E000161
:102D1800D96F000EDA6FD30EDB6F7F0EDC6FF1C058
:102D280001F0026A000E046E0A0E036ECFEC12F078
:102D380001C0DDF002C0DEF0F1C001F0026A000E51
:102D4800046E0A0E036EEBEC13F001C0DFF002C054
:102D5800E0F004EC19F0000E096E320E086E000E59
:102D68000B6E060E0A6EC50E0C6E000E0D6E67EC2D
:102D78000CF01200C50E0001D96F000EDA6FEE0ECE
:102D8800DB6F7F0EDC6FF0C001F0026A000E046E8C
:102D98000A0E036ECFEC12F001C0DDF002C0DEF0C7
:102DA800F0C001F0026A000E046E0A0E036EEBEC2E
:102DB80013F001C0DFF002C0E0F004EC19F0000EDF
:102DC800096E5A0E086E000E0B6E060E0A6EC50EC0
:102DD8000C6E000E0D6E67EC0CF01200C50E0001B3
:102DE800D96F000EDA6FD30EDB6F7F0EDC6FF2C087
:102DF80001F0026A000E046E0A0E036ECFEC12F0A8
:102E080001C0DDF002C0DEF0F2C001F0026A000E7F
:102E1800046E0A0E036EEBEC13F001C0DFF002C083
:102E2800E0F004EC19F0000E096E0A0E086E000EB0
:102E38000B6E060E0A6EC50E0C6E000E0D6E67EC5C
:102E48000CF01200C50E0001D96F000EDA6FEE0EFD
:102E5800DB6F7F0EDC6FF3C001F0026A000E046EB8
:102E68000A0E036ECFEC12F001C0DDF002C0DEF0F6
:102E7800F3C001F0026A000E046E0A0E036EEBEC5A
:102E880013F001C0DFF002C0E0F004EC19F0000E0E
:102E9800096E5A0E086E000E0B6E050E0A6EC50EF0
:102EA8000C6E000E0D6E67EC0CF01200C50E0001E2
:102EB800D96F000EDA6FD90EDB6F7F0EDC6FF4C0AE
:102EC80001F0026A000E046E0A0E036ECFEC12F0D7
:102ED80001C0DDF002C0DEF0F4C001F0026A000EAD
:102EE800046E0A0E036EEBEC13F001C0DFF002C0B3
:102EF800E0F004EC19F0000E096E320E086E000EB8
:102F08000B6E050E0A6EC50E0C6E000E0D6E67EC8C
:102F18000CF01200C50E0001D96F000EDA6FD90E41
:102F2800DB6F7F0EDC6FF5C001F0026A000E046EE5
:102F38000A0E036ECFEC12F001C0DDF002C0DEF025
:102F4800F5C001F0026A000E046E0A0E036EEBEC87
:102F580013F001C0DFF002C0E0F004EC19F0000E3D
:102F6800096E0A0E086E000E0B6E050E0A6EC50E6F
:102F78000C6E000E0D6E67EC0CF01200226E070E40
:102F8800016E0D0E12EC16F020C0D9FF21C0DAFF39
:102F980022C0DFFF20C00DF021C00EF0010E0F6E21
:102FA80020C010F021C011F0240E126E000E136E16
:102FB8000C0EFCEC06F0236E2350D8A4E6EF17F0B5
:102FC800E8EF17F0F2EF17F0100E24182510D8B418
:102FD800F0EF17F0F2EF17F0F4EF17F0020E236E90
:102FE8002350120003500410D8B4FDEF17F0FFEF80
:102FF80017F023EF18F0010E056E07EF18F0D890C0
:1030080003360436052A04AE0CEF18F00EEF18F05C
:1030180003EF18F00350015C04500258D8A017EFD2
:1030280018F019EF18F01DEF18F00350015E045066
:10303800025AD89004320332052E0EEF18F001C060
:1030480001F002C002F0120052C056F053C057F00F
:10305800000E0001936F000E926F46EF18F050C0FB
:1030680040F051C041F0560E426E000E436E54C0FF
:1030780044F055C045F002EC0AF040500001922798
:103088004150932356C0F6FF57C0F7FF0800F5508C
:103098000009D8A452EF18F054EF18F033EF18F0E5
:1030A80092C050F093C051F012009492949495906D
:1030B800958295968B828C86BFEC1BF08D0E016EE7
:1030C8002A0E12EC16F03E0E016E2B0E12EC16F0C4
:1030D8001E0E016E2D0E12EC16F0000E016E2C0E57
:1030E80012EC16F0400E016E150E12EC16F03D0EA5
:1030F800016E110E12EC16F037EC1CF013EC1CF0FC
:103108001200500E206E000E216E200E0D6E000E65
:103118000E6E020E0F6E220E106E000E116EEDEC8A
:1031280014F0800E0A6E080ECCEC1BF0200E0D6E0B
:10313800000E0E6E040E0F6E200E106E000E116E35
:10314800240E126E000E136E0C0EFCEC06F0080E28
:103158000A6E080ECCEC1BF01200000E056E000E75
:10316800046E000E076E000E066E5CEC1BF01CEC85
:103178001CF0780ED9EC1BF0400ED9EC1BF0000EB9
:10318800096E000E086E000ED9EC1BF0084A092AD9
:1031980009BED6EF18F0040E095CD8A0D6EF18F0D7
:1031A800D8EF18F0C7EF18F02EEC1CF01200B1ECB5
:1031B80018F0000E096E000E086E000E0B6E000E61
:1031C8000A6EC20E0C6E7F0E0D6E67EC0CF0000ED0
:1031D800056E000E046E000E076E020E066E5CECA5
:1031E8001BF0B00E076E7F0E086E31EC13F08EECFC
:1031F80017F05AEC17F026EC17F015EC0FF0120048
:10320800DD0E0001E36F000EE46FD9C0E5F0DAC00F
:10321800E6F0000EE86F000EE76F000EEA6F000E92
:10322800E96FE50E506E000E516EDBC052F0DCC047
:1032380053F0E30E546E000E556E28EC18F00001A2
:10324800E751D925D96EE851DA21DA6E000EDF6E22
:103258001200000E096E020E086E0CC001F00DC0BF
:1032680002F0000E046E640E036E50EC16F001506E
:103278000A6EB5EC1AF0000E096E030E086E0CC04B
:1032880001F00DC002F0000E046E640E036EF6EC41
:1032980017F001500A6EB5EC1AF01200000E151A5C
:1032A800000E161A000E171A800E181A11C001F017
:1032B80012C002F013C003F014C004F015C005F0EA
:1032C80016C006F017C007F018C008F009EC00F0A7
:1032D80001C011F002C012F003C013F004C014F0D2
:1032E800120006009EA07BEF19F07DEF19F096EF13
:1032F80019F000019C4B9D2B9D5109E1020E9C5D2C
:10330800D8A089EF19F08BEF19F091EF19F0010EA1
:10331800A06F000E9D6F000E9C6F150ECF6EB10E44
:10332800CE6E9E905F921100000E106E000E0F6E12
:10333800A9EF19F00EC001F0026A0CC003F00DC02D
:1033480004F007EC12F00F4A102A0F500A24D96E25
:1033580010500B20DA6EDF500E6E0E50D8A4B7EF67
:1033680019F0B9EF19F09EEF19F0120014BEC7EF6B
:1033780019F0145006E11304D8B0C5EF19F0C7EFDF
:1033880019F0D5EF19F013C015F014C016F0151E7A
:10339800161E154A162A15C013F016C014F0D9EFD8
:1033A80019F013C013F014C014F012007A0EF66E60
:1033B800380EF76E000EF86E00EEEBF010EE0BF024
:1033C8000900F5CFEEFFE550E150FAE100EE60F0BC
:1033D800790EEE6AE806FDE15E6A5F905F92000E84
:1033E800F86E000126EF11F0000E046E000E036E59
:1033F80003500124D96E04500220DA6E000EDF6EED
:10340800034A042A04BE12EF1AF0045009E10A0E16
:10341800035CD8A012EF1AF014EF1AF0FCEF19F0C1
:1034280012000B6E0BC001F0026A000E046E0A0E49
:10343800036EEBEC13F001C009F002C00AF00BC0F8
:1034480001F0026A000E046E0A0E036ECFEC12F051
:103458000150100DF3500924120028C020F029C093
:1034680021F091EC13F02A6E20EE05F02850D926B1
:103478002950DA22000EDF6E2A50D8A446EF1AF03F
:1034880048EF1AF04BEF1AF0010E4CEF1AF0000E4D
:103498001200000E086E020E076EE3EC1AF00C6EB6
:1034A8000C500F6E106A000E086E030E076EE3ECE8
:1034B8001AF00C6E0F500D6E0C500F6E0DC010F000
:1034C8000FC00AF010C00BF0120001C003F002C0D8
:1034D80004F071EF1AF0014A022A01C0D9FF02C0B4
:1034E800DAFFDF50D8A47BEF1AF07DEF1AF06FEF08
:1034F8001AF00350015C016E04500258026E12006B
:10350800C586C7A08AEF1AF08CEF1AF085EF1AF07B
:10351800C9CF01F082EC1BF0C58AC588C5B897EF02
:103528001AF099EF1AF092EF1AF02EEC1CF00150F5
:103538001200A8EF1AF002C0D9FF03C0DAFFDF506B
:1035480008EC1CF0024A032A02C0D9FF03C0DAFFC4
:10355800DF50D8A4B2EF1AF0B4EF1AF09FEF1AF0C8
:1035680012001CEC1CF0A00ED9EC1BF00950D9EC91
:103578001BF00850D9EC1BF00A50D9EC1BF02EECCC
:103588001CF00D0E0B6EFC0EE82EFED70B2EFCD792
:103598001200026EC7B4D3EF1AF0D5EF1AF0CEEFCF
:1035A8001AF0C5CF01F01F0E0116D8A4DEEF1AF0ED
:1035B800E0EF1AF0CEEF1AF002C0C9FF12001CECBF
:1035C8001CF0A00ED9EC1BF00850D9EC1BF00750EA
:1035D800D9EC1BF025EC1CF0A10ED9EC1BF084EC07
:1035E8001AF0096E09501200C7B4FDEF1AF0FFEF88
:1035F8001AF0F8EF1AF0C5CF01F01F0E0116D8A483
:1036080008EF1BF00AEF1BF0F8EF1AF0C584120060
:10361800C7B411EF1BF013EF1BF00CEF1BF0C5CF75
:1036280001F01F0E0116D8A41CEF1BF01EEF1BF0B3
:103638000CEF1BF0C5801200C7B425EF1BF027EF75
:103648001BF020EF1BF0C5CF01F01F0E0116D8A408
:1036580030EF1BF032EF1BF020EF1BF0C582120099
:10366800016E938093820150D8A43DEF1BF03FEF89
:103678001BF042EF1BF0C78E43EF1BF0C79E280ECE
:10368800C66E770EC86E120026C020F027C021F043
:10369800260EC2EC17F00009D8A455EF1BF057EF1F
:1036A8001BF05AEF1BF0010E5BEF1BF0000E12002F
:1036B800210E93EC1BF0045093EC1BF07F0E93EC5F
:1036C8001BF0220E93EC1BF0065093EC1BF0070E38
:1036D80093EC1BF0120001500302F3CF05F0F4CF76
:1036E80006F001500402F350062602500302F3507C
:1036F800062605C001F006C002F01200C7B487EF25
:103708001BF089EF1BF082EF1BF0C5AC8EEF1BF0AE
:1037180090EF1BF092EF1BF02EEC1CF01200026EE3
:103728001CEC1CF0780ED9EC1BF0000ED9EC1BF049
:103738000250D9EC1BF02EEC1CF012004DEC1AF0E4
:103748000AC011F00BC012F0114A122A11C00CF075
:1037580012C00DF02DEC19F01200CD8ECD9CCD9637
:10376800CD92150ECF6EB10ECE6ECD80300ECD122D
:103778009D809E9012008C8600D08C9600D08C86FE
:1037880000D00F0E016E010E12EC16F000D01200E0
:103798000C6E0C5043EC14F00B6E0A50FF0A0B141D
:1037A800016E0C5012EC16F01200016E01C0C9FF38
:1037B800C7B0E1EF1BF0E3EF1BF0DCEF1BF082EC8E
:1037C8001BF012000C6E0C5043EC14F00B6E0B50F7
:1037D8000A10016E0C5012EC16F01200AC98AC8A6C
:1037E800AC9CAB8EAB9CAB88AC84B8969E9A9D8AF9
:1037F8001200026E02C001F00F0E011602380F0B04
:103808000A0DF35001241200016E01C0ADFFACA2F5
:1038180010EF1CF012EF1CF00BEF1CF01200140E4E
:1038280043EC14F0030E0A6E140EE6EC1BF01200C3
:10383800C580C5B022EF1CF024EF1CF01DEF1CF072
:103848001200C582C5B22BEF1CF02DEF1CF026EF3D
:103858001CF01200C584C5B434EF1CF036EF1CF020
:103868002FEF1CF01200030E0A6E140ECCEC1BF0A6
:0D3878001200A1001C0A151C0A15013116D2
:0238860012002E
:107070000000000000000000000000000000000010
:107080000000000000000000000000000000000000
:107090000000000000F8FCFCFCF80000000000000C
:1070A0000000000000007373730000000000000087
:1070B00000000000001E3E3E0000003E3E1E00009C
:1070C00000000000000000000000000000000000C0
:1070D0000000303030FEFE30303030FEFE303030D8
:1070E00000000C0C0C7F7F0C0C0C0C7F7F0C0C0C2C
:1070F00000000000F0F898FE9898FE98981800009C
:10710000000000001819197F19197F191F0F0000BE
:10711000000000000038383880C0E07038000000FF
:1071200000000000001C0E0703011C1C1C000000D6
:107130000000000038FCC4C4FC38000000800000DF
:10714000000000001E3F2121333F1E1E3723000098
:107150000000000000203C3C1C000000000000007B
:10716000000000000000000000000000000000001F
:107170000000000000C0E0F0381C0C040400000017
:10718000000000000003070F1C3830202000000022
:10719000000000000004040C1C38F0E0C0000000F7
:1071A0000000000000202030381C0F070300000002
:1071B000000000808890E0E0FCFCE0E09088800027
:1071C00000000001110907073F3F070709110100EF
:1071D0000000000000808080F0F0808080000000CF
:1071E00000000000000101010F0F0101010000007B
:1071F000000000000000000000000000000000008F
:107200000000000000407878380000000000000016
:10721000000000008080808080808080808000006E
:107220000000000001010101010101010101000054
:10723000000000000000000000000000000000004E
:107240000000000000003838380000000000000096
:107250000000000000000000000080C0E070381C4A
:10726000000000002030381C0E0703010000000061
:1072700000000000F8FCFC0484E474FCFCF800004E
:10728000000000001F3F3F2E2721203F3F1F00002E
:1072900000000000606060F0FCFC000000000000E6
:1072A000000000002020203F3F3F20202000000061
:1072B00000000000181C1C040484CCFC7830000082
:1072C0000000000030383C2E2723213838380000D9
:1072D00000000000181C1C848484CC7C78300000E2
:1072E00000000000183838212121333E1E0C000018
:1072F0000000000080C0603018FCFCFC00000000B2
:107300000000000003030323233F3F3F232300002B
:1073100000000000FCFCFC848484848404040000DD
:1073200000000000193939212121333F1F0E0000D0
:1073300000000000E0F0F89C8C8484848000000051
:10734000000000001F3F3F212121213F3F1F00007F
:10735000000000003C3C3C0404040484FCFC7C0071
:1073600000000000000000383C3E07030100000060
:1073700000000000787CFCC4C48484FC7C7800009D
:10738000000000001E3E3F212123233F3E1E00003F
:1073900000000000F8FCFC84848484FCFCF80000FD
:1073A00000000000000121212131391F0F070000DA
:1073B000000000000000007070700000000000007D
:1073C000000000000000000E0E0E00000000000093
:1073D000000000000000007070700000000000005D
:1073E000000000000000101E1E0E00000000000043
:1073F0000000000080C0E070381C0E060200000093
:10740000000000000103070E1C38706040000000FF
:1074100000000060606060606060606060606000EC
:107420000000000606060606060606060606060014
:107430000000000002060E1C3870E0C08000000052
:1074400000000000406070381C0E070301000000BF
:1074500000000000181C0C0E0686CEFC7C380000D4
:1074600000000000000000007373730000000000C3
:1074700000000000FCFEFE0202C2C2C2FEFEFC00D2
:10748000000000003F3F7F6060636363634303006D
:1074900000000000E0F0F81C0C0C1CF8F0E000000C
:1074A000000000003F3F3F020202023F3F3F00005A
:1074B0000000000004FCFCFC848484FCFC780000D8
:1074C00000000000203F3F3F2121213F3F1E0000E0
:1074D00000000000F0F8FC0C0404041C1C18000060
:1074E000000000000F1F3F30202020383818000017
:1074F0000000000004FCFCFC04040CFCF8F000009C
:1075000000000000203F3F3F2020303F1F0F0000C1
:107510000000000004FCFCFC848484C4CC1C00003B
:1075200000000000203F3F3F21212123333800008D
:107530000000000004FCFCFC848484C4CC1C00001B
:1075400000000000203F3F3F210101030300000035
:1075500000000000F0F8FC0C0404043C3C3800007F
:10756000000000000F1F3F302022223E3E3E000060
:1075700000000000FCFCFC808080FCFCFC000000A3
:10758000000000003F3F3F0101013F3F3F0000007E
:1075900000000000000404FCFCFC040400000000E7
:1075A000000000000020203F3F3F2020000000009E
:1075B00000000000000000000404FCFCFC040400C7
:1075C0000000001E1E3E202020203F3F1F00000024
:1075D0000000000004FCFCFCC0E0703C1C0C00003F
:1075E00000000000203F3F3F03070E3C3830000002
:1075F0000000000004FCFCFC04000000000000008F
:1076000000000000203F3F3F20202030383C000099
:1076100000000000FCFCFC78F0E0F078FCFCFC00D2
:10762000000000003F3F3F00000100003F3F3F00DF
:1076300000000000FCFCFC70E0C08000FCFCFC00D2
:10764000000000003F3F3F00000103073F3F3F00B5
:1076500000000000E0F0F81C0C0C0C1CF8F0E0003E
:1076600000000000070F1F38303030381F0F0700B0
:107670000000000004FCFCFC848484FCFC78000016
:1076800000000000203F3F3F2101010101000000F8
:1076900000000000E0F8F81C0C040C1CF8F8E000F6
:1076A00000000000071F1F18185C5E7E7F7F4700E8
:1076B0000000000004FCFCFC848484FCFC780000D6
:1076C00000000000203F3F3F0101033F3F3C00001E
:1076D0000000000078FCFC84848484BC3C380000FA
:1076E000000000001C3C3D212121213F3F1E0000E5
:1076F000000000001C0C0404FCFCFC04040C1C0036
:1077000000000000000020203F3F3F20200000003C
:1077100000000000FCFCFC000000FCFCFC00000081
:10772000000000001F3F3F2020203F3F1F000000BF
:1077300000000000FCFCFC000000FCFCFC00000061
:1077400000000000070F1F3830381F0F070000002F
:1077500000000000FCFCFC0000800000FCFCFC00C1
:1077600000000000030F3F3C3C0F3C3C3F0F030078
:10777000000000001C3C7CE0C0E07C3C1C000000E1
:1077800000000000383C3E0703073E3C3800000084
:10779000000000007CFCFC800080FCFC7C00000001
:1077A000000000000020213F3F3F2120000000009A
:1077B000000000003C1C0C0484C4E47C3C1C000061
:1077C00000000000383C3E2723212030383C0000D8
:1077D000000000000000FCFCFC04040404000000A5
:1077E0000000000000003F3F3F202020200000005C
:1077F000000000001C3870E0C080000000000000A5
:1078000000000000000000000103070E1C183020DB
:1078100020000000000004040404FCFCFC00000044
:10782000000000000000202020203F3F3F0000001B
:10783000000000002030381C0E0E1C3830200000E4
:107840000000000000000000000000000000000038
:107850000000000000000000000000000000000028
:107860000000C0C0C0C0C0C0C0C0C0C0C0C0C0C098
:10787000C00000000C0C3C30300000000000000094
:1078800000000000000000000000000000000000F8
:1078900000000000004040404040C0C080000000A8
:1078A000000000001C3E3E2222223F1F3F2000001D
:1078B0000000000004FCFCFC404040C0C080000010
:1078C00000000000203F1F3F2020203F3F1F0000FE
:1078D0000000000080C0C0404040C0C080000000E8
:1078E000000000001F3F3F20202039391900000010
:1078F0000000000080C0C0404044FCFCFC040000CC
:10790000000000001F3F3F2020203F1F3F200000BD
:107910000000000080C0C0404040C0C080000000A7
:10792000000000001F3F3F2222223B3B1B000000C3
:10793000000000008080F8FCFC849C9C1800000083
:107940000000000021213F3F3F21210100000000F5
:107950000000000080C0C0404040C080C040000027
:107960000000000047CFDF989898FFFF7F000000DD
:107970000000000004FCFCFC804040C0C08000000F
:1079800000000000203F3F3F0100003F3F3F00005C
:107990000000000000404040DCDCDC000000000093
:1079A00000000000002020203F3F3F20202000005A
:1079B00000000000000000404040DCDCDC00000073
:1079C000000000002060E08080C0FFFF7F0000001A
:1079D0000000000004FCFCFC000080C0C04000006F
:1079E00000000000203F3F3F02070F3D38300000FD
:1079F0000000000000040404FCFCFC000000000087
:107A000000000000002020203F3F3F2020200000F9
:107A100000000000C0C0C04040C04040C0C0800066
:107A2000000000003F3F3F00003F00003F3F3F009D
:107A300000000000C0C0C0404040C0C08000000046
:107A4000000000003F3F3F0000003F3F3F000000BC
:107A50000000000080C0C0404040C0C08000000066
:107A6000000000001F3F3F2020203F3F1F0000007C
:107A70000000000040C080C0404040C0C080000006
:107A80000000000080FFFFFF9010101F1F0F00007C
:107A900000000080C0C0404040C080C040000000E6
:107AA0000000000F1F1F101090FFFFFF800000005C
:107AB0000000000040C0C0C080C0C0C0C080000046
:107AC00000000000203F3F3F2100000101010000B5
:107AD0000000000080C0C040404040C08000000066
:107AE00000000000193B232626263C3D190000001B
:107AF000000000004040E0F0F8404040400000003E
:107B00000000000000001F3F3F2038381800000030
:107B100000000000C0C0C0000000C0C0C0000000E5
:107B2000000000001F3F3F2020203F1F3F2000009B
:107B300000000000C0C0C0000000C0C0C0000000C5
:107B400000000000070F1F3830381F0F070000002B
:107B500000000000C0C0C00000000000C0C0C000A5
:107B600000000000070F3F38380E38383F0F07007D
:107B700000000000C0C0C00000C0C0C00000000085
:107B80000000000030393F0F0F3F39300000000087
:107B90000000000000C0C0C0000000C0C0C0000065
:107BA0000000000080878F9FD8F8783F0F07000003
:107BB00000000000C0C0404040C0C0C00000000045
:107BC0000000000031383C2E27233138000000002F
:107BD000000000008080C0787C3C040404040000A5
:107BE000000000000101031E3E3C20202020000078
:107BF0000000000000000000FEFEFE00000000008B
:107C000000000000000000007F7F7F0000000000F7
:107C100000000000040404043C7C78C08080000064
:107C200000000000202020203C3E1E030101000037
:107C3000000000383C3C040C1C3830203C3C1C004C
:107C40000000000000000000000000000000000034
:107C5000000000000000000000002F0000000007EE
:107C600000070000147F147F1400242A7F2A1200CA
:107C700023130864620036495522500000050300B2
:107C80000000001C224100000041221C00001408DA
:107C90003E08140008083E0808000000A06000002C
:107CA00008080808080000606000000020100804B0
:107CB00002003E5149453E0000427F4000004261C3
:107CC000514946002141454B31001814127F1000E4
:107CD0002745454539003C4A4949300001710905AD
:107CE0000300364949493600064949291E00003635
:107CF0003600000000563600000008142241000043
:107D00001414141414000041221408000201510933
:107D10000600324959513E007C1211127C007F4905
:107D2000494936003E41414122007F4141221C0029
:107D30007F49494941007F09090901003E414949FC
:107D40007A007F0808087F0000417F410000204042
:107D5000413F01007F08142241007F404040400025
:107D60007F020C027F007F0408107F003E414141EA
:107D70003E007F09090906003E4151215E007F094E
:107D80001929460046494949310001017F01010096
:107D90003F4040403F001F2040201F003F403840F0
:107DA0003F0063140814630007087008070061515E
:107DB00049454300007F414100AA55AA55AA5500F4
:107DC0000041417F000004020102040040404040A5
:107DD00040000003050000002054545478007F4800
:107DE00044443800384444442000384444487F0028
:107DF000385454541800087E0901020018A4A4A4A1
:107E00007C007F080404780000447D40000040802E
:107E1000847D00007F102844000000417F40000066
:107E20007C04180478007C08040478003844444436
:107E30003800FC242424180018242418FC007C0892
:107E400004040800485454542000043F44402000D7
:107E50003C4040207C001C2040201C003C40304026
:107E60003C004428102844001CA0A0A07C004464CE
:107E7000544C440000107C8200000000FF00000011
:107E800000827C100000000609090600000003A023
:107E900000C00C00F94F806BEB00988C8052A580DD
:107EA00003000001C88089C00050850021C200087D
:107EB0004000208200002000188C00FA2F804BE048
:107EC000805A66808AA500E08F80EAAB0072A90024
:107ED0009A8C00FAAF804AA70001400009400021B7
:107EE000488051450089420042660072A6807A8728
:107EF00080FAA500722500FA2700FAA880FA880007
:107F0000722B00F88F808BE8808BE800F88D80F86A
:107F10002080F90F80F9CF80722700FA8400722741
:107F200040FA85804AA90083E800F02F00E06E0047
:107F3000F0EF00D88D80C0EC009AAC8003E880C0E0
:107F400081808BE00042040008208002040031237D
:107F500080F92300312480312F8031628023EA00B0
:107F6000255380F9038002E00006E000F842800318
:107F7000E0007987803903803123007D2300312799
:107F8000C078840029400043E40070270060660048
:107F900070670048C48074578059E68023E88003E6
:107FA00060008BE200610C00C000F000FC00FF00EC
:107FB000524547495354524F20504552534F4E411A
:107FC0004C004C45434F4D5045525500496E696336
:107FD000696F00256425642D00256425643A00201E
:107FE00020202000484F524100594541520025644D
:107FF000256400444941004D494E004D4553000061
:020000040020DA
:08000000FFFFFFFFFFFFFFFF00
:020000040030CA
:0E000000010E191EFF0080FF0FC00FE00F4021
:00000001FF
