:020000040000FA
:0400000007EF00F016
:100008005F82FDED0EF057EF0EF00450800B0D6E81
:10001800045004240F6E03AE14EF00F016EF00F046
:1000280017EF00F00F800F50D8B41DEF00F01FEF4E
:1000380000F034EF00F00F28D8A425EF00F027EFE8
:1000480000F02FEF00F0000E016E000E026E000EA1
:10005800036E000E046E038E000E046E3CEF00F07B
:10006800000E016E000E026E000E036E000E046E8E
:100078000850800B0E6E0D500E18D8B446EF00F0E5
:1000880048EF00F049EF00F00D8C085008240E6E80
:1000980007AE51EF00F053EF00F054EF00F00E8080
:1000A8000E50D8B45AEF00F05CEF00F071EF00F09A
:1000B8000E28D8A462EF00F064EF00F06CEF00F0B7
:1000C800000E056E000E066E000E076E000E086E1E
:1000D800078E000E086E79EF00F0000E056E000E18
:1000E800066E000E076E000E086E0F500E5CD8B03C
:1000F80080EF00F082EF00F0A9EF00F00DAC87EF81
:1001080000F089EF00F08BEF00F0800E0D1A0FC0A1
:1001180010F00EC00FF010C00EF001C010F005C0B6
:1001280001F010C005F002C010F006C002F010C0C7
:1001380006F003C010F007C003F010C007F004C0B9
:1001480010F008C004F010C008F0000E106E0F5038
:100158000EC009F00A6A095E000E0A5A0ABEBEEF0E
:1001680000F00A5009E11A0E095CD8A0BEEF00F0B1
:10017800C0EF00F0F7EF00F0015002100310041078
:10018800D8A4C9EF00F0CCEF00F0010ECDEF00F0DD
:10019800000E106E000E016E000E026E000E036E51
:1001A800000E046E0EC00FF000EF01F010A0DFEF9C
:1001B80000F0E1EF00F0E7EF00F0D890103001090F
:1001C800106EE9EF00F0D890103201A0EEEF00F0C9
:1001D800F0EF00F0F1EF00F0108E04340432033237
:1001E800023201320F2A0E500F5CD8A0FEEF00F049
:1001F80000EF01F0DAEF00F00DBC05EF01F007EFBA
:1002080001F047EF01F00F50D8A40DEF01F00FEF08
:1002180001F019EF01F0000E016E000E026E000EE3
:10022800036E000E046E68EF02F0055001260650BA
:100238000222075003220850042204A026EF01F0EE
:1002480028EF01F0D4EF01F010A02DEF01F02FEF0F
:1002580001F035EF01F0D89010300109106E37EF3A
:1002680001F0D890103201A03CEF01F03EEF01F010
:100278003FEF01F0108E04340432033202320132AF
:100288000F2AD4EF01F00550015C065002580750C0
:1002980003580450800A096E0850800A0958D8B0DB
:1002A80058EF01F05AEF01F085EF01F00150055CBD
:1002B800096E025006580A6E035007580B6E045018
:1002C80008580C6EFF0E0924016EFF0E0A20026EFC
:1002D800FF0E0B20036EFF0E0C20046E800E0D1A0D
:1002E800106C1050D8A47BEF01F07DEF01F08DEF7A
:1002F80001F0010E0126000E0222032204228DEFD6
:1003080001F00550015E0650025A0750035A085082
:10031800045A0150021003100410D8A496EF01F0FB
:1003280098EF01F0CDEF01F01050D8A49EEF01F046
:10033800A0EF01F0CDEF01F0000E016E000E026E8D
:10034800000E036E000E046E68EF02F0D8900136BE
:1003580002360336043610AEB4EF01F0B6EF01F002
:10036800B7EF01F0018010A0BCEF01F0BEEF01F083
:10037800C2EF01F0D8801036C4EF01F0D8901036E3
:100388000F50D8B4CAEF01F0CCEF01F0CDEF01F077
:100398000F0603AED2EF01F0D4EF01F0AAEF01F09F
:1003A800000E0E6E10AEDBEF01F0DDEF01F0F5EFA1
:1003B80001F010C009F07F0E0916D8B4E6EF01F07D
:1003C800E8EF01F0ECEF01F0010E0E6EF5EF01F031
:1003D80001A0F1EF01F0F3EF01F0F5EF01F0E8EF24
:1003E80001F00E50D8B4FBEF01F0FDEF01F028EF5B
:1003F80002F0010E0126000E02220322042204A0AC
:1004080008EF02F00AEF02F028EF02F001C009F04D
:1004180002C00AF003C00BF004C00CF00C340C321C
:100428000B320A32093209C001F00AC002F00BC0CF
:1004380003F00CC004F00F28D8B425EF02F027EF22
:1004480002F028EF02F00F2A0F28D8B42EEF02F09E
:1004580030EF02F038EF02F00F50D8A436EF02F078
:1004680038EF02F04AEF02F0000E016E000E026E45
:10047800000E036E000E046E0F50D8A446EF02F073
:1004880048EF02F04AEF02F0000E0D6E0FA04FEF9A
:1004980002F051EF02F054EF02F0038E55EF02F034
:1004A800039ED8900F30046E0DAE5DEF02F05FEF43
:1004B80002F060EF02F0048E01C001F002C002F009
:1004C80003C003F004C004F012000450800B116E46
:1004D80004500424186E03AE74EF02F076EF02F0B5
:1004E80077EF02F018801850D8B47DEF02F07FEF54
:1004F80002F094EF02F01828D8A485EF02F087EFF5
:1005080002F08FEF02F0000E016E000E026E000E78
:10051800036E000E046E038E000E046E9CEF02F054
:10052800000E016E000E026E000E036E000E046EC9
:100538000850800B111A08500824196E07AEA7EF4F
:1005480002F0A9EF02F0AAEF02F019801950D8B40E
:10055800B0EF02F0B2EF02F0C7EF02F01928D8A40A
:10056800B8EF02F0BAEF02F0C2EF02F0000E056E2B
:10057800000E066E000E076E000E086E078E000E47
:10058800086ECFEF02F0000E056E000E066E000E2C
:10059800076E000E086E0550061007100810D8A444
:1005A800D8EF02F0DAEF02F0F2EF02F0000E016E7F
:1005B800000E026E000E036E000E046E800E031213
:1005C8007F0E04121150041201C001F002C002F0A3
:1005D80003C003F004C004F035EF04F01850D8A4A9
:1005E800F8EF02F0FAEF02F004EF03F0000E016EEC
:1005F800000E026E000E036E000E046E35EF04F05E
:10060800195018C009F00A6A095E000E0A5A7F0ECE
:100618000924126E000E0A20136E01C00DF002C0EC
:100628000EF003C00FF004C010F0000E016E000EB3
:10063800026E000E036E000E046E000E146E000EA5
:10064800156E000E166E000E176E000E196E65EF11
:1006580003F01950D8B433EF03F035EF03F04CEF43
:1006680003F0D8900D360E360F361036D890013676
:1006780002360336043617AE44EF03F046EF03F0B4
:1006880047EF03F00180D890143615361636173622
:1006980005500D5C06500E5807500F58085010585A
:1006A800D8A059EF03F05BEF03F064EF03F0178C69
:1006B80005500D5E06500E5A07500F5A0850105A32
:1006C800192A190E19646BEF03F06DEF03F02DEF83
:1006D80003F00D500E100F101010D8B476EF03F081
:1006E80078EF03F090EF03F0148090EF03F0D890C8
:1006F800013602360336043617AE85EF03F087EF6E
:1007080003F088EF03F00180D890143615361636BA
:1007180017361206D8A0130603AE95EF03F097EF2D
:1007280003F07BEF03F0000E196E17AE9EEF03F097
:10073800A0EF03F0C4EF03F0FF0E1414096EFF0ED0
:1007480015140A6EFF0E16140B6E7F0E17140C6E1E
:1007580009500A100B100C10D8B4B5EF03F0B7EF1E
:1007680003F0BBEF03F0010E196EC4EF03F001A014
:10077800C0EF03F0C2EF03F0C4EF03F0B7EF03F0EC
:100788001950D8B4CAEF03F0CCEF03F0F0EF03F040
:10079800010E0126000E02220322042204A0D7EF34
:1007A80003F0D9EF03F0F0EF03F001C009F002C045
:1007B8000AF003C00BF004C00CF00C340C320B32FE
:1007C8000A32093209C001F00AC002F00BC003F076
:1007D8000CC004F0124A132A13BEFBEF03F01350A7
:1007E80008E11228D8A0FBEF03F0FDEF03F008EFB3
:1007F80004F0000E136E1268000E016E000E026EF9
:10080800000E036E000E046E13BE15EF04F01350B5
:1008180006E11204D8B013EF04F015EF04F023EF4B
:1008280004F0000E136E000E126E000E016E000E24
:10083800026E000E036E000E046E000E116E12C0E2
:1008480018F018A02AEF04F02CEF04F02FEF04F0B2
:10085800038E30EF04F0039ED8901830046EE6EF54
:1008680002F012001EC036F01FC037F020C038F06A
:1008780021C039F022C03AF023C03BF024C03CF03C
:1008880025C03DF03DBE4BEF04F04EEF04F0010EE5
:100898004FEF04F0000E346E356A34503510D8B47A
:1008A80058EF04F05AEF04F06AEF04F03D1E3C1EC6
:1008B8003B1E3A1E391E381E371E366C000E372274
:1008C800382239223A223B223C223D2200018DBFA8
:1008D80070EF04F072EF04F073EF04F05D928DBFD7
:1008E80080EF04F08D5106E18C05D8B07EEF04F05E
:1008F80080EF04F086EF04F0000E316E010E306ECA
:100908008AEF04F08CC030F08DC031F08AC032F02C
:100918008BC033F034503510D8A495EF04F097EF1E
:1009280004F09EEF04F05DA49CEF04F09EEF04F049
:10093800A1EF04F03206D8A03306000E3F6E1F0E5A
:100948003E6E000EB36F25EF05F03E06D8A03F06B9
:10095800940E3E24D96E000E3F20DA6E36C001F0A8
:1009680037C002F038C003F039C004F03AC005F0CF
:100978003BC006F03CC007F03DC008F00A0E096E07
:10098800000E0A6E000E0B6E000E0C6E000E0D6E41
:10099800000E0E6E000E0F6E000E106E02EC09F0C7
:1009A80001C026F002C027F003C028F004C029F0D7
:1009B80005C02AF006C02BF007C02CF008C02DF0A7
:1009C80026C013F028C014F042EC0FF01350300F7B
:1009D800DF6E3006D8A031063206D8A0330636C0FE
:1009E80001F037C002F038C003F039C004F03AC053
:1009F80005F03BC006F03CC007F03DC008F00A0E09
:100A0800096E000E0A6E000E0B6E000E0C6E000EC4
:100A18000D6E000E0E6E000E0F6E000E106E3EEC88
:100A280008F001C036F002C037F003C038F004C047
:100A380039F005C03AF006C03BF007C03CF008C0EA
:100A48003DF03FBE30EF05F03F5008E13E04D8A02E
:100A580030EF05F032EF05F062EF05F03650371051
:100A6800381039103A103B103C103D10D8A43FEF15
:100A780005F041EF05F0A9EF04F031BE4EEF05F0A7
:100A8800315006E13004D8B04CEF05F04EEF05F0D8
:100A9800A9EF04F033BE59EF05F0335008E13204F2
:100AA800D8A059EF05F05BEF05F062EF05F05DB2F5
:100AB80060EF05F062EF05F0A9EF04F0345035104F
:100AC800D8A469EF05F06BEF05F072EF05F05DA4AF
:100AD80070EF05F072EF05F090EF05F03E06D8A034
:100AE8003F0634503510D8A47CEF05F07EEF05F0B2
:100AF80084EF05F0000E2F6E2B0E2E6E88EF05F09A
:100B0800000E2F6E2D0E2E6E940E3E24D96E000E02
:100B18003F20DA6E2EC0DFFF1CC011F01DC012F09E
:100B2800940E3E24136E000E3F20146E32C015F052
:100B380033C016F00EEC0CF011C01CF012C01DF002
:100B48001200000E2D6E240E2E6EF40E2F6E4A0E1D
:100B5800306E25C001F026C002F027C003F028C07F
:100B680004F0000E8AEC06F001C029F002C02AF059
:100B780003C02BF004C02CF02DC001F02EC002F0F1
:100B88002FC003F030C004F029C005F02AC006F0D9
:100B98002BC007F02CC008F069EC02F001C02DF062
:100BA80002C02EF003C02FF004C030F028502710E8
:100BB80008E125044B0E2658D8B0E5EF05F0E7EF1D
:100BC80005F004EF06F0AC942DC001F02EC002F041
:100BD8002FC003F030C004F0000E056E000E066E44
:100BE800800E076E420E086E69EC02F001C02DF00F
:100BF80002C02EF003C02FF004C030F01FEF06F043
:100C0800AC842DC001F02EC002F02FC003F030C01C
:100C180004F0000E056E000E066E800E076E410E83
:100C2800086E69EC02F001C02DF002C02EF003C07E
:100C38002FF004C030F02DC001F02EC002F02FC0FC
:100C480003F030C004F0000E056E000E066E800E34
:100C5800076EBF0E086E09EC00F001C02DF002C04F
:100C68002EF003C02FF004C030F02DC001F02EC0CC
:100C780002F02FC003F030C004F042EC0AF001C0CB
:100C880025F002C026F003C027F004C028F025C0D4
:100C980001F026C002F027C003F028C004F0000EBF
:100CA8008AEC06F001C015F002C016F003C017F078
:100CB80004C018F02DC011F02EC012F02FC013F090
:100CC80030C014F0DAEC0EF011C019F012C01AF0AE
:100CD80013C01BF014C01CF0000E1D6E000E1E6E1B
:100CE800000E1F6E3F0E206EC5EC0AF0D8A07FEFF5
:100CF80006F081EF06F087EF06F0010E2526000EBC
:100D080026222722282225C0AFFF1200096E09508B
:100D1800D8B491EF06F093EF06F0B5EF06F004BEF5
:100D28009AEF06F098EF06F0B5EF06F001C005F06F
:100D380002C006F003C007F004C008F0051E061E36
:100D4800071E081E052A000E06220722082205C0D3
:100D58000BF006C00CF007C00DF008C00EF0BDEF98
:100D680006F001C00BF002C00CF003C00DF004C087
:100D78000EF00150021003100410D8A4C6EF06F0BC
:100D8800C8EF06F0D2EF06F0000E016E000E026EFC
:100D9800000E036E000E046E63EF07F0960E0A6EE7
:100DA800DCEF06F00A2AD8900E320D320C320B32E4
:100DB800000E0B14056E000E0C14066E000E0D14BA
:100DC800076EFE0E0E14086E055006100710081068
:100DD800D8A4F1EF06F0F3EF06F0D6EF06F001EF36
:100DE80007F00A2A010E0B26000E0C220D220E22F5
:100DF800D8900E320D320C320B32000E0B14056EE9
:100E0800000E0C14066E000E0D14076EFF0E0E1465
:100E1800086E0550061007100810D8A416EF07F042
:100E280018EF07F0F5EF06F020EF07F00A06D89064
:100E38000B360C360D360E360DBE25EF07F027EFB4
:100E480007F02FEF07F0020E0A602DEF07F02FEFE3
:100E580007F01AEF07F00AB034EF07F036EF07F0A3
:100E680037EF07F00D9ED8900A320AC005F0066ADF
:100E7800076A086A05C008F0076A066A056A055025
:100E88000B1206500C1207500D1208500E12095082
:100E9800D8B451EF07F053EF07F05BEF07F004BE4B
:100EA8005AEF07F058EF07F05BEF07F00E8E0BC014
:100EB80001F00CC002F00DC003F00EC004F01200E7
:100EC80042C0D9FF43C0DAFFDECFF6FFDDCFF7FF20
:100ED8000800F550250AD8A474EF07F076EF07F05C
:100EE80022EF08F042C0D9FF43C0DAFFDE2A000E25
:100EF800DD22000E00018B6F000E8A6F8AC05DF044
:100F08008BC05EF08C698D6942C0D9FF43C0DAFF9F
:100F1800DECFF6FFDDCFF7FF0800F550640AD8B43E
:100F280098EF07F09AEF07F0ACEF07F042C0D9FF4F
:100F380043C0DAFFDECFF6FFDDCFF7FF0800F5503C
:100F4800690AD8A4AAEF07F0ACEF07F0ECEF07F0B6
:100F580042C0D9FF43C0DAFFDE2A000EDD2244C0BA
:100F6800D9FF45C0DAFFDFCF46F0020EDE26DFCF1D
:100F780047F0000EDD2246C0D9FF47C0DAFFDECFBA
:100F880048F0DDCF49F0000E49BEFF0E4A6E4B6EA9
:100F98004C6E4D6E4E6E4F6E40C01CF041C01DF041
:100FA80048C01EF049C01FF04AC020F04BC021F0D5
:100FB8004CC022F04DC023F04EC024F04FC025F0A5
:100FC80036EC04F01CC040F01DC041F03DEF08F0C5
:100FD80042C0D9FF43C0DAFFDECFF6FFDDCFF7FF0F
:100FE8000800F550250AD8A4FCEF07F0FEEF07F03B
:100FF80015EF08F042C0D9FF43C0DAFFDE2A000E21
:10100800DD22000E026E250E016E40C003F041C0C5
:1010180004F047EC0BF0000E416E010E406E3DEF00
:1010280008F042C0D9FF43C0DAFFDE2A000EDD22F5
:10103800000E416E000E406E3DEF08F042C0D9FF31
:1010480043C0DAFFDECFF6FFDDCFF7FF0800F5502B
:10105800016E026A40C003F041C004F047EC0BF097
:1010680042C0D9FF43C0DAFFDE2A000EDD220FEFAF
:1010780008F01200000E126E10BE47EF08F045EFA0
:1010880008F059EF08F0101E0F1E0E1E0D1E0C1E44
:101098000B1E0A1E096C000E0A220B220C220D22BE
:1010A8000E220F221022010E126E08BE60EF08F009
:1010B8005EEF08F072EF08F0081E071E061E051EF8
:1010C800041E031E021E016C000E022203220422CB
:1010D8000522062207220822010E121A20EE13F01A
:1010E800070EDE6AE806FDE209500A100B100C1024
:1010F8000D100E100F101010D8B485EF08F087EF00
:1011080008F0D9EF08F0010E116E95EF08F0D890AD
:1011180009360A360B360C360D360E360F361036B3
:10112800112A10AE9AEF08F09CEF08F08BEF08F048
:10113800D89013361436153616361736183619362B
:101148001A360950015C0A5002580B5003580C50CB
:1011580004580D5005580E5006580F500758105097
:101168000858D8A0BAEF08F0BCEF08F0CDEF08F0A7
:101178000950015E0A50025A0B50035A0C50045A87
:101188000D50055A0E50065A0F50075A1050085A5B
:101198001380D89010320F320E320D320C320B32CF
:1011A8000A320932112E9CEF08F01250D8B4DFEF42
:1011B80008F0E1EF08F0F1EF08F01A1E191E181EEA
:1011C800171E161E151E141E136C000E142215224F
:1011D80016221722182219221A2213C001F014C04D
:1011E80002F015C003F016C004F017C005F018C0CF
:1011F80006F019C007F01AC008F01200000E126EAF
:1012080008BE0BEF09F009EF09F01DEF09F0081E01
:10121800071E061E051E041E031E021E016C000E7C
:101228000222032204220522062207220822010E96
:10123800126E10BE24EF09F022EF09F034EF09F026
:10124800101E0F1E0E1E0D1E0C1E0B1E0A1E096CF4
:10125800000E0A220B220C220D220E220F2210222F
:1012680009500A100B100C100D100E100F10101052
:10127800D8B441EF09F043EF09F08BEF09F0010E04
:10128800116E51EF09F0D89009360A360B360C3634
:101298000D360E360F361036112A10AE56EF09F0FD
:1012A80058EF09F047EF09F00950015C0A5002585D
:1012B8000B5003580C5004580D5005580E50065842
:1012C8000F50075810500858D8A06DEF09F06FEF6D
:1012D80009F07FEF09F00950015E0A50025A0B50DD
:1012E800035A0C50045A0D50055A0E50065A0F5006
:1012F800075A1050085AD89010320F320E320D3259
:101308000C320B320A320932112E58EF09F0125002
:10131800D8B491EF09F093EF09F0A3EF09F0081E94
:10132800071E061E051E041E031E021E016C000E6B
:10133800022203220422052206220722082201C0D3
:1013480001F002C002F003C003F004C004F005C0BD
:1013580005F006C006F007C007F008C008F0120044
:101368005C508BEC10F05C6E5B508BEC10F05B6E9D
:101378005A508BEC10F05A6ED00E0001BE6F000E62
:10138800BF6FEA0EC06F7F0EC16F5CC001F0026ACA
:10139800000E046E0A0E036EACEC0BF001C0C2F036
:1013A80002C0C3F05CC001F0026A000E046E0A0EAF
:1013B800036E6FEC0CF001C0C4F002C0C5F0B1ECD4
:1013C8000EF0D00E026E000E036EB2EC0FF0D00ECF
:1013D8000001BE6F000EBF6FEA0EC06F7F0EC16FB7
:1013E8005BC001F0026A000E046E0A0E036EACECDC
:1013F8000BF001C0C2F002C0C3F05BC001F0026A8A
:10140800000E046E0A0E036E6FEC0CF001C0C4F0FF
:1014180002C0C5F0B1EC0EF0D00E026E000E036EE5
:10142800B2EC0FF0D00E0001BE6F000EBF6FF50ECC
:10143800C06F7F0EC16F5AC001F0026A000E046EC1
:101448000A0E036EACEC0BF001C0C2F002C0C3F090
:101458005AC001F0026A000E046E0A0E036E6FECA9
:101468000CF001C0C4F002C0C5F0B1EC0EF0D00E13
:10147800026E000E036EA5EC0DF012000334043466
:101488000A6E0A50D8A44BEF0AF04DEF0AF057EF56
:101498000AF0000E016E000E026E000E036E000EC2
:1014A800046EC4EF0AF001C005F002C006F003C0E4
:1014B80007F004C008F0200E67EF0AF0D890083251
:1014C800073206320532E82E62EF0AF00550096E3F
:1014D800038EFF0E0116FF0E0216FF0E0316000EF6
:1014E8000416960E0A5E0ABE7EEF0AF07CEF0AF03A
:1014F80094EF0AF00A50800A970FD8B086EF0AF0E6
:1015080088EF0AF08AEF0AF04DEF0AF0D89004321B
:101518000332023201320A3E8AEF0AF0ACEF0AF0D7
:101528001F0E0A649AEF0AF09CEF0AF0A4EF0AF083
:101538004DEF0AF0D89001360236033604360A0613
:101548000A50D8A4AAEF0AF0ACEF0AF09EEF0AF00E
:101558000950D8B4B2EF0AF0B4EF0AF0BCEF0AF0C1
:10156800041E031E021E016C000E02220322042226
:1015780001C001F002C002F003C003F004C004F08F
:101588001200000E1914216E000E1A14226E800E1D
:101598001B14236E7F0E1C14246E2150221023105E
:1015A8002410D8A4DAEF0AF0DCEF0AF0E4EF0AF02E
:1015B800000E196E000E1A6E000E1B6E000E1C6EC9
:1015C800000E1D14216E000E1E14226E800E1F14B4
:1015D800236E7F0E2014246E215022102310241015
:1015E800D8A4F9EF0AF0FBEF0AF003EF0BF0000EB6
:1015F8001D6E000E1E6E000E1F6E000E206E1CAEBD
:1016080008EF0BF00AEF0BF013EF0BF0196C1A1E32
:10161800D8B01A2A1B1ED8B01B2A800E1C5620AE22
:1016280018EF0BF01AEF0BF023EF0BF01D6C1E1EDA
:10163800D8B01E2A1F1ED8B01F2A800E2056000EB2
:10164800191A000E1A1A000E1B1A800E1C1A000E08
:101658001D1A000E1E1A000E1F1A800E201A1D5089
:10166800195C1E501A581F501B5820501C58D8B0CF
:1016780040EF0BF042EF0BF045EF0BF0D89046EF40
:101688000BF0D880120003500410D8B44EEF0BF0C2
:1016980050EF0BF059EF0BF003500410D8A457EF9C
:1016A8000BF059EF0BF05EEF0BF00150C0EC10F0AF
:1016B800ABEF0BF020EE04F00350D9260450DA22E9
:1016C800DE50DE10D8B46BEF0BF06DEF0BF088EF47
:1016D8000BF020EE04F00350D9260450DA2210EE65
:1016E80002F00350E1260450E222DE50E65CE650A8
:1016F800800A096EDE50800A0958D8B086EF0BF0D0
:1017080088EF0BF0ABEF0BF020EE02F00350D92678
:101718000450DA22DECF05F0DDCF06F003C0D9FF92
:1017280004C0DAFFDECF07F0DDCF08F0055007244C
:10173800D96E06500820DA6E01C0DFFF20EE02F0F5
:101748000350D9260450DA22DE2A000EDD221200C8
:10175800000E066E04BEB5EF0BF0B3EF0BF0BBEF57
:101768000BF0036C041ED8B0042A010E066E02BEEC
:10177800C2EF0BF0C0EF0BF0C8EF0BF0016C021ECC
:10178800D8B0022A010E061A000E086E000E076E67
:1017980003500410D8B4D3EF0BF0D5EF0BF0FDEFE6
:1017A8000BF0010E056EDDEF0BF0D8900336043612
:1017B800052A04AEE2EF0BF0E4EF0BF0D9EF0BF0E3
:1017C800D890073608360350015C04500258D8A058
:1017D800F0EF0BF0F2EF0BF0F7EF0BF00350015EB8
:1017E8000450025A0780D89004320332052EE4EFE1
:1017F8000BF00650D8B403EF0CF005EF0CF009EF2E
:101808000CF0076C081ED8B0082A07C001F008C001
:1018180002F012005DA013EF0CF015EF0CF01FEFB3
:101828000CF013C00AF014C00BF011C00CF012C079
:101838000DF020EC0FF016BE24EF0CF026EF0CF0A4
:101848002CEF0CF015C01AF016C01BF030EF0CF09E
:10185800000E1B6E000E1A6E000E196E000E186E2A
:1018680042EF0CF0000E026E200E016E11C003F064
:1018780012C004F047EC0BF0184A192A1A50185CE9
:101888001950800A176E1B50800A1758D8A04FEFBE
:101898000CF051EF0CF036EF0CF05DB056EF0CF099
:1018A80058EF0CF062EF0CF013C00AF014C00BF004
:1018B80011C00CF012C00DF020EC0FF013C001F0B5
:1018C80014C002F07EEC0FF01A500124116E1B5068
:1018D8000220126E1200000E066E02BE78EF0CF0A7
:1018E80076EF0CF07EEF0CF0016C021ED8B0022AE5
:1018F800010E066E04BE85EF0CF083EF0CF089EF45
:101908000CF0036C041ED8B0042A03500410D8B499
:1019180090EF0CF092EF0CF0B6EF0CF0010E056EA4
:101928009AEF0CF0D89003360436052A04AE9FEFE0
:101938000CF0A1EF0CF096EF0CF00350015C045092
:101948000258D8A0AAEF0CF0ACEF0CF0B0EF0CF0F6
:101958000350015E0450025AD89004320332052E17
:10196800A1EF0CF00650D8B4BCEF0CF0BEEF0CF0B1
:10197800C2EF0CF0016C021ED8B0022A01C001F0BF
:1019880002C002F01200000E31EC10F0B3EC10F0BF
:10199800AE0E56EC10F0D50E56EC10F0800E56EC4C
:1019A80010F0A80E56EC10F03F0E56EC10F0D30EC7
:1019B80056EC10F0000E56EC10F0400E56EC10F0FD
:1019C8008D0E56EC10F0140E56EC10F0200E56EC5E
:1019D80010F0000E56EC10F0A10E56EC10F0C80EE8
:1019E80056EC10F0DA0E56EC10F0120E56EC10F021
:1019F800810E56EC10F0CF0E56EC10F0D90E56ECC6
:101A080010F0F10E56EC10F0DB0E56EC10F0400E14
:101A180056EC10F0A40E56EC10F0A60E56EC10F092
:101A28002E0E56EC10F0AF0E56EC10F01200026EAF
:101A3800C7B421EF0DF023EF0DF01CEF0DF0C5CF6B
:101A480001F01F0E0116D8A42CEF0DF02EEF0DF0AB
:101A58001CEF0DF0C586C7B434EF0DF036EF0DF06E
:101A68002FEF0DF0C5CF01F01F0E0116D8A43FEFE0
:101A78000DF041EF0DF02FEF0DF0C9CF03F0C7B413
:101A880048EF0DF04AEF0DF043EF0DF0C5CF01F030
:101A98001F0E0116D8A453EF0DF055EF0DF043EFCC
:101AA8000DF00250D8B45BEF0DF05EEF0DF0C58A73
:101AB8005FEF0DF0C59AC588035012005C5062ECC8
:101AC8000FF05C6E5B5062EC0FF05B6E5A5062EC8C
:101AD8000FF05A6E595062EC0FF0596E585062EC84
:101AE8000FF0586E0001DC5162EC0FF00001DC6F62
:101AF80009EC10F0D00ECAEC0FF0000ECAEC0FF093
:101B08005A50CAEC0FF05B50CAEC0FF05C50CAECAC
:101B18000FF0010ECAEC0FF00001DC51CAEC0FF017
:101B28005850CAEC0FF05950CAEC0FF0F5EC0FF012
:101B3800100E0C6E940EE82EFED70C2EFCD700D09B
:101B48001200BBEF0DF002C0F6FF03C0F7FFF86A02
:101B5800070EF76403D00800F55005D0F6CFE9FF6B
:101B6800F7CFEAFFEF5096EC10F0024A032A02C0C2
:101B7800F6FF03C0F7FFF86A070EF76403D0080002
:101B8800F55005D0F6CFE9FFF7CFEAFFEF5000098F
:101B9800D8A4D1EF0DF0D3EF0DF0A7EF0DF00A0E9A
:101BA800AD6EACA2DAEF0DF0DCEF0DF0D5EF0DF075
:101BB8000D0EAD6EACA2E3EF0DF0E5EF0DF0DEEF2C
:101BC8000DF01200700ED3120F0EC16EF28EF28C51
:101BD80065EC10F080EC10F0800E256E250E266E58
:101BE800000E276E000E286EA5EC05F0D50E026ECD
:101BF8007F0E036EA5EC0DF0C7EC0CF062EC0DF057
:101C0800000E036E010E026EE0EC0FF0000E036E84
:101C1800100E026EE0EC0FF096EC10F000019251FD
:101C2800D8B419EF0EF01BEF0EF012EF0EF085ECA2
:101C38000EF0B4EC09F0000E0001926F12EF0EF0F6
:101C480007EF00F052C056F053C057F0000E0001E5
:101C5800896F000E886F44EF0EF050C040F051C0FD
:101C680041F0560E426E000E436E54C044F055C00B
:101C780045F064EC07F04050000188274150892363
:101C880056C0F6FF57C0F7FF0800F5500009D8A462
:101C980050EF0EF052EF0EF031EF0EF088C050F01A
:101CA80089C051F012007D0EF66E210EF76E000EFF
:101CB800F86E0900F5CFDAF00900F5CFDBF009007E
:101CC800F5CFDCF0780EF66E210EF76E000EF86E8A
:101CD80000EE58F010EE05F00900F5CFEEFFE550E4
:101CE800E150FAE100EE60F05E0EEE6AE806FDE112
:101CF8005E6A5D6A5F905F92000EF86E0001E6EF23
:101D08000DF009EC10F0D00ECAEC0FF0000ECAEC82
:101D18000FF01DEC10F0D10ECAEC0FF0010E1BEC09
:101D28000DF05A6E010E1BEC0DF05B6E010E1BECF4
:101D38000DF05C6E010E1BEC0DF0010E1BEC0DF0AE
:101D48000001DC6F010E1BEC0DF0586E000E1BEC51
:101D58000DF0596EF5EC0FF01200C20E0001C86FBD
:101D6800000EC96FBEC0CAF0BFC0CBF0000ECD6F69
:101D7800000ECC6F000ECF6F000ECE6FCA0E506EE5
:101D8800000E516EC0C052F0C1C053F0C80E546E60
:101D9800000E556E26EC0EF00001CC51BE25D96E12
:101DA800CD51BF21DA6E000EDF6E1200000E151A3B
:101DB800000E161A000E171A800E181A11C001F01C
:101DC80012C002F013C003F014C004F015C005F0EF
:101DD80016C006F017C007F018C008F009EC00F0AC
:101DE80001C011F002C012F003C013F004C014F0D7
:101DF800120006009EA003EF0FF005EF0FF01EEF94
:101E08000FF000018E4B8F2B8F5109E1020E8E5D72
:101E1800D8A011EF0FF013EF0FF019EF0FF0010E2C
:101E2800926F000E8F6F000E8E6F150ECF6EB10E73
:101E3800CE6E9E905F921100000E106E000E0F6E17
:101E480031EF0FF00EC001F0026A0CC003F00DC0B4
:101E580004F047EC0BF00F4A102A0F500A24D96EF1
:101E680010500B20DA6EDF500E6E0E50D8A43FEFE4
:101E78000FF041EF0FF026EF0FF0120014BE4FEFF6
:101E88000FF0145006E11304D8B04DEF0FF04FEFE8
:101E98000FF05DEF0FF013C015F014C016F0151E0B
:101EA800161E154A162A15C013F016C014F061EF55
:101EB8000FF013C013F014C014F012000B6E0BC017
:101EC80001F0026A000E046E0A0E036E6FEC0CF04D
:101ED80001C009F002C00AF00BC001F0026A000E4E
:101EE800046E0A0E036EACEC0BF00150100DF350AB
:101EF8000924120001C003F002C004F086EF0FF0BD
:101F0800014A022A01C0D9FF02C0DAFFDF50D8A473
:101F180090EF0FF092EF0FF084EF0FF00350015C99
:101F2800016E04500258026E1200C586C7A09FEFCA
:101F38000FF0A1EF0FF09AEF0FF0C9CF01F045ECC9
:101F480010F0C58AC588C5B8ACEF0FF0AEEF0FF03A
:101F5800A7EF0FF0B3EC10F001501200BDEF0FF037
:101F680002C0D9FF03C0DAFFDF5096EC10F0024A36
:101F7800032A02C0D9FF03C0DAFFDF50D8A4C7EF95
:101F88000FF0C9EF0FF0B4EF0FF01200026EC7B4F4
:101F9800D0EF0FF0D2EF0FF0CBEF0FF0C5CF01F07D
:101FA8001F0E0116D8A4DBEF0FF0DDEF0FF0CBEF1B
:101FB8000FF002C0C9FF1200A1EC10F0A00E73ECE4
:101FC80010F0035073EC10F0025073EC10F0AAEC10
:101FD80010F0A10E73EC10F099EC0FF0046E0450A1
:101FE8001200C7B4FAEF0FF0FCEF0FF0F5EF0FF0A7
:101FF800C5CF01F01F0E0116D8A405EF10F007EFAA
:1020080010F0F5EF0FF0C5841200C7B40EEF10F012
:1020180010EF10F009EF10F0C5CF01F01F0E0116F8
:10202800D8A419EF10F01BEF10F009EF10F0C580DD
:102038001200C7B422EF10F024EF10F01DEF10F0DB
:10204800C5CF01F01F0E0116D8A42DEF10F02FEF09
:1020580010F01DEF10F0C5821200016E938093827C
:102068000150D8A43AEF10F03CEF10F03FEF10F019
:10207800C78E40EF10F0C79E280EC66E770EC86E4A
:102088001200C7B44AEF10F04CEF10F045EF10F013
:10209800C5AC51EF10F053EF10F055EF10F0B3EC62
:1020A80010F01200026EA1EC10F0780E73EC10F034
:1020B800000E73EC10F0025073EC10F0B3EC10F05B
:1020C8001200CD8ECD9CCD96CD92150ECF6EB10E51
:1020D800CE6ECD80300ECD129D809E901200016E86
:1020E80001C0C9FFC7B07BEF10F07DEF10F076EFAD
:1020F80010F045EC10F01200AC98AC8AAC9CAB8E9A
:10210800AB9CAB88AC84B8969E9A9D8A1200026EEE
:1021180002C001F00F0E011602380F0B0A0DF35022
:1021280001241200016E01C0ADFFACA29EEF10F0B9
:10213800A0EF10F099EF10F01200C580C5B0A7EF1E
:1021480010F0A9EF10F0A2EF10F01200C582C5B28E
:10215800B0EF10F0B2EF10F0ABEF10F01200C58442
:10216800C5B4B9EF10F0BBEF10F0B4EF10F01200E7
:0A2178000A14013116A10001120043
:10707400000000000000000000000000000000000C
:1070840000000000000000000000000000000000FC
:107094000000000000F8FCFCFCF800000000000008
:1070A4000000000000007373730000000000000083
:1070B40000000000001E3E3E0000003E3E1E000098
:1070C40000000000000000000000000000000000BC
:1070D4000000303030FEFE30303030FEFE303030D4
:1070E40000000C0C0C7F7F0C0C0C0C7F7F0C0C0C28
:1070F40000000000F0F898FE9898FE989818000098
:10710400000000001819197F19197F191F0F0000BA
:10711400000000000038383880C0E07038000000FB
:1071240000000000001C0E0703011C1C1C000000D2
:107134000000000038FCC4C4FC38000000800000DB
:10714400000000001E3F2121333F1E1E3723000094
:107154000000000000203C3C1C0000000000000077
:10716400000000000000000000000000000000001B
:107174000000000000C0E0F0381C0C040400000013
:10718400000000000003070F1C383020200000001E
:10719400000000000004040C1C38F0E0C0000000F3
:1071A4000000000000202030381C0F0703000000FE
:1071B400000000808890E0E0FCFCE0E09088800023
:1071C40000000001110907073F3F070709110100EB
:1071D4000000000000808080F0F0808080000000CB
:1071E40000000000000101010F0F01010100000077
:1071F400000000000000000000000000000000008B
:107204000000000000407878380000000000000012
:10721400000000008080808080808080808000006A
:107224000000000001010101010101010101000050
:10723400000000000000000000000000000000004A
:107244000000000000003838380000000000000092
:107254000000000000000000000080C0E070381C46
:10726400000000002030381C0E070301000000005D
:1072740000000000F8FCFC0484E474FCFCF800004A
:10728400000000001F3F3F2E2721203F3F1F00002A
:1072940000000000606060F0FCFC000000000000E2
:1072A400000000002020203F3F3F2020200000005D
:1072B40000000000181C1C040484CCFC783000007E
:1072C4000000000030383C2E2723213838380000D5
:1072D40000000000181C1C848484CC7C78300000DE
:1072E40000000000183838212121333E1E0C000014
:1072F4000000000080C0603018FCFCFC00000000AE
:107304000000000003030323233F3F3F2323000027
:1073140000000000FCFCFC848484848404040000D9
:1073240000000000193939212121333F1F0E0000CC
:1073340000000000E0F0F89C8C848484800000004D
:10734400000000001F3F3F212121213F3F1F00007B
:10735400000000003C3C3C0404040484FCFC7C006D
:1073640000000000000000383C3E0703010000005C
:1073740000000000787CFCC4C48484FC7C78000099
:10738400000000001E3E3F212123233F3E1E00003B
:1073940000000000F8FCFC84848484FCFCF80000F9
:1073A40000000000000121212131391F0F070000D6
:1073B4000000000000000070707000000000000079
:1073C400000000000000000E0E0E0000000000008F
:1073D4000000000000000070707000000000000059
:1073E400000000000000101E1E0E0000000000003F
:1073F4000000000080C0E070381C0E06020000008F
:10740400000000000103070E1C38706040000000FB
:1074140000000060606060606060606060606000E8
:107424000000000606060606060606060606060010
:107434000000000002060E1C3870E0C0800000004E
:1074440000000000406070381C0E070301000000BB
:1074540000000000181C0C0E0686CEFC7C380000D0
:1074640000000000000000007373730000000000BF
:1074740000000000FCFEFE0202C2C2C2FEFEFC00CE
:10748400000000003F3F7F60606363636343030069
:1074940000000000E0F0F81C0C0C1CF8F0E0000008
:1074A400000000003F3F3F020202023F3F3F000056
:1074B4000000000004FCFCFC848484FCFC780000D4
:1074C40000000000203F3F3F2121213F3F1E0000DC
:1074D40000000000F0F8FC0C0404041C1C1800005C
:1074E400000000000F1F3F30202020383818000013
:1074F4000000000004FCFCFC04040CFCF8F0000098
:1075040000000000203F3F3F2020303F1F0F0000BD
:107514000000000004FCFCFC848484C4CC1C000037
:1075240000000000203F3F3F212121233338000089
:107534000000000004FCFCFC848484C4CC1C000017
:1075440000000000203F3F3F210101030300000031
:1075540000000000F0F8FC0C0404043C3C3800007B
:10756400000000000F1F3F302022223E3E3E00005C
:1075740000000000FCFCFC808080FCFCFC0000009F
:10758400000000003F3F3F0101013F3F3F0000007A
:1075940000000000000404FCFCFC040400000000E3
:1075A400000000000020203F3F3F2020000000009A
:1075B40000000000000000000404FCFCFC040400C3
:1075C4000000001E1E3E202020203F3F1F00000020
:1075D4000000000004FCFCFCC0E0703C1C0C00003B
:1075E40000000000203F3F3F03070E3C38300000FE
:1075F4000000000004FCFCFC04000000000000008B
:1076040000000000203F3F3F20202030383C000095
:1076140000000000FCFCFC78F0E0F078FCFCFC00CE
:10762400000000003F3F3F00000100003F3F3F00DB
:1076340000000000FCFCFC70E0C08000FCFCFC00CE
:10764400000000003F3F3F00000103073F3F3F00B1
:1076540000000000E0F0F81C0C0C0C1CF8F0E0003A
:1076640000000000070F1F38303030381F0F0700AC
:107674000000000004FCFCFC848484FCFC78000012
:1076840000000000203F3F3F2101010101000000F4
:1076940000000000E0F8F81C0C040C1CF8F8E000F2
:1076A40000000000071F1F18185C5E7E7F7F4700E4
:1076B4000000000004FCFCFC848484FCFC780000D2
:1076C40000000000203F3F3F0101033F3F3C00001A
:1076D4000000000078FCFC84848484BC3C380000F6
:1076E400000000001C3C3D212121213F3F1E0000E1
:1076F400000000001C0C0404FCFCFC04040C1C0032
:1077040000000000000020203F3F3F202000000038
:1077140000000000FCFCFC000000FCFCFC0000007D
:10772400000000001F3F3F2020203F3F1F000000BB
:1077340000000000FCFCFC000000FCFCFC0000005D
:1077440000000000070F1F3830381F0F070000002B
:1077540000000000FCFCFC0000800000FCFCFC00BD
:1077640000000000030F3F3C3C0F3C3C3F0F030074
:10777400000000001C3C7CE0C0E07C3C1C000000DD
:1077840000000000383C3E0703073E3C3800000080
:10779400000000007CFCFC800080FCFC7C000000FD
:1077A400000000000020213F3F3F21200000000096
:1077B400000000003C1C0C0484C4E47C3C1C00005D
:1077C40000000000383C3E2723212030383C0000D4
:1077D400000000000000FCFCFC04040404000000A1
:1077E4000000000000003F3F3F2020202000000058
:1077F400000000001C3870E0C080000000000000A1
:1078040000000000000000000103070E1C183020D7
:1078140020000000000004040404FCFCFC00000040
:10782400000000000000202020203F3F3F00000017
:10783400000000002030381C0E0E1C3830200000E0
:107844000000000000000000000000000000000034
:107854000000000000000000000000000000000024
:107864000000C0C0C0C0C0C0C0C0C0C0C0C0C0C094
:10787400C00000000C0C3C30300000000000000090
:1078840000000000000000000000000000000000F4
:1078940000000000004040404040C0C080000000A4
:1078A400000000001C3E3E2222223F1F3F20000019
:1078B4000000000004FCFCFC404040C0C08000000C
:1078C40000000000203F1F3F2020203F3F1F0000FA
:1078D4000000000080C0C0404040C0C080000000E4
:1078E400000000001F3F3F2020203939190000000C
:1078F4000000000080C0C0404044FCFCFC040000C8
:10790400000000001F3F3F2020203F1F3F200000B9
:107914000000000080C0C0404040C0C080000000A3
:10792400000000001F3F3F2222223B3B1B000000BF
:10793400000000008080F8FCFC849C9C180000007F
:107944000000000021213F3F3F21210100000000F1
:107954000000000080C0C0404040C080C040000023
:107964000000000047CFDF989898FFFF7F000000D9
:107974000000000004FCFCFC804040C0C08000000B
:1079840000000000203F3F3F0100003F3F3F000058
:107994000000000000404040DCDCDC00000000008F
:1079A40000000000002020203F3F3F202020000056
:1079B40000000000000000404040DCDCDC0000006F
:1079C400000000002060E08080C0FFFF7F00000016
:1079D4000000000004FCFCFC000080C0C04000006B
:1079E40000000000203F3F3F02070F3D38300000F9
:1079F4000000000000040404FCFCFC000000000083
:107A040000000000002020203F3F3F2020200000F5
:107A140000000000C0C0C04040C04040C0C0800062
:107A2400000000003F3F3F00003F00003F3F3F0099
:107A340000000000C0C0C0404040C0C08000000042
:107A4400000000003F3F3F0000003F3F3F000000B8
:107A54000000000080C0C0404040C0C08000000062
:107A6400000000001F3F3F2020203F3F1F00000078
:107A74000000000040C080C0404040C0C080000002
:107A84000000000080FFFFFF9010101F1F0F000078
:107A940000000080C0C0404040C080C040000000E2
:107AA4000000000F1F1F101090FFFFFF8000000058
:107AB4000000000040C0C0C080C0C0C0C080000042
:107AC40000000000203F3F3F2100000101010000B1
:107AD4000000000080C0C040404040C08000000062
:107AE40000000000193B232626263C3D1900000017
:107AF400000000004040E0F0F8404040400000003A
:107B04000000000000001F3F3F203838180000002C
:107B140000000000C0C0C0000000C0C0C0000000E1
:107B2400000000001F3F3F2020203F1F3F20000097
:107B340000000000C0C0C0000000C0C0C0000000C1
:107B440000000000070F1F3830381F0F0700000027
:107B540000000000C0C0C00000000000C0C0C000A1
:107B640000000000070F3F38380E38383F0F070079
:107B740000000000C0C0C00000C0C0C00000000081
:107B84000000000030393F0F0F3F39300000000083
:107B94000000000000C0C0C0000000C0C0C0000061
:107BA4000000000080878F9FD8F8783F0F070000FF
:107BB40000000000C0C0404040C0C0C00000000041
:107BC4000000000031383C2E27233138000000002B
:107BD400000000008080C0787C3C040404040000A1
:107BE400000000000101031E3E3C20202020000074
:107BF4000000000000000000FEFEFE000000000087
:107C040000000000000000007F7F7F0000000000F3
:107C140000000000040404043C7C78C08080000060
:107C240000000000202020203C3E1E030101000033
:107C3400000000383C3C040C1C3830203C3C1C0048
:107C44000000000000000000000000000000000030
:107C5400000000000000000000002F0000000007EA
:107C640000070000147F147F1400242A7F2A1200C6
:107C740023130864620036495522500000050300AE
:107C84000000001C224100000041221C00001408D6
:107C94003E08140008083E0808000000A060000028
:107CA40008080808080000606000000020100804AC
:107CB40002003E5149453E0000427F4000004261BF
:107CC400514946002141454B31001814127F1000E0
:107CD4002745454539003C4A4949300001710905A9
:107CE4000300364949493600064949291E00003631
:107CF400360000000056360000000814224100003F
:107D0400141414141400004122140800020151092F
:107D14000600324959513E007C1211127C007F4901
:107D2400494936003E41414122007F4141221C0025
:107D34007F49494941007F09090901003E414949F8
:107D44007A007F0808087F0000417F41000020403E
:107D5400413F01007F08142241007F404040400021
:107D64007F020C027F007F0408107F003E414141E6
:107D74003E007F09090906003E4151215E007F094A
:107D84001929460046494949310001017F01010092
:107D94003F4040403F001F2040201F003F403840EC
:107DA4003F0063140814630007087008070061515A
:107DB40049454300007F414100AA55AA55AA5500F0
:107DC4000041417F000004020102040040404040A1
:107DD40040000003050000002054545478007F48FC
:107DE40044443800384444442000384444487F0024
:107DF400385454541800087E0901020018A4A4A49D
:107E04007C007F080404780000447D40000040802A
:107E1400847D00007F102844000000417F40000062
:107E24007C04180478007C08040478003844444432
:107E34003800FC242424180018242418FC007C088E
:107E440004040800485454542000043F44402000D3
:107E54003C4040207C001C2040201C003C40304022
:107E64003C004428102844001CA0A0A07C004464CA
:107E7400544C440000107C8200000000FF0000000D
:107E840000827C100000000609090600000003A01F
:107E940000C00C00F94F806BEB00988C8052A580D9
:107EA40003000001C88089C00050850021C2000879
:107EB4004000208200002000188C00FA2F804BE044
:107EC400805A66808AA500E08F80EAAB0072A90020
:107ED4009A8C00FAAF804AA70001400009400021B3
:107EE400488051450089420042660072A6807A8724
:107EF40080FAA500722500FA2700FAA880FA880003
:107F0400722B00F88F808BE8808BE800F88D80F866
:107F14002080F90F80F9CF80722700FA840072273D
:107F240040FA85804AA90083E800F02F00E06E0043
:107F3400F0EF00D88D80C0EC009AAC8003E880C0DC
:107F440081808BE000420400082080020400312379
:107F540080F92300312480312F8031628023EA00AC
:107F6400255380F9038002E00006E000F842800314
:107F7400E0007987803903803123007D2300312795
:107F8400C078840029400043E40070270060660044
:107F940070670048C48074578059E68023E88003E2
:107FA40060008BE200610C00C000F000FC00FF00E8
:107FB400524547495354524F20504552534F4E4116
:107FC4004C00504153412050524F4345534F2033AE
:107FD40000486F6C61206D756E646F004C45434FB3
:107FE4004D5045525500256425643A0049443A20D1
:0B7FF4000025642564002564200000C7
:020000040020DA
:08000000FFFFFFFFFFFFFFFF00
:020000040030CA
:0E000000010B191EFF0080FF0FC00FE00F4024
:00000001FF
