:020000040000FA
:0400000007EF00F016
:100008005F8232ED15F077EF15F00450800B0D6E1E
:10001800045004240F6E03AE14EF00F016EF00F046
:1000280017EF00F00F800F50D8B41DEF00F01FEF4E
:1000380000F034EF00F00F28D8A425EF00F027EFE8
:1000480000F02FEF00F0000E016E000E026E000EA1
:10005800036E000E046E038E000E046E3CEF00F07B
:10006800000E016E000E026E000E036E000E046E8E
:100078000850800B0E6E0D500E18D8B446EF00F0E5
:1000880048EF00F049EF00F00D8C085008240E6E80
:1000980007AE51EF00F053EF00F054EF00F00E8080
:1000A8000E50D8B45AEF00F05CEF00F071EF00F09A
:1000B8000E28D8A462EF00F064EF00F06CEF00F0B7
:1000C800000E056E000E066E000E076E000E086E1E
:1000D800078E000E086E79EF00F0000E056E000E18
:1000E800066E000E076E000E086E0F500E5CD8B03C
:1000F80080EF00F082EF00F0A9EF00F00DAC87EF81
:1001080000F089EF00F08BEF00F0800E0D1A0FC0A1
:1001180010F00EC00FF010C00EF001C010F005C0B6
:1001280001F010C005F002C010F006C002F010C0C7
:1001380006F003C010F007C003F010C007F004C0B9
:1001480010F008C004F010C008F0000E106E0F5038
:100158000EC009F00A6A095E000E0A5A0ABEBEEF0E
:1001680000F00A5009E11A0E095CD8A0BEEF00F0B1
:10017800C0EF00F0F7EF00F0015002100310041078
:10018800D8A4C9EF00F0CCEF00F0010ECDEF00F0DD
:10019800000E106E000E016E000E026E000E036E51
:1001A800000E046E0EC00FF000EF01F010A0DFEF9C
:1001B80000F0E1EF00F0E7EF00F0D890103001090F
:1001C800106EE9EF00F0D890103201A0EEEF00F0C9
:1001D800F0EF00F0F1EF00F0108E04340432033237
:1001E800023201320F2A0E500F5CD8A0FEEF00F049
:1001F80000EF01F0DAEF00F00DBC05EF01F007EFBA
:1002080001F047EF01F00F50D8A40DEF01F00FEF08
:1002180001F019EF01F0000E016E000E026E000EE3
:10022800036E000E046E68EF02F0055001260650BA
:100238000222075003220850042204A026EF01F0EE
:1002480028EF01F0D4EF01F010A02DEF01F02FEF0F
:1002580001F035EF01F0D89010300109106E37EF3A
:1002680001F0D890103201A03CEF01F03EEF01F010
:100278003FEF01F0108E04340432033202320132AF
:100288000F2AD4EF01F00550015C065002580750C0
:1002980003580450800A096E0850800A0958D8B0DB
:1002A80058EF01F05AEF01F085EF01F00150055CBD
:1002B800096E025006580A6E035007580B6E045018
:1002C80008580C6EFF0E0924016EFF0E0A20026EFC
:1002D800FF0E0B20036EFF0E0C20046E800E0D1A0D
:1002E800106C1050D8A47BEF01F07DEF01F08DEF7A
:1002F80001F0010E0126000E0222032204228DEFD6
:1003080001F00550015E0650025A0750035A085082
:10031800045A0150021003100410D8A496EF01F0FB
:1003280098EF01F0CDEF01F01050D8A49EEF01F046
:10033800A0EF01F0CDEF01F0000E016E000E026E8D
:10034800000E036E000E046E68EF02F0D8900136BE
:1003580002360336043610AEB4EF01F0B6EF01F002
:10036800B7EF01F0018010A0BCEF01F0BEEF01F083
:10037800C2EF01F0D8801036C4EF01F0D8901036E3
:100388000F50D8B4CAEF01F0CCEF01F0CDEF01F077
:100398000F0603AED2EF01F0D4EF01F0AAEF01F09F
:1003A800000E0E6E10AEDBEF01F0DDEF01F0F5EFA1
:1003B80001F010C009F07F0E0916D8B4E6EF01F07D
:1003C800E8EF01F0ECEF01F0010E0E6EF5EF01F031
:1003D80001A0F1EF01F0F3EF01F0F5EF01F0E8EF24
:1003E80001F00E50D8B4FBEF01F0FDEF01F028EF5B
:1003F80002F0010E0126000E02220322042204A0AC
:1004080008EF02F00AEF02F028EF02F001C009F04D
:1004180002C00AF003C00BF004C00CF00C340C321C
:100428000B320A32093209C001F00AC002F00BC0CF
:1004380003F00CC004F00F28D8B425EF02F027EF22
:1004480002F028EF02F00F2A0F28D8B42EEF02F09E
:1004580030EF02F038EF02F00F50D8A436EF02F078
:1004680038EF02F04AEF02F0000E016E000E026E45
:10047800000E036E000E046E0F50D8A446EF02F073
:1004880048EF02F04AEF02F0000E0D6E0FA04FEF9A
:1004980002F051EF02F054EF02F0038E55EF02F034
:1004A800039ED8900F30046E0DAE5DEF02F05FEF43
:1004B80002F060EF02F0048E01C001F002C002F009
:1004C80003C003F004C004F012000450800B116E46
:1004D80004500424186E03AE74EF02F076EF02F0B5
:1004E80077EF02F018801850D8B47DEF02F07FEF54
:1004F80002F094EF02F01828D8A485EF02F087EFF5
:1005080002F08FEF02F0000E016E000E026E000E78
:10051800036E000E046E038E000E046E9CEF02F054
:10052800000E016E000E026E000E036E000E046EC9
:100538000850800B111A08500824196E07AEA7EF4F
:1005480002F0A9EF02F0AAEF02F019801950D8B40E
:10055800B0EF02F0B2EF02F0C7EF02F01928D8A40A
:10056800B8EF02F0BAEF02F0C2EF02F0000E056E2B
:10057800000E066E000E076E000E086E078E000E47
:10058800086ECFEF02F0000E056E000E066E000E2C
:10059800076E000E086E0550061007100810D8A444
:1005A800D8EF02F0DAEF02F0F2EF02F0000E016E7F
:1005B800000E026E000E036E000E046E800E031213
:1005C8007F0E04121150041201C001F002C002F0A3
:1005D80003C003F004C004F035EF04F01850D8A4A9
:1005E800F8EF02F0FAEF02F004EF03F0000E016EEC
:1005F800000E026E000E036E000E046E35EF04F05E
:10060800195018C009F00A6A095E000E0A5A7F0ECE
:100618000924126E000E0A20136E01C00DF002C0EC
:100628000EF003C00FF004C010F0000E016E000EB3
:10063800026E000E036E000E046E000E146E000EA5
:10064800156E000E166E000E176E000E196E65EF11
:1006580003F01950D8B433EF03F035EF03F04CEF43
:1006680003F0D8900D360E360F361036D890013676
:1006780002360336043617AE44EF03F046EF03F0B4
:1006880047EF03F00180D890143615361636173622
:1006980005500D5C06500E5807500F58085010585A
:1006A800D8A059EF03F05BEF03F064EF03F0178C69
:1006B80005500D5E06500E5A07500F5A0850105A32
:1006C800192A190E19646BEF03F06DEF03F02DEF83
:1006D80003F00D500E100F101010D8B476EF03F081
:1006E80078EF03F090EF03F0148090EF03F0D890C8
:1006F800013602360336043617AE85EF03F087EF6E
:1007080003F088EF03F00180D890143615361636BA
:1007180017361206D8A0130603AE95EF03F097EF2D
:1007280003F07BEF03F0000E196E17AE9EEF03F097
:10073800A0EF03F0C4EF03F0FF0E1414096EFF0ED0
:1007480015140A6EFF0E16140B6E7F0E17140C6E1E
:1007580009500A100B100C10D8B4B5EF03F0B7EF1E
:1007680003F0BBEF03F0010E196EC4EF03F001A014
:10077800C0EF03F0C2EF03F0C4EF03F0B7EF03F0EC
:100788001950D8B4CAEF03F0CCEF03F0F0EF03F040
:10079800010E0126000E02220322042204A0D7EF34
:1007A80003F0D9EF03F0F0EF03F001C009F002C045
:1007B8000AF003C00BF004C00CF00C340C320B32FE
:1007C8000A32093209C001F00AC002F00BC003F076
:1007D8000CC004F0124A132A13BEFBEF03F01350A7
:1007E80008E11228D8A0FBEF03F0FDEF03F008EFB3
:1007F80004F0000E136E1268000E016E000E026EF9
:10080800000E036E000E046E13BE15EF04F01350B5
:1008180006E11204D8B013EF04F015EF04F023EF4B
:1008280004F0000E136E000E126E000E016E000E24
:10083800026E000E036E000E046E000E116E12C0E2
:1008480018F018A02AEF04F02CEF04F02FEF04F0B2
:10085800038E30EF04F0039ED8901830046EE6EF54
:1008680002F012001EC036F01FC037F020C038F06A
:1008780021C039F022C03AF023C03BF024C03CF03C
:1008880025C03DF03DBE4BEF04F04EEF04F0010EE5
:100898004FEF04F0000E346E356A34503510D8B47A
:1008A80058EF04F05AEF04F06AEF04F03D1E3C1EC6
:1008B8003B1E3A1E391E381E371E366C000E372274
:1008C800382239223A223B223C223D2200018DBFA8
:1008D80070EF04F072EF04F073EF04F05C928DBFD8
:1008E80080EF04F08D5106E18C05D8B07EEF04F05E
:1008F80080EF04F086EF04F0000E316E010E306ECA
:100908008AEF04F08CC030F08DC031F08AC032F02C
:100918008BC033F034503510D8A495EF04F097EF1E
:1009280004F09EEF04F05CA49CEF04F09EEF04F04A
:10093800A1EF04F03206D8A03306000E3F6E1F0E5A
:100948003E6E000EB86F25EF05F03E06D8A03F06B4
:10095800990E3E24D96E000E3F20DA6E36C001F0A3
:1009680037C002F038C003F039C004F03AC005F0CF
:100978003BC006F03CC007F03DC008F00A0E096E07
:10098800000E0A6E000E0B6E000E0C6E000E0D6E41
:10099800000E0E6E000E0F6E000E106E0DEC0BF0BA
:1009A80001C026F002C027F003C028F004C029F0D7
:1009B80005C02AF006C02BF007C02CF008C02DF0A7
:1009C80026C013F028C014F097EC15F01350300F20
:1009D800DF6E3006D8A031063206D8A0330636C0FE
:1009E80001F037C002F038C003F039C004F03AC053
:1009F80005F03BC006F03CC007F03DC008F00A0E09
:100A0800096E000E0A6E000E0B6E000E0C6E000EC4
:100A18000D6E000E0E6E000E0F6E000E106E93EC33
:100A280009F001C036F002C037F003C038F004C046
:100A380039F005C03AF006C03BF007C03CF008C0EA
:100A48003DF03FBE30EF05F03F5008E13E04D8A02E
:100A580030EF05F032EF05F062EF05F03650371051
:100A6800381039103A103B103C103D10D8A43FEF15
:100A780005F041EF05F0A9EF04F031BE4EEF05F0A7
:100A8800315006E13004D8B04CEF05F04EEF05F0D8
:100A9800A9EF04F033BE59EF05F0335008E13204F2
:100AA800D8A059EF05F05BEF05F062EF05F05CB2F6
:100AB80060EF05F062EF05F0A9EF04F0345035104F
:100AC800D8A469EF05F06BEF05F072EF05F05CA4B0
:100AD80070EF05F072EF05F090EF05F03E06D8A034
:100AE8003F0634503510D8A47CEF05F07EEF05F0B2
:100AF80084EF05F0000E2F6E2B0E2E6E88EF05F09A
:100B0800000E2F6E2D0E2E6E990E3E24D96E000EFD
:100B18003F20DA6E2EC0DFFF1CC011F01DC012F09E
:100B2800990E3E24136E000E3F20146E32C015F04D
:100B380033C016F097EC0FF011C01CF012C01DF076
:100B4800120084B0AAEF05F0ACEF05F0E1EF05F074
:100B580084B0B1EF05F0B3EF05F0E1EF05F05E2AE0
:100B6800050E5E64BAEF05F0BCEF05F0C0EF05F0C6
:100B78005AEC11F0000E5E6E50EC0CF08C8C040EEA
:100B8800596E0C0E586E340EE82EFED7582EFCD730
:100B9800592EFAD78C9C040E596E0C0E586E340ED2
:100BA800E82EFED7582EFCD7592EFAD784A0DFEFAF
:100BB80005F0E1EF05F0DAEF05F084B2E6EF05F0B5
:100BC800E8EF05F06DEF06F05E04D8A4EEEF05F04F
:100BD800F0EF05F0FEEF05F00001ED2B3B0EED65A3
:100BE800F8EF05F0FAEF05F0FCEF05F0000EED6FF9
:100BF80077EC13F0020E5E18D8A405EF06F007EFA5
:100C080006F015EF06F00001EE2B170EEE650FEF5C
:100C180006F011EF06F013EF06F0000EEE6FABECE6
:100C280013F0030E5E18D8A41CEF06F01EEF06F0B2
:100C38002CEF06F00001E92B1E0EE96526EF06F001
:100C480028EF06F02AEF06F0010EE96FDBEC12F050
:100C5800040E5E18D8A433EF06F035EF06F043EF24
:100C680006F00001EA2B0C0EEA653DEF06F03FEFB7
:100C780006F041EF06F0010EEA6FA7EC12F0050E40
:100C88005E18D8A44AEF06F04CEF06F05AEF06F0CB
:100C98000001EB2B620EEB6554EF06F056EF06F001
:100CA80058EF06F0000EEB6F0FEC13F0030E596EC1
:100CB800080E586E770EE82EFED7582EFCD7592E00
:100CC800FAD700F084A26BEF06F06DEF06F066EF3E
:100CD80006F084B472EF06F074EF06F0F9EF06F050
:100CE8005E04D8A47AEF06F07CEF06F08AEF06F0EF
:100CF8000001ED51D8A483EF06F085EF06F087EFE9
:100D080006F03C0EED6FED0777EC13F0020E5E185F
:100D1800D8A491EF06F093EF06F0A1EF06F00001DA
:100D2800EE51D8A49AEF06F09CEF06F09EEF06F07D
:100D3800180EEE6FEE07ABEC13F0030E5E18D8A496
:100D4800A8EF06F0AAEF06F0B8EF06F00001E905F3
:100D5800D8A4B1EF06F0B3EF06F0B5EF06F0200E19
:100D6800E96FE907DBEC12F0040E5E18D8A4BFEFB8
:100D780006F0C1EF06F0CFEF06F00001EA05D8A4AF
:100D8800C8EF06F0CAEF06F0CCEF06F00D0EEA6FDA
:100D9800EA07A7EC12F0050E5E18D8A4D6EF06F005
:100DA800D8EF06F0E6EF06F00001EB51D8A4DFEF2C
:100DB80006F0E1EF06F0E3EF06F0640EEB6FEB07E9
:100DC8000FEC13F0030E596E080E586E770EE82ECE
:100DD800FED7582EFCD7592EFAD700F084A4F7EF87
:100DE80006F0F9EF06F0F2EF06F01200000E2D6E95
:100DF800240E2E6EF40E2F6E4A0E306E25C001F0B2
:100E080026C002F027C003F028C004F0000EDFEC73
:100E180007F001C029F002C02AF003C02BF004C07B
:100E28002CF02DC001F02EC002F02FC003F030C00E
:100E380004F029C005F02AC006F02BC007F02CC02A
:100E480008F069EC02F001C02DF002C02EF003C0DA
:100E58002FF004C030F02850271008E125044B0E6D
:100E68002658D8B03AEF07F03CEF07F059EF07F0F3
:100E7800AC942DC001F02EC002F02FC003F030C09A
:100E880004F0000E056E000E066E800E076E420E10
:100E9800086E69EC02F001C02DF002C02EF003C00C
:100EA8002FF004C030F074EF07F0AC842DC001F0CF
:100EB8002EC002F02FC003F030C004F0000E056E03
:100EC800000E066E800E076E410E086E69EC02F089
:100ED80001C02DF002C02EF003C02FF004C030F086
:100EE8002DC001F02EC002F02FC003F030C004F076
:100EF800000E056E000E066E800E076EBF0E086EA1
:100F080009EC00F001C02DF002C02EF003C02FF054
:100F180004C030F02DC001F02EC002F02FC003F045
:100F280030C004F05CEC0DF001C025F002C026F0E2
:100F380003C027F004C028F025C001F026C002F045
:100F480027C003F028C004F0000EDFEC07F001C052
:100F580015F002C016F003C017F004C018F02DC039
:100F680011F02EC012F02FC013F030C014F00FECA7
:100F780015F011C019F012C01AF013C01BF014C0FC
:100F88001CF0000E1D6E000E1E6E000E1F6E3F0E32
:100F9800206EDFEC0DF0D8A0D4EF07F0D6EF07F005
:100FA800DCEF07F0010E2526000E26222722282234
:100FB80025C0AFFF1200096E0950D8B4E6EF07F05C
:100FC800E8EF07F00AEF08F004BEEFEF07F0EDEFE7
:100FD80007F00AEF08F001C005F002C006F003C0F0
:100FE80007F004C008F0051E061E071E081E052A85
:100FF800000E06220722082205C00BF006C00CF0DE
:1010080007C00DF008C00EF012EF08F001C00BF099
:1010180002C00CF003C00DF004C00EF00150021025
:1010280003100410D8A41BEF08F01DEF08F027EFF9
:1010380008F0000E016E000E026E000E036E000E28
:10104800046EB8EF08F0960E0A6E31EF08F00A2A1F
:10105800D8900E320D320C320B32000E0B14056E86
:10106800000E0C14066E000E0D14076EFE0E0E1404
:10107800086E0550061007100810D8A446EF08F0AF
:1010880048EF08F02BEF08F056EF08F00A2A010E97
:101098000B26000E0C220D220E22D8900E320D3295
:1010A8000C320B32000E0B14056E000E0C14066E7B
:1010B800000E0D14076EFF0E0E14086E0550061074
:1010C80007100810D8A46BEF08F06DEF08F04AEF8E
:1010D80008F075EF08F00A06D8900B360C360D3676
:1010E8000E360DBE7AEF08F07CEF08F084EF08F0BA
:1010F800020E0A6082EF08F084EF08F06FEF08F044
:101108000AB089EF08F08BEF08F08CEF08F00D9E1D
:10111800D8900A320AC005F0066A076A086A05C04C
:1011280008F0076A066A056A05500B1206500C1289
:1011380007500D1208500E120950D8B4A6EF08F047
:10114800A8EF08F0B0EF08F004BEAFEF08F0ADEF7D
:1011580008F0B0EF08F00E8E0BC001F00CC002F0E2
:101168000DC003F00EC004F0120042C0D9FF43C006
:10117800DAFFDECFF6FFDDCFF7FF0800F550250ACE
:10118800D8A4C9EF08F0CBEF08F077EF09F042C018
:10119800D9FF43C0DAFFDE2A000EDD22000E00016F
:1011A8008B6F000E8A6F8AC05CF08BC05DF08C6913
:1011B8008D6942C0D9FF43C0DAFFDECFF6FFDDCF2D
:1011C800F7FF0800F550640AD8B4EDEF08F0EFEF28
:1011D80008F001EF09F042C0D9FF43C0DAFFDECFC3
:1011E800F6FFDDCFF7FF0800F550690AD8A4FFEF36
:1011F80008F001EF09F041EF09F042C0D9FF43C000
:10120800DAFFDE2A000EDD2244C0D9FF45C0DAFF2E
:10121800DFCF46F0020EDE26DFCF47F0000EDD22DC
:1012280046C0D9FF47C0DAFFDECF48F0DDCF49F02E
:10123800000E49BEFF0E4A6E4B6E4C6E4D6E4E6EE2
:101248004F6E40C01CF041C01DF048C01EF049C0A0
:101258001FF04AC020F04BC021F04CC022F04DC016
:1012680023F04EC024F04FC025F036EC04F01CC02B
:1012780040F01DC041F092EF09F042C0D9FF43C0D1
:10128800DAFFDECFF6FFDDCFF7FF0800F550250ABD
:10129800D8A451EF09F053EF09F06AEF09F042C002
:1012A800D9FF43C0DAFFDE2A000EDD22000E026EEF
:1012B800250E016E40C003F041C004F0D0EC0EF0E2
:1012C800000E416E010E406E92EF09F042C0D9FF48
:1012D80043C0DAFFDE2A000EDD22000E416E000E4A
:1012E800406E92EF09F042C0D9FF43C0DAFFDECF6B
:1012F800F6FFDDCFF7FF0800F550016E026A40C027
:1013080003F041C004F0D0EC0EF042C0D9FF43C056
:10131800DAFFDE2A000EDD2264EF09F01200000E6B
:10132800126E10BE9CEF09F09AEF09F0AEEF09F0CB
:10133800101E0F1E0E1E0D1E0C1E0B1E0A1E096C03
:10134800000E0A220B220C220D220E220F2210223E
:10135800010E126E08BEB5EF09F0B3EF09F0C7EF42
:1013680009F0081E071E061E051E041E031E021E87
:10137800016C000E02220322042205220622072203
:101388000822010E121A20EE13F0070EDE6AE80694
:10139800FDE209500A100B100C100D100E100F1062
:1013A8001010D8B4DAEF09F0DCEF09F02EEF0AF0EC
:1013B800010E116EEAEF09F0D89009360A360B369D
:1013C8000C360D360E360F361036112A10AEEFEFEA
:1013D80009F0F1EF09F0E0EF09F0D8901336143670
:1013E800153616361736183619361A360950015C6E
:1013F8000A5002580B5003580C5004580D50055809
:101408000E5006580F50075810500858D8A00FEF24
:101418000AF011EF0AF022EF0AF00950015E0A50B3
:10142800025A0B50035A0C50045A0D50055A0E50CC
:10143800065A0F50075A1050085A1380D890103285
:101448000F320E320D320C320B320A320932112EA3
:10145800F1EF09F01250D8B434EF0AF036EF0AF081
:1014680046EF0AF01A1E191E181E171E161E151E04
:10147800141E136C000E142215221622172218228D
:1014880019221A2213C001F014C002F015C003F08B
:1014980016C004F017C005F018C006F019C007F010
:1014A8001AC008F0120008C004F009C005F00AC00C
:1014B80006F00BC007F0E1EC16F0F4EF0AF0000EAE
:1014C8001A6E000E196E19500A24126E1A500B204B
:1014D800136E08C004F009C005F012C006F013C06E
:1014E80007F0E1EC16F07FEC17F0780E3CEC17F003
:1014F800400E3CEC17F00CC0F6FF0DC0F7FFF86A81
:10150800070EF76403D00800F55005D0F6CFE9FFC1
:10151800F7CFEAFFEF50146EE00E1424156E166A2A
:10152800FF0E162219C00EF01AC00FF00E3A0F3A2D
:10153800F00E0F160E500F0B0F12F00E0E1615C0F0
:1015480010F016C011F0050ED89010361136E82E9E
:10155800A8EF0AF00E501024156E0F501120166EC9
:10156800000E186E000E176E6B0E0E6E700E0F6E5C
:1015780015500E2616500F2217500E2618500F22FF
:101588000EC0F6FF0FC0F7FF0800F5503CEC17F04F
:10159800174A182A18BEDAEF0AF0185009E1100E97
:1015A800175CD8A0DAEF0AF0DCEF0AF0B8EF0AF01F
:1015B80091EC17F0194A1A2A1ABEECEF0AF01A50E1
:1015C80009E1020E195CD8A0ECEF0AF0EEEF0AF080
:1015D80067EF0AF00D0E0826000E09220C4A0D2AA4
:1015E8000CC0F6FF0DC0F7FFF86A070EF76403D0CA
:1015F8000800F55005D0F6CFE9FFF7CFEAFFEF5026
:101608000009D8A40AEF0BF00CEF0BF063EF0AF017
:101618001200000E126E08BE16EF0BF014EF0BF05E
:1016280028EF0BF0081E071E061E051E041E031ECB
:10163800021E016C000E0222032204220522062249
:1016480007220822010E126E10BE2FEF0BF02DEFAD
:101658000BF03FEF0BF0101E0F1E0E1E0D1E0C1E82
:101668000B1E0A1E096C000E0A220B220C220D22E8
:101678000E220F22102209500A100B100C100D1008
:101688000E100F101010D8B44CEF0BF04EEF0BF0FB
:1016980096EF0BF0010E116E5CEF0BF0D890093647
:1016A8000A360B360C360D360E360F361036112A22
:1016B80010AE61EF0BF063EF0BF052EF0BF0095037
:1016C800015C0A5002580B5003580C5004580D5036
:1016D80005580E5006580F50075810500858D8A0F3
:1016E80078EF0BF07AEF0BF08AEF0BF00950015E00
:1016F8000A50025A0B50035A0C50045A0D50055AFE
:101708000E50065A0F50075A1050085AD8901032E7
:101718000F320E320D320C320B320A320932112ED0
:1017280063EF0BF01250D8B49CEF0BF09EEF0BF068
:10173800AEEF0BF0081E071E061E051E041E031E34
:10174800021E016C000E0222032204220522062238
:101758000722082201C001F002C002F003C003F012
:1017680004C004F005C005F006C006F007C007F085
:1017780008C008F012000001EE5160EC17F00001FB
:10178800EE6FED5160EC17F00001ED6FEC5160EC7D
:1017980017F00001EC6FB90ED26F000ED36FD30EA5
:1017A800D46F7F0ED56FEEC001F0026A000E046E92
:1017B8000A0E036E35EC0FF001C0D6F002C0D7F068
:1017C800EEC001F0026A000E046E0A0E036E58ECB9
:1017D80010F001C0D8F002C0D9F0C1EC14F0B90E75
:1017E800026E000E036E23EC16F0B90E0001D26FE4
:1017F800000ED36FD30ED46F7F0ED56FEDC001F0FE
:10180800026A000E046E0A0E036E35EC0FF001C07A
:10181800D6F002C0D7F0EDC001F0026A000E046EE7
:101828000A0E036E58EC10F001C0D8F002C0D9F0CF
:10183800C1EC14F0B90E026E000E036E23EC16F024
:10184800B90E0001D26F000ED36FED0ED46F7F0E6C
:10185800D56FECC001F0026A000E046E0A0E036E2A
:1018680035EC0FF001C0D6F002C0D7F0ECC001F0A3
:10187800026A000E046E0A0E036E58EC10F001C0E6
:10188800D8F002C0D9F0C1EC14F0B90E026E000E07
:10189800036EEEEC11F012005E50D8A456EF0CF077
:1018A80058EF0CF066EF0CF0000E096E320E086E61
:1018B800000E0B6E070E0A6ED90E0C6E7F0E0D6EA3
:1018C80057EC0AF05E04D8A46CEF0CF06EEF0CF045
:1018D8007CEF0CF0000E096E320E086E000E0B6ED7
:1018E800070E0A6EF60E0C6E7F0E0D6E57EC0AF0A0
:1018F800020E5E18D8A483EF0CF085EF0CF093EF7E
:101908000CF0000E096E320E086E000E0B6E070EFC
:101918000A6EE30E0C6E7F0E0D6E57EC0AF0030E86
:101928005E18D8A49AEF0CF09CEF0CF0AAEF0CF01C
:10193800000E096E320E086E000E0B6E070E0A6E50
:10194800F20E0C6E7F0E0D6E57EC0AF0040E5E1848
:10195800D8A4B1EF0CF0B3EF0CF0C1EF0CF0000E0F
:10196800096E320E086E000E0B6E070E0A6EFA0E26
:101978000C6E7F0E0D6E57EC0AF0050E5E18D8A49B
:10198800C8EF0CF0CAEF0CF0D8EF0CF0000E096E9F
:10199800320E086E000E0B6E070E0A6EE80E0C6E05
:1019A8007F0E0D6E57EC0AF0120092EC16F0D00E76
:1019B80053EC16F0000E53EC16F0A6EC16F0D10E10
:1019C80053EC16F0010EA7EC11F00001EC6F010EBC
:1019D800A7EC11F00001ED6F010EA7EC11F000016A
:1019E800EE6F9751EE19D8B4FCEF0CF0FEEF0CF047
:1019F80002EF0DF0EEC097F0ABEC13F0000196513A
:101A0800ED19D8B40AEF0DF00CEF0DF010EF0DF052
:101A1800EDC096F077EC13F000019551EC19D8B4AD
:101A280018EF0DF01AEF0DF01EEF0DF0ECC095F069
:101A380043EC13F0010EA7EC11F0010EA7EC11F026
:101A48000001E96F010EA7EC11F00001EA6F000E2A
:101A5800A7EC11F00001EB6FE651E919D8B437EFA4
:101A68000DF039EF0DF03DEF0DF0DBEC12F0E9C0B1
:101A7800E6F00001E751EA19D8B445EF0DF047EF59
:101A88000DF04BEF0DF0EAC0E7F0A7EC12F0000103
:101A9800E851EB19D8B453EF0DF055EF0DF059EFAD
:101AA8000DF0EBC0E8F00FEC13F07EEC16F012002E
:101AB800033404340A6E0A50D8A465EF0DF067EFBA
:101AC8000DF071EF0DF0000E016E000E026E000EAB
:101AD800036E000E046EDEEF0DF001C005F002C0CB
:101AE80006F003C007F004C008F0200E81EF0DF0E7
:101AF800D8900832073206320532E82E7CEF0DF016
:101B08000550096E038EFF0E0116FF0E0216FF0E1A
:101B18000316000E0416960E0A5E0ABE98EF0DF024
:101B280096EF0DF0AEEF0DF00A50800A970FD8B07F
:101B3800A0EF0DF0A2EF0DF0A4EF0DF067EF0DF0A0
:101B4800D89004320332023201320A3EA4EF0DF07B
:101B5800C6EF0DF01F0E0A64B4EF0DF0B6EF0DF0EE
:101B6800BEEF0DF067EF0DF0D89001360236033660
:101B780004360A060A50D8A4C4EF0DF0C6EF0DF0DB
:101B8800B8EF0DF00950D8B4CCEF0DF0CEEF0DF052
:101B9800D6EF0DF0041E031E021E016C000E022279
:101BA8000322042201C001F002C002F003C003F0C6
:101BB80004C004F01200000E1914216E000E1A144D
:101BC800226E800E1B14236E7F0E1C14246E21506F
:101BD800221023102410D8A4F4EF0DF0F6EF0DF026
:101BE800FEEF0DF0000E196E000E1A6E000E1B6E41
:101BF800000E1C6E000E1D14216E000E1E14226EA7
:101C0800800E1F14236E7F0E2014246E2150221084
:101C180023102410D8A413EF0EF015EF0EF01DEFCB
:101C28000EF0000E1D6E000E1E6E000E1F6E000ED2
:101C3800206E1CAE22EF0EF024EF0EF02DEF0EF00A
:101C4800196C1A1ED8B01A2A1B1ED8B01B2A800E6F
:101C58001C5620AE32EF0EF034EF0EF03DEF0EF0D2
:101C68001D6C1E1ED8B01E2A1F1ED8B01F2A800E3B
:101C78002056000E191A000E1A1A000E1B1A800E92
:101C88001C1A000E1D1A000E1E1A000E1F1A800EB6
:101C9800201A1D50195C1E501A581F501B582050EE
:101CA8001C58D8B05AEF0EF05CEF0EF05FEF0EF054
:101CB800D89060EF0EF0D88012000F0EC16E0F0E94
:101CC800966E959C8C9CF28EF28C14EC17F055EC69
:101CD80017F0800E256E250E266E000E276E000E5C
:101CE800286EFAEC06F0C60E026E7F0E036EEEEC5E
:101CF80011F0100E5B6E390E5A6E0E0EE82EFED7DE
:101D08005A2EFCD75B2EFAD706EC11F098EC14F09B
:101D180042EC14F0000E036E010E026E69EC16F030
:101D2800160AD8B49AEF0EF09CEF0EF0ACEF0EF056
:101D3800000E0D6E000E0C6EEAEC14F0000E096E2B
:101D4800010E086E160E0A6E3BEC16F0B2EF0EF09E
:101D5800D3EC15F005C08EF006C08FF0A5EC05F0A9
:101D68005E50D8A4BAEF0EF0BCEF0EF0B2EF0EF052
:101D780000019451D8B4C3EF0EF0C5EF0EF0B2EFE6
:101D88000EF0D9EC0CF0BFEC0BF0000E0001946FD4
:101D9800B2EF0EF007EF00F003500410D8B4D7EFFD
:101DA8000EF0D9EF0EF0E2EF0EF003500410D8A4B5
:101DB800E0EF0EF0E2EF0EF0E7EF0EF00150A6ECC8
:101DC80017F034EF0FF020EE04F00350D92604503A
:101DD800DA22DE50DE10D8B4F4EF0EF0F6EF0EF093
:101DE80011EF0FF020EE04F00350D9260450DA2248
:101DF80010EE02F00350E1260450E222DE50E65CC9
:101E0800E650800A096EDE50800A0958D8B00FEFF4
:101E18000FF011EF0FF034EF0FF020EE02F0035047
:101E2800D9260450DA22DECF05F0DDCF06F003C054
:101E3800D9FF04C0DAFFDECF07F0DDCF08F0055088
:101E48000724D96E06500820DA6E01C0DFFF20EEA5
:101E580002F00350D9260450DA22DE2A000EDD22D1
:101E68001200000E066E04BE3EEF0FF03CEF0FF0BE
:101E780044EF0FF0036C041ED8B0042A010E066E5E
:101E880002BE4BEF0FF049EF0FF051EF0FF0016C6E
:101E9800021ED8B0022A010E061A000E086E000EA5
:101EA800076E03500410D8B45CEF0FF05EEF0FF02C
:101EB80086EF0FF0010E056E66EF0FF0D89003362F
:101EC8000436052A04AE6BEF0FF06DEF0FF062EFEA
:101ED8000FF0D890073608360350015C04500258BA
:101EE800D8A079EF0FF07BEF0FF080EF0FF00350E1
:101EF800015E0450025A0780D89004320332052E3E
:101F08006DEF0FF00650D8B48CEF0FF08EEF0FF096
:101F180092EF0FF0076C081ED8B0082A07C001F02E
:101F280008C002F012005CA09CEF0FF09EEF0FF0CB
:101F3800A8EF0FF013C00AF014C00BF011C00CF09A
:101F480012C00DF055EC15F016BEADEF0FF0AFEF67
:101F58000FF0B5EF0FF015C01AF016C01BF0B9EF6F
:101F68000FF0000E1B6E000E1A6E000E196E000E9A
:101F7800186ECBEF0FF0000E026E200E016E11C02E
:101F880003F012C004F0D0EC0EF0184A192A1A50C7
:101F9800185C1950800A176E1B50800A1758D8A071
:101FA800D8EF0FF0DAEF0FF0BFEF0FF05CB0DFEF14
:101FB8000FF0E1EF0FF0EBEF0FF013C00AF014C0D1
:101FC8000BF011C00CF012C00DF055EC15F013C059
:101FD80001F014C002F0EFEC15F01A500124116E54
:101FE8001B500220126E12007FEC17F0780E3CECAA
:101FF80017F0400E3CEC17F047EF10F007C0F6FF63
:1020080008C0F7FF0800F5CF0BF0E00E0B240C6EAC
:102018000D6AFF0E0D220CC001F00DC002F0000E7B
:10202800046E060E036ECEEC16F001C00CF002C072
:102038000DF0000E0F6E000E0E6E4B0E096E7C0E2C
:102048000A6E0C5009260D500A220E5009260F5010
:102058000A2209C0F6FF0AC0F7FF0800F5503CEC59
:1020680017F00E4A0F2A0FBE43EF10F00F5009E188
:10207800060E0E5CD8A043EF10F045EF10F021EFEC
:1020880010F0074A082A07C0F6FF08C0F7FF080043
:10209800F5500009D8A453EF10F055EF10F002EFF7
:1020A80010F091EC17F01200000E066E02BE61EF00
:1020B80010F05FEF10F067EF10F0016C021ED8B05F
:1020C800022A010E066E04BE6EEF10F06CEF10F0DF
:1020D80072EF10F0036C041ED8B0042A03500410E9
:1020E800D8B479EF10F07BEF10F09FEF10F0010EED
:1020F800056E83EF10F0D89003360436052A04AE37
:1021080088EF10F08AEF10F07FEF10F00350015CB9
:1021180004500258D8A093EF10F095EF10F099EF03
:1021280010F00350015E0450025AD8900432033272
:10213800052E8AEF10F00650D8B4A5EF10F0A7EFDF
:1021480010F0ABEF10F0016C021ED8B0022A01C0EB
:1021580001F002C002F01200036E000E076E000EBE
:10216800066E8B948B92035003247E0B016E026AD9
:10217800800E0110046E0250056E000E096E080EE6
:10218800086E04AECAEF10F0CCEF10F0CFEF10F0ED
:102198008C80D0EF10F08C908B84D8900436053664
:1021A8008B940806D8A0090608500910D8A4DFEFB8
:1021B80010F0E1EF10F0C5EF10F0000E096E080EF8
:1021C800086E8B84D8900636073683B2EEEF10F08F
:1021D800F2EF10F0016A012AF3EF10F0016A0150E2
:1021E80006128B940806D8A0090608500910D8A42E
:1021F80000EF11F002EF11F0E5EF10F08B828B8405
:1022080006501200000EBAEC16F091EC17F0AE0E64
:1022180005EC17F0D50E05EC17F0800E05EC17F05D
:10222800A80E05EC17F03F0E05EC17F0D30E05ECE1
:1022380017F0000E05EC17F0400E05EC17F08D0EA8
:1022480005EC17F0140E05EC17F0200E05EC17F04E
:10225800000E05EC17F0A10E05EC17F0C80E05EC02
:1022680017F0DA0E05EC17F0120E05EC17F0810ED8
:1022780005EC17F0CF0E05EC17F0D90E05EC17F0AA
:10228800F10E05EC17F0DB0E05EC17F0400E05EC2F
:1022980017F0A40E05EC17F0A60E05EC17F02E0E9D
:1022A80005EC17F0AF0E05EC17F012000001EE5127
:1022B800B7EC15F00001EE6FED51B7EC15F0000129
:1022C800ED6FEC51B7EC15F00001EC6FEB51B7EC8A
:1022D80015F00001EB6FEA51B7EC15F00001EA6F59
:1022E800E951B7EC15F00001E96F92EC16F0D00E49
:1022F80053EC16F0000E53EC16F00001EC5153ECC1
:1023080016F00001ED5153EC16F00001EE5153ECBC
:1023180016F0010E53EC16F00001E95153EC16F0DB
:102328000001EA5153EC16F00001EB5153EC16F0A2
:102338007EEC16F0100E0C6E940EE82EFED70C2EC6
:10234800FCD700D01200026EC7B4ADEF11F0AFEFAA
:1023580011F0A8EF11F0C5CF01F01F0E0116D8A497
:10236800B8EF11F0BAEF11F0A8EF11F0C586C7B4B5
:10237800C0EF11F0C2EF11F0BBEF11F0C5CF01F0C3
:102388001F0E0116D8A4CBEF11F0CDEF11F0BBEF63
:1023980011F0C9CF03F0C7B4D4EF11F0D6EF11F0A4
:1023A800CFEF11F0C5CF01F01F0E0116D8A4DFEF53
:1023B80011F0E1EF11F0CFEF11F00250D8B4E7EFD0
:1023C80011F0EAEF11F0C58AEBEF11F0C59AC58854
:1023D8000350120004EF12F002C0F6FF03C0F7FF2B
:1023E800F86A070EF76403D00800F55005D0F6CF59
:1023F800E9FFF7CFEAFFEF506BEC17F0024A032A28
:1024080002C0F6FF03C0F7FFF86A070EF76403D0AF
:102418000800F55005D0F6CFE9FFF7CFEAFFEF50F7
:102428000009D8A41AEF12F01CEF12F0F0EF11F027
:102438000A0EAD6EACA223EF12F025EF12F01EEFDC
:1024480012F00D0EAD6EACA22CEF12F02EEF12F0C2
:1024580027EF12F01200026E8B948B920250022426
:102468007E0B036E080E046E03AE3DEF12F03FEFD5
:1024780012F042EF12F08C8043EF12F08C908B84B4
:10248800D89003368B9404060450D8A44EEF12F06B
:1024980050EF12F038EF12F0080E046E01AE57EF4D
:1024A80012F059EF12F05CEF12F08C805DEF12F031
:1024B8008C908B84D89001368B9404060450D8A451
:1024C80068EF12F06AEF12F052EF12F08B828B84F1
:1024D8001200000E066E000E056E03500410D8B4EC
:1024E80078EF12F07AEF12F0A2EF12F0010E076EF9
:1024F80082EF12F0D89003360436072A04AE87EF2D
:1025080012F089EF12F07EEF12F0D89005360636F9
:102518000350015C04500258D8A095EF12F097EFD1
:1025280012F09CEF12F00350015E0450025A05802D
:10253800D89004320332072E89EF12F005C001F05B
:1025480006C002F01200B90E0001D26F000ED36F60
:10255800CD0ED46F7F0ED56FEAC001F0026A000E6F
:10256800046E0A0E036E35EC0FF001C0D6F002C0FF
:10257800D7F0EAC001F0026A000E046E0A0E036E7C
:1025880058EC10F001C0D8F002C0D9F0C1EC14F03A
:10259800000E096E320E086E000E0B6E060E0A6EE5
:1025A800B90E0C6E000E0D6E57EC0AF01200B90E43
:1025B8000001D26F000ED36FED0ED46F7F0ED56F72
:1025C800E9C001F0026A000E046E0A0E036E35ECD3
:1025D8000FF001C0D6F002C0D7F0E9C001F0026ADE
:1025E800000E046E0A0E036E58EC10F001C0D8F00D
:1025F80002C0D9F0C1EC14F0000E096E5A0E086E34
:10260800000E0B6E060E0A6EB90E0C6E000E0D6EE5
:1026180057EC0AF01200B90E0001D26F000ED36F0A
:10262800CD0ED46F7F0ED56FEBC001F0026A000E9D
:10263800046E0A0E036E35EC0FF001C0D6F002C02E
:10264800D7F0EBC001F0026A000E046E0A0E036EAA
:1026580058EC10F001C0D8F002C0D9F0C1EC14F069
:10266800000E096E0A0E086E000E0B6E060E0A6E3C
:10267800B90E0C6E000E0D6E57EC0AF01200B90E72
:102688000001D26F000ED36FED0ED46F7F0ED56FA1
:10269800ECC001F0026A000E046E0A0E036E35ECFF
:1026A8000FF001C0D6F002C0D7F0ECC001F0026A0A
:1026B800000E046E0A0E036E58EC10F001C0D8F03C
:1026C80002C0D9F0C1EC14F0000E096E5A0E086E63
:1026D800000E0B6E050E0A6EB90E0C6E000E0D6E16
:1026E80057EC0AF01200B90E0001D26F000ED36F3A
:1026F800D30ED46F7F0ED56FEDC001F0026A000EC5
:10270800046E0A0E036E35EC0FF001C0D6F002C05D
:10271800D7F0EDC001F0026A000E046E0A0E036ED7
:1027280058EC10F001C0D8F002C0D9F0C1EC14F098
:10273800000E096E320E086E000E0B6E050E0A6E44
:10274800B90E0C6E000E0D6E57EC0AF01200B90EA1
:102758000001D26F000ED36FD30ED46F7F0ED56FEA
:10276800EEC001F0026A000E046E0A0E036E35EC2C
:102778000FF001C0D6F002C0D7F0EEC001F0026A37
:10278800000E046E0A0E036E58EC10F001C0D8F06B
:1027980002C0D9F0C1EC14F0000E096E0A0E086EE2
:1027A800000E0B6E050E0A6EB90E0C6E000E0D6E45
:1027B80057EC0AF0120003500410D8B4E6EF13F0F7
:1027C800E8EF13F00CEF14F0010E056EF0EF13F0C4
:1027D800D89003360436052A04AEF5EF13F0F7EF68
:1027E80013F0ECEF13F00350015C04500258D8A02A
:1027F80000EF14F002EF14F006EF14F00350015E3E
:102808000450025AD89004320332052EF7EF13F021
:1028180001C001F002C002F0120052C056F053C0CD
:1028280057F0000E0001896F000E886F2FEF14F02B
:1028380050C040F051C041F0560E426E000E436E3B
:1028480054C044F055C045F0B9EC08F040500001C0
:1028580088274150892356C0F6FF57C0F7FF080064
:10286800F5500009D8A43BEF14F03DEF14F01CEF2D
:1028780014F088C050F089C051F0120094929494DA
:102888009590958295968B828C8622EC17F08D0E0A
:10289800016E2A0E2FEC12F03E0E016E2B0E2FEC5D
:1028A80012F01E0E016E2D0E2FEC12F0000E016EAE
:1028B8002C0E2FEC12F0400E016E150E2FEC12F0BC
:1028C8003D0E016E110E2FEC12F09AEC17F076EC1B
:1028D80017F01200000E056E000E046E000E076E53
:1028E800000E066EE1EC16F07FEC17F0780E3CEC6B
:1028F80017F0400E3CEC17F0000E096E000E086E43
:10290800000E3CEC17F0084A092A09BE93EF14F0B0
:10291800040E095CD8A093EF14F095EF14F084EF3F
:1029280014F091EC17F012006EEC14F0000E096E22
:10293800000E086E000E0B6E000E0A6EBC0E0C6EBA
:102948007F0E0D6E57EC0AF0000E056E000E046E39
:10295800000E076E020E066EE1EC16F0AA0E076E68
:102968007F0E086EF8EC0FF0ABEC13F077EC13F079
:1029780043EC13F050EC0CF01200D60E0001DC6FA3
:10298800000EDD6FD2C0DEF0D3C0DFF0000EE16FC5
:10299800000EE06F000EE36F000EE26FDE0E506E69
:1029A800000E516ED4C052F0D5C053F0DC0E546EF8
:1029B800000E556E11EC14F00001E051D225D96ECD
:1029C800E151D321DA6E000EDF6E1200000E096E9F
:1029D800020E086E0CC001F00DC002F0000E046E6D
:1029E800640E036E6DEC12F001500A6E3BEC16F0AB
:1029F800000E096E030E086E0CC001F00DC002F047
:102A0800000E046E640E036EDFEC13F001500A6EC4
:102A18003BEC16F01200000E151A000E161A000EE6
:102A2800171A800E181A11C001F012C002F013C054
:102A380003F014C004F015C005F016C006F017C066
:102A480007F018C008F009EC00F001C011F002C04E
:102A580012F003C013F004C014F0120006009EA088
:102A680038EF15F03AEF15F053EF15F00001904BE1
:102A7800912B915109E1020E905DD8A046EF15F017
:102A880048EF15F04EEF15F0010E946F000E916FA0
:102A9800000E906F150ECF6EB10ECE6E9E905F92A7
:102AA8001100000E106E000E0F6E66EF15F00EC0CE
:102AB80001F0026A0CC003F00DC004F0D0EC0EF077
:102AC8000F4A102A0F500A24D96E10500B20DA6EC4
:102AD800DF500E6E0E50D8A474EF15F076EF15F097
:102AE8005BEF15F01200400EF66E2F0EF76E000E1B
:102AF800F86E00EEE4F010EE0BF00900F5CFEEFFF3
:102B0800E550E150FAE100EE60F0720EEE6AE80678
:102B1800FDE15E6A5D6A5C6A5F905F92000EF86E26
:102B2800000161EF0EF014BEA4EF15F0145006E199
:102B38001304D8B0A2EF15F0A4EF15F0B2EF15F01A
:102B480013C015F014C016F0151E161E154A162AC5
:102B580015C013F016C014F0B6EF15F013C013F03B
:102B680014C014F012000B6E0BC001F0026A000EC4
:102B7800046E0A0E036E58EC10F001C009F002C092
:102B88000AF00BC001F0026A000E046E0A0E036E12
:102B980035EC0FF00150100DF35009241200000E0F
:102BA800036E020E026E69EC16F0076E07500A6E8D
:102BB8000B6A000E036E030E026E69EC16F0076EC8
:102BC8000A50086E07500A6E08C00BF00AC005F0DC
:102BD8000BC006F0120001C003F002C004F0F7EFCA
:102BE80015F0014A022A01C0D9FF02C0DAFFDF50FE
:102BF800D8A401EF16F003EF16F0F5EF15F0035027
:102C0800015C016E04500258026E1200C586C7A00E
:102C180010EF16F012EF16F00BEF16F0C9CF01F017
:102C2800F4EC16F0C58AC588C5B81DEF16F01FEF7D
:102C380016F018EF16F091EC17F0015012002EEF75
:102C480016F002C0D9FF03C0DAFFDF506BEC17F0B3
:102C5800024A032A02C0D9FF03C0DAFFDF50D8A412
:102C680038EF16F03AEF16F025EF16F012007FEC69
:102C780017F0A00E3CEC17F009503CEC17F0085088
:102C88003CEC17F00A503CEC17F091EC17F00D0EE5
:102C98000B6EFC0EE82EFED70B2EFCD71200026E30
:102CA800C7B459EF16F05BEF16F054EF16F0C5CF26
:102CB80001F01F0E0116D8A464EF16F066EF16F0A7
:102CC80054EF16F002C0C9FF12007FEC17F0A00EF7
:102CD8003CEC17F003503CEC17F002503CEC17F0BA
:102CE80088EC17F0A10E3CEC17F00AEC16F0046E15
:102CF80004501200C7B483EF16F085EF16F07EEF8C
:102D080016F0C5CF01F01F0E0116D8A48EEF16F0ED
:102D180090EF16F07EEF16F0C5841200C7B497EF57
:102D280016F099EF16F092EF16F0C5CF01F01F0ECE
:102D38000116D8A4A2EF16F0A4EF16F092EF16F041
:102D4800C5801200C7B4ABEF16F0ADEF16F0A6EFD2
:102D580016F0C5CF01F01F0E0116D8A4B6EF16F075
:102D6800B8EF16F0A6EF16F0C5821200016E938038
:102D780093820150D8A4C3EF16F0C5EF16F0C8EF40
:102D880016F0C78EC9EF16F0C79E280EC66E770ECE
:102D9800C86E120001500302F3CF05F0F4CF06F01D
:102DA80001500402F350062602500302F35006268F
:102DB80005C001F006C002F01200210E05EC17F064
:102DC800045005EC17F07F0E05EC17F0220E05EC09
:102DD80017F0065005EC17F0070E05EC17F0120077
:102DE800C7B4F9EF16F0FBEF16F0F4EF16F0C5AC28
:102DF80000EF17F002EF17F004EF17F091EC17F05F
:102E08001200026E7FEC17F0780E3CEC17F0000E03
:102E18003CEC17F002503CEC17F091EC17F0120064
:102E2800CD8ECD9CCD96CD92150ECF6EB10ECE6EB9
:102E3800CD80300ECD129D809E9012008C8600D0E1
:102E48008C9600D08C8600D00F0E016E010E2FECF0
:102E580012F000D012000C6E0C50B0EC10F00B6E9B
:102E68000A50FF0A0B14016E0C502FEC12F01200DE
:102E7800016E01C0C9FFC7B044EF17F046EF17F065
:102E88003FEF17F0F4EC16F012000C6E0C50B0EC9B
:102E980010F00B6E0B500A10016E0C502FEC12F054
:102EA8001200AC98AC8AAC9CAB8EAB9CAB88AC8463
:102EB800B8969E9A9D8A1200026E02C001F00F0E0B
:102EC800011602380F0B0A0DF35001241200016E8F
:102ED80001C0ADFFACA273EF17F075EF17F06EEFFE
:102EE80017F01200140EB0EC10F0030E0A6E140E58
:102EF80049EC17F01200C580C5B085EF17F087EFD1
:102F080017F080EF17F01200C582C5B28EEF17F0E8
:102F180090EF17F089EF17F01200C584C5B497EF4A
:102F280017F099EF17F092EF17F01200030E0A6EE0
:102F3800140E2FEC17F01200A1001C0A151C0A151C
:032F48000131163E
:022F4C00120071
:10706A000000000000000000000000000000000016
:10707A000000000000000000000000000000000006
:10708A000000000000F8FCFCFCF800000000000012
:10709A00000000000000737373000000000000008D
:1070AA0000000000001E3E3E0000003E3E1E0000A2
:1070BA0000000000000000000000000000000000C6
:1070CA000000303030FEFE30303030FEFE303030DE
:1070DA0000000C0C0C7F7F0C0C0C0C7F7F0C0C0C32
:1070EA0000000000F0F898FE9898FE9898180000A2
:1070FA00000000001819197F19197F191F0F0000C5
:10710A00000000000038383880C0E0703800000005
:10711A0000000000001C0E0703011C1C1C000000DC
:10712A000000000038FCC4C4FC38000000800000E5
:10713A00000000001E3F2121333F1E1E372300009E
:10714A000000000000203C3C1C0000000000000081
:10715A000000000000000000000000000000000025
:10716A000000000000C0E0F0381C0C04040000001D
:10717A00000000000003070F1C3830202000000028
:10718A00000000000004040C1C38F0E0C0000000FD
:10719A000000000000202030381C0F070300000008
:1071AA00000000808890E0E0FCFCE0E0908880002D
:1071BA0000000001110907073F3F070709110100F5
:1071CA000000000000808080F0F0808080000000D5
:1071DA0000000000000101010F0F01010100000081
:1071EA000000000000000000000000000000000095
:1071FA00000000000040787838000000000000001D
:10720A000000000080808080808080808080000074
:10721A00000000000101010101010101010100005A
:10722A000000000000000000000000000000000054
:10723A00000000000000383838000000000000009C
:10724A000000000000000000000080C0E070381C50
:10725A00000000002030381C0E0703010000000067
:10726A0000000000F8FCFC0484E474FCFCF8000054
:10727A00000000001F3F3F2E2721203F3F1F000034
:10728A0000000000606060F0FCFC000000000000EC
:10729A00000000002020203F3F3F20202000000067
:1072AA0000000000181C1C040484CCFC7830000088
:1072BA000000000030383C2E2723213838380000DF
:1072CA0000000000181C1C848484CC7C78300000E8
:1072DA0000000000183838212121333E1E0C00001E
:1072EA000000000080C0603018FCFCFC00000000B8
:1072FA000000000003030323233F3F3F2323000032
:10730A0000000000FCFCFC848484848404040000E3
:10731A0000000000193939212121333F1F0E0000D6
:10732A0000000000E0F0F89C8C8484848000000057
:10733A00000000001F3F3F212121213F3F1F000085
:10734A00000000003C3C3C0404040484FCFC7C0077
:10735A0000000000000000383C3E07030100000066
:10736A0000000000787CFCC4C48484FC7C780000A3
:10737A00000000001E3E3F212123233F3E1E000045
:10738A0000000000F8FCFC84848484FCFCF8000003
:10739A0000000000000121212131391F0F070000E0
:1073AA000000000000000070707000000000000083
:1073BA00000000000000000E0E0E00000000000099
:1073CA000000000000000070707000000000000063
:1073DA00000000000000101E1E0E00000000000049
:1073EA000000000080C0E070381C0E060200000099
:1073FA00000000000103070E1C3870604000000006
:10740A0000000060606060606060606060606000F2
:10741A00000000060606060606060606060606001A
:10742A000000000002060E1C3870E0C08000000058
:10743A0000000000406070381C0E070301000000C5
:10744A0000000000181C0C0E0686CEFC7C380000DA
:10745A0000000000000000007373730000000000C9
:10746A0000000000FCFEFE0202C2C2C2FEFEFC00D8
:10747A00000000003F3F7F60606363636343030073
:10748A0000000000E0F0F81C0C0C1CF8F0E0000012
:10749A00000000003F3F3F020202023F3F3F000060
:1074AA000000000004FCFCFC848484FCFC780000DE
:1074BA0000000000203F3F3F2121213F3F1E0000E6
:1074CA0000000000F0F8FC0C0404041C1C18000066
:1074DA00000000000F1F3F3020202038381800001D
:1074EA000000000004FCFCFC04040CFCF8F00000A2
:1074FA0000000000203F3F3F2020303F1F0F0000C8
:10750A000000000004FCFCFC848484C4CC1C000041
:10751A0000000000203F3F3F212121233338000093
:10752A000000000004FCFCFC848484C4CC1C000021
:10753A0000000000203F3F3F21010103030000003B
:10754A0000000000F0F8FC0C0404043C3C38000085
:10755A00000000000F1F3F302022223E3E3E000066
:10756A0000000000FCFCFC808080FCFCFC000000A9
:10757A00000000003F3F3F0101013F3F3F00000084
:10758A0000000000000404FCFCFC040400000000ED
:10759A00000000000020203F3F3F202000000000A4
:1075AA0000000000000000000404FCFCFC040400CD
:1075BA000000001E1E3E202020203F3F1F0000002A
:1075CA000000000004FCFCFCC0E0703C1C0C000045
:1075DA0000000000203F3F3F03070E3C3830000008
:1075EA000000000004FCFCFC040000000000000095
:1075FA0000000000203F3F3F20202030383C0000A0
:10760A0000000000FCFCFC78F0E0F078FCFCFC00D8
:10761A00000000003F3F3F00000100003F3F3F00E5
:10762A0000000000FCFCFC70E0C08000FCFCFC00D8
:10763A00000000003F3F3F00000103073F3F3F00BB
:10764A0000000000E0F0F81C0C0C0C1CF8F0E00044
:10765A0000000000070F1F38303030381F0F0700B6
:10766A000000000004FCFCFC848484FCFC7800001C
:10767A0000000000203F3F3F2101010101000000FE
:10768A0000000000E0F8F81C0C040C1CF8F8E000FC
:10769A0000000000071F1F18185C5E7E7F7F4700EE
:1076AA000000000004FCFCFC848484FCFC780000DC
:1076BA0000000000203F3F3F0101033F3F3C000024
:1076CA000000000078FCFC84848484BC3C38000000
:1076DA00000000001C3C3D212121213F3F1E0000EB
:1076EA00000000001C0C0404FCFCFC04040C1C003C
:1076FA0000000000000020203F3F3F202000000043
:10770A0000000000FCFCFC000000FCFCFC00000087
:10771A00000000001F3F3F2020203F3F1F000000C5
:10772A0000000000FCFCFC000000FCFCFC00000067
:10773A0000000000070F1F3830381F0F0700000035
:10774A0000000000FCFCFC0000800000FCFCFC00C7
:10775A0000000000030F3F3C3C0F3C3C3F0F03007E
:10776A00000000001C3C7CE0C0E07C3C1C000000E7
:10777A0000000000383C3E0703073E3C380000008A
:10778A00000000007CFCFC800080FCFC7C00000007
:10779A00000000000020213F3F3F212000000000A0
:1077AA00000000003C1C0C0484C4E47C3C1C000067
:1077BA0000000000383C3E2723212030383C0000DE
:1077CA00000000000000FCFCFC04040404000000AB
:1077DA000000000000003F3F3F2020202000000062
:1077EA00000000001C3870E0C080000000000000AB
:1077FA0000000000000000000103070E1C183020E2
:10780A0020000000000004040404FCFCFC0000004A
:10781A00000000000000202020203F3F3F00000021
:10782A00000000002030381C0E0E1C3830200000EA
:10783A00000000000000000000000000000000003E
:10784A00000000000000000000000000000000002E
:10785A000000C0C0C0C0C0C0C0C0C0C0C0C0C0C09E
:10786A00C00000000C0C3C3030000000000000009A
:10787A0000000000000000000000000000000000FE
:10788A0000000000004040404040C0C080000000AE
:10789A00000000001C3E3E2222223F1F3F20000023
:1078AA000000000004FCFCFC404040C0C080000016
:1078BA0000000000203F1F3F2020203F3F1F000004
:1078CA000000000080C0C0404040C0C080000000EE
:1078DA00000000001F3F3F20202039391900000016
:1078EA000000000080C0C0404044FCFCFC040000D2
:1078FA00000000001F3F3F2020203F1F3F200000C4
:10790A000000000080C0C0404040C0C080000000AD
:10791A00000000001F3F3F2222223B3B1B000000C9
:10792A00000000008080F8FCFC849C9C1800000089
:10793A000000000021213F3F3F21210100000000FB
:10794A000000000080C0C0404040C080C04000002D
:10795A000000000047CFDF989898FFFF7F000000E3
:10796A000000000004FCFCFC804040C0C080000015
:10797A0000000000203F3F3F0100003F3F3F000062
:10798A000000000000404040DCDCDC000000000099
:10799A0000000000002020203F3F3F202020000060
:1079AA0000000000000000404040DCDCDC00000079
:1079BA00000000002060E08080C0FFFF7F00000020
:1079CA000000000004FCFCFC000080C0C040000075
:1079DA0000000000203F3F3F02070F3D3830000003
:1079EA000000000000040404FCFCFC00000000008D
:1079FA0000000000002020203F3F3F202020000000
:107A0A0000000000C0C0C04040C04040C0C080006C
:107A1A00000000003F3F3F00003F00003F3F3F00A3
:107A2A0000000000C0C0C0404040C0C0800000004C
:107A3A00000000003F3F3F0000003F3F3F000000C2
:107A4A000000000080C0C0404040C0C0800000006C
:107A5A00000000001F3F3F2020203F3F1F00000082
:107A6A000000000040C080C0404040C0C08000000C
:107A7A000000000080FFFFFF9010101F1F0F000082
:107A8A0000000080C0C0404040C080C040000000EC
:107A9A000000000F1F1F101090FFFFFF8000000062
:107AAA000000000040C0C0C080C0C0C0C08000004C
:107ABA0000000000203F3F3F2100000101010000BB
:107ACA000000000080C0C040404040C0800000006C
:107ADA0000000000193B232626263C3D1900000021
:107AEA00000000004040E0F0F84040404000000044
:107AFA000000000000001F3F3F2038381800000037
:107B0A0000000000C0C0C0000000C0C0C0000000EB
:107B1A00000000001F3F3F2020203F1F3F200000A1
:107B2A0000000000C0C0C0000000C0C0C0000000CB
:107B3A0000000000070F1F3830381F0F0700000031
:107B4A0000000000C0C0C00000000000C0C0C000AB
:107B5A0000000000070F3F38380E38383F0F070083
:107B6A0000000000C0C0C00000C0C0C0000000008B
:107B7A000000000030393F0F0F3F3930000000008D
:107B8A000000000000C0C0C0000000C0C0C000006B
:107B9A000000000080878F9FD8F8783F0F07000009
:107BAA0000000000C0C0404040C0C0C0000000004B
:107BBA000000000031383C2E272331380000000035
:107BCA00000000008080C0787C3C040404040000AB
:107BDA00000000000101031E3E3C2020202000007E
:107BEA000000000000000000FEFEFE000000000091
:107BFA0000000000000000007F7F7F0000000000FE
:107C0A0000000000040404043C7C78C0808000006A
:107C1A0000000000202020203C3E1E03010100003D
:107C2A00000000383C3C040C1C3830203C3C1C0052
:107C3A00000000000000000000000000000000003A
:107C4A00000000000000000000002F0000000007F4
:107C5A0000070000147F147F1400242A7F2A1200D0
:107C6A0023130864620036495522500000050300B8
:107C7A000000001C224100000041221C00001408E0
:107C8A003E08140008083E0808000000A060000032
:107C9A0008080808080000606000000020100804B6
:107CAA0002003E5149453E0000427F4000004261C9
:107CBA00514946002141454B31001814127F1000EA
:107CCA002745454539003C4A4949300001710905B3
:107CDA000300364949493600064949291E0000363B
:107CEA003600000000563600000008142241000049
:107CFA00141414141400004122140800020151093A
:107D0A000600324959513E007C1211127C007F490B
:107D1A00494936003E41414122007F4141221C002F
:107D2A007F49494941007F09090901003E41494902
:107D3A007A007F0808087F0000417F410000204048
:107D4A00413F01007F08142241007F40404040002B
:107D5A007F020C027F007F0408107F003E414141F0
:107D6A003E007F09090906003E4151215E007F0954
:107D7A001929460046494949310001017F0101009C
:107D8A003F4040403F001F2040201F003F403840F6
:107D9A003F00631408146300070870080700615164
:107DAA0049454300007F414100AA55AA55AA5500FA
:107DBA000041417F000004020102040040404040AB
:107DCA0040000003050000002054545478007F4806
:107DDA0044443800384444442000384444487F002E
:107DEA00385454541800087E0901020018A4A4A4A7
:107DFA007C007F080404780000447D400000408035
:107E0A00847D00007F102844000000417F4000006C
:107E1A007C04180478007C0804047800384444443C
:107E2A003800FC242424180018242418FC007C0898
:107E3A0004040800485454542000043F44402000DD
:107E4A003C4040207C001C2040201C003C4030402C
:107E5A003C004428102844001CA0A0A07C004464D4
:107E6A00544C440000107C8200000000FF00000017
:107E7A0000827C100000000609090600000003A029
:107E8A0000C00C00F94F806BEB00988C8052A580E3
:107E9A0003000001C88089C00050850021C2000883
:107EAA004000208200002000188C00FA2F804BE04E
:107EBA00805A66808AA500E08F80EAAB0072A9002A
:107ECA009A8C00FAAF804AA70001400009400021BD
:107EDA00488051450089420042660072A6807A872E
:107EEA0080FAA500722500FA2700FAA880FA88000D
:107EFA00722B00F88F808BE8808BE800F88D80F871
:107F0A002080F90F80F9CF80722700FA8400722747
:107F1A0040FA85804AA90083E800F02F00E06E004D
:107F2A00F0EF00D88D80C0EC009AAC8003E880C0E6
:107F3A0081808BE000420400082080020400312383
:107F4A0080F92300312480312F8031628023EA00B6
:107F5A00255380F9038002E00006E000F84280031E
:107F6A00E0007987803903803123007D230031279F
:107F7A00C078840029400043E4007027006066004E
:107F8A0070670048C48074578059E68023E88003EC
:107F9A0060008BE200610C00C000F000FC00FF00F2
:107FAA00524547495354524F20504552534F4E4120
:107FBA004C004C45434F4D5045525500496E69633C
:107FCA00696F00256425642D00256425643A002024
:107FDA002020200049443A2000484F524100594588
:107FEA004152002564256400444941004D494E0030
:057FFA004D455300009D
:020000040020DA
:08000000FFFFFFFFFFFFFFFF00
:020000040030CA
:0E000000010E191EFF0080FF0FC00FE00F4021
:00000001FF
