:020000040000FA
:0400000007EF00F016
:100008005F824CED16F06FEF16F00450800B0D6E0A
:10001800045004240F6E03AE14EF00F016EF00F046
:1000280017EF00F00F800F50D8B41DEF00F01FEF4E
:1000380000F034EF00F00F28D8A425EF00F027EFE8
:1000480000F02FEF00F0000E016E000E026E000EA1
:10005800036E000E046E038E000E046E3CEF00F07B
:10006800000E016E000E026E000E036E000E046E8E
:100078000850800B0E6E0D500E18D8B446EF00F0E5
:1000880048EF00F049EF00F00D8C085008240E6E80
:1000980007AE51EF00F053EF00F054EF00F00E8080
:1000A8000E50D8B45AEF00F05CEF00F071EF00F09A
:1000B8000E28D8A462EF00F064EF00F06CEF00F0B7
:1000C800000E056E000E066E000E076E000E086E1E
:1000D800078E000E086E79EF00F0000E056E000E18
:1000E800066E000E076E000E086E0F500E5CD8B03C
:1000F80080EF00F082EF00F0A9EF00F00DAC87EF81
:1001080000F089EF00F08BEF00F0800E0D1A0FC0A1
:1001180010F00EC00FF010C00EF001C010F005C0B6
:1001280001F010C005F002C010F006C002F010C0C7
:1001380006F003C010F007C003F010C007F004C0B9
:1001480010F008C004F010C008F0000E106E0F5038
:100158000EC009F00A6A095E000E0A5A0ABEBEEF0E
:1001680000F00A5009E11A0E095CD8A0BEEF00F0B1
:10017800C0EF00F0F7EF00F0015002100310041078
:10018800D8A4C9EF00F0CCEF00F0010ECDEF00F0DD
:10019800000E106E000E016E000E026E000E036E51
:1001A800000E046E0EC00FF000EF01F010A0DFEF9C
:1001B80000F0E1EF00F0E7EF00F0D890103001090F
:1001C800106EE9EF00F0D890103201A0EEEF00F0C9
:1001D800F0EF00F0F1EF00F0108E04340432033237
:1001E800023201320F2A0E500F5CD8A0FEEF00F049
:1001F80000EF01F0DAEF00F00DBC05EF01F007EFBA
:1002080001F047EF01F00F50D8A40DEF01F00FEF08
:1002180001F019EF01F0000E016E000E026E000EE3
:10022800036E000E046E68EF02F0055001260650BA
:100238000222075003220850042204A026EF01F0EE
:1002480028EF01F0D4EF01F010A02DEF01F02FEF0F
:1002580001F035EF01F0D89010300109106E37EF3A
:1002680001F0D890103201A03CEF01F03EEF01F010
:100278003FEF01F0108E04340432033202320132AF
:100288000F2AD4EF01F00550015C065002580750C0
:1002980003580450800A096E0850800A0958D8B0DB
:1002A80058EF01F05AEF01F085EF01F00150055CBD
:1002B800096E025006580A6E035007580B6E045018
:1002C80008580C6EFF0E0924016EFF0E0A20026EFC
:1002D800FF0E0B20036EFF0E0C20046E800E0D1A0D
:1002E800106C1050D8A47BEF01F07DEF01F08DEF7A
:1002F80001F0010E0126000E0222032204228DEFD6
:1003080001F00550015E0650025A0750035A085082
:10031800045A0150021003100410D8A496EF01F0FB
:1003280098EF01F0CDEF01F01050D8A49EEF01F046
:10033800A0EF01F0CDEF01F0000E016E000E026E8D
:10034800000E036E000E046E68EF02F0D8900136BE
:1003580002360336043610AEB4EF01F0B6EF01F002
:10036800B7EF01F0018010A0BCEF01F0BEEF01F083
:10037800C2EF01F0D8801036C4EF01F0D8901036E3
:100388000F50D8B4CAEF01F0CCEF01F0CDEF01F077
:100398000F0603AED2EF01F0D4EF01F0AAEF01F09F
:1003A800000E0E6E10AEDBEF01F0DDEF01F0F5EFA1
:1003B80001F010C009F07F0E0916D8B4E6EF01F07D
:1003C800E8EF01F0ECEF01F0010E0E6EF5EF01F031
:1003D80001A0F1EF01F0F3EF01F0F5EF01F0E8EF24
:1003E80001F00E50D8B4FBEF01F0FDEF01F028EF5B
:1003F80002F0010E0126000E02220322042204A0AC
:1004080008EF02F00AEF02F028EF02F001C009F04D
:1004180002C00AF003C00BF004C00CF00C340C321C
:100428000B320A32093209C001F00AC002F00BC0CF
:1004380003F00CC004F00F28D8B425EF02F027EF22
:1004480002F028EF02F00F2A0F28D8B42EEF02F09E
:1004580030EF02F038EF02F00F50D8A436EF02F078
:1004680038EF02F04AEF02F0000E016E000E026E45
:10047800000E036E000E046E0F50D8A446EF02F073
:1004880048EF02F04AEF02F0000E0D6E0FA04FEF9A
:1004980002F051EF02F054EF02F0038E55EF02F034
:1004A800039ED8900F30046E0DAE5DEF02F05FEF43
:1004B80002F060EF02F0048E01C001F002C002F009
:1004C80003C003F004C004F012000450800B116E46
:1004D80004500424186E03AE74EF02F076EF02F0B5
:1004E80077EF02F018801850D8B47DEF02F07FEF54
:1004F80002F094EF02F01828D8A485EF02F087EFF5
:1005080002F08FEF02F0000E016E000E026E000E78
:10051800036E000E046E038E000E046E9CEF02F054
:10052800000E016E000E026E000E036E000E046EC9
:100538000850800B111A08500824196E07AEA7EF4F
:1005480002F0A9EF02F0AAEF02F019801950D8B40E
:10055800B0EF02F0B2EF02F0C7EF02F01928D8A40A
:10056800B8EF02F0BAEF02F0C2EF02F0000E056E2B
:10057800000E066E000E076E000E086E078E000E47
:10058800086ECFEF02F0000E056E000E066E000E2C
:10059800076E000E086E0550061007100810D8A444
:1005A800D8EF02F0DAEF02F0F2EF02F0000E016E7F
:1005B800000E026E000E036E000E046E800E031213
:1005C8007F0E04121150041201C001F002C002F0A3
:1005D80003C003F004C004F035EF04F01850D8A4A9
:1005E800F8EF02F0FAEF02F004EF03F0000E016EEC
:1005F800000E026E000E036E000E046E35EF04F05E
:10060800195018C009F00A6A095E000E0A5A7F0ECE
:100618000924126E000E0A20136E01C00DF002C0EC
:100628000EF003C00FF004C010F0000E016E000EB3
:10063800026E000E036E000E046E000E146E000EA5
:10064800156E000E166E000E176E000E196E65EF11
:1006580003F01950D8B433EF03F035EF03F04CEF43
:1006680003F0D8900D360E360F361036D890013676
:1006780002360336043617AE44EF03F046EF03F0B4
:1006880047EF03F00180D890143615361636173622
:1006980005500D5C06500E5807500F58085010585A
:1006A800D8A059EF03F05BEF03F064EF03F0178C69
:1006B80005500D5E06500E5A07500F5A0850105A32
:1006C800192A190E19646BEF03F06DEF03F02DEF83
:1006D80003F00D500E100F101010D8B476EF03F081
:1006E80078EF03F090EF03F0148090EF03F0D890C8
:1006F800013602360336043617AE85EF03F087EF6E
:1007080003F088EF03F00180D890143615361636BA
:1007180017361206D8A0130603AE95EF03F097EF2D
:1007280003F07BEF03F0000E196E17AE9EEF03F097
:10073800A0EF03F0C4EF03F0FF0E1414096EFF0ED0
:1007480015140A6EFF0E16140B6E7F0E17140C6E1E
:1007580009500A100B100C10D8B4B5EF03F0B7EF1E
:1007680003F0BBEF03F0010E196EC4EF03F001A014
:10077800C0EF03F0C2EF03F0C4EF03F0B7EF03F0EC
:100788001950D8B4CAEF03F0CCEF03F0F0EF03F040
:10079800010E0126000E02220322042204A0D7EF34
:1007A80003F0D9EF03F0F0EF03F001C009F002C045
:1007B8000AF003C00BF004C00CF00C340C320B32FE
:1007C8000A32093209C001F00AC002F00BC003F076
:1007D8000CC004F0124A132A13BEFBEF03F01350A7
:1007E80008E11228D8A0FBEF03F0FDEF03F008EFB3
:1007F80004F0000E136E1268000E016E000E026EF9
:10080800000E036E000E046E13BE15EF04F01350B5
:1008180006E11204D8B013EF04F015EF04F023EF4B
:1008280004F0000E136E000E126E000E016E000E24
:10083800026E000E036E000E046E000E116E12C0E2
:1008480018F018A02AEF04F02CEF04F02FEF04F0B2
:10085800038E30EF04F0039ED8901830046EE6EF54
:1008680002F012001EC036F01FC037F020C038F06A
:1008780021C039F022C03AF023C03BF024C03CF03C
:1008880025C03DF03DBE4BEF04F04EEF04F0010EE5
:100898004FEF04F0000E346E356A34503510D8B47A
:1008A80058EF04F05AEF04F06AEF04F03D1E3C1EC6
:1008B8003B1E3A1E391E381E371E366C000E372274
:1008C800382239223A223B223C223D2200018DBFA8
:1008D80070EF04F072EF04F073EF04F05A928DBFDA
:1008E80080EF04F08D5106E18C05D8B07EEF04F05E
:1008F80080EF04F086EF04F0000E316E010E306ECA
:100908008AEF04F08CC030F08DC031F08AC032F02C
:100918008BC033F034503510D8A495EF04F097EF1E
:1009280004F09EEF04F05AA49CEF04F09EEF04F04C
:10093800A1EF04F03206D8A03306000E3F6E1F0E5A
:100948003E6E000EB96F25EF05F03E06D8A03F06B3
:100958009A0E3E24D96E000E3F20DA6E36C001F0A2
:1009680037C002F038C003F039C004F03AC005F0CF
:100978003BC006F03CC007F03DC008F00A0E096E07
:10098800000E0A6E000E0B6E000E0C6E000E0D6E41
:10099800000E0E6E000E0F6E000E106EFFEC0AF0C9
:1009A80001C026F002C027F003C028F004C029F0D7
:1009B80005C02AF006C02BF007C02CF008C02DF0A7
:1009C80026C013F028C014F0B3EC16F01350300F03
:1009D800DF6E3006D8A031063206D8A0330636C0FE
:1009E80001F037C002F038C003F039C004F03AC053
:1009F80005F03BC006F03CC007F03DC008F00A0E09
:100A0800096E000E0A6E000E0B6E000E0C6E000EC4
:100A18000D6E000E0E6E000E0F6E000E106E85EC41
:100A280009F001C036F002C037F003C038F004C046
:100A380039F005C03AF006C03BF007C03CF008C0EA
:100A48003DF03FBE30EF05F03F5008E13E04D8A02E
:100A580030EF05F032EF05F062EF05F03650371051
:100A6800381039103A103B103C103D10D8A43FEF15
:100A780005F041EF05F0A9EF04F031BE4EEF05F0A7
:100A8800315006E13004D8B04CEF05F04EEF05F0D8
:100A9800A9EF04F033BE59EF05F0335008E13204F2
:100AA800D8A059EF05F05BEF05F062EF05F05AB2F8
:100AB80060EF05F062EF05F0A9EF04F0345035104F
:100AC800D8A469EF05F06BEF05F072EF05F05AA4B2
:100AD80070EF05F072EF05F090EF05F03E06D8A034
:100AE8003F0634503510D8A47CEF05F07EEF05F0B2
:100AF80084EF05F0000E2F6E2B0E2E6E88EF05F09A
:100B0800000E2F6E2D0E2E6E9A0E3E24D96E000EFC
:100B18003F20DA6E2EC0DFFF1CC011F01DC012F09E
:100B28009A0E3E24136E000E3F20146E32C015F04C
:100B380033C016F002EC0FF011C01CF012C01DF00B
:100B480012001C6E020E196E000E1B6E000E186E3F
:100B5800BAEF05F0120E1B6E100E186ECFEF05F0EF
:100B6800770E1B6E300E186ECFEF05F01C50146E0A
:100B7800156A1550000AD8B4C4EF05F0CFEF05F098
:100B880014500C0AD8B4B4EF05F0020AD8B4AEEF8A
:100B980005F0CFEF05F01B508009016E020EEBEC5B
:100BA80012F0800E0A6E040EBFEC18F0800E0A6E6A
:100BB8000A0ECCEC18F0000E016E010EEBEC12F0F0
:100BC800000E1E6E000E1D6EF7EF05F01D500D2471
:100BD800D96E1E500E20DA6EDF50016E090EEBEC56
:100BE80012F01D4A1E2A0F50146E156A14501D5C0F
:100BF80015501E58D8A003EF06F005EF06F0EAEFEF
:100C080005F01CC001F0010EEBEC12F00C0E1C18E4
:100C1800D8A411EF06F013EF06F018EF06F0800ED7
:100C28000A6E0D0ECCEC18F01D681E68040E75ECEB
:100C380010F01F6E1D06D8A01E061D501E10D8B439
:100C480028EF06F02AEF06F03BEF06F01FB02FEF73
:100C580006F031EF06F03BEF06F01F5018140009BC
:100C6800D8B439EF06F03BEF06F01AEF06F0800E25
:100C78000A6E0D0EBFEC18F01D501E10D8B447EFC9
:100C880006F049EF06F0EAEF06F0060E75EC10F0F4
:100C9800146E1B0E1416D8A454EF06F056EF06F087
:100CA800E8EF06F0000E196E1F501B14146E14A006
:100CB80060EF06F062EF06F064EF06F0010E196EC1
:100CC8000C0E1C18D8A46BEF06F06DEF06F0EAEFD7
:100CD80006F00A0E75EC10F01F6E0C0E75EC10F095
:100CE800070B1A6E1A50D8B47CEF06F07EEF06F0A8
:100CF800A0EF06F0F80E146EFF0E156E1A501FC006
:100D080016F0176AD89016361736D8901636173652
:100D1800D890163617361626000E172214501626A7
:100D28001550172212C0D9FF13C0DAFF16C0DEFF14
:100D380017C0DDFFAAEF06F01F50080D12C0D9FF3B
:100D480013C0DAFFF3CFDEFFF4CFDDFF1F50D8A4C6
:100D5800B0EF06F0B2EF06F0B4EF06F0010E1F6E2A
:100D6800100E1F64BAEF06F0BCEF06F0BEEF06F0F7
:100D7800100E1F6E000E1E6E000E1D6ED0EF06F0D8
:100D88001D501024D96E1E501120DA6E090E75EC14
:100D980010F0DF6E1D4A1E2A1F50146E156A14507B
:100DA8001D5C15501E58D8A0DCEF06F0DEEF06F0EB
:100DB800C4EF06F01D501024D96E1E501120DA6EB3
:100DC800000EDF6EEAEF06F0020E196E19501200DF
:100DD800000E2D6E240E2E6EF40E2F6E4A0E306EFF
:100DE80025C001F026C002F027C003F028C004F097
:100DF800000ED1EC07F001C029F002C02AF003C0B0
:100E08002BF004C02CF02DC001F02EC002F02FC032
:100E180003F030C004F029C005F02AC006F02BC04A
:100E280007F02CC008F069EC02F001C02DF002C0F8
:100E38002EF003C02FF004C030F02850271008E12E
:100E480025044B0E2658D8B02CEF07F02EEF07F0EC
:100E58004BEF07F0AC942DC001F02EC002F02FC06C
:100E680003F030C004F0000E056E000E066E800E12
:100E7800076E420E086E69EC02F001C02DF002C048
:100E88002EF003C02FF004C030F066EF07F0AC84FA
:100E98002DC001F02EC002F02FC003F030C004F0C6
:100EA800000E056E000E066E800E076E410E086E6F
:100EB80069EC02F001C02DF002C02EF003C02FF043
:100EC80004C030F02DC001F02EC002F02FC003F096
:100ED80030C004F0000E056E000E066E800E076E20
:100EE800BF0E086E09EC00F001C02DF002C02EF014
:100EF80003C02FF004C030F02DC001F02EC002F066
:100F08002FC003F030C004F0C5EC0CF001C025F090
:100F180002C026F003C027F004C028F025C001F065
:100F280026C002F027C003F028C004F0000ED1EC60
:100F380007F001C015F002C016F003C017F004C096
:100F480018F02DC011F02EC012F02FC013F030C0D1
:100F580014F029EC16F011C019F012C01AF013C0E1
:100F68001BF014C01CF0000E1D6E000E1E6E000E4D
:100F78001F6E3F0E206E48EC0DF0D8A0C6EF07F0AC
:100F8800C8EF07F0CEEF07F0010E2526000E262247
:100F98002722282225C0AFFF1200096E0950D8B4B5
:100FA800D8EF07F0DAEF07F0FCEF07F004BEE1EF47
:100FB80007F0DFEF07F0FCEF07F001C005F002C013
:100FC80006F003C007F004C008F0051E061E071E41
:100FD800081E052A000E06220722082205C00BF06B
:100FE80006C00CF007C00DF008C00EF004EF08F0C2
:100FF80001C00BF002C00CF003C00DF004C00EF0ED
:101008000150021003100410D8A40DEF08F00FEFE0
:1010180008F019EF08F0000E016E000E026E000EC7
:10102800036E000E046EAAEF08F0960E0A6E23EF08
:1010380008F00A2AD8900E320D320C320B32000E0C
:101048000B14056E000E0C14066E000E0D14076EC0
:10105800FE0E0E14086E0550061007100810D8A4CE
:1010680038EF08F03AEF08F01DEF08F048EF08F005
:101078000A2A010E0B26000E0C220D220E22D890F1
:101088000E320D320C320B32000E0B14056E000EB0
:101098000C14066E000E0D14076EFF0E0E14086E6B
:1010A8000550061007100810D8A45DEF08F05FEF90
:1010B80008F03CEF08F067EF08F00A06D8900B3606
:1010C8000C360D360E360DBE6CEF08F06EEF08F0DC
:1010D80076EF08F0020E0A6074EF08F076EF08F079
:1010E80061EF08F00AB07BEF08F07DEF08F07EEFC3
:1010F80008F00D9ED8900A320AC005F0066A076A01
:10110800086A05C008F0076A066A056A05500B12E6
:1011180006500C1207500D1208500E120950D8B480
:1011280098EF08F09AEF08F0A2EF08F004BEA1EFDC
:1011380008F09FEF08F0A2EF08F00E8E0BC001F048
:101148000CC002F00DC003F00EC004F0120042C043
:10115800D9FF43C0DAFFDECFF6FFDDCFF7FF080087
:10116800F550250AD8A4BBEF08F0BDEF08F069EFE9
:1011780009F042C0D9FF43C0DAFFDE2A000EDD22A3
:10118800000E00018B6F000E8A6F8AC05AF08BC068
:101198005BF08C698D6942C0D9FF43C0DAFFDECFAE
:1011A800F6FFDDCFF7FF0800F550640AD8B4DFEF8B
:1011B80008F0E1EF08F0F3EF08F042C0D9FF43C0B0
:1011C800DAFFDECFF6FFDDCFF7FF0800F550690A3A
:1011D800D8A4F1EF08F0F3EF08F033EF09F042C0BC
:1011E800D9FF43C0DAFFDE2A000EDD2244C0D9FF52
:1011F80045C0DAFFDFCF46F0020EDE26DFCF47F02C
:10120800000EDD2246C0D9FF47C0DAFFDECF48F026
:10121800DDCF49F0000E49BEFF0E4A6E4B6E4C6E94
:101228004D6E4E6E4F6E40C01CF041C01DF048C060
:101238001EF049C01FF04AC020F04BC021F04CC03E
:1012480022F04DC023F04EC024F04FC025F036ECFC
:1012580004F01CC040F01DC041F084EF09F042C00A
:10126800D9FF43C0DAFFDECFF6FFDDCFF7FF080076
:10127800F550250AD8A443EF09F045EF09F05CEFD3
:1012880009F042C0D9FF43C0DAFFDE2A000EDD2292
:10129800000E026E250E016E40C003F041C004F03E
:1012A8003BEC0EF0000E416E010E406E84EF09F02B
:1012B80042C0D9FF43C0DAFFDE2A000EDD22000E4D
:1012C800416E000E406E84EF09F042C0D9FF43C062
:1012D800DAFFDECFF6FFDDCFF7FF0800F550016E2D
:1012E800026A40C003F041C004F03BEC0EF042C07B
:1012F800D9FF43C0DAFFDE2A000EDD2256EF09F0DF
:101308001200000E126E10BE8EEF09F08CEF09F07D
:10131800A0EF09F0101E0F1E0E1E0D1E0C1E0B1E38
:101328000A1E096C000E0A220B220C220D220E2224
:101338000F221022010E126E08BEA7EF09F0A5EFCA
:1013480009F0B9EF09F0081E071E061E051E041E47
:10135800031E021E016C000E022203220422052233
:10136800062207220822010E121A20EE13F0070E99
:10137800DE6AE806FDE209500A100B100C100D1089
:101388000E100F101010D8B4CCEF09F0CEEF09F002
:1013980020EF0AF0010E116EDCEF09F0D890093643
:1013A8000A360B360C360D360E360F361036112A25
:1013B80010AEE1EF09F0E3EF09F0D2EF09F0D890B1
:1013C80013361436153616361736183619361A36B1
:1013D8000950015C0A5002580B5003580C5004582D
:1013E8000D5005580E5006580F5007581050085801
:1013F800D8A001EF0AF003EF0AF014EF0AF0095041
:10140800015E0A50025A0B50035A0C50045A0D50F0
:10141800055A0E50065A0F50075A1050085A138092
:10142800D89010320F320E320D320C320B320A3293
:101438000932112EE3EF09F01250D8B426EF0AF062
:1014480028EF0AF038EF0AF01A1E191E181E171E88
:10145800161E151E141E136C000E142215221622B9
:101468001722182219221A2213C001F014C002F000
:1014780015C003F016C004F017C005F018C006F038
:1014880019C007F01AC008F0120008C004F009C01B
:1014980005F00AC006F00BC007F064EC18F0E6EFA0
:1014A8000AF0000E1A6E000E196E19500A24126EF8
:1014B8001A500B20136E08C004F009C005F012C0C2
:1014C80006F013C007F064EC18F002EC19F0780E7F
:1014D800B2EC18F0400EB2EC18F00CC0F6FF0DC0DC
:1014E800F7FFF86A070EF76403D00800F55005D037
:1014F800F6CFE1FFF7CFE2FFE750146EE00E1424B9
:10150800156E166AFF0E162219C00EF01AC00FF0DB
:101518000E3A0F3AF00E0F160E500F0B0F12F00E78
:101528000E1615C010F016C011F0050ED890103622
:101538001136E82E9AEF0AF00E501024156E0F504F
:101548001120166E000E186E000E176E890E0E6EA4
:10155800700E0F6E15500E2616500F2217500E26BD
:1015680018500F220EC0F6FF0FC0F7FF0800F55005
:10157800B2EC18F0174A182A18BECCEF0AF0185027
:1015880009E1100E175CD8A0CCEF0AF0CEEF0AF0F4
:10159800AAEF0AF014EC19F0194A1A2A1ABEDEEF5B
:1015A8000AF01A5009E1020E195CD8A0DEEF0AF021
:1015B800E0EF0AF059EF0AF00D0E0826000E092296
:1015C8000C4A0D2A0CC0F6FF0DC0F7FFF86A070E8B
:1015D800F76403D00800F55005D0F6CFE1FFF7CF48
:1015E800E2FFE7500009D8A4FCEF0AF0FEEF0AF08A
:1015F80055EF0AF01200000E126E08BE08EF0BF04D
:1016080006EF0BF01AEF0BF0081E071E061E051E4C
:10161800041E031E021E016C000E02220322042275
:101628000522062207220822010E126E10BE21EFA3
:101638000BF01FEF0BF031EF0BF0101E0F1E0E1EFC
:101648000D1E0C1E0B1E0A1E096C000E0A220B2210
:101658000C220D220E220F22102209500A100B1004
:101668000C100D100E100F101010D8B43EEF0BF028
:1016780040EF0BF088EF0BF0010E116E4EEF0BF000
:10168800D89009360A360B360C360D360E360F361C
:101698001036112A10AE53EF0BF055EF0BF044EF54
:1016A8000BF00950015C0A5002580B5003580C50BB
:1016B80004580D5005580E5006580F500758105032
:1016C8000858D8A06AEF0BF06CEF0BF07CEF0BF02A
:1016D8000950015E0A50025A0B50035A0C50045A22
:1016E8000D50055A0E50065A0F50075A1050085AF6
:1016F800D89010320F320E320D320C320B320A32C1
:101708000932112E55EF0BF01250D8B48EEF0BF0B2
:1017180090EF0BF0A0EF0BF0081E071E061E051E2B
:10172800041E031E021E016C000E02220322042264
:10173800052206220722082201C001F002C002F099
:1017480003C003F004C004F005C005F006C006F0AD
:1017580007C007F008C008F012000001EC51E3ECE4
:1017680018F00001EC6FEB51E3EC18F00001EB6F9F
:10177800EA51E3EC18F00001EA6FBA0ED36F000EDD
:10178800D46FEF0ED56F7F0ED66FECC001F0026AF2
:10179800000E046E0A0E036EA0EC0EF001C0D7F026
:1017A80002C0D8F0ECC001F0026A000E046E0A0E06
:1017B800036E1DEC10F001C0D9F002C0DAF0B4ECF1
:1017C80015F0BA0E026E000E036E92EC17F0BA0E08
:1017D8000001D36F000ED46FEF0ED56F7F0ED66F5A
:1017E800EBC001F0026A000E046E0A0E036EA0EC54
:1017F8000EF001C0D7F002C0D8F0EBC001F0026AC9
:10180800000E046E0A0E036E1DEC10F001C0D9F034
:1018180002C0DAF0B4EC15F0BA0E026E000E036ED8
:1018280092EC17F0BA0E0001D36F000ED46FFA0EC7
:10183800D56F7F0ED66FEAC001F0026A000E046E03
:101848000A0E036EA0EC0EF001C0D7F002C0D8F06B
:10185800EAC001F0026A000E046E0A0E036E1DEC67
:1018680010F001C0D9F002C0DAF0B4EC15F0BA0EED
:10187800026E000E036EAAEC12F0120001EC18F0D2
:10188800D00EC2EC17F0000EC2EC17F015EC18F0F1
:10189800D10EC2EC17F0010E63EC12F00001EA6FF2
:1018A800010E63EC12F00001EB6F010E63EC12F015
:1018B8000001EC6F9951EC19D8B465EF0CF067EFA3
:1018C8000CF06BEF0CF0ECC099F067EC14F0000131
:1018D8009851EB19D8B473EF0CF075EF0CF079EF61
:1018E8000CF0EBC098F033EC14F000019751EA19B2
:1018F800D8B481EF0CF083EF0CF087EF0CF0EAC05E
:1019080097F0FFEC13F0010E63EC12F0010E63EC9C
:1019180012F00001946F010E63EC12F00001956F54
:10192800000E63EC12F00001966FE7519419D8B4D9
:10193800A0EF0CF0A2EF0CF0A6EF0CF097EC13F070
:1019480094C0E7F00001E8519519D8B4AEEF0CF057
:10195800B0EF0CF0B4EF0CF095C0E8F063EC13F0C6
:101968000001E9519619D8B4BCEF0CF0BEEF0CF0A9
:10197800C2EF0CF096C0E9F0CBEC13F0EDEC17F0E9
:101988001200033404340A6E0A50D8A4CEEF0CF0C7
:10199800D0EF0CF0DAEF0CF0000E016E000E026EC4
:1019A800000E036E000E046E47EF0DF001C005F047
:1019B80002C006F003C007F004C008F0200EEAEFEA
:1019C8000CF0D8900832073206320532E82EE5EFDF
:1019D8000CF00550096E038EFF0E0116FF0E02165D
:1019E800FF0E0316000E0416960E0A5E0ABE01EFDD
:1019F8000DF0FFEF0CF017EF0DF00A50800A970F6B
:101A0800D8B009EF0DF00BEF0DF00DEF0DF0D0EFA2
:101A18000CF0D89004320332023201320A3E0DEF44
:101A28000DF02FEF0DF01F0E0A641DEF0DF01FEFE4
:101A38000DF027EF0DF0D0EF0CF0D89001360236FC
:101A4800033604360A060A50D8A42DEF0DF02FEFFE
:101A58000DF021EF0DF00950D8B435EF0DF037EF48
:101A68000DF03FEF0DF0041E031E021E016C000E68
:101A780002220322042201C001F002C002F003C0C6
:101A880003F004C004F01200000E1914216E000EB9
:101A98001A14226E800E1B14236E7F0E1C14246EE3
:101AA8002150221023102410D8A45DEF0DF05FEF11
:101AB8000DF067EF0DF0000E196E000E1A6E000E95
:101AC8001B6E000E1C6E000E1D14216E000E1E14DF
:101AD800226E800E1F14236E7F0E2014246E215058
:101AE800221023102410D8A47CEF0DF07EEF0DF007
:101AF80086EF0DF0000E1D6E000E1E6E000E1F6E9E
:101B0800000E206E1CAE8BEF0DF08DEF0DF096EFF2
:101B18000DF0196C1A1ED8B01A2A1B1ED8B01B2A31
:101B2800800E1C5620AE9BEF0DF09DEF0DF0A6EF3A
:101B38000DF01D6C1E1ED8B01E2A1F1ED8B01F2AFD
:101B4800800E2056000E191A000E1A1A000E1B1AC3
:101B5800800E1C1A000E1D1A000E1E1A000E1F1AE7
:101B6800800E201A1D50195C1E501A581F501B5801
:101B780020501C58D8B0C3EF0DF0C5EF0DF0C8EFDA
:101B88000DF0D890C9EF0DF0D8801200700ED31266
:101B98000F0EC16E0F0E966EF28EF28C97EC18F047
:101BA800D8EC18F0800E256E250E266E000E276ED6
:101BB800000E286EECEC06F0DA0E026E7F0E036E55
:101BC800AAEC12F0100E596E390E586E0E0EE82E51
:101BD800FED7582EFCD7592EFAD71FEC11F0DDECA2
:101BE80015F016EC12F032EC15F0000E036E010E33
:101BF800026ED8EC17F0160AD8B405EF0EF007EF0E
:101C08000EF017EF0EF0000E0D6E000E0C6E04ECC9
:101C180016F0000E096E010E086E160E0A6EAAEC7A
:101C280017F01DEF0EF00CEC17F005C08EF006C093
:101C38008FF0CBEC10F05D50D8A425EF0EF027EF15
:101C48000EF01DEF0EF05C50D8B42DEF0EF02FEF14
:101C58000EF035EF0EF042EC0CF0B1EC0BF0000E8C
:101C68005C6E73EC11F01DEF0EF007EF00F00350FF
:101C78000410D8B442EF0EF044EF0EF04DEF0EF022
:101C880003500410D8A44BEF0EF04DEF0EF052EFB6
:101C98000EF0015027EC19F09FEF0EF020EE04F043
:101CA8000350D9260450DA22DE50DE10D8B45FEF94
:101CB8000EF061EF0EF07CEF0EF020EE04F0035012
:101CC800D9260450DA2210EE02F00350E12604501F
:101CD800E222DE50E65CE650800A096EDE50800A99
:101CE8000958D8B07AEF0EF07CEF0EF09FEF0EF0A7
:101CF80020EE02F00350D9260450DA22DECF05F098
:101D0800DDCF06F003C0D9FF04C0DAFFDECF07F04D
:101D1800DDCF08F005500724D96E06500820DA6E8A
:101D280001C0DFFF20EE02F00350D9260450DA226A
:101D3800DE2A000EDD221200000E066E04BEA9EF98
:101D48000EF0A7EF0EF0AFEF0EF0036C041ED8B044
:101D5800042A010E066E02BEB6EF0EF0B4EF0EF0C6
:101D6800BCEF0EF0016C021ED8B0022A010E061A52
:101D7800000E086E000E076E03500410D8B4C7EFAB
:101D88000EF0C9EF0EF0F1EF0EF0010E056ED1EF77
:101D98000EF0D89003360436052A04AED6EF0EF0BE
:101DA800D8EF0EF0CDEF0EF0D89007360836035076
:101DB800015C04500258D8A0E4EF0EF0E6EF0EF0F4
:101DC800EBEF0EF00350015E0450025A0780D890E2
:101DD80004320332052ED8EF0EF00650D8B4F7EFD0
:101DE8000EF0F9EF0EF0FDEF0EF0076C081ED8B0FC
:101DF800082A07C001F008C002F012005AA007EF35
:101E08000FF009EF0FF013EF0FF013C00AF014C032
:101E18000BF011C00CF012C00DF091EC16F016BECC
:101E280018EF0FF01AEF0FF020EF0FF015C01AF0AF
:101E380016C01BF024EF0FF0000E1B6E000E1A6E7A
:101E4800000E196E000E186E36EF0FF0000E026EBF
:101E5800200E016E11C003F012C004F03BEC0EF02E
:101E6800184A192A1A50185C1950800A176E1B5004
:101E7800800A1758D8A043EF0FF045EF0FF02AEF6C
:101E88000FF05AB04AEF0FF04CEF0FF056EF0FF08B
:101E980013C00AF014C00BF011C00CF012C00DF002
:101EA80091EC16F013C001F014C002F044EC17F0E6
:101EB8001A500124116E1B500220126E120002ECFF
:101EC80019F0780EB2EC18F0400EB2EC18F0B2EF40
:101ED8000FF007C0F6FF08C0F7FF0800F5CF0BF0BA
:101EE800E00E0B240C6E0D6AFF0E0D220CC001F0E3
:101EF8000DC002F0000E046E060E036E51EC18F0D1
:101F080001C00CF002C00DF0000E0F6E000E0E6E38
:101F1800690E096E7C0E0A6E0C5009260D500A22B5
:101F28000E5009260F500A2209C0F6FF0AC0F7FF13
:101F38000800F550B2EC18F00E4A0F2A0FBEAEEFAB
:101F48000FF00F5009E1060E0E5CD8A0AEEF0FF0AF
:101F5800B0EF0FF08CEF0FF0074A082A07C0F6FF22
:101F680008C0F7FF0800F5500009D8A4BEEF0FF02D
:101F7800C0EF0FF06DEF0FF014EC19F01200000E27
:101F8800236E000E016E0D0EEBEC12F020C0D9FF8F
:101F980021C0DAFF930EDF6E20EE01F02050D92623
:101FA8002150DA22200EDF6E080E0A6E080EBFECF2
:101FB80018F020C00DF021C00EF0020E0F6E20C0E8
:101FC80010F021C011F0240E126E000E136E0C0ECC
:101FD800A5EC05F0266E2650D8A4F5EF0FF0F7EF24
:101FE8000FF01BEF10F0000E276E27502024D96E3B
:101FF800000E2120DA6EDF50231A272A030E2764E9
:1020080008EF10F00AEF10F0F9EF0FF020EE04F0EF
:102018002050D9262150DA222350DE18D8B417EFE1
:1020280010F019EF10F01BEF10F0020E266E26507C
:102038001200000E066E02BE26EF10F024EF10F01C
:102048002CEF10F0016C021ED8B0022A010E066EA9
:1020580004BE33EF10F031EF10F037EF10F0036CDF
:10206800041ED8B0042A03500410D8B43EEF10F070
:1020780040EF10F064EF10F0010E056E48EF10F01D
:10208800D89003360436052A04AE4DEF10F04FEF12
:1020980010F044EF10F00350015C04500258D8A02F
:1020A80058EF10F05AEF10F05EEF10F00350015E99
:1020B8000450025AD89004320332052E4FEF10F024
:1020C8000650D8B46AEF10F06CEF10F070EF10F013
:1020D800016C021ED8B0022A01C001F002C002F051
:1020E8001200036E000E076E000E066E8B948B9224
:1020F800035003247E0B016E026A800E0110046EE9
:102108000250056E000E096E080E086E04AE8FEFC1
:1021180010F091EF10F094EF10F08C8095EF10F024
:102128008C908B84D890043605368B940806D8A0FA
:10213800090608500910D8A4A4EF10F0A6EF10F073
:102148008AEF10F0000E096E080E086E8B84D89086
:102158000636073683B2B3EF10F0B7EF10F0016A16
:10216800012AB8EF10F0016A015006128B94080694
:10217800D8A0090608500910D8A4C5EF10F0C7EF79
:1021880010F0AAEF10F08B828B840650120084B0F6
:10219800D0EF10F0D2EF10F01EEF11F05D50D8A480
:1021A800D8EF10F0DAEF10F0FDEF10F0010E5D6ED1
:1021B8008C8C040E026E0C0E016E340EE82EFED7C7
:1021C800012EFCD7022EFAD78C9C040E026E0C0E40
:1021D800016E340EE82EFED7012EFCD7022EFAD758
:1021E80084A0F9EF10F0FBEF10F0F4EF10F01EEF01
:1021F80011F0010E5D6E8C8C040E026E0C0E016ED9
:10220800340EE82EFED7012EFCD7022EFAD78C9C6E
:10221800040E026E0C0E016E340EE82EFED7012E4F
:10222800FCD7022EFAD784A01CEF11F01EEF11F094
:1022380017EF11F01200000E29EC18F014EC19F049
:10224800AE0E88EC18F0D50E88EC18F0800E88ECED
:1022580018F0A80E88EC18F03F0E88EC18F0D30E92
:1022680088EC18F0000E88EC18F0400E88EC18F096
:102278008D0E88EC18F0140E88EC18F0200E88ECFF
:1022880018F0000E88EC18F0A10E88EC18F0C80EB3
:1022980088EC18F0DA0E88EC18F0120E88EC18F0BA
:1022A800810E88EC18F0CF0E88EC18F0D90E88EC67
:1022B80018F0F10E88EC18F0DB0E88EC18F0400EE0
:1022C80088EC18F0A40E88EC18F0A60E88EC18F02C
:1022D8002E0E88EC18F0AF0E88EC18F01200000EE5
:1022E800266E000E276E3DEC18F00009D8B47FEF7B
:1022F80011F081EF11F0C5EF11F0C40E286E000E39
:10230800296E28EC17F00009D8B48DEF11F08FEF83
:1023180011F0C3EF11F0F50E026E7F0E036EAAECFA
:1023280012F0000E2C6E000E2B6EC40E2B24D96EEC
:10233800000E2C20DA6ECE0E2B24E16E000E2C201F
:10234800E26EDFCFE7FF2B4A2C2A2CBEB5EF11F047
:102358002C5009E1050E2B5CD8A0B5EF11F0B7EFB2
:1023680011F099EF11F0CE0E0C6E000E0D6E5FECB1
:1023780017F0C40E016E000E026ED3EC16F05EEC80
:1023880015F01200040E0A6E050EBFEC18F0800E50
:102398000A6E0A0ECCEC18F0000E136EE0EF11F086
:1023A8000DC0D9FF0EC0DAFFDF50016E090EEBEC4D
:1023B80012F00D4A0E2A132A0F50135CD8A0E7EF2B
:1023C80011F0E9EF11F0D4EF11F0030E016E010ED8
:1023D800EBEC12F01368050E75EC10F0126E130694
:1023E8001350D8B4FAEF11F0FCEF11F003EF12F02C
:1023F80012A401EF12F003EF12F0EFEF11F0220E2A
:1024080075EC10F010C0D9FF11C0DAFFDF6E20EEB6
:1024180001F01050D9261150DA22210E75EC10F077
:10242800DF6E12000001EC51F0EC16F00001EC6FC9
:10243800EB51F0EC16F00001EB6FEA51F0EC16F0FE
:102448000001EA6F9651F0EC16F00001966F955175
:10245800F0EC16F00001956F9451F0EC16F00001C5
:10246800946F01EC18F0D00EC2EC17F0000EC2EC1D
:1024780017F00001EA51C2EC17F00001EB51C2EC71
:1024880017F00001EC51C2EC17F0010EC2EC17F086
:1024980000019451C2EC17F000019551C2EC17F0FD
:1024A80000019651C2EC17F0EDEC17F0100E0C6E0F
:1024B800940EE82EFED70C2EFCD700D01200026E28
:1024C800C7B469EF12F06BEF12F064EF12F0C5CFEA
:1024D80001F01F0E0116D8A474EF12F076EF12F077
:1024E80064EF12F0C586C7B47CEF12F07EEF12F0ED
:1024F80077EF12F0C5CF01F01F0E0116D8A487EFB1
:1025080012F089EF12F077EF12F0C9CF03F0C7B4D9
:1025180090EF12F092EF12F08BEF12F0C5CF01F0AE
:102528001F0E0116D8A49BEF12F09DEF12F08BEF4F
:1025380012F00250D8B4A3EF12F0A6EF12F0C58A39
:10254800A7EF12F0C59AC58803501200C0EF12F029
:1025580002C0F6FF03C0F7FFF86A070EF76403D05E
:102568000800F55005D0F6CFE1FFF7CFE2FFE750BE
:10257800EEEC18F0024A032A02C0F6FF03C0F7FF88
:10258800F86A070EF76403D00800F55005D0F6CFB7
:10259800E1FFF7CFE2FFE7500009D8A4D6EF12F029
:1025A800D8EF12F0ACEF12F00A0EAD6EACA2DFEF6E
:1025B80012F0E1EF12F0DAEF12F00D0EAD6EACA2F0
:1025C800E8EF12F0EAEF12F0E3EF12F01200026EF9
:1025D8008B948B92025002247E0B036E080E046EBD
:1025E80003AEF9EF12F0FBEF12F0FEEF12F08C8061
:1025F800FFEF12F08C908B84D89003368B940406EE
:102608000450D8A40AEF13F00CEF13F0F4EF12F013
:10261800080E046E01AE13EF13F015EF13F018EF68
:1026280013F08C8019EF13F08C908B84D8900136BE
:102638008B9404060450D8A424EF13F026EF13F06B
:102648000EEF13F08B828B841200000E066E000EC4
:10265800056E03500410D8B434EF13F036EF13F0BE
:102668005EEF13F0010E076E3EEF13F0D8900336BD
:102678000436072A04AE43EF13F045EF13F03AEFA0
:1026880013F0D890053606360350015C0450025802
:10269800D8A051EF13F053EF13F058EF13F0035095
:1026A800015E0450025A0580D89004320332072E86
:1026B80045EF13F005C001F006C002F01200BA0E93
:1026C8000001D36F000ED46FFA0ED56F7F0ED66F50
:1026D80095C001F0026A000E046E0A0E036EA0ECAB
:1026E8000EF001C0D7F002C0D8F095C001F0026A20
:1026F800000E046E0A0E036E1DEC10F001C0D9F036
:1027080002C0DAF0B4EC15F0000E096E320E086E55
:10271800000E0B6E060E0A6EBA0E0C6E000E0D6ED3
:1027280049EC0AF01200BA0E0001D36F000ED46F04
:10273800FA0ED56F7F0ED66F94C001F0026A000EB4
:10274800046E0A0E036EA0EC0EF001C0D7F002C0B2
:10275800D8F094C001F0026A000E046E0A0E036EEF
:102768001DEC10F001C0D9F002C0DAF0B4EC15F09D
:10277800000E096E5A0E086E000E0B6E060E0A6EDB
:10278800BA0E0C6E000E0D6E49EC0AF01200BA0E6D
:102798000001D36F000ED46FFA0ED56F7F0ED66F7F
:1027A80096C001F0026A000E046E0A0E036EA0ECD9
:1027B8000EF001C0D7F002C0D8F096C001F0026A4E
:1027C800000E046E0A0E036E1DEC10F001C0D9F065
:1027D80002C0DAF0B4EC15F0000E096E0A0E086EAD
:1027E800000E0B6E060E0A6EBA0E0C6E000E0D6E03
:1027F80049EC0AF01200BA0E0001D36F000ED46F34
:10280800FA0ED56F7F0ED66FEAC001F0026A000E8D
:10281800046E0A0E036EA0EC0EF001C0D7F002C0E1
:10282800D8F0EAC001F0026A000E046E0A0E036EC8
:102838001DEC10F001C0D9F002C0DAF0B4EC15F0CC
:10284800000E096E5A0E086E000E0B6E050E0A6E0B
:10285800BA0E0C6E000E0D6E49EC0AF01200BA0E9C
:102868000001D36F000ED46FEF0ED56F7F0ED66FB9
:10287800EBC001F0026A000E046E0A0E036EA0ECB3
:102888000EF001C0D7F002C0D8F0EBC001F0026A28
:10289800000E046E0A0E036E1DEC10F001C0D9F094
:1028A80002C0DAF0B4EC15F0000E096E320E086EB4
:1028B800000E0B6E050E0A6EBA0E0C6E000E0D6E33
:1028C80049EC0AF01200BA0E0001D36F000ED46F63
:1028D800EF0ED56F7F0ED66FECC001F0026A000EC6
:1028E800046E0A0E036EA0EC0EF001C0D7F002C011
:1028F800D8F0ECC001F0026A000E046E0A0E036EF6
:102908001DEC10F001C0D9F002C0DAF0B4EC15F0FB
:10291800000E096E0A0E086E000E0B6E050E0A6E8A
:10292800BA0E0C6E000E0D6E49EC0AF01200226E03
:10293800070E016E0D0EEBEC12F020C0D9FF21C07E
:10294800DAFF22C0DFFF20C00DF021C00EF0010E1B
:102958000F6E20C010F021C011F0240E126E000E70
:10296800136E0C0EA5EC05F0236E2350D8A4BFEF10
:1029780014F0C1EF14F0CBEF14F0100E241825104A
:10298800D8B4C9EF14F0CBEF14F0CDEF14F0020E69
:10299800236E2350120003500410D8B4D6EF14F05D
:1029A800D8EF14F0FCEF14F0010E056EE0EF14F010
:1029B800D89003360436052A04AEE5EF14F0E7EFA5
:1029C80014F0DCEF14F00350015C04500258D8A056
:1029D800F0EF14F0F2EF14F0F6EF14F00350015E8C
:1029E8000450025AD89004320332052EE7EF14F04F
:1029F80001C001F002C002F0120052C056F053C0EC
:102A080057F0000E0001896F000E886F1FEF15F058
:102A180050C040F051C041F0560E426E000E436E59
:102A280054C044F055C045F0ABEC08F040500001EC
:102A380088274150892356C0F6FF57C0F7FF080082
:102A4800F5500009D8A42BEF15F02DEF15F00CEF79
:102A580015F088C050F089C051F0120094929494F7
:102A68009590958295968B828C86A5EC18F08D0EA4
:102A7800016E2A0EEBEC12F03E0E016E2B0EEBEC03
:102A880012F01E0E016E2D0EEBEC12F0000E016E10
:102A98002C0EEBEC12F0400E016E150EEBEC12F062
:102AA8003D0E016E110EEBEC12F01DEC19F0F9EC75
:102AB80018F01200500E206E000E216E200E0D6EC2
:102AC800000E0E6E020E0F6E220E106E000E116EAC
:102AD800C6EC11F0800E0A6E080EBFEC18F0200E3E
:102AE8000D6E000E0E6E040E0F6E200E106E000E90
:102AF800116E240E126E000E136E0C0EA5EC05F06E
:102B0800080E0A6E080EBFEC18F01200000E056ED3
:102B1800000E046E000E076E000E066E64EC18F0D0
:102B280002EC19F0780EB2EC18F0400EB2EC18F086
:102B3800000E096E000E086E000EB2EC18F0084A7E
:102B4800092A09BEAFEF15F0040E095CD8A0AFEF53
:102B580015F0B1EF15F0A0EF15F014EC19F0120014
:102B6800D70E0001DD6F000EDE6FD3C0DFF0D4C0DA
:102B7800E0F0000EE26F000EE16F000EE46F000E51
:102B8800E36FDF0E506E000E516ED5C052F0D6C006
:102B980053F0DD0E546E000E556E01EC15F0000179
:102BA800E151D325D96EE251D421DA6E000EDF6EE1
:102BB80012008AEC15F0000E096E000E086E000E69
:102BC8000B6E000E0A6EE50E0C6E7F0E0D6E49EC54
:102BD8000AF0000E056E000E046E000E076E020E5F
:102BE800066E64EC18F0C80E076E7F0E086E63EC74
:102BF8000FF067EC14F033EC14F0FFEC13F0120054
:102C0800000E096E020E086E0CC001F00DC002F035
:102C1800000E046E640E036E29EC13F001500A6E68
:102C2800AAEC17F0000E096E030E086E0CC001F036
:102C38000DC002F0000E046E640E036ECFEC14F0AB
:102C480001500A6EAAEC17F01200000E151A000EB9
:102C5800161A000E171A800E181A11C001F012C0A9
:102C680002F013C003F014C004F015C005F016C03C
:102C780006F017C007F018C008F009EC00F001C012
:102C880011F002C012F003C013F004C014F01200D7
:102C980006009EA052EF16F054EF16F06DEF16F0F6
:102CA8000001904B912B915109E1020E905DD8A043
:102CB80060EF16F062EF16F068EF16F0010E5C6E2A
:102CC800000E916F000E906F150ECF6EB10ECE6E86
:102CD8009E905F921100460EF66E320EF76E000E51
:102CE800F86E00EEE5F010EE08F00900F5CFEEFF03
:102CF800E550E150FAE100EE60F0730EEE6AE80686
:102D0800FDE15E6A5D6A5C6A5B6A5A6A5F905F921F
:102D1800000EF86E0001CAEF0DF0000E106E000EE6
:102D28000F6EA2EF16F00EC001F0026A0CC003F09D
:102D38000DC004F03BEC0EF00F4A102A0F500A2485
:102D4800D96E10500B20DA6EDF500E6E0E50D8A4DC
:102D5800B0EF16F0B2EF16F097EF16F0120014BEAF
:102D6800C0EF16F0145006E11304D8B0BEEF16F009
:102D7800C0EF16F0CEEF16F013C015F014C016F021
:102D8800151E161E154A162A15C013F016C014F083
:102D9800D2EF16F013C013F014C014F01200000E96
:102DA800046E000E036E03500124D96E04500220F5
:102DB800DA6E000EDF6E034A042A04BEEDEF16F049
:102DC800045009E10A0E035CD8A0EDEF16F0EFEF0E
:102DD80016F0D7EF16F012000B6E0BC001F0026A66
:102DE800000E046E0A0E036E1DEC10F001C009F00F
:102DF80002C00AF00BC001F0026A000E046E0A0E4F
:102E0800036EA0EC0EF00150100DF35009241200CF
:102E1800000E036E020E026ED8EC17F0076E075014
:102E28000A6E0B6A000E036E030E026ED8EC17F0E2
:102E3800076E0A50086E07500A6E08C00BF00AC0E9
:102E480005F00BC006F0120028C020F029C021F0C0
:102E5800C3EC0FF02A6E20EE05F02850D926295031
:102E6800DA22000EDF6E2A50D8A43DEF17F03FEFAC
:102E780017F042EF17F0010E43EF17F0000E1200A3
:102E880001C003F002C004F04CEF17F0014A022A17
:102E980001C0D9FF02C0DAFFDF50D8A456EF17F0FF
:102EA80058EF17F04AEF17F00350015C016E045019
:102EB8000258026E12000CEC17F005C00EF006C0A6
:102EC8000FF0000E116E000E106E6DEF17F0104A25
:102ED800112A0E50105C0F501158D8A076EF17F039
:102EE80078EF17F06BEF17F01200C586C7A07FEFD9
:102EF80017F081EF17F07AEF17F0C9CF01F077ECF0
:102F080018F0C58AC588C5B88CEF17F08EEF17F092
:102F180087EF17F014EC19F0015012009DEF17F02D
:102F280002C0D9FF03C0DAFFDF50EEEC18F0024A06
:102F3800032A02C0D9FF03C0DAFFDF50D8A4A7EFE5
:102F480017F0A9EF17F094EF17F0120002EC19F040
:102F5800A00EB2EC18F00950B2EC18F00850B2EC20
:102F680018F00A50B2EC18F014EC19F00D0E0B6EB4
:102F7800FC0EE82EFED70B2EFCD71200026EC7B44B
:102F8800C8EF17F0CAEF17F0C3EF17F0C5CF01F07D
:102F98001F0E0116D8A4D3EF17F0D5EF17F0C3EF23
:102FA80017F002C0C9FF120002EC19F0A00EB2EC33
:102FB80018F00350B2EC18F00250B2EC18F00BEC19
:102FC80019F0A10EB2EC18F079EC17F0046E045069
:102FD8001200C7B4F2EF17F0F4EF17F0EDEF17F0A7
:102FE800C5CF01F01F0E0116D8A4FDEF17F0FFEFB3
:102FF80017F0EDEF17F0C5841200C7B406EF18F00C
:1030080008EF18F001EF18F0C5CF01F01F0E0116F8
:10301800D8A411EF18F013EF18F001EF18F0C580DD
:103028001200C7B41AEF18F01CEF18F015EF18F0DB
:10303800C5CF01F01F0E0116D8A425EF18F027EF11
:1030480018F015EF18F0C5821200016E9380938274
:103058000150D8A432EF18F034EF18F037EF18F019
:10306800C78E38EF18F0C79E280EC66E770EC86E4A
:10307800120026C020F027C021F0260E9BEC14F089
:103088000009D8A44AEF18F04CEF18F04FEF18F0E9
:10309800010E50EF18F0000E120001500302F3CF9A
:1030A80005F0F4CF06F001500402F3500626025052
:1030B8000302F350062605C001F006C002F0120014
:1030C800210E88EC18F0045088EC18F07F0E88EC7C
:1030D80018F0220E88EC18F0065088EC18F0070E4D
:1030E80088EC18F01200C7B47CEF18F07EEF18F0E7
:1030F80077EF18F0C5AC83EF18F085EF18F087EF7D
:1031080018F014EC19F01200026E02EC19F0780EA7
:10311800B2EC18F0000EB2EC18F00250B2EC18F055
:1031280014EC19F01200CD8ECD9CCD96CD92150ED3
:10313800CF6EB10ECE6ECD80300ECD129D809E909A
:1031480012008C8600D08C9600D08C8600D00F0E92
:10315800016E010EEBEC12F000D01200016E01C0FE
:10316800C9FFC7B0BAEF18F0BCEF18F0B5EF18F008
:1031780077EC18F012000C6E0C5075EC10F00B6E1A
:103188000A50FF0A0B14016E0C50EBEC12F01200FF
:103198000C6E0C5075EC10F00B6E0B500A10016E93
:1031A8000C50EBEC12F01200AC98AC8AAC9CAB8ED5
:1031B800AB9CAB88AC84B8969E9A9D8A1200026E2E
:1031C80002C001F00F0E011602380F0B0A0DF35062
:1031D80001241200016E01C0ADFFACA2F6EF18F099
:1031E800F8EF18F0F1EF18F01200140E75EC10F06B
:1031F800030E0A6E140ECCEC18F01200C580C5B090
:1032080008EF19F00AEF19F003EF19F01200C58260
:10321800C5B211EF19F013EF19F00CEF19F0120005
:10322800C584C5B41AEF19F01CEF19F015EF19F0A1
:103238001200030E0A6E140EBFEC18F01200A10063
:08324800010A14013116120005
:1070880000000000000000000000000000000000F8
:1070980000000000000000000000000000000000E8
:1070A8000000000000F8FCFCFCF8000000000000F4
:1070B800000000000000737373000000000000006F
:1070C80000000000001E3E3E0000003E3E1E000084
:1070D80000000000000000000000000000000000A8
:1070E8000000303030FEFE30303030FEFE303030C0
:1070F80000000C0C0C7F7F0C0C0C0C7F7F0C0C0C14
:1071080000000000F0F898FE9898FE989818000083
:10711800000000001819197F19197F191F0F0000A6
:10712800000000000038383880C0E07038000000E7
:1071380000000000001C0E0703011C1C1C000000BE
:107148000000000038FCC4C4FC38000000800000C7
:10715800000000001E3F2121333F1E1E3723000080
:107168000000000000203C3C1C0000000000000063
:107178000000000000000000000000000000000007
:107188000000000000C0E0F0381C0C0404000000FF
:10719800000000000003070F1C383020200000000A
:1071A800000000000004040C1C38F0E0C0000000DF
:1071B8000000000000202030381C0F0703000000EA
:1071C800000000808890E0E0FCFCE0E0908880000F
:1071D80000000001110907073F3F070709110100D7
:1071E8000000000000808080F0F0808080000000B7
:1071F80000000000000101010F0F01010100000063
:107208000000000000000000000000000000000076
:1072180000000000004078783800000000000000FE
:107228000000000080808080808080808080000056
:10723800000000000101010101010101010100003C
:107248000000000000000000000000000000000036
:10725800000000000000383838000000000000007E
:107268000000000000000000000080C0E070381C32
:10727800000000002030381C0E0703010000000049
:1072880000000000F8FCFC0484E474FCFCF8000036
:10729800000000001F3F3F2E2721203F3F1F000016
:1072A80000000000606060F0FCFC000000000000CE
:1072B800000000002020203F3F3F20202000000049
:1072C80000000000181C1C040484CCFC783000006A
:1072D8000000000030383C2E2723213838380000C1
:1072E80000000000181C1C848484CC7C78300000CA
:1072F80000000000183838212121333E1E0C000000
:107308000000000080C0603018FCFCFC0000000099
:107318000000000003030323233F3F3F2323000013
:1073280000000000FCFCFC848484848404040000C5
:1073380000000000193939212121333F1F0E0000B8
:1073480000000000E0F0F89C8C8484848000000039
:10735800000000001F3F3F212121213F3F1F000067
:10736800000000003C3C3C0404040484FCFC7C0059
:1073780000000000000000383C3E07030100000048
:1073880000000000787CFCC4C48484FC7C78000085
:10739800000000001E3E3F212123233F3E1E000027
:1073A80000000000F8FCFC84848484FCFCF80000E5
:1073B80000000000000121212131391F0F070000C2
:1073C8000000000000000070707000000000000065
:1073D800000000000000000E0E0E0000000000007B
:1073E8000000000000000070707000000000000045
:1073F800000000000000101E1E0E0000000000002B
:107408000000000080C0E070381C0E06020000007A
:10741800000000000103070E1C38706040000000E7
:1074280000000060606060606060606060606000D4
:1074380000000006060606060606060606060600FC
:107448000000000002060E1C3870E0C0800000003A
:1074580000000000406070381C0E070301000000A7
:1074680000000000181C0C0E0686CEFC7C380000BC
:1074780000000000000000007373730000000000AB
:1074880000000000FCFEFE0202C2C2C2FEFEFC00BA
:10749800000000003F3F7F60606363636343030055
:1074A80000000000E0F0F81C0C0C1CF8F0E00000F4
:1074B800000000003F3F3F020202023F3F3F000042
:1074C8000000000004FCFCFC848484FCFC780000C0
:1074D80000000000203F3F3F2121213F3F1E0000C8
:1074E80000000000F0F8FC0C0404041C1C18000048
:1074F800000000000F1F3F302020203838180000FF
:107508000000000004FCFCFC04040CFCF8F0000083
:1075180000000000203F3F3F2020303F1F0F0000A9
:107528000000000004FCFCFC848484C4CC1C000023
:1075380000000000203F3F3F212121233338000075
:107548000000000004FCFCFC848484C4CC1C000003
:1075580000000000203F3F3F21010103030000001D
:1075680000000000F0F8FC0C0404043C3C38000067
:10757800000000000F1F3F302022223E3E3E000048
:1075880000000000FCFCFC808080FCFCFC0000008B
:10759800000000003F3F3F0101013F3F3F00000066
:1075A80000000000000404FCFCFC040400000000CF
:1075B800000000000020203F3F3F20200000000086
:1075C80000000000000000000404FCFCFC040400AF
:1075D8000000001E1E3E202020203F3F1F0000000C
:1075E8000000000004FCFCFCC0E0703C1C0C000027
:1075F80000000000203F3F3F03070E3C38300000EA
:107608000000000004FCFCFC040000000000000076
:1076180000000000203F3F3F20202030383C000081
:1076280000000000FCFCFC78F0E0F078FCFCFC00BA
:10763800000000003F3F3F00000100003F3F3F00C7
:1076480000000000FCFCFC70E0C08000FCFCFC00BA
:10765800000000003F3F3F00000103073F3F3F009D
:1076680000000000E0F0F81C0C0C0C1CF8F0E00026
:1076780000000000070F1F38303030381F0F070098
:107688000000000004FCFCFC848484FCFC780000FE
:1076980000000000203F3F3F2101010101000000E0
:1076A80000000000E0F8F81C0C040C1CF8F8E000DE
:1076B80000000000071F1F18185C5E7E7F7F4700D0
:1076C8000000000004FCFCFC848484FCFC780000BE
:1076D80000000000203F3F3F0101033F3F3C000006
:1076E8000000000078FCFC84848484BC3C380000E2
:1076F800000000001C3C3D212121213F3F1E0000CD
:10770800000000001C0C0404FCFCFC04040C1C001D
:1077180000000000000020203F3F3F202000000024
:1077280000000000FCFCFC000000FCFCFC00000069
:10773800000000001F3F3F2020203F3F1F000000A7
:1077480000000000FCFCFC000000FCFCFC00000049
:1077580000000000070F1F3830381F0F0700000017
:1077680000000000FCFCFC0000800000FCFCFC00A9
:1077780000000000030F3F3C3C0F3C3C3F0F030060
:10778800000000001C3C7CE0C0E07C3C1C000000C9
:1077980000000000383C3E0703073E3C380000006C
:1077A800000000007CFCFC800080FCFC7C000000E9
:1077B800000000000020213F3F3F21200000000082
:1077C800000000003C1C0C0484C4E47C3C1C000049
:1077D80000000000383C3E2723212030383C0000C0
:1077E800000000000000FCFCFC040404040000008D
:1077F8000000000000003F3F3F2020202000000044
:10780800000000001C3870E0C0800000000000008C
:1078180000000000000000000103070E1C183020C3
:1078280020000000000004040404FCFCFC0000002C
:10783800000000000000202020203F3F3F00000003
:10784800000000002030381C0E0E1C3830200000CC
:107858000000000000000000000000000000000020
:107868000000000000000000000000000000000010
:107878000000C0C0C0C0C0C0C0C0C0C0C0C0C0C080
:10788800C00000000C0C3C3030000000000000007C
:1078980000000000000000000000000000000000E0
:1078A80000000000004040404040C0C08000000090
:1078B800000000001C3E3E2222223F1F3F20000005
:1078C8000000000004FCFCFC404040C0C0800000F8
:1078D80000000000203F1F3F2020203F3F1F0000E6
:1078E8000000000080C0C0404040C0C080000000D0
:1078F800000000001F3F3F202020393919000000F8
:107908000000000080C0C0404044FCFCFC040000B3
:10791800000000001F3F3F2020203F1F3F200000A5
:107928000000000080C0C0404040C0C0800000008F
:10793800000000001F3F3F2222223B3B1B000000AB
:10794800000000008080F8FCFC849C9C180000006B
:107958000000000021213F3F3F21210100000000DD
:107968000000000080C0C0404040C080C04000000F
:107978000000000047CFDF989898FFFF7F000000C5
:107988000000000004FCFCFC804040C0C0800000F7
:1079980000000000203F3F3F0100003F3F3F000044
:1079A8000000000000404040DCDCDC00000000007B
:1079B80000000000002020203F3F3F202020000042
:1079C80000000000000000404040DCDCDC0000005B
:1079D800000000002060E08080C0FFFF7F00000002
:1079E8000000000004FCFCFC000080C0C040000057
:1079F80000000000203F3F3F02070F3D38300000E5
:107A08000000000000040404FCFCFC00000000006E
:107A180000000000002020203F3F3F2020200000E1
:107A280000000000C0C0C04040C04040C0C080004E
:107A3800000000003F3F3F00003F00003F3F3F0085
:107A480000000000C0C0C0404040C0C0800000002E
:107A5800000000003F3F3F0000003F3F3F000000A4
:107A68000000000080C0C0404040C0C0800000004E
:107A7800000000001F3F3F2020203F3F1F00000064
:107A88000000000040C080C0404040C0C0800000EE
:107A98000000000080FFFFFF9010101F1F0F000064
:107AA80000000080C0C0404040C080C040000000CE
:107AB8000000000F1F1F101090FFFFFF8000000044
:107AC8000000000040C0C0C080C0C0C0C08000002E
:107AD80000000000203F3F3F21000001010100009D
:107AE8000000000080C0C040404040C0800000004E
:107AF80000000000193B232626263C3D1900000003
:107B0800000000004040E0F0F84040404000000025
:107B18000000000000001F3F3F2038381800000018
:107B280000000000C0C0C0000000C0C0C0000000CD
:107B3800000000001F3F3F2020203F1F3F20000083
:107B480000000000C0C0C0000000C0C0C0000000AD
:107B580000000000070F1F3830381F0F0700000013
:107B680000000000C0C0C00000000000C0C0C0008D
:107B780000000000070F3F38380E38383F0F070065
:107B880000000000C0C0C00000C0C0C0000000006D
:107B98000000000030393F0F0F3F3930000000006F
:107BA8000000000000C0C0C0000000C0C0C000004D
:107BB8000000000080878F9FD8F8783F0F070000EB
:107BC80000000000C0C0404040C0C0C0000000002D
:107BD8000000000031383C2E272331380000000017
:107BE800000000008080C0787C3C0404040400008D
:107BF800000000000101031E3E3C20202020000060
:107C08000000000000000000FEFEFE000000000072
:107C180000000000000000007F7F7F0000000000DF
:107C280000000000040404043C7C78C0808000004C
:107C380000000000202020203C3E1E03010100001F
:107C4800000000383C3C040C1C3830203C3C1C0034
:107C5800000000000000000000000000000000001C
:107C6800000000000000000000002F0000000007D6
:107C780000070000147F147F1400242A7F2A1200B2
:107C8800231308646200364955225000000503009A
:107C98000000001C224100000041221C00001408C2
:107CA8003E08140008083E0808000000A060000014
:107CB8000808080808000060600000002010080498
:107CC80002003E5149453E0000427F4000004261AB
:107CD800514946002141454B31001814127F1000CC
:107CE8002745454539003C4A494930000171090595
:107CF8000300364949493600064949291E0000361D
:107D0800360000000056360000000814224100002A
:107D1800141414141400004122140800020151091B
:107D28000600324959513E007C1211127C007F49ED
:107D3800494936003E41414122007F4141221C0011
:107D48007F49494941007F09090901003E414949E4
:107D58007A007F0808087F0000417F41000020402A
:107D6800413F01007F08142241007F40404040000D
:107D78007F020C027F007F0408107F003E414141D2
:107D88003E007F09090906003E4151215E007F0936
:107D98001929460046494949310001017F0101007E
:107DA8003F4040403F001F2040201F003F403840D8
:107DB8003F00631408146300070870080700615146
:107DC80049454300007F414100AA55AA55AA5500DC
:107DD8000041417F0000040201020400404040408D
:107DE80040000003050000002054545478007F48E8
:107DF80044443800384444442000384444487F0010
:107E0800385454541800087E0901020018A4A4A488
:107E18007C007F080404780000447D400000408016
:107E2800847D00007F102844000000417F4000004E
:107E38007C04180478007C0804047800384444441E
:107E48003800FC242424180018242418FC007C087A
:107E580004040800485454542000043F44402000BF
:107E68003C4040207C001C2040201C003C4030400E
:107E78003C004428102844001CA0A0A07C004464B6
:107E8800544C440000107C8200000000FF000000F9
:107E980000827C100000000609090600000003A00B
:107EA80000C00C00F94F806BEB00988C8052A580C5
:107EB80003000001C88089C00050850021C2000865
:107EC8004000208200002000188C00FA2F804BE030
:107ED800805A66808AA500E08F80EAAB0072A9000C
:107EE8009A8C00FAAF804AA700014000094000219F
:107EF800488051450089420042660072A6807A8710
:107F080080FAA500722500FA2700FAA880FA8800EE
:107F1800722B00F88F808BE8808BE800F88D80F852
:107F28002080F90F80F9CF80722700FA8400722729
:107F380040FA85804AA90083E800F02F00E06E002F
:107F4800F0EF00D88D80C0EC009AAC8003E880C0C8
:107F580081808BE000420400082080020400312365
:107F680080F92300312480312F8031628023EA0098
:107F7800255380F9038002E00006E000F842800300
:107F8800E0007987803903803123007D2300312781
:107F9800C078840029400043E40070270060660030
:107FA80070670048C48074578059E68023E88003CE
:107FB80060008BE200610C00C000F000FC00FF00D4
:107FC800524547495354524F20504552534F4E4102
:107FD8004C00486F6C61206D756E646F004C4543B2
:107FE8004F4D5045525500256425643A0049443A9E
:087FF80020002564256400004F
:020000040020DA
:08000000FFFFFFFFFFFFFFFF00
:020000040030CA
:0E000000010B191EFF0080FF0FC00FE00F4024
:00000001FF
