:020000040000FA
:0400000007EF00F016
:100008005F8287ED16F0CCEF16F00450800B0D6E72
:10001800045004240F6E03AE14EF00F016EF00F046
:1000280017EF00F00F800F50D8B41DEF00F01FEF4E
:1000380000F034EF00F00F28D8A425EF00F027EFE8
:1000480000F02FEF00F0000E016E000E026E000EA1
:10005800036E000E046E038E000E046E3CEF00F07B
:10006800000E016E000E026E000E036E000E046E8E
:100078000850800B0E6E0D500E18D8B446EF00F0E5
:1000880048EF00F049EF00F00D8C085008240E6E80
:1000980007AE51EF00F053EF00F054EF00F00E8080
:1000A8000E50D8B45AEF00F05CEF00F071EF00F09A
:1000B8000E28D8A462EF00F064EF00F06CEF00F0B7
:1000C800000E056E000E066E000E076E000E086E1E
:1000D800078E000E086E79EF00F0000E056E000E18
:1000E800066E000E076E000E086E0F500E5CD8B03C
:1000F80080EF00F082EF00F0A9EF00F00DAC87EF81
:1001080000F089EF00F08BEF00F0800E0D1A0FC0A1
:1001180010F00EC00FF010C00EF001C010F005C0B6
:1001280001F010C005F002C010F006C002F010C0C7
:1001380006F003C010F007C003F010C007F004C0B9
:1001480010F008C004F010C008F0000E106E0F5038
:100158000EC009F00A6A095E000E0A5A0ABEBEEF0E
:1001680000F00A5009E11A0E095CD8A0BEEF00F0B1
:10017800C0EF00F0F7EF00F0015002100310041078
:10018800D8A4C9EF00F0CCEF00F0010ECDEF00F0DD
:10019800000E106E000E016E000E026E000E036E51
:1001A800000E046E0EC00FF000EF01F010A0DFEF9C
:1001B80000F0E1EF00F0E7EF00F0D890103001090F
:1001C800106EE9EF00F0D890103201A0EEEF00F0C9
:1001D800F0EF00F0F1EF00F0108E04340432033237
:1001E800023201320F2A0E500F5CD8A0FEEF00F049
:1001F80000EF01F0DAEF00F00DBC05EF01F007EFBA
:1002080001F047EF01F00F50D8A40DEF01F00FEF08
:1002180001F019EF01F0000E016E000E026E000EE3
:10022800036E000E046E68EF02F0055001260650BA
:100238000222075003220850042204A026EF01F0EE
:1002480028EF01F0D4EF01F010A02DEF01F02FEF0F
:1002580001F035EF01F0D89010300109106E37EF3A
:1002680001F0D890103201A03CEF01F03EEF01F010
:100278003FEF01F0108E04340432033202320132AF
:100288000F2AD4EF01F00550015C065002580750C0
:1002980003580450800A096E0850800A0958D8B0DB
:1002A80058EF01F05AEF01F085EF01F00150055CBD
:1002B800096E025006580A6E035007580B6E045018
:1002C80008580C6EFF0E0924016EFF0E0A20026EFC
:1002D800FF0E0B20036EFF0E0C20046E800E0D1A0D
:1002E800106C1050D8A47BEF01F07DEF01F08DEF7A
:1002F80001F0010E0126000E0222032204228DEFD6
:1003080001F00550015E0650025A0750035A085082
:10031800045A0150021003100410D8A496EF01F0FB
:1003280098EF01F0CDEF01F01050D8A49EEF01F046
:10033800A0EF01F0CDEF01F0000E016E000E026E8D
:10034800000E036E000E046E68EF02F0D8900136BE
:1003580002360336043610AEB4EF01F0B6EF01F002
:10036800B7EF01F0018010A0BCEF01F0BEEF01F083
:10037800C2EF01F0D8801036C4EF01F0D8901036E3
:100388000F50D8B4CAEF01F0CCEF01F0CDEF01F077
:100398000F0603AED2EF01F0D4EF01F0AAEF01F09F
:1003A800000E0E6E10AEDBEF01F0DDEF01F0F5EFA1
:1003B80001F010C009F07F0E0916D8B4E6EF01F07D
:1003C800E8EF01F0ECEF01F0010E0E6EF5EF01F031
:1003D80001A0F1EF01F0F3EF01F0F5EF01F0E8EF24
:1003E80001F00E50D8B4FBEF01F0FDEF01F028EF5B
:1003F80002F0010E0126000E02220322042204A0AC
:1004080008EF02F00AEF02F028EF02F001C009F04D
:1004180002C00AF003C00BF004C00CF00C340C321C
:100428000B320A32093209C001F00AC002F00BC0CF
:1004380003F00CC004F00F28D8B425EF02F027EF22
:1004480002F028EF02F00F2A0F28D8B42EEF02F09E
:1004580030EF02F038EF02F00F50D8A436EF02F078
:1004680038EF02F04AEF02F0000E016E000E026E45
:10047800000E036E000E046E0F50D8A446EF02F073
:1004880048EF02F04AEF02F0000E0D6E0FA04FEF9A
:1004980002F051EF02F054EF02F0038E55EF02F034
:1004A800039ED8900F30046E0DAE5DEF02F05FEF43
:1004B80002F060EF02F0048E01C001F002C002F009
:1004C80003C003F004C004F012000450800B116E46
:1004D80004500424186E03AE74EF02F076EF02F0B5
:1004E80077EF02F018801850D8B47DEF02F07FEF54
:1004F80002F094EF02F01828D8A485EF02F087EFF5
:1005080002F08FEF02F0000E016E000E026E000E78
:10051800036E000E046E038E000E046E9CEF02F054
:10052800000E016E000E026E000E036E000E046EC9
:100538000850800B111A08500824196E07AEA7EF4F
:1005480002F0A9EF02F0AAEF02F019801950D8B40E
:10055800B0EF02F0B2EF02F0C7EF02F01928D8A40A
:10056800B8EF02F0BAEF02F0C2EF02F0000E056E2B
:10057800000E066E000E076E000E086E078E000E47
:10058800086ECFEF02F0000E056E000E066E000E2C
:10059800076E000E086E0550061007100810D8A444
:1005A800D8EF02F0DAEF02F0F2EF02F0000E016E7F
:1005B800000E026E000E036E000E046E800E031213
:1005C8007F0E04121150041201C001F002C002F0A3
:1005D80003C003F004C004F035EF04F01850D8A4A9
:1005E800F8EF02F0FAEF02F004EF03F0000E016EEC
:1005F800000E026E000E036E000E046E35EF04F05E
:10060800195018C009F00A6A095E000E0A5A7F0ECE
:100618000924126E000E0A20136E01C00DF002C0EC
:100628000EF003C00FF004C010F0000E016E000EB3
:10063800026E000E036E000E046E000E146E000EA5
:10064800156E000E166E000E176E000E196E65EF11
:1006580003F01950D8B433EF03F035EF03F04CEF43
:1006680003F0D8900D360E360F361036D890013676
:1006780002360336043617AE44EF03F046EF03F0B4
:1006880047EF03F00180D890143615361636173622
:1006980005500D5C06500E5807500F58085010585A
:1006A800D8A059EF03F05BEF03F064EF03F0178C69
:1006B80005500D5E06500E5A07500F5A0850105A32
:1006C800192A190E19646BEF03F06DEF03F02DEF83
:1006D80003F00D500E100F101010D8B476EF03F081
:1006E80078EF03F090EF03F0148090EF03F0D890C8
:1006F800013602360336043617AE85EF03F087EF6E
:1007080003F088EF03F00180D890143615361636BA
:1007180017361206D8A0130603AE95EF03F097EF2D
:1007280003F07BEF03F0000E196E17AE9EEF03F097
:10073800A0EF03F0C4EF03F0FF0E1414096EFF0ED0
:1007480015140A6EFF0E16140B6E7F0E17140C6E1E
:1007580009500A100B100C10D8B4B5EF03F0B7EF1E
:1007680003F0BBEF03F0010E196EC4EF03F001A014
:10077800C0EF03F0C2EF03F0C4EF03F0B7EF03F0EC
:100788001950D8B4CAEF03F0CCEF03F0F0EF03F040
:10079800010E0126000E02220322042204A0D7EF34
:1007A80003F0D9EF03F0F0EF03F001C009F002C045
:1007B8000AF003C00BF004C00CF00C340C320B32FE
:1007C8000A32093209C001F00AC002F00BC003F076
:1007D8000CC004F0124A132A13BEFBEF03F01350A7
:1007E80008E11228D8A0FBEF03F0FDEF03F008EFB3
:1007F80004F0000E136E1268000E016E000E026EF9
:10080800000E036E000E046E13BE15EF04F01350B5
:1008180006E11204D8B013EF04F015EF04F023EF4B
:1008280004F0000E136E000E126E000E016E000E24
:10083800026E000E036E000E046E000E116E12C0E2
:1008480018F018A02AEF04F02CEF04F02FEF04F0B2
:10085800038E30EF04F0039ED8901830046EE6EF54
:1008680002F012001EC036F01FC037F020C038F06A
:1008780021C039F022C03AF023C03BF024C03CF03C
:1008880025C03DF03DBE4BEF04F04EEF04F0010EE5
:100898004FEF04F0000E346E356A34503510D8B47A
:1008A80058EF04F05AEF04F06AEF04F03D1E3C1EC6
:1008B8003B1E3A1E391E381E371E366C000E372274
:1008C800382239223A223B223C223D2200018DBFA8
:1008D80070EF04F072EF04F073EF04F05C928DBFD8
:1008E80080EF04F08D5106E18C05D8B07EEF04F05E
:1008F80080EF04F086EF04F0000E316E010E306ECA
:100908008AEF04F08CC030F08DC031F08AC032F02C
:100918008BC033F034503510D8A495EF04F097EF1E
:1009280004F09EEF04F05CA49CEF04F09EEF04F04A
:10093800A1EF04F03206D8A03306000E3F6E1F0E5A
:100948003E6E000EB86F25EF05F03E06D8A03F06B4
:10095800990E3E24D96E000E3F20DA6E36C001F0A3
:1009680037C002F038C003F039C004F03AC005F0CF
:100978003BC006F03CC007F03DC008F00A0E096E07
:10098800000E0A6E000E0B6E000E0C6E000E0D6E41
:10099800000E0E6E000E0F6E000E106EFFEC0AF0C9
:1009A80001C026F002C027F003C028F004C029F0D7
:1009B80005C02AF006C02BF007C02CF008C02DF0A7
:1009C80026C013F028C014F0ECEC16F01350300FCA
:1009D800DF6E3006D8A031063206D8A0330636C0FE
:1009E80001F037C002F038C003F039C004F03AC053
:1009F80005F03BC006F03CC007F03DC008F00A0E09
:100A0800096E000E0A6E000E0B6E000E0C6E000EC4
:100A18000D6E000E0E6E000E0F6E000E106E85EC41
:100A280009F001C036F002C037F003C038F004C046
:100A380039F005C03AF006C03BF007C03CF008C0EA
:100A48003DF03FBE30EF05F03F5008E13E04D8A02E
:100A580030EF05F032EF05F062EF05F03650371051
:100A6800381039103A103B103C103D10D8A43FEF15
:100A780005F041EF05F0A9EF04F031BE4EEF05F0A7
:100A8800315006E13004D8B04CEF05F04EEF05F0D8
:100A9800A9EF04F033BE59EF05F0335008E13204F2
:100AA800D8A059EF05F05BEF05F062EF05F05CB2F6
:100AB80060EF05F062EF05F0A9EF04F0345035104F
:100AC800D8A469EF05F06BEF05F072EF05F05CA4B0
:100AD80070EF05F072EF05F090EF05F03E06D8A034
:100AE8003F0634503510D8A47CEF05F07EEF05F0B2
:100AF80084EF05F0000E2F6E2B0E2E6E88EF05F09A
:100B0800000E2F6E2D0E2E6E990E3E24D96E000EFD
:100B18003F20DA6E2EC0DFFF1CC011F01DC012F09E
:100B2800990E3E24136E000E3F20146E32C015F04D
:100B380033C016F08FEC0FF011C01CF012C01DF07E
:100B480012001C6E020E196E000E1B6E000E186E3F
:100B5800BAEF05F0120E1B6E100E186ECFEF05F0EF
:100B6800770E1B6E300E186ECFEF05F01C50146E0A
:100B7800156A1550000AD8B4C4EF05F0CFEF05F098
:100B880014500C0AD8B4B4EF05F0020AD8B4AEEF8A
:100B980005F0CFEF05F01B508009016E020E26EC20
:100BA80013F0800E0A6E040EF8EC18F0800E0A6E30
:100BB8000A0E05EC19F0000E016E010E26EC13F07A
:100BC800000E1E6E000E1D6EF7EF05F01D500D2471
:100BD800D96E1E500E20DA6EDF50016E090E26EC1B
:100BE80013F01D4A1E2A0F50146E156A14501D5C0E
:100BF80015501E58D8A003EF06F005EF06F0EAEFEF
:100C080005F01CC001F0010E26EC13F00C0E1C18A8
:100C1800D8A411EF06F013EF06F018EF06F0800ED7
:100C28000A6E0D0E05EC19F01D681E68040E02EC24
:100C380011F01F6E1D06D8A01E061D501E10D8B438
:100C480028EF06F02AEF06F03BEF06F01FB02FEF73
:100C580006F031EF06F03BEF06F01F5018140009BC
:100C6800D8B439EF06F03BEF06F01AEF06F0800E25
:100C78000A6E0D0EF8EC18F01D501E10D8B447EF90
:100C880006F049EF06F0EAEF06F0060E02EC11F066
:100C9800146E1B0E1416D8A454EF06F056EF06F087
:100CA800E8EF06F0000E196E1F501B14146E14A006
:100CB80060EF06F062EF06F064EF06F0010E196EC1
:100CC8000C0E1C18D8A46BEF06F06DEF06F0EAEFD7
:100CD80006F00A0E02EC11F01F6E0C0E02EC11F079
:100CE800070B1A6E1A50D8B47CEF06F07EEF06F0A8
:100CF800A0EF06F0F80E146EFF0E156E1A501FC006
:100D080016F0176AD89016361736D8901636173652
:100D1800D890163617361626000E172214501626A7
:100D28001550172212C0D9FF13C0DAFF16C0DEFF14
:100D380017C0DDFFAAEF06F01F50080D12C0D9FF3B
:100D480013C0DAFFF3CFDEFFF4CFDDFF1F50D8A4C6
:100D5800B0EF06F0B2EF06F0B4EF06F0010E1F6E2A
:100D6800100E1F64BAEF06F0BCEF06F0BEEF06F0F7
:100D7800100E1F6E000E1E6E000E1D6ED0EF06F0D8
:100D88001D501024D96E1E501120DA6E090E02EC87
:100D980011F0DF6E1D4A1E2A1F50146E156A14507A
:100DA8001D5C15501E58D8A0DCEF06F0DEEF06F0EB
:100DB800C4EF06F01D501024D96E1E501120DA6EB3
:100DC800000EDF6EEAEF06F0020E196E19501200DF
:100DD800000E2D6E240E2E6EF40E2F6E4A0E306EFF
:100DE80025C001F026C002F027C003F028C004F097
:100DF800000ED1EC07F001C029F002C02AF003C0B0
:100E08002BF004C02CF02DC001F02EC002F02FC032
:100E180003F030C004F029C005F02AC006F02BC04A
:100E280007F02CC008F069EC02F001C02DF002C0F8
:100E38002EF003C02FF004C030F02850271008E12E
:100E480025044B0E2658D8B02CEF07F02EEF07F0EC
:100E58004BEF07F0AC942DC001F02EC002F02FC06C
:100E680003F030C004F0000E056E000E066E800E12
:100E7800076E420E086E69EC02F001C02DF002C048
:100E88002EF003C02FF004C030F066EF07F0AC84FA
:100E98002DC001F02EC002F02FC003F030C004F0C6
:100EA800000E056E000E066E800E076E410E086E6F
:100EB80069EC02F001C02DF002C02EF003C02FF043
:100EC80004C030F02DC001F02EC002F02FC003F096
:100ED80030C004F0000E056E000E066E800E076E20
:100EE800BF0E086E09EC00F001C02DF002C02EF014
:100EF80003C02FF004C030F02DC001F02EC002F066
:100F08002FC003F030C004F052EC0DF001C025F002
:100F180002C026F003C027F004C028F025C001F065
:100F280026C002F027C003F028C004F0000ED1EC60
:100F380007F001C015F002C016F003C017F004C096
:100F480018F02DC011F02EC012F02FC013F030C0D1
:100F580014F064EC16F011C019F012C01AF013C0A6
:100F68001BF014C01CF0000E1D6E000E1E6E000E4D
:100F78001F6E3F0E206ED5EC0DF0D8A0C6EF07F01F
:100F8800C8EF07F0CEEF07F0010E2526000E262247
:100F98002722282225C0AFFF1200096E0950D8B4B5
:100FA800D8EF07F0DAEF07F0FCEF07F004BEE1EF47
:100FB80007F0DFEF07F0FCEF07F001C005F002C013
:100FC80006F003C007F004C008F0051E061E071E41
:100FD800081E052A000E06220722082205C00BF06B
:100FE80006C00CF007C00DF008C00EF004EF08F0C2
:100FF80001C00BF002C00CF003C00DF004C00EF0ED
:101008000150021003100410D8A40DEF08F00FEFE0
:1010180008F019EF08F0000E016E000E026E000EC7
:10102800036E000E046EAAEF08F0960E0A6E23EF08
:1010380008F00A2AD8900E320D320C320B32000E0C
:101048000B14056E000E0C14066E000E0D14076EC0
:10105800FE0E0E14086E0550061007100810D8A4CE
:1010680038EF08F03AEF08F01DEF08F048EF08F005
:101078000A2A010E0B26000E0C220D220E22D890F1
:101088000E320D320C320B32000E0B14056E000EB0
:101098000C14066E000E0D14076EFF0E0E14086E6B
:1010A8000550061007100810D8A45DEF08F05FEF90
:1010B80008F03CEF08F067EF08F00A06D8900B3606
:1010C8000C360D360E360DBE6CEF08F06EEF08F0DC
:1010D80076EF08F0020E0A6074EF08F076EF08F079
:1010E80061EF08F00AB07BEF08F07DEF08F07EEFC3
:1010F80008F00D9ED8900A320AC005F0066A076A01
:10110800086A05C008F0076A066A056A05500B12E6
:1011180006500C1207500D1208500E120950D8B480
:1011280098EF08F09AEF08F0A2EF08F004BEA1EFDC
:1011380008F09FEF08F0A2EF08F00E8E0BC001F048
:101148000CC002F00DC003F00EC004F0120042C043
:10115800D9FF43C0DAFFDECFF6FFDDCFF7FF080087
:10116800F550250AD8A4BBEF08F0BDEF08F069EFE9
:1011780009F042C0D9FF43C0DAFFDE2A000EDD22A3
:10118800000E00018B6F000E8A6F8AC05CF08BC066
:101198005DF08C698D6942C0D9FF43C0DAFFDECFAC
:1011A800F6FFDDCFF7FF0800F550640AD8B4DFEF8B
:1011B80008F0E1EF08F0F3EF08F042C0D9FF43C0B0
:1011C800DAFFDECFF6FFDDCFF7FF0800F550690A3A
:1011D800D8A4F1EF08F0F3EF08F033EF09F042C0BC
:1011E800D9FF43C0DAFFDE2A000EDD2244C0D9FF52
:1011F80045C0DAFFDFCF46F0020EDE26DFCF47F02C
:10120800000EDD2246C0D9FF47C0DAFFDECF48F026
:10121800DDCF49F0000E49BEFF0E4A6E4B6E4C6E94
:101228004D6E4E6E4F6E40C01CF041C01DF048C060
:101238001EF049C01FF04AC020F04BC021F04CC03E
:1012480022F04DC023F04EC024F04FC025F036ECFC
:1012580004F01CC040F01DC041F084EF09F042C00A
:10126800D9FF43C0DAFFDECFF6FFDDCFF7FF080076
:10127800F550250AD8A443EF09F045EF09F05CEFD3
:1012880009F042C0D9FF43C0DAFFDE2A000EDD2292
:10129800000E026E250E016E40C003F041C004F03E
:1012A800C8EC0EF0000E416E010E406E84EF09F09E
:1012B80042C0D9FF43C0DAFFDE2A000EDD22000E4D
:1012C800416E000E406E84EF09F042C0D9FF43C062
:1012D800DAFFDECFF6FFDDCFF7FF0800F550016E2D
:1012E800026A40C003F041C004F0C8EC0EF042C0EE
:1012F800D9FF43C0DAFFDE2A000EDD2256EF09F0DF
:101308001200000E126E10BE8EEF09F08CEF09F07D
:10131800A0EF09F0101E0F1E0E1E0D1E0C1E0B1E38
:101328000A1E096C000E0A220B220C220D220E2224
:101338000F221022010E126E08BEA7EF09F0A5EFCA
:1013480009F0B9EF09F0081E071E061E051E041E47
:10135800031E021E016C000E022203220422052233
:10136800062207220822010E121A20EE13F0070E99
:10137800DE6AE806FDE209500A100B100C100D1089
:101388000E100F101010D8B4CCEF09F0CEEF09F002
:1013980020EF0AF0010E116EDCEF09F0D890093643
:1013A8000A360B360C360D360E360F361036112A25
:1013B80010AEE1EF09F0E3EF09F0D2EF09F0D890B1
:1013C80013361436153616361736183619361A36B1
:1013D8000950015C0A5002580B5003580C5004582D
:1013E8000D5005580E5006580F5007581050085801
:1013F800D8A001EF0AF003EF0AF014EF0AF0095041
:10140800015E0A50025A0B50035A0C50045A0D50F0
:10141800055A0E50065A0F50075A1050085A138092
:10142800D89010320F320E320D320C320B320A3293
:101438000932112EE3EF09F01250D8B426EF0AF062
:1014480028EF0AF038EF0AF01A1E191E181E171E88
:10145800161E151E141E136C000E142215221622B9
:101468001722182219221A2213C001F014C002F000
:1014780015C003F016C004F017C005F018C006F038
:1014880019C007F01AC008F0120008C004F009C01B
:1014980005F00AC006F00BC007F09DEC18F0E6EF67
:1014A8000AF0000E1A6E000E196E19500A24126EF8
:1014B8001A500B20136E08C004F009C005F012C0C2
:1014C80006F013C007F09DEC18F03BEC19F0780E0D
:1014D800EBEC18F0400EEBEC18F00CC0F6FF0DC06A
:1014E800F7FFF86A070EF76403D00800F55005D037
:1014F800F6CFE1FFF7CFE2FFE750146EE00E1424B9
:10150800156E166AFF0E162219C00EF01AC00FF0DB
:101518000E3A0F3AF00E0F160E500F0B0F12F00E78
:101528000E1615C010F016C011F0050ED890103622
:101538001136E82E9AEF0AF00E501024156E0F504F
:101548001120166E000E186E000E176E890E0E6EA4
:10155800700E0F6E15500E2616500F2217500E26BD
:1015680018500F220EC0F6FF0FC0F7FF0800F55005
:10157800EBEC18F0174A182A18BECCEF0AF01850EE
:1015880009E1100E175CD8A0CCEF0AF0CEEF0AF0F4
:10159800AAEF0AF04DEC19F0194A1A2A1ABEDEEF22
:1015A8000AF01A5009E1020E195CD8A0DEEF0AF021
:1015B800E0EF0AF059EF0AF00D0E0826000E092296
:1015C8000C4A0D2A0CC0F6FF0DC0F7FFF86A070E8B
:1015D800F76403D00800F55005D0F6CFE1FFF7CF48
:1015E800E2FFE7500009D8A4FCEF0AF0FEEF0AF08A
:1015F80055EF0AF01200000E126E08BE08EF0BF04D
:1016080006EF0BF01AEF0BF0081E071E061E051E4C
:10161800041E031E021E016C000E02220322042275
:101628000522062207220822010E126E10BE21EFA3
:101638000BF01FEF0BF031EF0BF0101E0F1E0E1EFC
:101648000D1E0C1E0B1E0A1E096C000E0A220B2210
:101658000C220D220E220F22102209500A100B1004
:101668000C100D100E100F101010D8B43EEF0BF028
:1016780040EF0BF088EF0BF0010E116E4EEF0BF000
:10168800D89009360A360B360C360D360E360F361C
:101698001036112A10AE53EF0BF055EF0BF044EF54
:1016A8000BF00950015C0A5002580B5003580C50BB
:1016B80004580D5005580E5006580F500758105032
:1016C8000858D8A06AEF0BF06CEF0BF07CEF0BF02A
:1016D8000950015E0A50025A0B50035A0C50045A22
:1016E8000D50055A0E50065A0F50075A1050085AF6
:1016F800D89010320F320E320D320C320B320A32C1
:101708000932112E55EF0BF01250D8B48EEF0BF0B2
:1017180090EF0BF0A0EF0BF0081E071E061E051E2B
:10172800041E031E021E016C000E02220322042264
:10173800052206220722082201C001F002C002F099
:1017480003C003F004C004F005C005F006C006F0AD
:1017580007C007F008C008F012000001EE511CECA9
:1017680019F00001EE6FED511CEC19F00001ED6F5E
:10177800EC511CEC19F00001EC6FB90ED26F000EA1
:10178800D36FEF0ED46F7F0ED56FEEC001F0026AF3
:10179800000E046E0A0E036E2DEC0FF001C0D6F099
:1017A80002C0D7F0EEC001F0026A000E046E0A0E05
:1017B800036EAAEC10F001C0D8F002C0D9F0EFEC2B
:1017C80015F0B90E026E000E036EE3EC17F0B90EB9
:1017D8000001D26F000ED36FEF0ED46F7F0ED56F5E
:1017E800EDC001F0026A000E046E0A0E036E2DECC5
:1017F8000FF001C0D6F002C0D7F0EDC001F0026AC8
:10180800000E046E0A0E036EAAEC10F001C0D8F0A8
:1018180002C0D9F0EFEC15F0B90E026E000E036E9F
:10182800E3EC17F0B90E0001D26F000ED36FFA0E79
:10183800D46F7F0ED56FECC001F0026A000E046E03
:101848000A0E036E2DEC0FF001C0D6F002C0D7F0DF
:10185800ECC001F0026A000E046E0A0E036EAAECD8
:1018680010F001C0D8F002C0D9F0EFEC15F0B90EB5
:10187800026E000E036EE5EC12F0120084B047EF22
:101888000CF049EF0CF095EF0CF05E50D8A44FEF38
:101898000CF051EF0CF074EF0CF0010E5E6E8C8CB6
:1018A800040E026E0C0E016E340EE82EFED7012EC9
:1018B800FCD7022EFAD78C9C040E026E0C0E016E19
:1018C800340EE82EFED7012EFCD7022EFAD784A0BC
:1018D80070EF0CF072EF0CF06BEF0CF095EF0CF072
:1018E800010E5E6E8C8C040E026E0C0E016E340EB0
:1018F800E82EFED7012EFCD7022EFAD78C9C040EB8
:10190800026E0C0E016E340EE82EFED7012EFCD7A7
:10191800022EFAD784A093EF0CF095EF0CF08EEF1F
:101928000CF084B29AEF0CF09CEF0CF0CEEF0CF0B8
:101938005E50D8B4A2EF0CF0A4EF0CF0CEEF0CF090
:101948000001ED2B3B0EED65ACEF0CF0AEEF0CF0AB
:10195800BBEF0CF0000EED6FEE2B170EEE65B7EF38
:101968000CF0B9EF0CF0BBEF0CF0000EEE6F030EAD
:10197800026E080E016E770EE82EFED7012EFCD7F8
:10198800022EFAD700F084A2CCEF0CF0CEEF0CF0C8
:10199800C7EF0CF012003AEC18F0D00EFBEC17F081
:1019A800000EFBEC17F04EEC18F0D10EFBEC17F024
:1019B800010E9EEC12F00001EC6F010E9EEC12F08D
:1019C8000001ED6F010E9EEC12F00001EE6F9751D1
:1019D800EE19D8B4F2EF0CF0F4EF0CF0F8EF0CF0CD
:1019E800EEC097F0A2EC14F000019651ED19D8B4AE
:1019F80000EF0DF002EF0DF006EF0DF0EDC096F0E0
:101A08006EEC14F000019551EC19D8B40EEF0DF0FE
:101A180010EF0DF014EF0DF0ECC095F03AEC14F067
:101A2800010E9EEC12F0010E9EEC12F00001E96F1F
:101A3800010E9EEC12F00001EA6F000E9EEC12F00F
:101A48000001EB6FE651E919D8B42DEF0DF02FEF37
:101A58000DF033EF0DF0D2EC13F0E9C0E6F0000121
:101A6800E751EA19D8B43BEF0DF03DEF0DF041EF27
:101A78000DF0EAC0E7F09EEC13F00001E851EB1915
:101A8800D8B449EF0DF04BEF0DF04FEF0DF0EBC070
:101A9800E8F006EC14F026EC18F0120003340434D5
:101AA8000A6E0A50D8A45BEF0DF05DEF0DF067EFFA
:101AB8000DF0000E016E000E026E000E036E000E99
:101AC800046ED4EF0DF001C005F002C006F003C0AB
:101AD80007F004C008F0200E77EF0DF0D890083218
:101AE800073206320532E82E72EF0DF00550096E06
:101AF800038EFF0E0116FF0E0216FF0E0316000ED0
:101B08000416960E0A5E0ABE8EEF0DF08CEF0DF0ED
:101B1800A4EF0DF00A50800A970FD8B096EF0DF099
:101B280098EF0DF09AEF0DF05DEF0DF0D8900432BC
:101B38000332023201320A3E9AEF0DF0BCEF0DF08B
:101B48001F0E0A64AAEF0DF0ACEF0DF0B4EF0DF024
:101B58005DEF0DF0D89001360236033604360A06DA
:101B68000A50D8A4BAEF0DF0BCEF0DF0AEEF0DF0AF
:101B78000950D8B4C2EF0DF0C4EF0DF0CCEF0DF062
:101B8800041E031E021E016C000E02220322042200
:101B980001C001F002C002F003C003F004C004F069
:101BA8001200000E1914216E000E1A14226E800EF7
:101BB8001B14236E7F0E1C14246E21502210231038
:101BC8002410D8A4EAEF0DF0ECEF0DF0F4EF0DF0CF
:101BD800000E196E000E1A6E000E1B6E000E1C6EA3
:101BE800000E1D14216E000E1E14226E800E1F148E
:101BF800236E7F0E2014246E2150221023102410EF
:101C0800D8A409EF0EF00BEF0EF013EF0EF0000E54
:101C18001D6E000E1E6E000E1F6E000E206E1CAE96
:101C280018EF0EF01AEF0EF023EF0EF0196C1A1ED3
:101C3800D8B01A2A1B1ED8B01B2A800E1C5620AEFC
:101C480028EF0EF02AEF0EF033EF0EF01D6C1E1E7B
:101C5800D8B01E2A1F1ED8B01F2A800E2056000E8C
:101C6800191A000E1A1A000E1B1A800E1C1A000EE2
:101C78001D1A000E1E1A000E1F1A800E201A1D5063
:101C8800195C1E501A581F501B5820501C58D8B0A9
:101C980050EF0EF052EF0EF055EF0EF0D89056EFD1
:101CA8000EF0D8801200700ED3120F0EC16E0F0EF8
:101CB800966EF28EF28CD0EC18F011EC19F0800EC2
:101CC800256E250E266E000E276E000E286EECEC93
:101CD80006F0DA0E026E7F0E036EE5EC12F0100EBF
:101CE8005B6E390E5A6E0E0EE82EFED75A2EFCD7B2
:101CF8005B2EFAD7ADEC11F018EC16F051EC12F09F
:101D08006DEC15F0000E036E010E026E11EC18F06A
:101D1800160AD8B492EF0EF094EF0EF0A4EF0EF07E
:101D2800000E0D6E000E0C6E3FEC16F0000E096EE4
:101D3800010E086E160E0A6ECBEC17F0AAEF0EF025
:101D480045EC17F005C08EF006C08FF042EC0CF0A1
:101D58005E50D8A4B2EF0EF0B4EF0EF0AAEF0EF07A
:101D680000019451D8B4BBEF0EF0BDEF0EF0C2EFF6
:101D78000EF0CFEC0CF0000E0001946F58EC11F04F
:101D8800AAEF0EF007EF00F003500410D8B4CFEF1D
:101D98000EF0D1EF0EF0DAEF0EF003500410D8A4D5
:101DA800D8EF0EF0DAEF0EF0DFEF0EF0015062EC34
:101DB80019F02CEF0FF020EE04F00350D926045050
:101DC800DA22DE50DE10D8B4ECEF0EF0EEEF0EF0B3
:101DD80009EF0FF020EE04F00350D9260450DA2260
:101DE80010EE02F00350E1260450E222DE50E65CD9
:101DF800E650800A096EDE50800A0958D8B007EF0D
:101E08000FF009EF0FF02CEF0FF020EE02F0035067
:101E1800D9260450DA22DECF05F0DDCF06F003C064
:101E2800D9FF04C0DAFFDECF07F0DDCF08F0055098
:101E38000724D96E06500820DA6E01C0DFFF20EEB5
:101E480002F00350D9260450DA22DE2A000EDD22E1
:101E58001200000E066E04BE36EF0FF034EF0FF0DE
:101E68003CEF0FF0036C041ED8B0042A010E066E76
:101E780002BE43EF0FF041EF0FF049EF0FF0016C96
:101E8800021ED8B0022A010E061A000E086E000EB5
:101E9800076E03500410D8B454EF0FF056EF0FF04C
:101EA8007EEF0FF0010E056E5EEF0FF0D89003364F
:101EB8000436052A04AE63EF0FF065EF0FF05AEF12
:101EC8000FF0D890073608360350015C04500258CA
:101ED800D8A071EF0FF073EF0FF078EF0FF0035009
:101EE800015E0450025A0780D89004320332052E4E
:101EF80065EF0FF00650D8B484EF0FF086EF0FF0BF
:101F08008AEF0FF0076C081ED8B0082A07C001F046
:101F180008C002F012005CA094EF0FF096EF0FF0EB
:101F2800A0EF0FF013C00AF014C00BF011C00CF0B2
:101F380012C00DF0AAEC16F016BEA5EF0FF0A7EF31
:101F48000FF0ADEF0FF015C01AF016C01BF0B1EF8F
:101F58000FF0000E1B6E000E1A6E000E196E000EAA
:101F6800186EC3EF0FF0000E026E200E016E11C046
:101F780003F012C004F0C8EC0EF0184A192A1A50DF
:101F8800185C1950800A176E1B50800A1758D8A081
:101F9800D0EF0FF0D2EF0FF0B7EF0FF05CB0D7EF44
:101FA8000FF0D9EF0FF0E3EF0FF013C00AF014C0F1
:101FB8000BF011C00CF012C00DF0AAEC16F013C013
:101FC80001F014C002F07DEC17F01A500124116ED4
:101FD8001B500220126E12003BEC19F0780EEBEC4D
:101FE80018F0400EEBEC18F03FEF10F007C0F6FFCA
:101FF80008C0F7FF0800F5CF0BF0E00E0B240C6EBD
:102008000D6AFF0E0D220CC001F00DC002F0000E8B
:10201800046E060E036E8AEC18F001C00CF002C0C4
:102028000DF0000E0F6E000E0E6E690E096E7C0E1E
:102038000A6E0C5009260D500A220E5009260F5020
:102048000A2209C0F6FF0AC0F7FF0800F550EBECBA
:1020580018F00E4A0F2A0FBE3BEF10F00F5009E19F
:10206800060E0E5CD8A03BEF10F03DEF10F019EF14
:1020780010F0074A082A07C0F6FF08C0F7FF080053
:10208800F5500009D8A44BEF10F04DEF10F0FAEF1F
:102098000FF04DEC19F01200000E236E000E016EC9
:1020A8000D0E26EC13F020C0D9FF21C0DAFF930EE5
:1020B800DF6E20EE01F02050D9262150DA22200EC2
:1020C800DF6E080E0A6E080EF8EC18F020C00DF04E
:1020D80021C00EF0020E0F6E20C010F021C011F0CA
:1020E800240E126E000E136E0C0EA5EC05F0266E73
:1020F8002650D8A482EF10F084EF10F0A8EF10F06B
:10210800000E276E27502024D96E000E2120DA6E8B
:10211800DF50231A272A030E276495EF10F097EF54
:1021280010F086EF10F020EE04F02050D926215050
:10213800DA222350DE18D8B4A4EF10F0A6EF10F07E
:10214800A8EF10F0020E266E26501200000E066E42
:1021580002BEB3EF10F0B1EF10F0B9EF10F0016C60
:10216800021ED8B0022A010E066E04BEC0EF10F09F
:10217800BEEF10F0C4EF10F0036C041ED8B0042AB0
:1021880003500410D8B4CBEF10F0CDEF10F0F1EFFE
:1021980010F0010E056ED5EF10F0D8900336043616
:1021A800052A04AEDAEF10F0DCEF10F0D1EF10F0F2
:1021B8000350015C04500258D8A0E5EF10F0E7EF97
:1021C80010F0EBEF10F00350015E0450025AD89063
:1021D80004320332052EDCEF10F00650D8B4F7EFC6
:1021E80010F0F9EF10F0FDEF10F0016C021ED8B0FE
:1021F800022A01C001F002C002F01200036E000EB4
:10220800076E000E066E8B948B92035003247E0B90
:10221800016E026A800E0110046E0250056E000EF7
:10222800096E080E086E04AE1CEF11F01EEF11F0D7
:1022380021EF11F08C8022EF11F08C908B84D890D4
:10224800043605368B940806D8A0090608500910EC
:10225800D8A431EF11F033EF11F017EF11F0000EA1
:10226800096E080E086E8B84D8900636073683B23E
:1022780040EF11F044EF11F0016A012A45EF11F027
:10228800016A015006128B940806D8A00906085066
:102298000910D8A452EF11F054EF11F037EF11F0F4
:1022A8008B828B8406501200000E266E000E276E5D
:1022B80076EC18F00009D8B464EF11F066EF11F06D
:1022C800ACEF11F0C30E286E000E296E61EC17F00A
:1022D8000009D8B472EF11F074EF11F0AAEF11F001
:1022E800F50E026E7F0E036EE5EC12F0000E596ECD
:1022F800000E586EC30E5824D96E000E5920DA6E9F
:10230800CD0E5824E16E000E5920E26EDFCFE7FFB4
:10231800B1EC0BF0584A592A59BE9CEF11F05950AC
:1023280009E1050E585CD8A09CEF11F09EEF11F062
:102338007EEF11F0CD0E0C6E000E0D6E98EC17F0BE
:10234800C30E016E000E026E0CEC17F099EC15F03E
:102358001200000E62EC18F04DEC19F0AE0EC1EC54
:1023680018F0D50EC1EC18F0800EC1EC18F0A80ECC
:10237800C1EC18F03F0EC1EC18F0D30EC1EC18F008
:10238800000EC1EC18F0400EC1EC18F08D0EC1EC37
:1023980018F0140EC1EC18F0200EC1EC18F0000E65
:1023A800C1EC18F0A10EC1EC18F0C80EC1EC18F081
:1023B800DA0EC1EC18F0120EC1EC18F0810EC1EC67
:1023C80018F0CF0EC1EC18F0D90EC1EC18F0F10ED0
:1023D800C1EC18F0DB0EC1EC18F0400EC1EC18F09F
:1023E800A40EC1EC18F0A60EC1EC18F02E0EC1EC2C
:1023F80018F0AF0EC1EC18F01200040E0A6E050EAC
:10240800F8EC18F0800E0A6E0A0E05EC19F0000EB2
:10241800136E1BEF12F00DC0D9FF0EC0DAFFDF50AC
:10242800016E090E26EC13F00D4A0E2A132A0F50DE
:10243800135CD8A022EF12F024EF12F00FEF12F085
:10244800030E016E010E26EC13F01368050E02EC64
:1024580011F0126E13061350D8B435EF12F037EF9F
:1024680012F03EEF12F012A43CEF12F03EEF12F021
:102478002AEF12F0220E02EC11F010C0D9FF11C0A1
:10248800DAFFDF6E20EE01F01050D9261150DA2263
:10249800210E02EC11F0DF6E12000001EE5129EC62
:1024A80017F00001EE6FED5129EC17F00001ED6F08
:1024B800EC5129EC17F00001EC6FEB5129EC17F007
:1024C8000001EB6FEA5129EC17F00001EA6FE951BE
:1024D80029EC17F00001E96F3AEC18F0D00EFBEC8C
:1024E80017F0000EFBEC17F00001EC51FBEC17F0B5
:1024F8000001ED51FBEC17F00001EE51FBEC17F079
:10250800010EFBEC17F00001E951FBEC17F000019C
:10251800EA51FBEC17F00001EB51FBEC17F026EC4D
:1025280018F0100E0C6E940EE82EFED70C2EFCD769
:1025380000D01200026EC7B4A4EF12F0A6EF12F09A
:102548009FEF12F0C5CF01F01F0E0116D8A4AFEF10
:1025580012F0B1EF12F09FEF12F0C586C7B4B7EFD3
:1025680012F0B9EF12F0B2EF12F0C5CF01F01F0E62
:102578000116D8A4C2EF12F0C4EF12F0B2EF12F0B5
:10258800C9CF03F0C7B4CBEF12F0CDEF12F0C6EF0E
:1025980012F0C5CF01F01F0E0116D8A4D6EF12F025
:1025A800D8EF12F0C6EF12F00250D8B4DEEF12F0F6
:1025B800E1EF12F0C58AE2EF12F0C59AC588035020
:1025C8001200FBEF12F002C0F6FF03C0F7FFF86A33
:1025D800070EF76403D00800F55005D0F6CFE1FFE9
:1025E800F7CFE2FFE75027EC19F0024A032A02C0AE
:1025F800F6FF03C0F7FFF86A070EF76403D0080078
:10260800F55005D0F6CFE1FFF7CFE2FFE75000091C
:10261800D8A411EF13F013EF13F0E7EF12F00A0E3E
:10262800AD6EACA21AEF13F01CEF13F015EF13F018
:102638000D0EAD6EACA223EF13F025EF13F01EEFD5
:1026480013F01200026E8B948B92025002247E0BC0
:10265800036E080E046E03AE34EF13F036EF13F07A
:1026680039EF13F08C803AEF13F08C908B84D8906C
:1026780003368B9404060450D8A445EF13F047EFB3
:1026880013F02FEF13F0080E046E01AE4EEF13F0A7
:1026980050EF13F053EF13F08C8054EF13F08C903D
:1026A8008B84D89001368B9404060450D8A45FEF2D
:1026B80013F061EF13F049EF13F08B828B84120053
:1026C800000E066E000E056E03500410D8B46FEFAE
:1026D80013F071EF13F099EF13F0010E076E79EF15
:1026E80013F0D89003360436072A04AE7EEF13F0B1
:1026F80080EF13F075EF13F0D890053606360350C7
:10270800015C04500258D8A08CEF13F08EEF13F040
:1027180093EF13F00350015E0450025A0580D890DD
:1027280004320332072E80EF13F005C001F006C013
:1027380002F01200B90E0001D26F000ED36FFA0E2C
:10274800D46F7F0ED56FEAC001F0026A000E046EE6
:102758000A0E036E2DEC0FF001C0D6F002C0D7F0C0
:10276800EAC001F0026A000E046E0A0E036EAAECBB
:1027780010F001C0D8F002C0D9F0EFEC15F0000E4F
:10278800096E320E086E000E0B6E060E0A6EB90E3A
:102798000C6E000E0D6E49EC0AF01200B90E000125
:1027A800D26F000ED36FFA0ED46F7F0ED56FE9C0CB
:1027B80001F0026A000E046E0A0E036E2DEC0FF093
:1027C80001C0D6F002C0D7F0E9C001F0026A000EDD
:1027D800046E0A0E036EAAEC10F001C0D8F002C015
:1027E800D9F0EFEC15F0000E096E5A0E086E000EC7
:1027F8000B6E060E0A6EB90E0C6E000E0D6E49ECCD
:102808000AF01200B90E0001D26F000ED36FFA0E53
:10281800D46F7F0ED56FEBC001F0026A000E046E14
:102828000A0E036E2DEC0FF001C0D6F002C0D7F0EF
:10283800EBC001F0026A000E046E0A0E036EAAECE9
:1028480010F001C0D8F002C0D9F0EFEC15F0000E7E
:10285800096E0A0E086E000E0B6E060E0A6EB90E91
:102868000C6E000E0D6E49EC0AF01200B90E000154
:10287800D26F000ED36FFA0ED46F7F0ED56FECC0F7
:1028880001F0026A000E046E0A0E036E2DEC0FF0C2
:1028980001C0D6F002C0D7F0ECC001F0026A000E09
:1028A800046E0A0E036EAAEC10F001C0D8F002C044
:1028B800D9F0EFEC15F0000E096E5A0E086E000EF6
:1028C8000B6E050E0A6EB90E0C6E000E0D6E49ECFD
:1028D8000AF01200B90E0001D26F000ED36FEF0E8E
:1028E800D46F7F0ED56FEDC001F0026A000E046E42
:1028F8000A0E036E2DEC0FF001C0D6F002C0D7F01F
:10290800EDC001F0026A000E046E0A0E036EAAEC16
:1029180010F001C0D8F002C0D9F0EFEC15F0000EAD
:10292800096E320E086E000E0B6E050E0A6EB90E99
:102938000C6E000E0D6E49EC0AF01200B90E000183
:10294800D26F000ED36FEF0ED46F7F0ED56FEEC02F
:1029580001F0026A000E046E0A0E036E2DEC0FF0F1
:1029680001C0D6F002C0D7F0EEC001F0026A000E36
:10297800046E0A0E036EAAEC10F001C0D8F002C073
:10298800D9F0EFEC15F0000E096E0A0E086E000E75
:102998000B6E050E0A6EB90E0C6E000E0D6E49EC2C
:1029A8000AF01200226E070E016E0D0E26EC13F0CF
:1029B80020C0D9FF21C0DAFF22C0DFFF20C00DF000
:1029C80021C00EF0010E0F6E20C010F021C011F0D2
:1029D800240E126E000E136E0C0EA5EC05F0236E7D
:1029E8002350D8A4FAEF14F0FCEF14F006EF15F01A
:1029F800100E24182510D8B404EF15F006EF15F0C2
:102A080008EF15F0020E236E235012000350041035
:102A1800D8B411EF15F013EF15F037EF15F0010EDC
:102A2800056E1BEF15F0D89003360436052A04AE60
:102A380020EF15F022EF15F017EF15F00350015CA9
:102A480004500258D8A02BEF15F02DEF15F031EFF8
:102A580015F00350015E0450025AD8900432033234
:102A6800052E22EF15F001C001F002C002F012009D
:102A780052C056F053C057F0000E0001896F000E87
:102A8800886F5AEF15F050C040F051C041F0560E13
:102A9800426E000E436E54C044F055C045F0ABEC96
:102AA80008F04050000188274150892356C0F6FF9E
:102AB80057C0F7FF0800F5500009D8A466EF15F0D5
:102AC80068EF15F047EF15F088C050F089C051F055
:102AD8001200949294949590958295968B828C8608
:102AE800DEEC18F08D0E016E2A0E26EC13F03E0E69
:102AF800016E2B0E26EC13F01E0E016E2D0E26EC29
:102B080013F0000E016E2C0E26EC13F0400E016E31
:102B1800150E26EC13F03D0E016E110E26EC13F087
:102B280056EC19F032EC19F01200500E206E000E1F
:102B3800216E200E0D6E000E0E6E020E0F6E220E0E
:102B4800106E000E116E01EC12F0800E0A6E080E67
:102B5800F8EC18F0200E0D6E000E0E6E040E0F6EBF
:102B6800200E106E000E116E240E126E000E136EE3
:102B78000C0EA5EC05F0080E0A6E080EF8EC18F01D
:102B88001200000E056E000E046E000E076E000E99
:102B9800066E9DEC18F03BEC19F0780EEBEC18F093
:102BA800400EEBEC18F0000E096E000E086E000ED9
:102BB800EBEC18F0084A092A09BEEAEF15F0040EF2
:102BC800095CD8A0EAEF15F0ECEF15F0DBEF15F093
:102BD8004DEC19F01200D60E0001DC6F000EDD6F0F
:102BE800D2C0DEF0D3C0DFF0000EE16F000EE06F60
:102BF800000EE36F000EE26FDE0E506E000E516E97
:102C0800D4C052F0D5C053F0DC0E546E000E556E91
:102C18003CEC15F00001E051D225D96EE151D321E9
:102C2800DA6E000EDF6E1200C5EC15F0000E096EAC
:102C3800000E086E000E0B6E000E0A6EE50E0C6E8E
:102C48007F0E0D6E49EC0AF0000E056E000E046E44
:102C5800000E076E020E066E9DEC18F0C80E076E89
:102C68007F0E086EF0EC0FF0A2EC14F06EEC14F08E
:102C78003AEC14F01200000E096E020E086E0CC039
:102C880001F00DC002F0000E046E640E036E64ECD9
:102C980013F001500A6ECBEC17F0000E096E030E0C
:102CA800086E0CC001F00DC002F0000E046E640E38
:102CB800036E0AEC15F001500A6ECBEC17F0120007
:102CC800000E151A000E161A000E171A800E181A82
:102CD80011C001F012C002F013C003F014C004F0D8
:102CE80015C005F016C006F017C007F018C008F0A8
:102CF80009EC00F001C011F002C012F003C013F09B
:102D080004C014F0120006009EA08DEF16F08FEF9D
:102D180016F0A8EF16F00001904B912B915109E1A4
:102D2800020E905DD8A09BEF16F09DEF16F0A3EF72
:102D380016F0010E946F000E916F000E906F150E35
:102D4800CF6EB10ECE6E9E905F921100000E106E87
:102D5800000E0F6EBBEF16F00EC001F0026A0CC039
:102D680003F00DC004F0C8EC0EF00F4A102A0F5003
:102D78000A24D96E10500B20DA6EDF500E6E0E50FA
:102D8800D8A4C9EF16F0CBEF16F0B0EF16F012008A
:102D9800B80EF66E320EF76E000EF86E00EEE4F026
:102DA80010EE0BF00900F5CFEEFFE550E150FAE127
:102DB80000EE60F0720EEE6AE806FDE15E6A5D6A9A
:102DC8005C6A5F905F92000EF86E000157EF0EF09C
:102DD80014BEF9EF16F0145006E11304D8B0F7EF5B
:102DE80016F0F9EF16F007EF17F013C015F014C03E
:102DF80016F0151E161E154A162A15C013F016C011
:102E080014F00BEF17F013C013F014C014F01200F5
:102E1800000E046E000E036E03500124D96E045098
:102E28000220DA6E000EDF6E034A042A04BE26EF83
:102E380017F0045009E10A0E035CD8A026EF17F03A
:102E480028EF17F010EF17F012000B6E0BC001F00F
:102E5800026A000E046E0A0E036EAAEC10F001C09E
:102E680009F002C00AF00BC001F0026A000E046EFD
:102E78000A0E036E2DEC0FF00150100DF3500924CB
:102E88001200000E036E020E026E11EC18F0076EAF
:102E980007500A6E0B6A000E036E030E026E11ECE9
:102EA80018F0076E0A50086E07500A6E08C00BF03B
:102EB8000AC005F00BC006F0120028C020F029C097
:102EC80021F050EC10F02A6E20EE05F02850D9269B
:102ED8002950DA22000EDF6E2A50D8A476EF17F0B8
:102EE80078EF17F07BEF17F0010E7CEF17F0000E6C
:102EF800120001C003F002C004F085EF17F0014A88
:102F0800022A01C0D9FF02C0DAFFDF50D8A48FEF30
:102F180017F091EF17F083EF17F00350015C016E83
:102F280004500258026E120045EC17F005C00EF06E
:102F380006C00FF0000E116E000E106EA6EF17F00F
:102F4800104A112A0E50105C0F501158D8A0AFEF3C
:102F580017F0B1EF17F0A4EF17F01200C586C7A05D
:102F6800B8EF17F0BAEF17F0B3EF17F0C9CF01F0C9
:102F7800B0EC18F0C58AC588C5B8C5EF17F0C7EF1B
:102F880017F0C0EF17F04DEC19F0015012003BECB0
:102F980019F0A00EEBEC18F00950EBEC18F0085003
:102FA800EBEC18F00A50EBEC18F04DEC19F00D0EA4
:102FB8000B6EFC0EE82EFED70B2EFCD71200EEEFA0
:102FC80017F002C0D9FF03C0DAFFDF5027EC19F071
:102FD800024A032A02C0D9FF03C0DAFFDF50D8A48F
:102FE800F8EF17F0FAEF17F0E5EF17F01200026E9E
:102FF800C7B401EF18F003EF18F0FCEF17F0C5CFD6
:1030080001F01F0E0116D8A40CEF18F00EEF18F0FF
:10301800FCEF17F002C0C9FF12003BEC19F0A00E3C
:10302800EBEC18F00350EBEC18F00250EBEC18F056
:1030380044EC19F0A10EEBEC18F0B2EC17F0046EAA
:1030480004501200C7B42BEF18F02DEF18F026EF3C
:1030580018F0C5CF01F01F0E0116D8A436EF18F0EE
:1030680038EF18F026EF18F0C5841200C7B43FEF08
:1030780018F041EF18F03AEF18F0C5CF01F01F0E25
:103088000116D8A44AEF18F04CEF18F03AEF18F0F0
:10309800C5801200C7B453EF18F055EF18F04EEF83
:1030A80018F0C5CF01F01F0E0116D8A45EEF18F076
:1030B80060EF18F04EEF18F0C5821200016E938091
:1030C80093820150D8A46BEF18F06DEF18F070EFF1
:1030D80018F0C78E71EF18F0C79E280EC66E770ECF
:1030E800C86E120026C020F027C021F0260ED6ECAC
:1030F80014F00009D8A483EF18F085EF18F088EFD2
:1031080018F0010E89EF18F0000E120001500302AA
:10311800F3CF05F0F4CF06F001500402F350062671
:1031280002500302F350062605C001F006C002F063
:103138001200210EC1EC18F00450C1EC18F07F0EFB
:10314800C1EC18F0220EC1EC18F00650C1EC18F0D2
:10315800070EC1EC18F01200C7B4B5EF18F0B7EFBE
:1031680018F0B0EF18F0C5ACBCEF18F0BEEF18F0CF
:10317800C0EF18F04DEC19F01200026E3BEC19F09C
:10318800780EEBEC18F0000EEBEC18F00250EBECBC
:1031980018F04DEC19F01200CD8ECD9CCD96CD9245
:1031A800150ECF6EB10ECE6ECD80300ECD129D8035
:1031B8009E9012008C8600D08C9600D08C8600D011
:1031C8000F0E016E010E26EC13F000D01200016EF6
:1031D80001C0C9FFC7B0F3EF18F0F5EF18F0EEEF34
:1031E80018F0B0EC18F012000C6E0C5002EC11F054
:1031F8000B6E0A50FF0A0B14016E0C5026EC13F0EC
:1032080012000C6E0C5002EC11F00B6E0B500A10F1
:10321800016E0C5026EC13F01200AC98AC8AAC9CF2
:10322800AB8EAB9CAB88AC84B8969E9A9D8A1200F4
:10323800026E02C001F00F0E011602380F0B0A0DC4
:10324800F35001241200016E01C0ADFFACA22FEFB4
:1032580019F031EF19F02AEF19F01200140E02ECF0
:1032680011F0030E0A6E140E05EC19F01200C58059
:10327800C5B041EF19F043EF19F03CEF19F0120017
:10328800C582C5B24AEF19F04CEF19F045EF19F0B5
:103298001200C584C5B453EF19F055EF19F04EEF7D
:1032A80019F01200030E0A6E140EF8EC18F0120052
:0B32B800A1001C0A151C0A15013116AC
:0232C4001200F6
:1070880000000000000000000000000000000000F8
:1070980000000000000000000000000000000000E8
:1070A8000000000000F8FCFCFCF8000000000000F4
:1070B800000000000000737373000000000000006F
:1070C80000000000001E3E3E0000003E3E1E000084
:1070D80000000000000000000000000000000000A8
:1070E8000000303030FEFE30303030FEFE303030C0
:1070F80000000C0C0C7F7F0C0C0C0C7F7F0C0C0C14
:1071080000000000F0F898FE9898FE989818000083
:10711800000000001819197F19197F191F0F0000A6
:10712800000000000038383880C0E07038000000E7
:1071380000000000001C0E0703011C1C1C000000BE
:107148000000000038FCC4C4FC38000000800000C7
:10715800000000001E3F2121333F1E1E3723000080
:107168000000000000203C3C1C0000000000000063
:107178000000000000000000000000000000000007
:107188000000000000C0E0F0381C0C0404000000FF
:10719800000000000003070F1C383020200000000A
:1071A800000000000004040C1C38F0E0C0000000DF
:1071B8000000000000202030381C0F0703000000EA
:1071C800000000808890E0E0FCFCE0E0908880000F
:1071D80000000001110907073F3F070709110100D7
:1071E8000000000000808080F0F0808080000000B7
:1071F80000000000000101010F0F01010100000063
:107208000000000000000000000000000000000076
:1072180000000000004078783800000000000000FE
:107228000000000080808080808080808080000056
:10723800000000000101010101010101010100003C
:107248000000000000000000000000000000000036
:10725800000000000000383838000000000000007E
:107268000000000000000000000080C0E070381C32
:10727800000000002030381C0E0703010000000049
:1072880000000000F8FCFC0484E474FCFCF8000036
:10729800000000001F3F3F2E2721203F3F1F000016
:1072A80000000000606060F0FCFC000000000000CE
:1072B800000000002020203F3F3F20202000000049
:1072C80000000000181C1C040484CCFC783000006A
:1072D8000000000030383C2E2723213838380000C1
:1072E80000000000181C1C848484CC7C78300000CA
:1072F80000000000183838212121333E1E0C000000
:107308000000000080C0603018FCFCFC0000000099
:107318000000000003030323233F3F3F2323000013
:1073280000000000FCFCFC848484848404040000C5
:1073380000000000193939212121333F1F0E0000B8
:1073480000000000E0F0F89C8C8484848000000039
:10735800000000001F3F3F212121213F3F1F000067
:10736800000000003C3C3C0404040484FCFC7C0059
:1073780000000000000000383C3E07030100000048
:1073880000000000787CFCC4C48484FC7C78000085
:10739800000000001E3E3F212123233F3E1E000027
:1073A80000000000F8FCFC84848484FCFCF80000E5
:1073B80000000000000121212131391F0F070000C2
:1073C8000000000000000070707000000000000065
:1073D800000000000000000E0E0E0000000000007B
:1073E8000000000000000070707000000000000045
:1073F800000000000000101E1E0E0000000000002B
:107408000000000080C0E070381C0E06020000007A
:10741800000000000103070E1C38706040000000E7
:1074280000000060606060606060606060606000D4
:1074380000000006060606060606060606060600FC
:107448000000000002060E1C3870E0C0800000003A
:1074580000000000406070381C0E070301000000A7
:1074680000000000181C0C0E0686CEFC7C380000BC
:1074780000000000000000007373730000000000AB
:1074880000000000FCFEFE0202C2C2C2FEFEFC00BA
:10749800000000003F3F7F60606363636343030055
:1074A80000000000E0F0F81C0C0C1CF8F0E00000F4
:1074B800000000003F3F3F020202023F3F3F000042
:1074C8000000000004FCFCFC848484FCFC780000C0
:1074D80000000000203F3F3F2121213F3F1E0000C8
:1074E80000000000F0F8FC0C0404041C1C18000048
:1074F800000000000F1F3F302020203838180000FF
:107508000000000004FCFCFC04040CFCF8F0000083
:1075180000000000203F3F3F2020303F1F0F0000A9
:107528000000000004FCFCFC848484C4CC1C000023
:1075380000000000203F3F3F212121233338000075
:107548000000000004FCFCFC848484C4CC1C000003
:1075580000000000203F3F3F21010103030000001D
:1075680000000000F0F8FC0C0404043C3C38000067
:10757800000000000F1F3F302022223E3E3E000048
:1075880000000000FCFCFC808080FCFCFC0000008B
:10759800000000003F3F3F0101013F3F3F00000066
:1075A80000000000000404FCFCFC040400000000CF
:1075B800000000000020203F3F3F20200000000086
:1075C80000000000000000000404FCFCFC040400AF
:1075D8000000001E1E3E202020203F3F1F0000000C
:1075E8000000000004FCFCFCC0E0703C1C0C000027
:1075F80000000000203F3F3F03070E3C38300000EA
:107608000000000004FCFCFC040000000000000076
:1076180000000000203F3F3F20202030383C000081
:1076280000000000FCFCFC78F0E0F078FCFCFC00BA
:10763800000000003F3F3F00000100003F3F3F00C7
:1076480000000000FCFCFC70E0C08000FCFCFC00BA
:10765800000000003F3F3F00000103073F3F3F009D
:1076680000000000E0F0F81C0C0C0C1CF8F0E00026
:1076780000000000070F1F38303030381F0F070098
:107688000000000004FCFCFC848484FCFC780000FE
:1076980000000000203F3F3F2101010101000000E0
:1076A80000000000E0F8F81C0C040C1CF8F8E000DE
:1076B80000000000071F1F18185C5E7E7F7F4700D0
:1076C8000000000004FCFCFC848484FCFC780000BE
:1076D80000000000203F3F3F0101033F3F3C000006
:1076E8000000000078FCFC84848484BC3C380000E2
:1076F800000000001C3C3D212121213F3F1E0000CD
:10770800000000001C0C0404FCFCFC04040C1C001D
:1077180000000000000020203F3F3F202000000024
:1077280000000000FCFCFC000000FCFCFC00000069
:10773800000000001F3F3F2020203F3F1F000000A7
:1077480000000000FCFCFC000000FCFCFC00000049
:1077580000000000070F1F3830381F0F0700000017
:1077680000000000FCFCFC0000800000FCFCFC00A9
:1077780000000000030F3F3C3C0F3C3C3F0F030060
:10778800000000001C3C7CE0C0E07C3C1C000000C9
:1077980000000000383C3E0703073E3C380000006C
:1077A800000000007CFCFC800080FCFC7C000000E9
:1077B800000000000020213F3F3F21200000000082
:1077C800000000003C1C0C0484C4E47C3C1C000049
:1077D80000000000383C3E2723212030383C0000C0
:1077E800000000000000FCFCFC040404040000008D
:1077F8000000000000003F3F3F2020202000000044
:10780800000000001C3870E0C0800000000000008C
:1078180000000000000000000103070E1C183020C3
:1078280020000000000004040404FCFCFC0000002C
:10783800000000000000202020203F3F3F00000003
:10784800000000002030381C0E0E1C3830200000CC
:107858000000000000000000000000000000000020
:107868000000000000000000000000000000000010
:107878000000C0C0C0C0C0C0C0C0C0C0C0C0C0C080
:10788800C00000000C0C3C3030000000000000007C
:1078980000000000000000000000000000000000E0
:1078A80000000000004040404040C0C08000000090
:1078B800000000001C3E3E2222223F1F3F20000005
:1078C8000000000004FCFCFC404040C0C0800000F8
:1078D80000000000203F1F3F2020203F3F1F0000E6
:1078E8000000000080C0C0404040C0C080000000D0
:1078F800000000001F3F3F202020393919000000F8
:107908000000000080C0C0404044FCFCFC040000B3
:10791800000000001F3F3F2020203F1F3F200000A5
:107928000000000080C0C0404040C0C0800000008F
:10793800000000001F3F3F2222223B3B1B000000AB
:10794800000000008080F8FCFC849C9C180000006B
:107958000000000021213F3F3F21210100000000DD
:107968000000000080C0C0404040C080C04000000F
:107978000000000047CFDF989898FFFF7F000000C5
:107988000000000004FCFCFC804040C0C0800000F7
:1079980000000000203F3F3F0100003F3F3F000044
:1079A8000000000000404040DCDCDC00000000007B
:1079B80000000000002020203F3F3F202020000042
:1079C80000000000000000404040DCDCDC0000005B
:1079D800000000002060E08080C0FFFF7F00000002
:1079E8000000000004FCFCFC000080C0C040000057
:1079F80000000000203F3F3F02070F3D38300000E5
:107A08000000000000040404FCFCFC00000000006E
:107A180000000000002020203F3F3F2020200000E1
:107A280000000000C0C0C04040C04040C0C080004E
:107A3800000000003F3F3F00003F00003F3F3F0085
:107A480000000000C0C0C0404040C0C0800000002E
:107A5800000000003F3F3F0000003F3F3F000000A4
:107A68000000000080C0C0404040C0C0800000004E
:107A7800000000001F3F3F2020203F3F1F00000064
:107A88000000000040C080C0404040C0C0800000EE
:107A98000000000080FFFFFF9010101F1F0F000064
:107AA80000000080C0C0404040C080C040000000CE
:107AB8000000000F1F1F101090FFFFFF8000000044
:107AC8000000000040C0C0C080C0C0C0C08000002E
:107AD80000000000203F3F3F21000001010100009D
:107AE8000000000080C0C040404040C0800000004E
:107AF80000000000193B232626263C3D1900000003
:107B0800000000004040E0F0F84040404000000025
:107B18000000000000001F3F3F2038381800000018
:107B280000000000C0C0C0000000C0C0C0000000CD
:107B3800000000001F3F3F2020203F1F3F20000083
:107B480000000000C0C0C0000000C0C0C0000000AD
:107B580000000000070F1F3830381F0F0700000013
:107B680000000000C0C0C00000000000C0C0C0008D
:107B780000000000070F3F38380E38383F0F070065
:107B880000000000C0C0C00000C0C0C0000000006D
:107B98000000000030393F0F0F3F3930000000006F
:107BA8000000000000C0C0C0000000C0C0C000004D
:107BB8000000000080878F9FD8F8783F0F070000EB
:107BC80000000000C0C0404040C0C0C0000000002D
:107BD8000000000031383C2E272331380000000017
:107BE800000000008080C0787C3C0404040400008D
:107BF800000000000101031E3E3C20202020000060
:107C08000000000000000000FEFEFE000000000072
:107C180000000000000000007F7F7F0000000000DF
:107C280000000000040404043C7C78C0808000004C
:107C380000000000202020203C3E1E03010100001F
:107C4800000000383C3C040C1C3830203C3C1C0034
:107C5800000000000000000000000000000000001C
:107C6800000000000000000000002F0000000007D6
:107C780000070000147F147F1400242A7F2A1200B2
:107C8800231308646200364955225000000503009A
:107C98000000001C224100000041221C00001408C2
:107CA8003E08140008083E0808000000A060000014
:107CB8000808080808000060600000002010080498
:107CC80002003E5149453E0000427F4000004261AB
:107CD800514946002141454B31001814127F1000CC
:107CE8002745454539003C4A494930000171090595
:107CF8000300364949493600064949291E0000361D
:107D0800360000000056360000000814224100002A
:107D1800141414141400004122140800020151091B
:107D28000600324959513E007C1211127C007F49ED
:107D3800494936003E41414122007F4141221C0011
:107D48007F49494941007F09090901003E414949E4
:107D58007A007F0808087F0000417F41000020402A
:107D6800413F01007F08142241007F40404040000D
:107D78007F020C027F007F0408107F003E414141D2
:107D88003E007F09090906003E4151215E007F0936
:107D98001929460046494949310001017F0101007E
:107DA8003F4040403F001F2040201F003F403840D8
:107DB8003F00631408146300070870080700615146
:107DC80049454300007F414100AA55AA55AA5500DC
:107DD8000041417F0000040201020400404040408D
:107DE80040000003050000002054545478007F48E8
:107DF80044443800384444442000384444487F0010
:107E0800385454541800087E0901020018A4A4A488
:107E18007C007F080404780000447D400000408016
:107E2800847D00007F102844000000417F4000004E
:107E38007C04180478007C0804047800384444441E
:107E48003800FC242424180018242418FC007C087A
:107E580004040800485454542000043F44402000BF
:107E68003C4040207C001C2040201C003C4030400E
:107E78003C004428102844001CA0A0A07C004464B6
:107E8800544C440000107C8200000000FF000000F9
:107E980000827C100000000609090600000003A00B
:107EA80000C00C00F94F806BEB00988C8052A580C5
:107EB80003000001C88089C00050850021C2000865
:107EC8004000208200002000188C00FA2F804BE030
:107ED800805A66808AA500E08F80EAAB0072A9000C
:107EE8009A8C00FAAF804AA700014000094000219F
:107EF800488051450089420042660072A6807A8710
:107F080080FAA500722500FA2700FAA880FA8800EE
:107F1800722B00F88F808BE8808BE800F88D80F852
:107F28002080F90F80F9CF80722700FA8400722729
:107F380040FA85804AA90083E800F02F00E06E002F
:107F4800F0EF00D88D80C0EC009AAC8003E880C0C8
:107F580081808BE000420400082080020400312365
:107F680080F92300312480312F8031628023EA0098
:107F7800255380F9038002E00006E000F842800300
:107F8800E0007987803903803123007D2300312781
:107F9800C078840029400043E40070270060660030
:107FA80070670048C48074578059E68023E88003CE
:107FB80060008BE200610C00C000F000FC00FF00D4
:107FC800524547495354524F20504552534F4E4102
:107FD8004C00486F6C61206D756E646F004C4543B2
:107FE8004F4D5045525500256425643A0049443A9E
:087FF80020002564256400004F
:020000040020DA
:08000000FFFFFFFFFFFFFFFF00
:020000040030CA
:0E000000010B191EFF0080FF0FC00FE00F4024
:00000001FF
