:020000040000FA
:0400000007EF00F016
:100008005F82E5ED1AF04AEF1BF00450800B0D6E8D
:10001800045004240F6E03AE14EF00F016EF00F046
:1000280017EF00F00F800F50D8B41DEF00F01FEF4E
:1000380000F034EF00F00F28D8A425EF00F027EFE8
:1000480000F02FEF00F0000E016E000E026E000EA1
:10005800036E000E046E038E000E046E3CEF00F07B
:10006800000E016E000E026E000E036E000E046E8E
:100078000850800B0E6E0D500E18D8B446EF00F0E5
:1000880048EF00F049EF00F00D8C085008240E6E80
:1000980007AE51EF00F053EF00F054EF00F00E8080
:1000A8000E50D8B45AEF00F05CEF00F071EF00F09A
:1000B8000E28D8A462EF00F064EF00F06CEF00F0B7
:1000C800000E056E000E066E000E076E000E086E1E
:1000D800078E000E086E79EF00F0000E056E000E18
:1000E800066E000E076E000E086E0F500E5CD8B03C
:1000F80080EF00F082EF00F0A9EF00F00DAC87EF81
:1001080000F089EF00F08BEF00F0800E0D1A0FC0A1
:1001180010F00EC00FF010C00EF001C010F005C0B6
:1001280001F010C005F002C010F006C002F010C0C7
:1001380006F003C010F007C003F010C007F004C0B9
:1001480010F008C004F010C008F0000E106E0F5038
:100158000EC009F00A6A095E000E0A5A0ABEBEEF0E
:1001680000F00A5009E11A0E095CD8A0BEEF00F0B1
:10017800C0EF00F0F7EF00F0015002100310041078
:10018800D8A4C9EF00F0CCEF00F0010ECDEF00F0DD
:10019800000E106E000E016E000E026E000E036E51
:1001A800000E046E0EC00FF000EF01F010A0DFEF9C
:1001B80000F0E1EF00F0E7EF00F0D890103001090F
:1001C800106EE9EF00F0D890103201A0EEEF00F0C9
:1001D800F0EF00F0F1EF00F0108E04340432033237
:1001E800023201320F2A0E500F5CD8A0FEEF00F049
:1001F80000EF01F0DAEF00F00DBC05EF01F007EFBA
:1002080001F047EF01F00F50D8A40DEF01F00FEF08
:1002180001F019EF01F0000E016E000E026E000EE3
:10022800036E000E046E68EF02F0055001260650BA
:100238000222075003220850042204A026EF01F0EE
:1002480028EF01F0D4EF01F010A02DEF01F02FEF0F
:1002580001F035EF01F0D89010300109106E37EF3A
:1002680001F0D890103201A03CEF01F03EEF01F010
:100278003FEF01F0108E04340432033202320132AF
:100288000F2AD4EF01F00550015C065002580750C0
:1002980003580450800A096E0850800A0958D8B0DB
:1002A80058EF01F05AEF01F085EF01F00150055CBD
:1002B800096E025006580A6E035007580B6E045018
:1002C80008580C6EFF0E0924016EFF0E0A20026EFC
:1002D800FF0E0B20036EFF0E0C20046E800E0D1A0D
:1002E800106C1050D8A47BEF01F07DEF01F08DEF7A
:1002F80001F0010E0126000E0222032204228DEFD6
:1003080001F00550015E0650025A0750035A085082
:10031800045A0150021003100410D8A496EF01F0FB
:1003280098EF01F0CDEF01F01050D8A49EEF01F046
:10033800A0EF01F0CDEF01F0000E016E000E026E8D
:10034800000E036E000E046E68EF02F0D8900136BE
:1003580002360336043610AEB4EF01F0B6EF01F002
:10036800B7EF01F0018010A0BCEF01F0BEEF01F083
:10037800C2EF01F0D8801036C4EF01F0D8901036E3
:100388000F50D8B4CAEF01F0CCEF01F0CDEF01F077
:100398000F0603AED2EF01F0D4EF01F0AAEF01F09F
:1003A800000E0E6E10AEDBEF01F0DDEF01F0F5EFA1
:1003B80001F010C009F07F0E0916D8B4E6EF01F07D
:1003C800E8EF01F0ECEF01F0010E0E6EF5EF01F031
:1003D80001A0F1EF01F0F3EF01F0F5EF01F0E8EF24
:1003E80001F00E50D8B4FBEF01F0FDEF01F028EF5B
:1003F80002F0010E0126000E02220322042204A0AC
:1004080008EF02F00AEF02F028EF02F001C009F04D
:1004180002C00AF003C00BF004C00CF00C340C321C
:100428000B320A32093209C001F00AC002F00BC0CF
:1004380003F00CC004F00F28D8B425EF02F027EF22
:1004480002F028EF02F00F2A0F28D8B42EEF02F09E
:1004580030EF02F038EF02F00F50D8A436EF02F078
:1004680038EF02F04AEF02F0000E016E000E026E45
:10047800000E036E000E046E0F50D8A446EF02F073
:1004880048EF02F04AEF02F0000E0D6E0FA04FEF9A
:1004980002F051EF02F054EF02F0038E55EF02F034
:1004A800039ED8900F30046E0DAE5DEF02F05FEF43
:1004B80002F060EF02F0048E01C001F002C002F009
:1004C80003C003F004C004F012000450800B116E46
:1004D80004500424186E03AE74EF02F076EF02F0B5
:1004E80077EF02F018801850D8B47DEF02F07FEF54
:1004F80002F094EF02F01828D8A485EF02F087EFF5
:1005080002F08FEF02F0000E016E000E026E000E78
:10051800036E000E046E038E000E046E9CEF02F054
:10052800000E016E000E026E000E036E000E046EC9
:100538000850800B111A08500824196E07AEA7EF4F
:1005480002F0A9EF02F0AAEF02F019801950D8B40E
:10055800B0EF02F0B2EF02F0C7EF02F01928D8A40A
:10056800B8EF02F0BAEF02F0C2EF02F0000E056E2B
:10057800000E066E000E076E000E086E078E000E47
:10058800086ECFEF02F0000E056E000E066E000E2C
:10059800076E000E086E0550061007100810D8A444
:1005A800D8EF02F0DAEF02F0F2EF02F0000E016E7F
:1005B800000E026E000E036E000E046E800E031213
:1005C8007F0E04121150041201C001F002C002F0A3
:1005D80003C003F004C004F035EF04F01850D8A4A9
:1005E800F8EF02F0FAEF02F004EF03F0000E016EEC
:1005F800000E026E000E036E000E046E35EF04F05E
:10060800195018C009F00A6A095E000E0A5A7F0ECE
:100618000924126E000E0A20136E01C00DF002C0EC
:100628000EF003C00FF004C010F0000E016E000EB3
:10063800026E000E036E000E046E000E146E000EA5
:10064800156E000E166E000E176E000E196E65EF11
:1006580003F01950D8B433EF03F035EF03F04CEF43
:1006680003F0D8900D360E360F361036D890013676
:1006780002360336043617AE44EF03F046EF03F0B4
:1006880047EF03F00180D890143615361636173622
:1006980005500D5C06500E5807500F58085010585A
:1006A800D8A059EF03F05BEF03F064EF03F0178C69
:1006B80005500D5E06500E5A07500F5A0850105A32
:1006C800192A190E19646BEF03F06DEF03F02DEF83
:1006D80003F00D500E100F101010D8B476EF03F081
:1006E80078EF03F090EF03F0148090EF03F0D890C8
:1006F800013602360336043617AE85EF03F087EF6E
:1007080003F088EF03F00180D890143615361636BA
:1007180017361206D8A0130603AE95EF03F097EF2D
:1007280003F07BEF03F0000E196E17AE9EEF03F097
:10073800A0EF03F0C4EF03F0FF0E1414096EFF0ED0
:1007480015140A6EFF0E16140B6E7F0E17140C6E1E
:1007580009500A100B100C10D8B4B5EF03F0B7EF1E
:1007680003F0BBEF03F0010E196EC4EF03F001A014
:10077800C0EF03F0C2EF03F0C4EF03F0B7EF03F0EC
:100788001950D8B4CAEF03F0CCEF03F0F0EF03F040
:10079800010E0126000E02220322042204A0D7EF34
:1007A80003F0D9EF03F0F0EF03F001C009F002C045
:1007B8000AF003C00BF004C00CF00C340C320B32FE
:1007C8000A32093209C001F00AC002F00BC003F076
:1007D8000CC004F0124A132A13BEFBEF03F01350A7
:1007E80008E11228D8A0FBEF03F0FDEF03F008EFB3
:1007F80004F0000E136E1268000E016E000E026EF9
:10080800000E036E000E046E13BE15EF04F01350B5
:1008180006E11204D8B013EF04F015EF04F023EF4B
:1008280004F0000E136E000E126E000E016E000E24
:10083800026E000E036E000E046E000E116E12C0E2
:1008480018F018A02AEF04F02CEF04F02FEF04F0B2
:10085800038E30EF04F0039ED8901830046EE6EF54
:1008680002F012001EC036F01FC037F020C038F06A
:1008780021C039F022C03AF023C03BF024C03CF03C
:1008880025C03DF03DBE4BEF04F04EEF04F0010EE5
:100898004FEF04F0000E346E356A34503510D8B47A
:1008A80058EF04F05AEF04F06AEF04F03D1E3C1EC6
:1008B8003B1E3A1E391E381E371E366C000E372274
:1008C800382239223A223B223C223D22000197BF9E
:1008D80070EF04F072EF04F073EF04F0989397BF91
:1008E80080EF04F0975106E19605D8B07EEF04F04A
:1008F80080EF04F086EF04F0000E316E010E306ECA
:100908008AEF04F096C030F097C031F094C032F00E
:1009180095C033F034503510D8A495EF04F097EF14
:1009280004F09EEF04F098A59CEF04F09EEF04F00D
:10093800A1EF04F03206D8A03306000E3F6E1F0E5A
:100948003E6E000EC46F25EF05F03E06D8A03F06A8
:10095800A50E3E24D96E000E3F20DA6E36C001F097
:1009680037C002F038C003F039C004F03AC005F0CF
:100978003BC006F03CC007F03DC008F00A0E096E07
:10098800000E0A6E000E0B6E000E0C6E000E0D6E41
:10099800000E0E6E000E0F6E000E106E6EEC0FF055
:1009A80001C026F002C027F003C028F004C029F0D7
:1009B80005C02AF006C02BF007C02CF008C02DF0A7
:1009C80026C013F028C014F02AEC1BF01350300F87
:1009D800DF6E3006D8A031063206D8A0330636C0FE
:1009E80001F037C002F038C003F039C004F03AC053
:1009F80005F03BC006F03CC007F03DC008F00A0E09
:100A0800096E000E0A6E000E0B6E000E0C6E000EC4
:100A18000D6E000E0E6E000E0F6E000E106E3FEC87
:100A28000DF001C036F002C037F003C038F004C042
:100A380039F005C03AF006C03BF007C03CF008C0EA
:100A48003DF03FBE30EF05F03F5008E13E04D8A02E
:100A580030EF05F032EF05F063EF05F03650371050
:100A6800381039103A103B103C103D10D8A43FEF15
:100A780005F041EF05F0A9EF04F031BE4EEF05F0A7
:100A8800315006E13004D8B04CEF05F04EEF05F0D8
:100A9800A9EF04F033BE59EF05F0335008E13204F2
:100AA800D8A059EF05F05BEF05F063EF05F0000102
:100AB80098B361EF05F063EF05F0A9EF04F0345047
:100AC8003510D8A46AEF05F06CEF05F074EF05F067
:100AD800000198A572EF05F074EF05F092EF05F0AC
:100AE8003E06D8A03F0634503510D8A47EEF05F056
:100AF80080EF05F086EF05F0000E2F6E2B0E2E6EA0
:100B08008AEF05F0000E2F6E2D0E2E6EA50E3E24D8
:100B1800D96E000E3F20DA6E2EC0DFFF1CC011F028
:100B28001DC012F0A50E3E24136E000E3F20146E59
:100B380032C015F033C016F07FEC13F011C01CF072
:100B480012C01DF0120084B0ACEF05F0AEEF05F056
:100B5800E3EF05F084B0B3EF05F0B5EF05F0E3EF90
:100B680005F05E2A050E5E64BCEF05F0BEEF05F0E9
:100B7800C2EF05F050EC16F0000E5E6E20EC10F09F
:100B88008C8C040E596E0C0E586E340EE82EFED75F
:100B9800582EFCD7592EFAD78C9C040E596E0C0E81
:100BA800586E340EE82EFED7582EFCD7592EFAD799
:100BB80084A0E1EF05F0E3EF05F0DCEF05F084B287
:100BC800E8EF05F0EAEF05F06FEF06F05E04D8A451
:100BD800F0EF05F0F2EF05F000EF06F00001F42B5E
:100BE8003B0EF465FAEF05F0FCEF05F0FEEF05F0BB
:100BF800000EF46F6DEC18F0020E5E18D8A407EF23
:100C080006F009EF06F017EF06F00001F52B170EB6
:100C1800F56511EF06F013EF06F015EF06F0000E7C
:100C2800F56FA1EC18F0030E5E18D8A41EEF06F0BD
:100C380020EF06F02EEF06F00001F02B1E0EF065F7
:100C480028EF06F02AEF06F02CEF06F0010EF06F01
:100C5800D1EC17F0040E5E18D8A435EF06F037EF84
:100C680006F045EF06F00001F12B0C0EF1653FEFA1
:100C780006F041EF06F043EF06F0010EF16F9DEC30
:100C880017F0050E5E18D8A44CEF06F04EEF06F0EC
:100C98005CEF06F00001F22B620EF26556EF06F0EB
:100CA80058EF06F05AEF06F0000EF26F05EC18F058
:100CB800030E596E080E586E770EE82EFED7582E82
:100CC800FCD7592EFAD700F084A26DEF06F06FEF2B
:100CD80006F068EF06F084B474EF06F076EF06F0DD
:100CE800FBEF06F05E04D8A47CEF06F07EEF06F07A
:100CF8008CEF06F00001F451D8A485EF06F087EFD9
:100D080006F089EF06F03C0EF46FF4076DEC18F06E
:100D1800020E5E18D8A493EF06F095EF06F0A3EF45
:100D280006F00001F551D8A49CEF06F09EEF06F0FE
:100D3800A0EF06F0180EF56FF507A1EC18F0030EFA
:100D48005E18D8A4AAEF06F0ACEF06F0BAEF06F0EA
:100D58000001F005D8A4B3EF06F0B5EF06F0B7EF41
:100D680006F0200EF06FF007D1EC17F0040E5E18B5
:100D7800D8A4C1EF06F0C3EF06F0D1EF06F00001EA
:100D8800F105D8A4CAEF06F0CCEF06F0CEEF06F0D6
:100D98000D0EF16FF1079DEC17F0050E5E18D8A443
:100DA800D8EF06F0DAEF06F0E8EF06F00001F251AE
:100DB800D8A4E1EF06F0E3EF06F0E5EF06F0640EE5
:100DC800F26FF20705EC18F0030E596E080E586E14
:100DD800770EE82EFED7582EFCD7592EFAD700F0FA
:100DE80084A4F9EF06F0FBEF06F0F4EF06F012002A
:100DF8001C6E020E196E000E1B6E000E186E11EF9F
:100E080007F0120E1B6E100E186E26EF07F0770E05
:100E18001B6E300E186E26EF07F01C50146E156A04
:100E28001550000AD8B41BEF07F026EF07F014504E
:100E38000C0AD8B40BEF07F0020AD8B405EF07F094
:100E480026EF07F01B508009016E020E25EC17F003
:100E5800800E0A6E040E28EC1DF0800E0A6E0A0E33
:100E680042EC1DF0000E016E010E25EC17F0000E8D
:100E78001E6E000E1D6E4EEF07F01D500D24D96E2C
:100E88001E500E20DA6EDF50016E090E25EC17F0A9
:100E98001D4A1E2A0F50146E156A14501D5C1550F9
:100EA8001E58D8A05AEF07F05CEF07F041EF07F0A3
:100EB8001CC001F0010E25EC17F00C0E1C18D8A46C
:100EC80068EF07F06AEF07F06FEF07F0800E0A6E21
:100ED8000D0E42EC1DF01D681E68040E56EC15F050
:100EE8001F6E1D06D8A01E061D501E10D8B47FEF19
:100EF80007F081EF07F092EF07F01FB086EF07F0D9
:100F080088EF07F092EF07F01F5018140009D8B4C3
:100F180090EF07F092EF07F071EF07F0800E0A6E7E
:100F28000D0E28EC1DF01D501E10D8B49EEF07F0D2
:100F3800A0EF07F041EF08F0060E56EC15F0146E1E
:100F48001B0E1416D8A4ABEF07F0ADEF07F03FEF78
:100F580008F0000E196E1F501B14146E14A0B7EF82
:100F680007F0B9EF07F0BBEF07F0010E196E0C0E92
:100F78001C18D8A4C2EF07F0C4EF07F041EF08F03F
:100F88000A0E56EC15F01F6E0C0E56EC15F0070BFA
:100F98001A6E1A50D8B4D3EF07F0D5EF07F0F7EF71
:100FA80007F0F80E146EFF0E156E1A501FC016F0DB
:100FB800176AD89016361736D89016361736D8903E
:100FC800163617361626000E1722145016261550F8
:100FD800172212C0D9FF13C0DAFF16C0DEFF17C0F0
:100FE800DDFF01EF08F01F50080D12C0D9FF13C034
:100FF800DAFFF3CFDEFFF4CFDDFF1F50D8A407EFF1
:1010080008F009EF08F00BEF08F0010E1F6E100E44
:101018001F6411EF08F013EF08F015EF08F0100E39
:101028001F6E000E1E6E000E1D6E27EF08F01D507D
:101038001024D96E1E501120DA6E090E56EC15F0E8
:10104800DF6E1D4A1E2A1F50146E156A14501D5C4F
:1010580015501E58D8A033EF08F035EF08F01BEFF5
:1010680008F01D501024D96E1E501120DA6E000EA3
:10107800DF6E41EF08F0020E196E19501200000ED3
:101088002D6E240E2E6EF40E2F6E4A0E306E25C075
:1010980001F026C002F027C003F028C004F0000EBB
:1010A80028EC09F001C029F002C02AF003C02BF097
:1010B80004C02CF02DC001F02EC002F02FC003F0A8
:1010C80030C004F029C005F02AC006F02BC007F094
:1010D8002CC008F069EC02F001C02DF002C02EF01F
:1010E80003C02FF004C030F02850271008E1250471
:1010F8004B0E2658D8B083EF08F085EF08F0A2EF22
:1011080008F0AC942DC001F02EC002F02FC003F0FF
:1011180030C004F0000E056E000E066E800E076EDD
:10112800420E086E69EC02F001C02DF002C02EF0EC
:1011380003C02FF004C030F0BDEF08F0AC842DC020
:1011480001F02EC002F02FC003F030C004F0000EF2
:10115800056E000E066E800E076E410E086E69EC75
:1011680002F001C02DF002C02EF003C02FF004C021
:1011780030F02DC001F02EC002F02FC003F030C0B7
:1011880004F0000E056E000E066E800E076EBF0E90
:10119800086E09EC00F001C02DF002C02EF003C06B
:1011A8002FF004C030F02DC001F02EC002F02FC087
:1011B80003F030C004F02CEC11F001C025F002C09F
:1011C80026F003C027F004C028F025C001F026C08F
:1011D80002F027C003F028C004F0000E28EC09F044
:1011E80001C015F002C016F003C017F004C018F0D3
:1011F8002DC011F02EC012F02FC013F030C014F023
:10120800C2EC1AF011C019F012C01AF013C01BF08A
:1012180014C01CF0000E1D6E000E1E6E000E1F6E18
:101228003F0E206EAFEC11F0D8A01DEF09F01FEFB4
:1012380009F025EF09F0010E2526000E26222722A7
:10124800282225C0AFFF1200096E0950D8B42FEF2D
:1012580009F031EF09F053EF09F004BE38EF09F057
:1012680036EF09F053EF09F001C005F002C006F0AF
:1012780003C007F004C008F0051E061E071E081E5E
:10128800052A000E06220722082205C00BF006C018
:101298000CF007C00DF008C00EF05BEF09F001C0BC
:1012A8000BF002C00CF003C00DF004C00EF00150AA
:1012B800021003100410D8A464EF09F066EF09F0D7
:1012C80070EF09F0000E016E000E026E000E036E44
:1012D800000E046E01EF0AF0960E0A6E7AEF09F01E
:1012E8000A2AD8900E320D320C320B32000E0B1433
:1012F800056E000E0C14066E000E0D14076EFE0E21
:101308000E14086E0550061007100810D8A48FEFA9
:1013180009F091EF09F074EF09F09FEF09F00A2A3C
:10132800010E0B26000E0C220D220E22D8900E3232
:101338000D320C320B32000E0B14056E000E0C141D
:10134800066E000E0D14076EFF0E0E14086E055083
:10135800061007100810D8A4B4EF09F0B6EF09F08A
:1013680093EF09F0BEEF09F00A06D8900B360C3659
:101378000D360E360DBEC3EF09F0C5EF09F0CDEFFF
:1013880009F0020E0A60CBEF09F0CDEF09F0B8EFD3
:1013980009F00AB0D2EF09F0D4EF09F0D5EF09F05F
:1013A8000D9ED8900A320AC005F0066A076A086AD4
:1013B80005C008F0076A066A056A05500B12065050
:1013C8000C1207500D1208500E120950D8B4EFEF46
:1013D80009F0F1EF09F0F9EF09F004BEF8EF09F0B0
:1013E800F6EF09F0F9EF09F00E8E0BC001F00CC012
:1013F80002F00DC003F00EC004F0120042C0D9FF85
:1014080043C0DAFFDECFF6FFDDCFF7FF0800F55067
:10141800250AD8A412EF0AF014EF0AF0C0EF0AF078
:1014280042C0D9FF43C0DAFFDE2A000EDD22000EDB
:101438000001956F000E946F94C098F095C099F0D4
:101448009669976942C0D9FF43C0DAFFDECFF6FF3D
:10145800DDCFF7FF0800F550640AD8B436EF0AF07C
:1014680038EF0AF04AEF0AF042C0D9FF43C0DAFF6A
:10147800DECFF6FFDDCFF7FF0800F550690AD8A4E4
:1014880048EF0AF04AEF0AF08AEF0AF042C0D9FFA3
:1014980043C0DAFFDE2A000EDD2244C0D9FF45C072
:1014A800DAFFDFCF46F0020EDE26DFCF47F0000E70
:1014B800DD2246C0D9FF47C0DAFFDECF48F0DDCFD6
:1014C80049F0000E49BEFF0E4A6E4B6E4C6E4D6ED3
:1014D8004E6E4F6E40C01CF041C01DF048C01EF05B
:1014E80049C01FF04AC020F04BC021F04CC022F088
:1014F8004DC023F04EC024F04FC025F036EC04F068
:101508001CC040F01DC041F0DBEF0AF042C0D9FF1B
:1015180043C0DAFFDECFF6FFDDCFF7FF0800F55056
:10152800250AD8A49AEF0AF09CEF0AF0B3EF0AF064
:1015380042C0D9FF43C0DAFFDE2A000EDD22000ECA
:10154800026E250E016E40C003F041C004F01AEC93
:1015580013F0000E416E010E406EDBEF0AF042C040
:10156800D9FF43C0DAFFDE2A000EDD22000E416EED
:10157800000E406EDBEF0AF042C0D9FF43C0DAFF2D
:10158800DECFF6FFDDCFF7FF0800F550016E026AE7
:1015980040C003F041C004F01AEC13F042C0D9FF78
:1015A80043C0DAFFDE2A000EDD22ADEF0AF012009A
:1015B800BDEC1BF00AC011F00BC012F0114A122A40
:1015C80011C001F012C002F0000E046E0A0E036E84
:1015D800DAEC1CF001C008F002C009F08DC00AF076
:1015E8000DEC1CF011C001F012C002F0000E046EE8
:1015F8000A0E036EDAEC1CF0010E0124086E000ED0
:101608000220096E8EC00AF00DEC1CF011C001F02A
:1016180012C002F0000E046E0A0E036EDAEC1CF023
:10162800020E0124086E000E0220096E8FC00AF017
:101638000DEC1CF011C001F012C002F0000E046E97
:101648000A0E036EDAEC1CF0030E0124086E000E7D
:101658000220096E90C00AF00DEC1CF011C001F0D8
:1016680012C002F0000E046E0A0E036EDAEC1CF0D3
:10167800040E0124086E000E0220096E91C00AF0C3
:101688000DEC1CF011C001F012C002F0000E046E47
:101698000A0E036EDAEC1CF0050E0124086E000E2B
:1016A8000220096E88C00AF00DEC1CF011C001F090
:1016B80012C002F0000E046E0A0E036EDAEC1CF083
:1016C800060E0124086E000E0220096E88C00AF07A
:1016D8000DEC1CF011C001F012C002F0000E046EF7
:1016E8000A0E036EDAEC1CF0070E0124086E000ED9
:1016F8000220096E88C00AF00DEC1CF011C001F040
:1017080012C002F0000E046E0A0E036EDAEC1CF032
:10171800080E0124086E000E0220096E88C00AF027
:101728000DEC1CF011C001F012C002F0000E046EA6
:101738000A0E036EDAEC1CF0090E0124086E000E86
:101748000220096E88C00AF00DEC1CF011C00CF0E4
:1017580012C00DF09DEC1AF0120000018D5159ECE9
:101768001DF000018D6F8E5159EC1DF000018E6F38
:101778008F5159EC1DF000018F6F93EC1DF0C50ED1
:101788000001D96F000EDA6FD40EDB6F7F0EDC6FAD
:10179800F5C001F0026A000E046E0A0E036EE2EC58
:1017A80013F001C0DDF002C0DEF0F5C001F0026AFE
:1017B800000E046E0A0E036EFEEC14F001C0DFF09A
:1017C80002C0E0F074EC1AF0C50E026E000E036E53
:1017D8006CEC19F0C50E0001D96F000EDA6FD40E4B
:1017E800DB6F7F0EDC6FF4C001F0026A000E046E3E
:1017F8000A0E036EE2EC13F001C0DDF002C0DEF069
:10180800F4C001F0026A000E046E0A0E036EFEECCC
:1018180014F001C0DFF002C0E0F074EC1AF0C50E5D
:10182800026E000E036E6CEC19F0C50E0001D96F44
:10183800000EDA6FEE0EDB6F7F0EDC6FF3C001F087
:10184800026A000E046E0A0E036EE2EC13F001C089
:10185800DDF002C0DEF0F3C001F0026A000E046E93
:101868000A0E036EFEEC14F001C0DFF002C0E0F0D7
:1018780074EC1AF0C50E026E000E036EE4EC16F05E
:1018880093EC1DF0C7EC1CF0DF0E026E7F0E036EAA
:101898006CEC19F0C50E0001D96F000EDA6FF00E6E
:1018A800DB6F7F0EDC6FE9C0DDF0EAC0DEF074ECC0
:1018B8001AF0C50E026E000E036EE4EC16F09BECF7
:1018C80019F08E0E026E7F0E036EE4EC16F093ECA8
:1018D8001DF093EC1DF093EC1DF01B0E64EC1DF055
:1018E8006D0E64EC1DF012000AC001F00BC002F08E
:1018F800000E046E0A0E036EDAEC1CF001C007F04D
:1019080002C008F03BEC1CF000018D6F0AC001F02A
:101918000BC002F0000E046E0A0E036EDAEC1CF027
:10192800010E0124076E000E0220086E3BEC1CF02D
:1019380000018E6F0AC001F00BC002F0000E046EA9
:101948000A0E036EDAEC1CF0020E0124076E000E7C
:101958000220086E3BEC1CF000018F6F0AC001F0FA
:101968000BC002F0000E046E0A0E036EDAEC1CF0D7
:10197800030E0124076E000E0220086E3BEC1CF0DB
:101988000001906F0AC001F00BC002F0000E046E57
:101998000A0E036EDAEC1CF0040E0124076E000E2A
:1019A8000220086E3BEC1CF00001916F0AC001F0A8
:1019B8000BC002F0000E046E0A0E036EDAEC1CF087
:1019C800050E0124076E000E0220086E3BEC1CF089
:1019D8000001886F0AC001F00BC002F0000E046E0F
:1019E8000A0E036EDAEC1CF0060E0124076E000ED8
:1019F8000220086E3BEC1CF00001896F0AC001F060
:101A08000BC002F0000E046E0A0E036EDAEC1CF036
:101A1800070E0124076E000E0220086E3BEC1CF036
:101A280000018A6F0AC001F00BC002F0000E046EBC
:101A38000A0E036EDAEC1CF0080E0124076E000E85
:101A48000220086E3BEC1CF000018B6F0AC001F00D
:101A58000BC002F0000E046E0A0E036EDAEC1CF0E6
:101A6800090E0124076E000E0220086E3BEC1CF0E4
:101A780000018C6F1200000E126E10BE48EF0DF0C0
:101A880046EF0DF05AEF0DF0101E0F1E0E1E0D1E24
:101A98000C1E0B1E0A1E096C000E0A220B220C22B9
:101AA8000D220E220F221022010E126E08BE61EFC7
:101AB8000DF05FEF0DF073EF0DF0081E071E061E08
:101AC800051E041E031E021E016C000E02220322C4
:101AD80004220522062207220822010E121A20EEED
:101AE80013F0070EDE6AE806FDE209500A100B1033
:101AF8000C100D100E100F101010D8B486EF0DF04A
:101B080088EF0DF0DAEF0DF0010E116E96EF0DF083
:101B1800D89009360A360B360C360D360E360F3687
:101B28001036112A10AE9BEF0DF09DEF0DF08CEFE3
:101B38000DF0D89013361436153616361736183673
:101B480019361A360950015C0A5002580B500358CE
:101B58000C5004580D5005580E5006580F50075891
:101B680010500858D8A0BBEF0DF0BDEF0DF0CEEF28
:101B78000DF00950015E0A50025A0B50035A0C50DE
:101B8800045A0D50055A0E50065A0F50075A105055
:101B9800085A1380D89010320F320E320D320C32A0
:101BA8000B320A320932112E9DEF0DF01250D8B4C3
:101BB800E0EF0DF0E2EF0DF0F2EF0DF01A1E191E36
:101BC800181E171E161E151E141E136C000E142246
:101BD800152216221722182219221A2213C001F0E0
:101BE80014C002F015C003F016C004F017C005F0C9
:101BF80018C006F019C007F01AC008F0120007C094
:101C080003F008C004F009C005F00AC006F0B4ECFF
:101C18001CF0A0EF0EF0000E196E000E186E185092
:101C28000924116E19500A20126E07C003F008C06B
:101C380004F011C005F012C006F0B4EC1CF078EC0A
:101C48001DF0780E35EC1DF0400E35EC1DF00BC084
:101C5800F6FF0CC0F7FFF86A070EF76403D0080018
:101C6800F55005D0F6CFE1FFF7CFE2FFE750136E4E
:101C7800E00E1324146E156AFF0E152218C00DF01D
:101C880019C00EF00D3A0E3AF00E0E160D500F0B4D
:101C98000E12F00E0D1614C00FF015C010F0050E40
:101CA800D8900F361036E82E54EF0EF00D500F2452
:101CB800146E0E501020156E000E176E000E166E64
:101CC8004F0E0D6E700E0E6E14500D2615500E220E
:101CD80016500D2617500E220DC0F6FF0EC0F7FF46
:101CE8000800F55035EC1DF0164A172A17BE86EF86
:101CF8000EF0175009E1100E165CD8A086EF0EF012
:101D080088EF0EF064EF0EF08AEC1DF0184A192ADD
:101D180019BE98EF0EF0195009E1020E185CD8A010
:101D280098EF0EF09AEF0EF013EF0EF00D0E072657
:101D3800000E08220B4A0C2A0BC0F6FF0CC0F7FF56
:101D4800F86A070EF76403D00800F55005D0F6CFFF
:101D5800E1FFF7CFE2FFE7500009D8A4B6EF0EF095
:101D6800B8EF0EF00FEF0EF01200BDEC1BF00AC03A
:101D780013F00BC014F0000E176E010E166E5EEF16
:101D88000FF016C001F017C002F0000E046E0A0E24
:101D9800036EDAEC1CF0050E0124076E000E02201B
:101DA800086E3BEC1CF0156E155000018819D8A47C
:101DB800E0EF0EF0E2EF0EF05CEF0FF016C001F06E
:101DC80017C002F0000E046E0A0E036EDAEC1CF067
:101DD800060E0124076E000E0220086E3BEC1CF074
:101DE800156E155000018919D8A4FDEF0EF0FFEF0C
:101DF8000EF05CEF0FF016C001F017C002F0000EF5
:101E0800046E0A0E036EDAEC1CF0070E0124076E4E
:101E1800000E0220086E3BEC1CF0156E15500001F8
:101E28008A19D8A41AEF0FF01CEF0FF05CEF0FF02F
:101E380016C001F017C002F0000E046E0A0E036E01
:101E4800DAEC1CF0080E0124076E000E0220086E62
:101E58003BEC1CF0156E155000018B19D8A437EF18
:101E68000FF039EF0FF05CEF0FF016C001F017C05C
:101E780002F0000E046E0A0E036EDAEC1CF0090E76
:101E88000124076E000E0220086E3BEC1CF0156E54
:101E9800155000018C19D8A454EF0FF056EF0FF02D
:101EA8005CEF0FF016C011F017C012F06DEF0FF0D5
:101EB800164A172A1650135C17501458D8B067EFF3
:101EC8000FF069EF0FF0C5EF0EF0000E126E000E66
:101ED800116E1200000E126E08BE77EF0FF075EF4C
:101EE8000FF089EF0FF0081E071E061E051E041EC0
:101EF800031E021E016C000E022203220422052288
:101F0800062207220822010E126E10BE90EF0FF073
:101F18008EEF0FF0A0EF0FF0101E0F1E0E1E0D1EFD
:101F28000C1E0B1E0A1E096C000E0A220B220C2224
:101F38000D220E220F22102209500A100B100C102D
:101F48000D100E100F101010D8B4ADEF0FF0AFEF4A
:101F58000FF0F7EF0FF0010E116EBDEF0FF0D890F4
:101F680009360A360B360C360D360E360F36103655
:101F7800112A10AEC2EF0FF0C4EF0FF0B3EF0FF05D
:101F88000950015C0A5002580B5003580C50045871
:101F98000D5005580E5006580F5007581050085845
:101FA800D8A0D9EF0FF0DBEF0FF0EBEF0FF00950EF
:101FB800015E0A50025A0B50035A0C50045A0D5035
:101FC800055A0E50065A0F50075A1050085AD89002
:101FD80010320F320E320D320C320B320A32093205
:101FE800112EC4EF0FF01250D8B4FDEF0FF0FFEF31
:101FF8000FF00FEF10F0081E071E061E051E041E28
:10200800031E021E016C000E022203220422052276
:1020180006220722082201C001F002C002F003C014
:1020280003F004C004F005C005F006C006F007C0C0
:1020380007F008C008F012005E50D8A426EF10F090
:1020480028EF10F036EF10F0000E086E320E076E13
:10205800000E0A6E070E096EDA0E0B6E7F0E0C6EFE
:1020680003EC0EF05E04D8A43CEF10F03EEF10F045
:102078004CEF10F0000E086E320E076E000E0A6E5E
:10208800070E096EF70E0B6E7F0E0C6E03EC0EF04A
:10209800020E5E18D8A453EF10F055EF10F063EF5E
:1020A80010F0000E086E320E076E000E0A6E070E54
:1020B800096EE40E0B6E7F0E0C6E03EC0EF0030E31
:1020C8005E18D8A46AEF10F06CEF10F07AEF10F0F9
:1020D800000E086E320E076E000E0A6E070E096EAD
:1020E800F30E0B6E7F0E0C6E03EC0EF0040E5E18F2
:1020F800D8A481EF10F083EF10F091EF10F0000EEC
:10210800086E320E076E000E0A6E070E096EFB0E81
:102118000B6E7F0E0C6E03EC0EF0050E5E18D8A445
:1021280098EF10F09AEF10F0A8EF10F0000E086E7C
:10213800320E076E000E0A6E070E096EE90E0B6E60
:102148007F0E0C6E03EC0EF0120064EC1CF0D00E47
:1021580025EC1CF0000E25EC1CF078EC1CF0D10EE0
:1021680025EC1CF0010E9DEC16F00001F36F010E3A
:102178009DEC16F00001F46F010E9DEC16F00001C5
:10218800F56FA351F519D8B4CCEF10F0CEEF10F0DD
:10219800D2EF10F0F5C0A3F0A1EC18F00001A251A5
:1021A800F419D8B4DAEF10F0DCEF10F0E0EF10F02B
:1021B800F4C0A2F06DEC18F00001A151F319D8B4E5
:1021C800E8EF10F0EAEF10F0EEEF10F0F3C0A1F036
:1021D80039EC18F0010E9DEC16F0010E9DEC16F08E
:1021E8000001F06F010E9DEC16F00001F16F000E7A
:1021F8009DEC16F00001F26FED51F019D8B407EF1D
:1022080011F009EF11F00DEF11F0D1EC17F0F0C05B
:10221800EDF00001EE51F119D8B415EF11F017EFF8
:1022280011F01BEF11F0F1C0EEF09DEC17F000017A
:10223800EF51F219D8B423EF11F025EF11F029EF7F
:1022480011F0F2C0EFF005EC18F050EC1CF01200A1
:10225800033404340A6E0A50D8A435EF11F037EF6E
:1022680011F041EF11F0000E016E000E026E000E2B
:10227800036E000E046EAEEF11F001C005F002C04F
:1022880006F003C007F004C008F0200E51EF11F06B
:10229800D8900832073206320532E82E4CEF11F09A
:1022A8000550096E038EFF0E0116FF0E0216FF0E73
:1022B8000316000E0416960E0A5E0ABE68EF11F0A9
:1022C80066EF11F07EEF11F00A50800A970FD8B030
:1022D80070EF11F072EF11F074EF11F037EF11F0A9
:1022E800D89004320332023201320A3E74EF11F000
:1022F80096EF11F01F0E0A6484EF11F086EF11F0CB
:102308008EEF11F037EF11F0D89001360236033610
:1023180004360A060A50D8A494EF11F096EF11F08B
:1023280088EF11F00950D8B49CEF11F09EEF11F02E
:10233800A6EF11F0041E031E021E016C000E0222FD
:102348000322042201C001F002C002F003C003F01E
:1023580004C004F01200000E1914216E000E1A14A5
:10236800226E800E1B14236E7F0E1C14246E2150C7
:10237800221023102410D8A4C4EF11F0C6EF11F0D6
:10238800CEEF11F0000E196E000E1A6E000E1B6EC5
:10239800000E1C6E000E1D14216E000E1E14226EFF
:1023A800800E1F14236E7F0E2014246E21502210DD
:1023B80023102410D8A4E3EF11F0E5EF11F0EDEFAE
:1023C80011F0000E1D6E000E1E6E000E1F6E000E28
:1023D800206E1CAEF2EF11F0F4EF11F0FDEF11F0EA
:1023E800196C1A1ED8B01A2A1B1ED8B01B2A800EC8
:1023F8001C5620AE02EF12F004EF12F00DEF12F0AF
:102408001D6C1E1ED8B01E2A1F1ED8B01F2A800E93
:102418002056000E191A000E1A1A000E1B1A800EEA
:102428001C1A000E1D1A000E1E1A000E1F1A800E0E
:10243800201A1D50195C1E501A581F501B58205046
:102448001C58D8B02AEF12F02CEF12F02FEF12F030
:10245800D89030EF12F0D8801200000E266E000ED1
:10246800276EA0EC1CF00009D8B43DEF12F03FEF46
:1024780012F0AAEF12F0CF0E286E000E296EA1EC12
:102488001BF00009D8B44BEF12F04DEF12F0A8EF93
:1024980012F0000E5B6E000E5A6E000E5B6E000EA0
:1024A8005A6ECF0E5A24D96E000E5B20DA6E880E53
:1024B8005A24E16E000E5B20E26EDFCFE7FF5A4A36
:1024C8005B2A5BBE71EF12F05B5009E1050E5A5CA6
:1024D800D8A071EF12F073EF12F055EF12F0B9ECCB
:1024E8000EF011C058F012C059F058505910D8A425
:1024F80080EF12F082EF12F096EF12F0F5C08DF037
:10250800F4C08EF0F0C08FF0F1C090F0F2C091F0FE
:10251800DCEC0AF0BDEC1BF00AC058F00BC059F017
:102528009CEF12F058C00AF059C00BF078EC0CF090
:1025380058C0E9F059C0EAF0B1EC0BF0CF0E016ECB
:10254800000E026E68EC1BF0F5EC19F012000F0E8D
:10255800C16E0F0E966E959C8C9CF28EF28C0DECD3
:102568001DF04EEC1DF0800E256E250E266E000E19
:10257800276E000E286E43EC08F0C70E026E7F0E21
:10258800036EE4EC16F0100E5D6E390E5C6E0E0EE6
:10259800E82EFED75C2EFCD75D2EFAD7ACEC15F0F2
:1025A8004BEC1AF0C9EC19F0000E086E010E076E1C
:1025B8003BEC1CF0160AD8B4E4EF12F0E6EF12F088
:1025C800F6EF12F0000E0D6E000E0C6E9DEC1AF078
:1025D800000E096E010E086E160E0A6E0DEC1CF048
:1025E800FCEF12F0BDEC1BF00AC09AF00BC09BF098
:1025F800A7EC05F05E50D8A404EF13F006EF13F033
:10260800FCEF12F00001A051D8B40DEF13F00FEF5A
:1026180013F014EF13F0A9EC10F0000E0001A06FF6
:1026280031EC12F0FCEF12F007EF00F00350041049
:10263800D8B421EF13F023EF13F02CEF13F003506D
:102648000410D8A42AEF13F02CEF13F031EF13F095
:102658000150A6EC1DF07EEF13F020EE04F00350BD
:10266800D9260450DA22DE50DE10D8B43EEF13F03B
:1026780040EF13F05BEF13F020EE04F00350D9267F
:102688000450DA2210EE02F00350E1260450E22250
:10269800DE50E65CE650800A096EDE50800A095872
:1026A800D8B059EF13F05BEF13F07EEF13F020EE84
:1026B80002F00350D9260450DA22DECF05F0DDCF30
:1026C80006F003C0D9FF04C0DAFFDECF07F0DDCF84
:1026D80008F005500724D96E06500820DA6E01C0AC
:1026E800DFFF20EE02F00350D9260450DA22DE2A5A
:1026F800000EDD221200000198A185EF13F087EF8C
:1027080013F091EF13F013C00AF014C00BF011C0CE
:102718000CF012C00DF008EC1BF016BE96EF13F08B
:1027280098EF13F09EEF13F015C01AF016C01BF0C7
:10273800A2EF13F0000E1B6E000E1A6E000E196E3B
:10274800000E186EB4EF13F0000E026E200E016E2C
:1027580011C003F012C004F01AEC13F0184A192A39
:102768001A50185C1950800A176E1B50800A1758A7
:10277800D8A0C1EF13F0C3EF13F0A8EF13F00001D6
:1027880098B1C9EF13F0CBEF13F0D5EF13F013C0E6
:102798000AF014C00BF011C00CF012C00DF008ECD8
:1027A8001BF013C001F014C002F0D9EC1BF01A5052
:1027B8000124116E1B500220126E1200000E066ECC
:1027C80004BEEBEF13F0E9EF13F0F1EF13F0036C35
:1027D800041ED8B0042A010E066E02BEF8EF13F0EC
:1027E800F6EF13F0FEEF13F0016C021ED8B0022AC8
:1027F800010E061A000E086E000E076E0350041034
:10280800D8B409EF14F00BEF14F033EF14F0010E05
:10281800056E13EF14F0D89003360436052A04AE7B
:1028280018EF14F01AEF14F00FEF14F0D8900736E1
:1028380008360350015C04500258D8A026EF14F063
:1028480028EF14F02DEF14F00350015E0450025AE3
:102858000780D89004320332052E1AEF14F0065080
:10286800D8B439EF14F03BEF14F03FEF14F0076CD5
:10287800081ED8B0082A07C001F008C002F01200EC
:1028880078EC1DF0780E35EC1DF0400E35EC1DF09F
:1028980093EF14F007C0F6FF08C0F7FF0800F5CF64
:1028A8000BF0E00E0B240C6E0D6AFF0E0D220CC00F
:1028B80001F00DC002F0000E046E060E036EDAEC95
:1028C8001CF001C00CF002C00DF0000E0F6E000EDF
:1028D8000E6E2F0E096E7C0E0A6E0C5009260D50D6
:1028E8000A220E5009260F500A2209C0F6FF0AC014
:1028F800F7FF0800F55035EC1DF00E4A0F2A0FBE01
:102908008FEF14F00F5009E1060E0E5CD8A08FEF80
:1029180014F091EF14F06DEF14F0074A082A07C07D
:10292800F6FF08C0F7FF0800F5500009D8A49FEF8C
:1029380014F0A1EF14F04EEF14F08AEC1DF0120021
:10294800000E236E000E016E0D0E25EC17F020C050
:10295800D9FF21C0DAFF930EDF6E20EE01F0205080
:10296800D9262150DA22200EDF6E080E0A6E080ED4
:1029780028EC1DF020C00DF021C00EF0020E0F6EE5
:1029880020C010F021C011F0240E126E000E136E3C
:102998000C0EFCEC06F0266E2650D8A4D6EF14F0E8
:1029A800D8EF14F0FCEF14F0000E276E2750202407
:1029B800D96E000E2120DA6EDF50231A272A030E63
:1029C8002764E9EF14F0EBEF14F0DAEF14F020EEDF
:1029D80004F02050D9262150DA222350DE18D8B42A
:1029E800F8EF14F0FAEF14F0FCEF14F0020E266E74
:1029F80026501200000E066E02BE07EF15F005EF16
:102A080015F00DEF15F0016C021ED8B0022A010E68
:102A1800066E04BE14EF15F012EF15F018EF15F05E
:102A2800036C041ED8B0042A03500410D8B41FEF56
:102A380015F021EF15F045EF15F0010E056E29EFA1
:102A480015F0D89003360436052A04AE2EEF15F09B
:102A580030EF15F025EF15F00350015C04500258D3
:102A6800D8A039EF15F03BEF15F03FEF15F0035004
:102A7800015E0450025AD89004320332052E30EF1A
:102A880015F00650D8B44BEF15F04DEF15F051EF97
:102A980015F0016C021ED8B0022A01C001F002C074
:102AA80002F01200036E000E076E000E066E8B9485
:102AB8008B92035003247E0B016E026A800E011074
:102AC800046E0250056E000E096E080E086E04AE04
:102AD80070EF15F072EF15F075EF15F08C8076EF4A
:102AE80015F08C908B84D890043605368B940806A4
:102AF800D8A0090608500910D8A485EF15F087EF6B
:102B080015F06BEF15F0000E096E080E086E8B8439
:102B1800D8900636073683B294EF15F098EF15F083
:102B2800016A012A99EF15F0016A015006128B9487
:102B38000806D8A0090608500910D8A4A6EF15F071
:102B4800A8EF15F08BEF15F08B828B8406501200DE
:102B5800000E8CEC1CF08AEC1DF0AE0EFEEC1CF0A6
:102B6800D50EFEEC1CF0800EFEEC1CF0A80EFEEC60
:102B78001CF03F0EFEEC1CF0D30EFEEC1CF0000E19
:102B8800FEEC1CF0400EFEEC1CF08D0EFEEC1CF072
:102B9800140EFEEC1CF0200EFEEC1CF0000EFEECF9
:102BA8001CF0A10EFEEC1CF0C80EFEEC1CF0DA0EB8
:102BB800FEEC1CF0120EFEEC1CF0810EFEEC1CF07C
:102BC800CF0EFEEC1CF0D90EFEEC1CF0F10EFEEC64
:102BD8001CF0DB0EFEEC1CF0400EFEEC1CF0A40E0C
:102BE800FEEC1CF0A60EFEEC1CF02E0EFEEC1CF00B
:102BF800AF0EFEEC1CF01200040E0A6E050E28EC57
:102C08001DF0800E0A6E0A0E42EC1DF0000E136EC7
:102C18001AEF16F00DC0D9FF0EC0DAFFDF50016EB3
:102C2800090E25EC17F00D4A0E2A132A0F50135CD3
:102C3800D8A021EF16F023EF16F00EEF16F0030ED2
:102C4800016E010E25EC17F01368050E56EC15F011
:102C5800126E13061350D8B434EF16F036EF16F090
:102C68003DEF16F012A43BEF16F03DEF16F029EFFA
:102C780016F0220E56EC15F010C0D9FF11C0DAFF7D
:102C8800DF6E20EE01F01050D9261150DA22210E05
:102C980056EC15F0DF6E12000001F55185EC1BF0C3
:102CA8000001F56FF45185EC1BF00001F46FF3514E
:102CB80085EC1BF00001F36FF25185EC1BF000016D
:102CC800F26FF15185EC1BF00001F16FF05185ECCA
:102CD8001BF00001F06F64EC1CF0D00E25EC1CF02A
:102CE800000E25EC1CF00001F35125EC1CF000014E
:102CF800F45125EC1CF00001F55125EC1CF0010EF7
:102D080025EC1CF00001F05125EC1CF00001F151FC
:102D180025EC1CF00001F25125EC1CF050EC1CF0E5
:102D2800100E0C6E940EE82EFED70C2EFCD700D099
:102D38001200026EC7B4A3EF16F0A5EF16F09EEFCF
:102D480016F0C5CF01F01F0E0116D8A4AEEF16F08D
:102D5800B0EF16F09EEF16F0C586C7B4B6EF16F0C2
:102D6800B8EF16F0B1EF16F0C5CF01F01F0E01163F
:102D7800D8A4C1EF16F0C3EF16F0B1EF16F0C9CF23
:102D880003F0C7B4CAEF16F0CCEF16F0C5EF16F093
:102D9800C5CF01F01F0E0116D8A4D5EF16F0D7EF56
:102DA80016F0C5EF16F00250D8B4DDEF16F0E0EFDC
:102DB80016F0C58AE1EF16F0C59AC58803501200CF
:102DC800FAEF16F002C0F6FF03C0F7FFF86A070E25
:102DD800F76403D00800F55005D0F6CFE1FFF7CF30
:102DE800E2FFE75064EC1DF0024A032A02C0F6FF36
:102DF80003C0F7FFF86A070EF76403D00800F55020
:102E080005D0F6CFE1FFF7CFE2FFE7500009D8A4DD
:102E180010EF17F012EF17F0E6EF16F00A0EAD6E8E
:102E2800ACA219EF17F01BEF17F014EF17F00D0E07
:102E3800AD6EACA222EF17F024EF17F01DEF17F0DC
:102E48001200026E8B948B92025002247E0B036E4A
:102E5800080E046E03AE33EF17F035EF17F038EFB6
:102E680017F08C8039EF17F08C908B84D89003364C
:102E78008B9404060450D8A444EF17F046EF17F0DB
:102E88002EEF17F0080E046E01AE4DEF17F04FEF5E
:102E980017F052EF17F08C8053EF17F08C908B845B
:102EA800D89001368B9404060450D8A45EEF17F02E
:102EB80060EF17F048EF17F08B828B841200000E3A
:102EC800066E000E056E03500410D8B46EEF17F0AE
:102ED80070EF17F098EF17F0010E076E78EF17F004
:102EE800D89003360436072A04AE7DEF17F07FEF3B
:102EF80017F074EF17F0D890053606360350015CCA
:102F080004500258D8A08BEF17F08DEF17F092EF0E
:102F180017F00350015E0450025A0580D89004321D
:102F28000332072E7FEF17F005C001F006C002F04C
:102F38001200C50E0001D96F000EDA6FCE0EDB6FDE
:102F48007F0EDC6FF1C001F0026A000E046E0A0EFB
:102F5800036EE2EC13F001C0DDF002C0DEF0F1C058
:102F680001F0026A000E046E0A0E036EFEEC14F005
:102F780001C0DFF002C0E0F074EC1AF0000E086E39
:102F8800320E076E000E0A6E060E096EC50E0B6E27
:102F9800000E0C6E03EC0EF01200C50E0001D96F86
:102FA800000EDA6FEE0EDB6F7F0EDC6FF0C001F003
:102FB800026A000E046E0A0E036EE2EC13F001C002
:102FC800DDF002C0DEF0F0C001F0026A000E046E0F
:102FD8000A0E036EFEEC14F001C0DFF002C0E0F050
:102FE80074EC1AF0000E086E5A0E076E000E0A6E88
:102FF800060E096EC50E0B6E000E0C6E03EC0EF07D
:103008001200C50E0001D96F000EDA6FCE0EDB6F0D
:103018007F0EDC6FF2C001F0026A000E046E0A0E29
:10302800036EE2EC13F001C0DDF002C0DEF0F2C086
:1030380001F0026A000E046E0A0E036EFEEC14F034
:1030480001C0DFF002C0E0F074EC1AF0000E086E68
:103058000A0E076E000E0A6E060E096EC50E0B6E7E
:10306800000E0C6E03EC0EF01200C50E0001D96FB5
:10307800000EDA6FEE0EDB6F7F0EDC6FF3C001F02F
:10308800026A000E046E0A0E036EE2EC13F001C031
:10309800DDF002C0DEF0F3C001F0026A000E046E3B
:1030A8000A0E036EFEEC14F001C0DFF002C0E0F07F
:1030B80074EC1AF0000E086E5A0E076E000E0A6EB7
:1030C800050E096EC50E0B6E000E0C6E03EC0EF0AD
:1030D8001200C50E0001D96F000EDA6FD40EDB6F37
:1030E8007F0EDC6FF4C001F0026A000E046E0A0E57
:1030F800036EE2EC13F001C0DDF002C0DEF0F4C0B4
:1031080001F0026A000E046E0A0E036EFEEC14F063
:1031180001C0DFF002C0E0F074EC1AF0000E086E97
:10312800320E076E000E0A6E050E096EC50E0B6E86
:10313800000E0C6E03EC0EF01200C50E0001D96FE4
:10314800000EDA6FD40EDB6F7F0EDC6FF5C001F076
:10315800026A000E046E0A0E036EE2EC13F001C060
:10316800DDF002C0DEF0F5C001F0026A000E046E68
:103178000A0E036EFEEC14F001C0DFF002C0E0F0AE
:1031880074EC1AF0000E086E0A0E076E000E0A6E36
:10319800050E096EC50E0B6E000E0C6E03EC0EF0DC
:1031A8001200226E070E016E0D0E25EC17F020C0DE
:1031B800D9FF21C0DAFF22C0DFFF20C00DF021C0F7
:1031C8000EF0010E0F6E20C010F021C011F0240E79
:1031D800126E000E136E0C0EFCEC06F0236E2350DC
:1031E800D8A4F9EF18F0FBEF18F005EF19F0100E5E
:1031F80024182510D8B403EF19F005EF19F007EFDC
:1032080019F0020E236E2350120003500410D8B494
:1032180010EF19F012EF19F036EF19F0010E056EE4
:103228001AEF19F0D89003360436052A04AE1FEFBA
:1032380019F021EF19F016EF19F00350015C045052
:103248000258D8A02AEF19F02CEF19F030EF19F036
:103258000350015E0450025AD89004320332052EFE
:1032680021EF19F001C001F002C002F0120052C0B3
:1032780056F053C057F0000E0001936F000E926F86
:1032880059EF19F050C040F051C041F0560E426E4F
:10329800000E436E54C044F055C045F002EC0AF0ED
:1032A8004050000192274150932356C0F6FF57C063
:1032B800F7FF0800F5500009D8A465EF19F067EF8B
:1032C80019F046EF19F092C050F093C051F0120077
:1032D80082EF19F002C0F6FF03C0F7FFF86A070E85
:1032E800F76403D00800F55005D0F6CFE1FFF7CF1B
:1032F800E2FFE75064EC1DF0024A032A02C0F6FF21
:1033080003C0F7FFF86A070EF76403D00800F5500A
:1033180005D0F6CFE1FFF7CFE2FFE7500009D8A4C8
:1033280098EF19F09AEF19F06EEF19F012001B0ED2
:1033380064EC1DF0400E64EC1DF01D0E64EC1DF0F5
:10334800210E64EC1DF0000E64EC1DF00D0E64EC13
:103358001DF00A0E64EC1DF01B0E64EC1DF0440E0B
:1033680064EC1DF0000E64EC1DF01B0E64EC1DF007
:10337800400E64EC1DF01B0E64EC1DF02D0E64EC89
:103388001DF0000E64EC1DF0120094929494959038
:10339800958295968B828C861BEC1DF08D0E016EA6
:1033A8002A0E25EC17F03E0E016E2B0E25EC17F0B9
:1033B8001E0E016E2D0E25EC17F0000E016E2C0E60
:1033C80025EC17F0400E016E150E25EC17F03D0E9A
:1033D800016E110E25EC17F09AEC1DF06FEC1DF044
:1033E8001200500E206E000E216E200E0D6E000E83
:1033F8000E6E020E0F6E220E106E000E116E00EC95
:1034080016F0800E0A6E080E28EC1DF0200E0D6EC8
:10341800000E0E6E040E0F6E200E106E000E116E52
:10342800240E126E000E136E0C0EFCEC06F0080E45
:103438000A6E080E28EC1DF01200000E046E000E35
:10344800036E000E066E000E056EB4EC1CF078ECF0
:103458001DF0780E35EC1DF0400E35EC1DF0000E19
:10346800086E000E076E000E35EC1DF0074A082A9C
:1034780008BE46EF1AF0040E085CD8A046EF1AF012
:1034880048EF1AF037EF1AF08AEC1DF0120021EC21
:103498001AF0000E086E000E076E000E0A6E000E7F
:1034A800096EBD0E0B6E7F0E0C6E03EC0EF0000E57
:1034B800046E000E036E000E066E020E056EB4EC6E
:1034C8001CF0AB0E076E7F0E086E44EC14F0A1ECF6
:1034D80018F06DEC18F039EC18F020EC10F0120030
:1034E800DD0E0001E16F000EE26FD9C0E3F0DAC033
:1034F800E4F0000EE66F000EE56F000EE86F000EB8
:10350800E76FE30E506E000E516EDBC052F0DCC068
:1035180053F0E10E546E000E556E3BEC19F00001AD
:10352800E551D925D96EE651DA21DA6E000EDF6E43
:103538001200000E096E020E086E0CC001F00DC0DC
:1035480002F0000E046E640E036E63EC17F0015077
:103558000A6E0DEC1CF0000E096E030E086E0CC00E
:1035680001F00DC002F0000E046E640E036E09EC4B
:1035780019F001500A6E0DEC1CF01200000E151A1D
:10358800000E161A000E171A800E181A11C001F034
:1035980012C002F013C003F014C004F015C005F007
:1035A80016C006F017C007F018C008F009EC00F0C4
:1035B80001C011F002C012F003C013F004C014F0EF
:1035C800120006009EA0EBEF1AF0EDEF1AF006EFDE
:1035D8001BF000019C4B9D2B9D5109E1020E9C5D47
:1035E800D8A0F9EF1AF0FBEF1AF001EF1BF0010E6B
:1035F800A06F000E9D6F000E9C6F150ECF6EB10E62
:10360800CE6E9E905F921100000E106E000E0F6E2F
:1036180019EF1BF00EC001F0026A0CC003F00DC0D8
:1036280004F01AEC13F00F4A102A0F500A24D96E2E
:1036380010500B20DA6EDF500E6E0E50D8A427EF14
:103648001BF029EF1BF00EEF1BF0120014BE37EF32
:103658001BF0145006E11304D8B035EF1BF037EF18
:103668001BF045EF1BF013C015F014C016F0151E23
:10367800161E154A162A15C013F016C014F049EF85
:103688001BF013C013F014C014F01200400EF66EB5
:103698003B0EF76E000EF86E00EEEBF010EE0BF03E
:1036A8000900F5CFEEFFE550E150FAE100EE60F0D9
:1036B800790EEE6AE806FDE15E6A5F905F92000EA1
:1036C800F86E0001ABEF12F0000E046E000E036EF0
:1036D80003500124D96E04500220DA6E000EDF6E0A
:1036E800034A042A04BE82EF1BF0045009E10A0EC3
:1036F800035CD8A082EF1BF084EF1BF06CEF1BF08B
:1037080012000B6E0BC001F0026A000E046E0A0E66
:10371800036EFEEC14F001C009F002C00AF00BC001
:1037280001F0026A000E046E0A0E036EE2EC13F05A
:103738000150100DF3500924120028C020F029C0B0
:1037480021F0A4EC14F02A6E20EE05F02850D926BA
:103758002950DA22000EDF6E2A50D8A4B6EF1BF0EB
:10376800B8EF1BF0BBEF1BF0010EBCEF1BF0000E17
:103778001200000E086E020E076E3BEC1CF00C6E79
:103788000C500F6E106A000E086E030E076E3BECAD
:103798001CF00C6E0F500D6E0C500F6E0DC010F01B
:1037A8000FC00AF010C00BF0120001C003F002C0F5
:1037B80004F0E1EF1BF0014A022A01C0D9FF02C060
:1037C800DAFFDF50D8A4EBEF1BF0EDEF1BF0DFEFD3
:1037D8001BF00350015C016E04500258026E120087
:1037E800C586C7A0FAEF1BF0FCEF1BF0F5EF1BF046
:1037F800C9CF01F0EDEC1CF0C58AC588C5B807EF44
:103808001CF009EF1CF002EF1CF08AEC1DF00150CF
:10381800120078EC1DF0A00E35EC1DF0095035ECC7
:103828001DF0085035EC1DF00A5035EC1DF08AECFF
:103838001DF00D0E0B6EFC0EE82EFED70B2EFCD7DE
:103848001200026EC7B42BEF1CF02DEF1CF026EF10
:103858001CF0C5CF01F01F0E0116D8A436EF1CF0DE
:1038680038EF1CF026EF1CF002C0C9FF120078ECFC
:103878001DF0A00E35EC1DF0085035EC1DF007507A
:1038880035EC1DF081EC1DF0A10E35EC1DF0F4ECCB
:103898001BF0096E09501200C7B455EF1CF057EF22
:1038A8001CF050EF1CF0C5CF01F01F0E0116D8A474
:1038B80060EF1CF062EF1CF050EF1CF0C5841200A2
:1038C800C7B469EF1CF06BEF1CF064EF1CF0C5CFB8
:1038D80001F01F0E0116D8A474EF1CF076EF1CF04F
:1038E80064EF1CF0C5801200C7B47DEF1CF07FEFB9
:1038F8001CF078EF1CF0C5CF01F01F0E0116D8A4FC
:1039080088EF1CF08AEF1CF078EF1CF0C5821200DB
:10391800016E938093820150D8A495EF1CF097EF25
:103928001CF09AEF1CF0C78E9BEF1CF0C79E280E68
:10393800C66E770EC86E120026C020F027C021F090
:10394800260ED5EC18F00009D8A4ADEF1CF0AFEFA7
:103958001CF0B2EF1CF0010EB3EF1CF0000E1200C9
:10396800210EFEEC1CF00350FEEC1CF07F0EFEEC6A
:103978001CF0220EFEEC1CF00550FEEC1CF0070EAD
:10398800FEEC1CF012001B0E64EC1DF0400E64EC03
:103998001DF01D0E64EC1DF0210E64EC1DF0100EE0
:1039A80064EC1DF0080E64EC1DF0120001500302D7
:1039B800F3CF05F0F4CF06F001500402F3500626C9
:1039C80002500302F350062605C001F006C002F0BB
:1039D8001200C7B4F2EF1CF0F4EF1CF0EDEF1CF08E
:1039E800C5ACF9EF1CF0FBEF1CF0FDEF1CF08AEC06
:1039F8001DF01200026E78EC1DF0780E35EC1DF00B
:103A0800000E35EC1DF0025035EC1DF08AEC1DF06F
:103A18001200CD8ECD9CCD96CD92150ECF6EB10EE7
:103A2800CE6ECD80300ECD129D809E9012008C8679
:103A380000D08C9600D08C8600D00F0E016E010E3F
:103A480025EC17F000D012000C6E0C5056EC15F057
:103A58000B6E0A50FF0A0B14016E0C5025EC17F080
:103A68001200016E01C0C9FFC7B03DEF1DF03FEF66
:103A78001DF038EF1DF0EDEC1CF012000C6E0C5030
:103A880056EC15F00B6E0B500A10016E0C5025EC1D
:103A980017F01200AC98AC8AAC9CAB8EAB9CAB8890
:103AA800AC84B8969E9A9D8A1200026E02C001F0FC
:103AB8000F0E011602380F0B0A0DF35001241200E5
:103AC800016E01C0ADFFACA26CEF1DF06EEF1DF0F2
:103AD80067EF1DF01200140E56EC15F0030E0A6E77
:103AE800140E42EC1DF01200C580C5B07EEF1DF02B
:103AF80080EF1DF079EF1DF01200C582C5B287EF87
:103B08001DF089EF1DF082EF1DF01200C584C5B4C9
:103B180090EF1DF092EF1DF08BEF1DF012000D0ECF
:103B280064EC1DF00A0E64EC1DF01200030E0A6E20
:103B3800140E28EC1DF01200A1001C0A151C0A1511
:033B480001311632
:023B4C00120065
:10704E000000000000000000000000000000000032
:10705E000000000000000000000000000000000022
:10706E000000000000F8FCFCFCF80000000000002E
:10707E0000000000000073737300000000000000A9
:10708E0000000000001E3E3E0000003E3E1E0000BE
:10709E0000000000000000000000000000000000E2
:1070AE000000303030FEFE30303030FEFE303030FA
:1070BE0000000C0C0C7F7F0C0C0C0C7F7F0C0C0C4E
:1070CE0000000000F0F898FE9898FE9898180000BE
:1070DE00000000001819197F19197F191F0F0000E1
:1070EE00000000000038383880C0E0703800000022
:1070FE0000000000001C0E0703011C1C1C000000F9
:10710E000000000038FCC4C4FC3800000080000001
:10711E00000000001E3F2121333F1E1E37230000BA
:10712E000000000000203C3C1C000000000000009D
:10713E000000000000000000000000000000000041
:10714E000000000000C0E0F0381C0C040400000039
:10715E00000000000003070F1C3830202000000044
:10716E00000000000004040C1C38F0E0C000000019
:10717E000000000000202030381C0F070300000024
:10718E00000000808890E0E0FCFCE0E09088800049
:10719E0000000001110907073F3F07070911010011
:1071AE000000000000808080F0F0808080000000F1
:1071BE0000000000000101010F0F0101010000009D
:1071CE0000000000000000000000000000000000B1
:1071DE000000000000407878380000000000000039
:1071EE000000000080808080808080808080000091
:1071FE000000000001010101010101010101000077
:10720E000000000000000000000000000000000070
:10721E0000000000000038383800000000000000B8
:10722E000000000000000000000080C0E070381C6C
:10723E00000000002030381C0E0703010000000083
:10724E0000000000F8FCFC0484E474FCFCF8000070
:10725E00000000001F3F3F2E2721203F3F1F000050
:10726E0000000000606060F0FCFC00000000000008
:10727E00000000002020203F3F3F20202000000083
:10728E0000000000181C1C040484CCFC78300000A4
:10729E000000000030383C2E2723213838380000FB
:1072AE0000000000181C1C848484CC7C7830000004
:1072BE0000000000183838212121333E1E0C00003A
:1072CE000000000080C0603018FCFCFC00000000D4
:1072DE000000000003030323233F3F3F232300004E
:1072EE0000000000FCFCFC84848484840404000000
:1072FE0000000000193939212121333F1F0E0000F3
:10730E0000000000E0F0F89C8C8484848000000073
:10731E00000000001F3F3F212121213F3F1F0000A1
:10732E00000000003C3C3C0404040484FCFC7C0093
:10733E0000000000000000383C3E07030100000082
:10734E0000000000787CFCC4C48484FC7C780000BF
:10735E00000000001E3E3F212123233F3E1E000061
:10736E0000000000F8FCFC84848484FCFCF800001F
:10737E0000000000000121212131391F0F070000FC
:10738E00000000000000007070700000000000009F
:10739E00000000000000000E0E0E000000000000B5
:1073AE00000000000000007070700000000000007F
:1073BE00000000000000101E1E0E00000000000065
:1073CE000000000080C0E070381C0E0602000000B5
:1073DE00000000000103070E1C3870604000000022
:1073EE00000000606060606060606060606060000F
:1073FE000000000606060606060606060606060037
:10740E000000000002060E1C3870E0C08000000074
:10741E0000000000406070381C0E070301000000E1
:10742E0000000000181C0C0E0686CEFC7C380000F6
:10743E0000000000000000007373730000000000E5
:10744E0000000000FCFEFE0202C2C2C2FEFEFC00F4
:10745E00000000003F3F7F6060636363634303008F
:10746E0000000000E0F0F81C0C0C1CF8F0E000002E
:10747E00000000003F3F3F020202023F3F3F00007C
:10748E000000000004FCFCFC848484FCFC780000FA
:10749E0000000000203F3F3F2121213F3F1E000002
:1074AE0000000000F0F8FC0C0404041C1C18000082
:1074BE00000000000F1F3F30202020383818000039
:1074CE000000000004FCFCFC04040CFCF8F00000BE
:1074DE0000000000203F3F3F2020303F1F0F0000E4
:1074EE000000000004FCFCFC848484C4CC1C00005E
:1074FE0000000000203F3F3F2121212333380000B0
:10750E000000000004FCFCFC848484C4CC1C00003D
:10751E0000000000203F3F3F210101030300000057
:10752E0000000000F0F8FC0C0404043C3C380000A1
:10753E00000000000F1F3F302022223E3E3E000082
:10754E0000000000FCFCFC808080FCFCFC000000C5
:10755E00000000003F3F3F0101013F3F3F000000A0
:10756E0000000000000404FCFCFC04040000000009
:10757E00000000000020203F3F3F202000000000C0
:10758E0000000000000000000404FCFCFC040400E9
:10759E000000001E1E3E202020203F3F1F00000046
:1075AE000000000004FCFCFCC0E0703C1C0C000061
:1075BE0000000000203F3F3F03070E3C3830000024
:1075CE000000000004FCFCFC0400000000000000B1
:1075DE0000000000203F3F3F20202030383C0000BC
:1075EE0000000000FCFCFC78F0E0F078FCFCFC00F5
:1075FE00000000003F3F3F00000100003F3F3F0002
:10760E0000000000FCFCFC70E0C08000FCFCFC00F4
:10761E00000000003F3F3F00000103073F3F3F00D7
:10762E0000000000E0F0F81C0C0C0C1CF8F0E00060
:10763E0000000000070F1F38303030381F0F0700D2
:10764E000000000004FCFCFC848484FCFC78000038
:10765E0000000000203F3F3F21010101010000001A
:10766E0000000000E0F8F81C0C040C1CF8F8E00018
:10767E0000000000071F1F18185C5E7E7F7F47000A
:10768E000000000004FCFCFC848484FCFC780000F8
:10769E0000000000203F3F3F0101033F3F3C000040
:1076AE000000000078FCFC84848484BC3C3800001C
:1076BE00000000001C3C3D212121213F3F1E000007
:1076CE00000000001C0C0404FCFCFC04040C1C0058
:1076DE0000000000000020203F3F3F20200000005F
:1076EE0000000000FCFCFC000000FCFCFC000000A4
:1076FE00000000001F3F3F2020203F3F1F000000E2
:10770E0000000000FCFCFC000000FCFCFC00000083
:10771E0000000000070F1F3830381F0F0700000051
:10772E0000000000FCFCFC0000800000FCFCFC00E3
:10773E0000000000030F3F3C3C0F3C3C3F0F03009A
:10774E00000000001C3C7CE0C0E07C3C1C00000003
:10775E0000000000383C3E0703073E3C38000000A6
:10776E00000000007CFCFC800080FCFC7C00000023
:10777E00000000000020213F3F3F212000000000BC
:10778E00000000003C1C0C0484C4E47C3C1C000083
:10779E0000000000383C3E2723212030383C0000FA
:1077AE00000000000000FCFCFC04040404000000C7
:1077BE000000000000003F3F3F202020200000007E
:1077CE00000000001C3870E0C080000000000000C7
:1077DE0000000000000000000103070E1C183020FE
:1077EE0020000000000004040404FCFCFC00000067
:1077FE00000000000000202020203F3F3F0000003E
:10780E00000000002030381C0E0E1C383020000006
:10781E00000000000000000000000000000000005A
:10782E00000000000000000000000000000000004A
:10783E000000C0C0C0C0C0C0C0C0C0C0C0C0C0C0BA
:10784E00C00000000C0C3C303000000000000000B6
:10785E00000000000000000000000000000000001A
:10786E0000000000004040404040C0C080000000CA
:10787E00000000001C3E3E2222223F1F3F2000003F
:10788E000000000004FCFCFC404040C0C080000032
:10789E0000000000203F1F3F2020203F3F1F000020
:1078AE000000000080C0C0404040C0C0800000000A
:1078BE00000000001F3F3F20202039391900000032
:1078CE000000000080C0C0404044FCFCFC040000EE
:1078DE00000000001F3F3F2020203F1F3F200000E0
:1078EE000000000080C0C0404040C0C080000000CA
:1078FE00000000001F3F3F2222223B3B1B000000E6
:10790E00000000008080F8FCFC849C9C18000000A5
:10791E000000000021213F3F3F2121010000000017
:10792E000000000080C0C0404040C080C040000049
:10793E000000000047CFDF989898FFFF7F000000FF
:10794E000000000004FCFCFC804040C0C080000031
:10795E0000000000203F3F3F0100003F3F3F00007E
:10796E000000000000404040DCDCDC0000000000B5
:10797E0000000000002020203F3F3F20202000007C
:10798E0000000000000000404040DCDCDC00000095
:10799E00000000002060E08080C0FFFF7F0000003C
:1079AE000000000004FCFCFC000080C0C040000091
:1079BE0000000000203F3F3F02070F3D383000001F
:1079CE000000000000040404FCFCFC0000000000A9
:1079DE0000000000002020203F3F3F20202000001C
:1079EE0000000000C0C0C04040C04040C0C0800089
:1079FE00000000003F3F3F00003F00003F3F3F00C0
:107A0E0000000000C0C0C0404040C0C08000000068
:107A1E00000000003F3F3F0000003F3F3F000000DE
:107A2E000000000080C0C0404040C0C08000000088
:107A3E00000000001F3F3F2020203F3F1F0000009E
:107A4E000000000040C080C0404040C0C080000028
:107A5E000000000080FFFFFF9010101F1F0F00009E
:107A6E0000000080C0C0404040C080C04000000008
:107A7E000000000F1F1F101090FFFFFF800000007E
:107A8E000000000040C0C0C080C0C0C0C080000068
:107A9E0000000000203F3F3F2100000101010000D7
:107AAE000000000080C0C040404040C08000000088
:107ABE0000000000193B232626263C3D190000003D
:107ACE00000000004040E0F0F84040404000000060
:107ADE000000000000001F3F3F2038381800000053
:107AEE0000000000C0C0C0000000C0C0C000000008
:107AFE00000000001F3F3F2020203F1F3F200000BE
:107B0E0000000000C0C0C0000000C0C0C0000000E7
:107B1E0000000000070F1F3830381F0F070000004D
:107B2E0000000000C0C0C00000000000C0C0C000C7
:107B3E0000000000070F3F38380E38383F0F07009F
:107B4E0000000000C0C0C00000C0C0C000000000A7
:107B5E000000000030393F0F0F3F393000000000A9
:107B6E000000000000C0C0C0000000C0C0C0000087
:107B7E000000000080878F9FD8F8783F0F07000025
:107B8E0000000000C0C0404040C0C0C00000000067
:107B9E000000000031383C2E272331380000000051
:107BAE00000000008080C0787C3C040404040000C7
:107BBE00000000000101031E3E3C2020202000009A
:107BCE000000000000000000FEFEFE0000000000AD
:107BDE0000000000000000007F7F7F00000000001A
:107BEE0000000000040404043C7C78C08080000087
:107BFE0000000000202020203C3E1E03010100005A
:107C0E00000000383C3C040C1C3830203C3C1C006E
:107C1E000000000000000000000000000000000056
:107C2E00000000000000000000002F000000000710
:107C3E0000070000147F147F1400242A7F2A1200EC
:107C4E0023130864620036495522500000050300D4
:107C5E000000001C224100000041221C00001408FC
:107C6E003E08140008083E0808000000A06000004E
:107C7E0008080808080000606000000020100804D2
:107C8E0002003E5149453E0000427F4000004261E5
:107C9E00514946002141454B31001814127F100006
:107CAE002745454539003C4A4949300001710905CF
:107CBE000300364949493600064949291E00003657
:107CCE003600000000563600000008142241000065
:107CDE001414141414000041221408000201510956
:107CEE000600324959513E007C1211127C007F4928
:107CFE00494936003E41414122007F4141221C004C
:107D0E007F49494941007F09090901003E4149491E
:107D1E007A007F0808087F0000417F410000204064
:107D2E00413F01007F08142241007F404040400047
:107D3E007F020C027F007F0408107F003E4141410C
:107D4E003E007F09090906003E4151215E007F0970
:107D5E001929460046494949310001017F010100B8
:107D6E003F4040403F001F2040201F003F40384012
:107D7E003F00631408146300070870080700615180
:107D8E0049454300007F414100AA55AA55AA550016
:107D9E000041417F000004020102040040404040C7
:107DAE0040000003050000002054545478007F4822
:107DBE0044443800384444442000384444487F004A
:107DCE00385454541800087E0901020018A4A4A4C3
:107DDE007C007F080404780000447D400000408051
:107DEE00847D00007F102844000000417F40000089
:107DFE007C04180478007C08040478003844444459
:107E0E003800FC242424180018242418FC007C08B4
:107E1E0004040800485454542000043F44402000F9
:107E2E003C4040207C001C2040201C003C40304048
:107E3E003C004428102844001CA0A0A07C004464F0
:107E4E00544C440000107C8200000000FF00000033
:107E5E0000827C100000000609090600000003A045
:107E6E0000C00C00F94F806BEB00988C8052A580FF
:107E7E0003000001C88089C00050850021C200089F
:107E8E004000208200002000188C00FA2F804BE06A
:107E9E00805A66808AA500E08F80EAAB0072A90046
:107EAE009A8C00FAAF804AA70001400009400021D9
:107EBE00488051450089420042660072A6807A874A
:107ECE0080FAA500722500FA2700FAA880FA880029
:107EDE00722B00F88F808BE8808BE800F88D80F88D
:107EEE002080F90F80F9CF80722700FA8400722764
:107EFE0040FA85804AA90083E800F02F00E06E006A
:107F0E00F0EF00D88D80C0EC009AAC8003E880C002
:107F1E0081808BE00042040008208002040031239F
:107F2E0080F92300312480312F8031628023EA00D2
:107F3E00255380F9038002E00006E000F84280033A
:107F4E00E0007987803903803123007D23003127BB
:107F5E00C078840029400043E4007027006066006A
:107F6E0070670048C48074578059E68023E8800308
:107F7E0060008BE200610C00C000F000FC00FF000E
:107F8E00526563756572646520636F6E7365727694
:107F9E006172207375207469636B65740052454776
:107FAE00495354524F20504552534F4E414C004C62
:107FBE0045434F4D5045525500496E6963696F00F8
:107FCE00256425642D00256425643A002020202098
:107FDE000049443A2000484F524100594541520051
:107FEE002564256400444941004D494E004D4553DA
:027FFE00000081
:020000040020DA
:08000000FFFFFFFFFFFFFFFF00
:020000040030CA
:0E000000010E191EFF0080FF0FC00FE00F4021
:00000001FF
