:020000040000FA
:040000003AEF30F0B3
:105F44001200010031001600C584C5B4ACEF2FF077
:105F5400AEEF2FF0A7EF2FF01200C580C5B0B5EF5C
:105F64002FF0B7EF2FF0B0EF2FF01200016E01C049
:105F7400C9FFC7B0C0EF2FF0C2EF2FF0BBEF2FF077
:105F8400D4EC2FF01200026EAFEC2FF0780EB8ECC8
:105F94002FF0000EB8EC2FF00250B8EC2FF0A6EC66
:105FA4002FF01200C7B4D9EF2FF0DBEF2FF0D4EFAE
:105FB4002FF0C5ACE0EF2FF0E2EF2FF0E4EF2FF07D
:105FC400A6EC2FF01200210EC5EC2FF00450C5EC06
:105FD4002FF07F0EC5EC2FF0220EC5EC2FF00650EB
:105FE400C5EC2FF0070EC5EC2FF012000150030290
:105FF400F3CF05F0F4CF06F001500402F350062667
:1060040002500302F350062605C001F006C002F058
:106014001200016E938093820150D8A414EF30F0E3
:1060240016EF30F019EF30F0C78E1AEF30F0C79E3C
:10603400280EC66E770EC86E120001C003F002C0AF
:1060440004F027EF30F0014A022A01C0D9FF02C050
:10605400DAFFDF50D8A431EF30F033EF30F025EF22
:1060640030F00350015C016E04500258026E1200BD
:10607400460EF66E5F0EF76E000EF86E00EE9FF0A1
:1060840010EE06F00900F5CFEEFFE550E150FAE11D
:1060940000EE60F0290EEE6AE806FDE1000EF86EEF
:1060A4000001EDEF31F014BE62EF30F0145006E160
:1060B4001304D8B060EF30F062EF30F070EF30F0DE
:1060C40013C015F014C016F0151E161E154A162A14
:1060D40015C013F016C014F074EF30F013C013F0B1
:1060E40014C014F01200930E586E000E596EEE0E8A
:1060F4005A6E7F0E5B6E000E5D6E020E5C6E000EBD
:106104005F6E020E5E6ED9EC30F0000E096E0A0E60
:10611400086E000E0B6E050E0A6E930E0C6E000ECA
:106124000D6EDBEC33F01200930E586E000E596EB8
:10613400EE0E5A6E7F0E5B6E000E5D6E040E5C6E8C
:10614400000E5F6E090E5E6ED9EC30F0000E096E23
:10615400320E086E000E0B6E050E0A6E930E0C6E58
:10616400000E0D6EDBEC33F01200000E106E000E0C
:106174000F6EC8EF30F00EC001F0026A0CC003F0DD
:106184000DC004F076EC33F00F4A102A0F500A24A5
:10619400D96E10500B20DA6EDF500E6E0E50D8A45C
:1061A400D6EF30F0D8EF30F0BDEF30F012005C0ED7
:1061B40000018B6F000E8C6F58C08DF059C08EF0AB
:1061C400000E906F000E8F6F000E926F000E916F95
:1061D4008D0E506E000E516E5AC052F05BC053F0DB
:1061E4008B0E546E000E556E55EC31F000018F513C
:1061F4005824D96E90515920DA6E000EDF6E1200C9
:106204005FEC32F02BEC31F0000E096E000E086EDC
:10621400000E0B6E000E0A6EF40E0C6E7F0E0D6EE9
:10622400DBEC33F0000E056E000E046E000E076EFC
:10623400020E066EE5EC2FF0DC0E076E7F0E086E84
:10624400B3EC32F075EC30F096EC30F0B8EC31F0A1
:106254001200000E056E000E046E000E076E000E96
:10626400066EE5EC2FF0AFEC2FF0780EB8EC2FF0C3
:10627400400EB8EC2FF0000E096E000E086E000EF2
:10628400B8EC2FF0084A092A09BE50EF31F0040E89
:10629400095CD8A050EF31F052EF31F041EF31F00A
:1062A400A6EC2FF0120052C056F053C057F0000E67
:1062B4000001616F000E606F73EF31F050C040F069
:1062C40051C041F0560E426E000E436E54C044F06D
:1062D40055C045F003EC36F04050000160274150B2
:1062E400612356C0F6FF57C0F7FF0800F5500009B8
:1062F400D8A47FEF31F081EF31F060EF31F060C06E
:1063040050F061C051F0120003500410D8B48DEF66
:1063140031F08FEF31F0B3EF31F0010E056E97EFEE
:1063240031F0D89003360436052A04AE9CEF31F0E0
:106334009EEF31F093EF31F00350015C04500258AA
:10634400D8A0A7EF31F0A9EF31F0ADEF31F0035051
:10635400015E0450025AD89004320332052E9EEF97
:1063640031F001C001F002C002F01200930E586E29
:10637400000E596EFA0E5A6E7F0E5B6E9FC001F0CE
:10638400A0C002F0000E046E0A0E036E25EC32F07B
:1063940001C05CF002C05DF09FC001F0A0C002F03B
:1063A400000E046E0A0E036E86EC31F001C05EF03E
:1063B40002C05FF0D9EC30F0000E096E5A0E086E80
:1063C400000E0B6E050E0A6E930E0C6E000E0D6E13
:1063D400DBEC33F01200700ED3120F0EC16E100EF0
:1063E40000019E6F390E9D6F0D0EE82EFED79D2F76
:1063F400FCD79E2FFAD700D002EC31F000019F4B5E
:10640400A02BA05109E13C0E9F5DD8A00CEF32F007
:106414000EEF32F012EF32F0000EA06F000E9F6FFD
:10642400B8EC31F00B0E00019E6F260E9D6F5D0ED1
:10643400E82EFED79D2FFCD79E2FFAD700D000EF71
:1064440032F000EF00F0000E066E000E056E0350F1
:106454000410D8B430EF32F032EF32F05AEF32F0A9
:10646400010E076E3AEF32F0D89003360436072A4D
:1064740004AE3FEF32F041EF32F036EF32F0D89015
:10648400053606360350015C04500258D8A04DEF7F
:1064940032F04FEF32F054EF32F00350015E04500B
:1064A400025A0580D89004320332072E41EF32F0AD
:1064B40005C001F006C002F01200000E0BEC30F033
:1064C400A6EC2FF0AE0EC5EC2FF0D50EC5EC2FF0D8
:1064D400800EC5EC2FF0A80EC5EC2FF03F0EC5ECD6
:1064E4002FF0D30EC5EC2FF0000EC5EC2FF0400EAC
:1064F400C5EC2FF08D0EC5EC2FF0140EC5EC2FF06B
:10650400200EC5EC2FF0000EC5EC2FF0A10EC5EC4B
:106514002FF0C80EC5EC2FF0DA0EC5EC2FF0120EDA
:10652400C5EC2FF0810EC5EC2FF0CF0EC5EC2FF08B
:10653400D90EC5EC2FF0F10EC5EC2FF0DB0EC5EC37
:106544002FF0400EC5EC2FF0A40EC5EC2FF0A60ED4
:10655400C5EC2FF02E0EC5EC2FF0AF0EC5EC2FF0CE
:106564001200AFEC2FF0780EB8EC2FF0400EB8EC20
:106574002FF002EF33F007C0F6FF08C0F7FF080062
:10658400F5CF0BF0E00E0B240C6E0D6AFF0E0D22FE
:106594000CC001F00DC002F0000E046E060E036E76
:1065A400F8EC2FF001C00CF002C00DF0000E0F6EDD
:1065B400000E0E6E7D0E096E7C0E0A6E0C500926BE
:1065C4000D500A220E5009260F500A2209C0F6FF68
:1065D4000AC0F7FF0800F550B8EC2FF00E4A0F2A56
:1065E4000FBEFEEF32F00F5009E1060E0E5CD8A08C
:1065F400FEEF32F000EF33F0DCEF32F0074A082A06
:1066040007C0F6FF08C0F7FF0800F5500009D8A43A
:106614000EEF33F010EF33F0BDEF32F0A6EC2FF0B5
:106624001200000166A119EF33F01BEF33F025EFE0
:1066340033F013C00AF014C00BF011C00CF012C0F8
:106644000DF0B7EC30F016BE2AEF33F02CEF33F038
:1066540032EF33F015C01AF016C01BF036EF33F0EA
:10666400000E1B6E000E1A6E000E196E000E186ED0
:1066740048EF33F0000E026E200E016E11C003F0DD
:1066840012C004F076EC33F0184A192A1A50185C38
:106694001950800A176E1B50800A1758D8A055EF5E
:1066A40033F057EF33F03CEF33F0000166B15DEFA8
:1066B40033F05FEF33F069EF33F013C00AF014C026
:1066C4000BF011C00CF012C00DF0B7EC30F013C099
:1066D40001F014C002F01FEC30F01A500124116EC6
:1066E4001B500220126E120003500410D8B47DEF28
:1066F40033F07FEF33F088EF33F003500410D8A465
:1067040086EF33F088EF33F08DEF33F00150A2ECD5
:106714002FF0DAEF33F020EE04F00350D9260450C2
:10672400DA22DE50DE10D8B49AEF33F09CEF33F067
:10673400B7EF33F020EE04F00350D9260450DA22E8
:1067440010EE02F00350E1260450E222DE50E65C33
:10675400E650800A096EDE50800A0958D8B0B5EFB9
:1067640033F0B7EF33F0DAEF33F020EE02F00350FA
:10677400D9260450DA22DECF05F0DDCF06F003C0BF
:10678400D9FF04C0DAFFDECF07F0DDCF08F00550F3
:106794000724D96E06500820DA6E01C0DFFF20EE10
:1067A40002F00350D9260450DA22DE2A000EDD223C
:1067B400120008C004F009C005F00AC006F00BC0BE
:1067C40007F0E5EC2FF074EF34F0000E186E000EB5
:1067D400176E08C004F009C005F00A501724066EAD
:1067E4000B501820076EE5EC2FF0AFEC2FF0780E6D
:1067F400B8EC2FF0400EB8EC2FF00CC0F6FF0DC033
:10680400F7FFF86A070EF76403D00800F55005D0C7
:10681400F6CFE1FFF7CFE2FFE750126EE00E12244D
:10682400136E146AFF0E142217C00EF018C00FF076
:106834000E3A0F3AF00E0F160E500F0B0F12F00E09
:106844000E1613C010F014C011F0050ED8901036B7
:106854001136E82E28EF34F00E501024136E0F502A
:106864001120146E000E166E000E156E9D0E0E6E27
:10687400700E0F6E13500E2614500F2215500E2654
:1068840016500F220EC0F6FF0FC0F7FF0800F55098
:10689400B8EC2FF0154A162A16BE5AEF34F01650EB
:1068A40009E1100E155CD8A05AEF34F05CEF34F017
:1068B40038EF34F0A6EC2FF0174A182A18BE6CEF04
:1068C40034F0185009E1020E175CD8A06CEF34F0D4
:1068D4006EEF34F0EBEF33F00D0E0826000E0922B4
:1068E4000C4A0D2A0CC0F6FF0DC0F7FFF86A070E1C
:1068F400F76403D00800F55005D0F6CFE1FFF7CFD9
:10690400E2FFE7500009D8A48AEF34F08CEF34F0AA
:10691400E7EF33F01200000E126E08BE96EF34F06B
:1069240094EF34F0A8EF34F0081E071E061E051E6F
:10693400041E031E021E016C000E02220322042206
:106944000522062207220822010E126E10BEAFEFA6
:1069540034F0ADEF34F0BFEF34F0101E0F1E0E1EF6
:106964000D1E0C1E0B1E0A1E096C000E0A220B22A1
:106974000C220D220E220F22102209500A100B1095
:106984000C100D100E100F101010D8B4CCEF34F002
:10699400CEEF34F016EF35F0010E116EDCEF34F06B
:1069A400D89009360A360B360C360D360E360F36AD
:1069B4001036112A10AEE1EF34F0E3EF34F0D2EFE9
:1069C40034F00950015C0A5002580B5003580C5023
:1069D40004580D5005580E5006580F5007581050C3
:1069E4000858D8A0F8EF34F0FAEF34F00AEF35F095
:1069F4000950015E0A50025A0B50035A0C50045AB3
:106A04000D50055A0E50065A0F50075A1050085A86
:106A1400D89010320F320E320D320C320B320A3251
:106A24000932112EE3EF34F01250D8B41CEF35F0D4
:106A34001EEF35F02EEF35F0081E071E061E051E4C
:106A4400041E031E021E016C000E022203220422F5
:106A5400052206220722082201C001F002C002F02A
:106A640003C003F004C004F005C005F006C006F03E
:106A740007C007F008C008F01200000E126E10BE26
:106A840048EF35F046EF35F05AEF35F0101E0F1E83
:106A94000E1E0D1E0C1E0B1E0A1E096C000E0A2271
:106AA4000B220C220D220E220F221022010E126E36
:106AB40008BE61EF35F05FEF35F073EF35F0081E77
:106AC400071E061E051E041E031E021E016C000E78
:106AD4000222032204220522062207220822010E92
:106AE400121A20EE13F0070EDE6AE806FDE20950E2
:106AF4000A100B100C100D100E100F101010D8B43B
:106B040086EF35F088EF35F0DAEF35F0010E116ECF
:106B140096EF35F0D89009360A360B360C360D361A
:106B24000E360F361036112A10AE9BEF35F09DEF5E
:106B340035F08CEF35F0D8901336143615361636FA
:106B44001736183619361A360950015C0A5002589D
:106B54000B5003580C5004580D5005580E5006584D
:106B64000F50075810500858D8A0BBEF35F0BDEFB0
:106B740035F0CEEF35F00950015E0A50025A0B5041
:106B8400035A0C50045A0D50055A0E50065A0F5011
:106B9400075A1050085A1380D89010320F320E3210
:106BA4000D320C320B320A320932112E9DEF35F0C0
:106BB4001250D8B4E0EF35F0E2EF35F0F2EF35F0F3
:106BC4001A1E191E181E171E161E151E141E136CCF
:106BD400000E1422152216221722182219221A2214
:106BE40013C001F014C002F015C003F016C004F085
:106BF40017C005F018C006F019C007F01AC008F055
:106C0400120042C0D9FF43C0DAFFDECFF6FFDDCF6A
:106C1400F7FF0800F550250AD8A413EF36F015EF56
:106C240036F0C1EF36F042C0D9FF43C0DAFFDE2AA6
:106C3400000EDD22000E0001636F000E626F62C061
:106C440066F063C067F06469656942C0D9FF43C0F8
:106C5400DAFFDECFF6FFDDCFF7FF0800F550640A58
:106C6400D8B437EF36F039EF36F04BEF36F042C098
:106C7400D9FF43C0DAFFDECFF6FFDDCFF7FF080010
:106C8400F550690AD8A449EF36F04BEF36F08BEF94
:106C940036F042C0D9FF43C0DAFFDE2A000EDD22FF
:106CA40044C0D9FF45C0DAFFDFCF46F0020EDE262E
:106CB400DFCF47F0000EDD2246C0D9FF47C0DAFF20
:106CC400DECF48F0DDCF49F0000E49BEFF0E4A6E1C
:106CD4004B6E4C6E4D6E4E6E4F6E40C01CF041C0FC
:106CE4001DF048C01EF049C01FF04AC020F04BC040
:106CF40021F04CC022F04DC023F04EC024F04FC010
:106D040025F0DDEC36F01CC040F01DC041F0DCEF96
:106D140036F042C0D9FF43C0DAFFDECFF6FFDDCF45
:106D2400F7FF0800F550250AD8A49BEF36F09DEF35
:106D340036F0B4EF36F042C0D9FF43C0DAFFDE2AA2
:106D4400000EDD22000E026E250E016E40C003F01F
:106D540041C004F076EC33F0000E416E010E406E3B
:106D6400DCEF36F042C0D9FF43C0DAFFDE2A000E62
:106D7400DD22000E416E000E406EDCEF36F042C0A4
:106D8400D9FF43C0DAFFDECFF6FFDDCFF7FF0800FF
:106D9400F550016E026A40C003F041C004F076EC85
:106DA40033F042C0D9FF43C0DAFFDE2A000EDD22F1
:106DB400AEEF36F012001EC036F01FC037F020C010
:106DC40038F021C039F022C03AF023C03BF024C08F
:106DD4003CF025C03DF03DBEF2EF36F0F5EF36F065
:106DE400010EF6EF36F0000E346E356A345035106D
:106DF400D8B4FFEF36F001EF37F011EF37F03D1E56
:106E04003C1E3B1E3A1E391E381E371E366C000EC1
:106E14003722382239223A223B223C223D220001E9
:106E240065BF17EF37F019EF37F01AEF37F06693B5
:106E340065BF27EF37F0655106E16405D8B025EF4B
:106E440037F027EF37F02DEF37F0000E316E010EDB
:106E5400306E31EF37F064C030F065C031F062C09D
:106E640032F063C033F034503510D8A43CEF37F01F
:106E74003EEF37F045EF37F066A543EF37F045EFC7
:106E840037F048EF37F03206D8A03306000E3F6ED5
:106E94001F0E3E6E000E886FCCEF37F03E06D8A072
:106EA4003F06690E3E24D96E000E3F20DA6E36C0CE
:106EB40001F037C002F038C003F039C004F03AC022
:106EC40005F03BC006F03CC007F03DC008F00A0ED8
:106ED400096E000E0A6E000E0B6E000E0C6E000E94
:106EE4000D6E000E0E6E000E0F6E000E106E8DEC09
:106EF40034F001C026F002C027F003C028F004C01B
:106F040029F005C02AF006C02BF007C02CF008C0F9
:106F14002DF026C013F028C014F055EC30F01350B7
:106F2400300FDF6E3006D8A031063206D8A0330603
:106F340036C001F037C002F038C003F039C004F0A5
:106F44003AC005F03BC006F03CC007F03DC008F075
:106F54000A0E096E000E0A6E000E0B6E000E0C6E09
:106F6400000E0D6E000E0E6E000E0F6E000E106EF3
:106F74003FEC35F001C036F002C037F003C038F002
:106F840004C039F005C03AF006C03BF007C03CF03D
:106F940008C03DF03FBED7EF37F03F5008E13E0454
:106FA400D8A0D7EF37F0D9EF37F00AEF38F03650E2
:106FB4003710381039103A103B103C103D10D8A44B
:106FC400E6EF37F0E8EF37F050EF37F031BEF5EF8A
:106FD40037F0315006E13004D8B0F3EF37F0F5EF75
:106FE40037F050EF37F033BE00EF38F0335008E19C
:106FF4003204D8A000EF38F002EF38F00AEF38F08E
:10700400000166B308EF38F00AEF38F050EF37F0BC
:1070140034503510D8A411EF38F013EF38F01BEFCB
:1070240038F0000166A519EF38F01BEF38F039EF9E
:1070340038F03E06D8A03F0634503510D8A425EFCA
:1070440038F027EF38F02DEF38F0000E2F6E2B0EAE
:107054002E6E31EF38F0000E2F6E2D0E2E6E690E4F
:107064003E24D96E000E3F20DA6E2EC0DFFF1CC016
:1070740011F01DC012F0690E3E24136E000E3F2065
:10708400146E32C015F033C016F013EC33F011C097
:107094001CF012C01DF012000000000000000000EF
:1070A40000000000000000000000000000000000DC
:1070B40000000000000000000000000000F8FCFCDC
:1070C400FCF80000000000000000000000007373E2
:1070D400730000000000000000000000001E3E3E9F
:1070E4000000003E3E1E0000000000000000000002
:1070F40000000000000000000000303030FEFE30D0
:10710400303030FEFE30303000000C0C0C7F7F0C31
:107114000C0C0C7F7F0C0C0C00000000F0F898FEA7
:107124009898FE9898180000000000001819197F1C
:1071340019197F191F0F00000000000000383838AB
:1071440080C0E0703800000000000000001C0E0742
:1071540003011C1C1C0000000000000038FCC4C417
:10716400FC38000000800000000000001E3F2121C8
:10717400333F1E1E372300000000000000203C3C6B
:107184001C000000000000000000000000000000DF
:1071940000000000000000000000000000C0E0F05B
:1071A400381C0C0404000000000000000003070F5A
:1071B4001C38302020000000000000000004040CF3
:1071C4001C38F0E0C0000000000000000020203067
:1071D400381C0F0703000000000000808890E0E0E6
:1071E400FCFCE0E090888000000000011109070722
:1071F4003F3F070709110100000000000080808064
:10720400F0F0808080000000000000000001010117
:107214000F0F010101000000000000000000000049
:10722400000000000000000000000000004078782A
:107234003800000000000000000000008080808012
:107244008080808080800000000000000101010136
:107254000101010101010000000000000000000024
:1072640000000000000000000000000000003838AA
:1072740038000000000000000000000000000000D2
:10728400000080C0E070381C000000002030381C72
:107294000E0703010000000000000000F8FCFC04DD
:1072A40084E474FCFCF80000000000001F3F3F2E43
:1072B4002721203F3F1F000000000000606060F0B5
:1072C400FCFC000000000000000000002020203F23
:1072D4003F3F20202000000000000000181C1C0478
:1072E4000484CCFC783000000000000030383C2ED0
:1072F400272321383838000000000000181C1C84A3
:107304008484CC7C783000000000000018383821D8
:107314002121333E1E0C00000000000080C06030BC
:1073240018FCFCFC00000000000000000303032321
:10733400233F3F3F2323000000000000FCFCFC84AB
:107344008484848404040000000000001939392175
:107354002121333F1F0E000000000000E0F0F89CE4
:107364008C84848480000000000000001F3F3F21C3
:107374002121213F3F1F0000000000003C3C3C0451
:1073840004040484FCFC7C000000000000000038BD
:107394003C3E07030100000000000000787CFCC4B0
:1073A400C48484FC7C780000000000001E3E3F2161
:1073B4002123233F3E1E000000000000F8FCFC8453
:1073C400848484FCFCF800000000000000012121FA
:1073D4002131391F0F070000000000000000007079
:1073E4007070000000000000000000000000000EAB
:1073F4000E0E0000000000000000000000000070FD
:107404007070000000000000000000000000101E6A
:107414001E0E0000000000000000000080C0E070AC
:10742400381C0E0602000000000000000103070ED5
:107434001C38706040000000000000606060606004
:10744400606060606060600000000006060606067A
:1074540006060606060606000000000002060E1CCC
:107464003870E0C080000000000000004060703808
:107474001C0E07030100000000000000181C0C0E85
:107484000686CEFC7C3800000000000000000000EE
:10749400737373000000000000000000FCFEFE0295
:1074A40002C2C2C2FEFEFC00000000003F3F7F603B
:1074B400606363636343030000000000E0F0F81CB2
:1074C4000C0C1CF8F0E00000000000003F3F3F02FD
:1074D4000202023F3F3F00000000000004FCFCFCED
:1074E400848484FCFC78000000000000203F3F3FBF
:1074F4002121213F3F1E000000000000F0F8FC0C99
:107504000404041C1C180000000000000F1F3F307E
:1075140020202038381800000000000004FCFCFC87
:1075240004040CFCF8F0000000000000203F3F3F82
:107534002020303F1F0F00000000000004FCFCFC72
:10754400848484C4CC1C000000000000203F3F3F22
:1075540021212123333800000000000004FCFCFC3E
:10756400848484C4CC1C000000000000203F3F3F02
:10757400210101030300000000000000F0F8FC0CEE
:107584000404043C3C380000000000000F1F3F309E
:107594002022223E3E3E000000000000FCFCFC8055
:1075A4008080FCFCFC000000000000003F3F3F0125
:1075B40001013F3F3F00000000000000000404FC04
:1075C400FCFC040400000000000000000020203F38
:1075D4003F3F2020000000000000000000000000E9
:1075E4000404FCFCFC0404000000001E1E3E2020D9
:1075F40020203F3F1F0000000000000004FCFCFCB2
:10760400C0E0703C1C0C000000000000203F3F3F25
:1076140003070E3C383000000000000004FCFCFCB2
:10762400040000000000000000000000203F3F3F75
:1076340020202030383C000000000000FCFCFC78D6
:10764400F0E0F078FCFCFC00000000003F3F3F004D
:10765400000100003F3F3F0000000000FCFCFC7004
:10766400E0C08000FCFCFC00000000003F3F3F0045
:10767400000103073F3F3F0000000000E0F0F81C5A
:107684000C0C0C1CF8F0E00000000000070F1F3881
:10769400303030381F0F07000000000004FCFCFCF1
:1076A400848484FCFC78000000000000203F3F3FFD
:1076B400210101010100000000000000E0F8F81CB5
:1076C4000C040C1CF8F8E00000000000071F1F1851
:1076D400185C5E7E7F7F47000000000004FCFCFC19
:1076E400848484FCFC78000000000000203F3F3FBD
:1076F4000101033F3F3C00000000000078FCFC84D3
:10770400848484BC3C380000000000001C3C3D2103
:107714002121213F3F1E0000000000001C0C040436
:10772400FCFCFC04040C1C000000000000002020F1
:107734003F3F3F202000000000000000FCFCFC0054
:107744000000FCFCFC000000000000001F3F3F2084
:1077540020203F3F1F00000000000000FCFCFC0054
:107764000000FCFCFC00000000000000070F1F38B4
:1077740030381F0F0700000000000000FCFCFC0074
:1077840000800000FCFCFC0000000000030F3F3CF4
:107794003C0F3C3C3F0F0300000000001C3C7CE01D
:1077A400C0E07C3C1C00000000000000383C3E07A8
:1077B40003073E3C38000000000000007CFCFC8015
:1077C4000080FCFC7C000000000000000020213F41
:1077D4003F3F212000000000000000003C1C0C047E
:1077E40084C4E47C3C1C000000000000383C3E27BC
:1077F40023212030383C0000000000000000FCFC85
:10780400FC040404040000000000000000003F3FEA
:107814003F20202020000000000000001C3870E001
:10782400C080000000000000000000000000000014
:107834000103070E1C18302020000000000004047F
:107844000404FCFCFC0000000000000000002020F8
:1078540020203F3F3F000000000000002030381C83
:107864000E0E1C3830200000000000000000000054
:107874000000000000000000000000000000000004
:1078840000000000000000000000C0C0C0C0C0C074
:10789400C0C0C0C0C0C0C0C0C00000000C0C3C30A0
:1078A40030000000000000000000000000000000A4
:1078B4000000000000000000000000000040404004
:1078C4004040C0C080000000000000001C3E3E227A
:1078D40022223F1F3F2000000000000004FCFCFCAB
:1078E400404040C0C080000000000000203F1F3F17
:1078F4002020203F3F1F00000000000080C0C04047
:107904004040C0C080000000000000001F3F3F2036
:1079140020203939190000000000000080C0C04058
:107924004044FCFCFC040000000000001F3F3F201A
:1079340020203F1F3F2000000000000080C0C04006
:107944004040C0C080000000000000001F3F3F22F4
:1079540022223B3B1B000000000000008080F8FC5A
:10796400FC849C9C180000000000000021213F3F83
:107974003F212101000000000000000080C0C04041
:107984004040C080C04000000000000047CFDF98A6
:107994009898FFFF7F0000000000000004FCFCFC3E
:1079A400804040C0C080000000000000203F3F3FF6
:1079B4000100003F3F3F0000000000000040404045
:1079C400DCDCDC00000000000000000000202020BF
:1079D4003F3F3F2020200000000000000000004046
:1079E4004040DCDCDC000000000000002060E0809F
:1079F40080C0FFFF7F0000000000000004FCFCFCCE
:107A0400000080C0C040000000000000203F3F3F55
:107A140002070F3D38300000000000000004040499
:107A2400FCFCFC00000000000000000000202020FE
:107A34003F3F3F202020000000000000C0C0C040A5
:107A440040C04040C0C08000000000003F3F3F00F5
:107A5400003F00003F3F3F0000000000C0C0C040A6
:107A64004040C0C080000000000000003F3F3F00D5
:107A740000003F3F3F0000000000000080C0C04005
:107A84004040C0C080000000000000001F3F3F20B5
:107A940020203F3F1F0000000000000040C080C0C5
:107AA400404040C0C08000000000000080FFFFFF95
:107AB4009010101F1F0F000000000080C0C0404045
:107AC40040C080C0400000000000000F1F1F1010C5
:107AD40090FFFFFF800000000000000040C0C0C015
:107AE40080C0C0C0C080000000000000203F3F3FB5
:107AF40021000001010100000000000080C0C0401E
:107B0400404040C08000000000000000193B2326D4
:107B140026263C3D19000000000000004040E0F033
:107B2400F8404040400000000000000000001F3FFB
:107B34003F2038381800000000000000C0C0C0001A
:107B44000000C0C0C0000000000000001F3F3F2034
:107B540020203F1F3F20000000000000C0C0C000E4
:107B64000000C0C0C000000000000000070F1F3864
:107B740030381F0F0700000000000000C0C0C00024
:107B840000000000C0C0C00000000000070F3F3824
:107B9400380E38383F0F070000000000C0C0C00096
:107BA40000C0C0C0000000000000000030393F0FDA
:107BB4000F3F3930000000000000000000C0C0C0CA
:107BC400000000C0C0C000000000000080878F9F3C
:107BD400D8F8783F0F07000000000000C0C0404004
:107BE40040C0C0C0000000000000000031383C2E3E
:107BF4002723313800000000000000008080C07896
:107C04007C3C040404040000000000000101031E85
:107C14003E3C202020200000000000000000000066
:107C2400FEFEFE0000000000000000000000000056
:107C34007F7F7F00000000000000000004040404B3
:107C44003C7C78C0808000000000000020202020C0
:107C54003C3E1E0301010000000000383C3C040CC3
:107C64001C3830203C3C1C000000000000000000D8
:107C74000000000000000000000000000000000000
:107C840000002F000000000700070000147F147F8D
:107C94001400242A7F2A1200231308646200364940
:107CA40055225000000503000000001C2241000082
:107CB4000041221C000014083E08140008083E0875
:107CC40008000000A0600000080808080800006020
:107CD400600000002010080402003E5149453E00A7
:107CE40000427F4000004261514946002141454B1A
:107CF40031001814127F10002745454539003C4ACD
:107D040049493000017109050300364949493600E3
:107D1400064949291E000036360000000056360088
:107D2400000008142241000014141414140000412B
:107D340022140800020151090600324959513E003B
:107D44007C1211127C007F49494936003E41414171
:107D540022007F4141221C007F49494941007F099B
:107D6400090901003E4149497A007F0808087F005B
:107D740000417F4100002040413F01007F08142260
:107D840041007F40404040007F020C027F007F049E
:107D940008107F003E4141413E007F090909060069
:107DA4003E4151215E007F0919294600464949494F
:107DB400310001017F0101003F4040403F001F208E
:107DC40040201F003F4038403F0063140814630004
:107DD400070870080700615149454300007F41418D
:107DE40000AA55AA55AA55000041417F000004028B
:107DF4000102040040404040400000030500000030
:107E04002054545478007F4844443800384444444F
:107E14002000384444487F00385454541800087EE5
:107E24000901020018A4A4A47C007F0804047800BB
:107E340000447D4000004080847D00007F10284481
:107E4400000000417F4000007C04180478007C0896
:107E540004047800384444443800FC2424241800E2
:107E640018242418FC007C080404080048545454C2
:107E74002000043F444020003C4040207C001C2063
:107E840040201C003C4030403C0044281028440062
:107E94001CA0A0A07C004464544C440000107C82CC
:107EA40000000000FF00000000827C1000000006BB
:107EB40009090600000003A000C00C00F94F806B04
:107EC400EB00988C8052A58003000001C88089C013
:107ED4000050850021C200084000208200002000DC
:107EE400188C00FA2F804BE0805A66808AA500E047
:107EF4008F80EAAB0072A9009A8C00FAAF804AA77F
:107F04000001400009400021488051450089420099
:107F140042660072A6807A8780FAA500722500FA6C
:107F24002700FAA880FA8800722B00F88F808BE86B
:107F3400808BE800F88D80F82080F90F80F9CF80DD
:107F4400722700FA8400722740FA85804AA90083C8
:107F5400E800F02F00E06E00F0EF00D88D80C0EC58
:107F6400009AAC8003E880C081808BE0004204006A
:107F7400082080020400312380F923003124803159
:107F84002F8031628023EA00255380F9038002E0C8
:107F94000006E000F8428003E0007987803903801E
:107FA4003123007D23003127C07884002940004319
:107FB400E40070270060660070670048C48074574E
:107FC4008059E68023E8800360008BE200610C00A6
:107FD400C000F000FC00FF00524547495354524F83
:107FE40020504552534F4E414C00256425643A00BD
:0C7FF4004C45434F4D00256425640000FF
:020000040020DA
:08000000FFFFFFFFFFFFFFFF00
:020000040030CA
:0E000000010B191EFF0080FF0FC00FE00F4024
:00000001FF
