:020000040000FA
:04000000AAEF29F04A
:10516A00120001000A001400010031001600C58473
:10517A00C5B4C2EF28F0C4EF28F0BDEF28F0120042
:10518A00C580C5B0CBEF28F0CDEF28F0C6EF28F0E8
:10519A001200016E01C0ADFFACA2D6EF28F0D8EF25
:1051AA0028F0D1EF28F01200AC98AC8AAC9CAB8EF8
:1051BA00AB9CAB88AC84B8969E9A9D8A1200016E0D
:1051CA0001C0C9FFC7B0ECEF28F0EEEF28F0E7EF17
:1051DA0028F000EC29F01200026EC5EC28F0780ED7
:1051EA00E4EC28F0000EE4EC28F00250E4EC28F09D
:1051FA00BCEC28F01200C7B405EF29F007EF29F03C
:10520A0000EF29F0C5AC0CEF29F00EEF29F010EFF2
:10521A0029F0BCEC28F01200016E938093820150B1
:10522A00D8A41AEF29F01CEF29F01FEF29F0C78E36
:10523A0020EF29F0C79E280EC66E770EC86E1200A0
:10524A00C7B42AEF29F02CEF29F025EF29F0C5CFB2
:10525A0001F01F0E0116D8A435EF29F037EF29F017
:10526A0025EF29F0C5821200C7B43EEF29F040EFBE
:10527A0029F039EF29F0C5CF01F01F0E0116D8A485
:10528A0049EF29F04BEF29F039EF29F0C5801200D8
:10529A00C7B452EF29F054EF29F04DEF29F0C5CFEA
:1052AA0001F01F0E0116D8A45DEF29F05FEF29F077
:1052BA004DEF29F0C5841200026EC7B467EF29F0DA
:1052CA0069EF29F062EF29F0C5CF01F01F0E011630
:1052DA00D8A472EF29F074EF29F062EF29F002C026
:1052EA00C9FF120082EF29F002C0D9FF03C0DAFF1A
:1052FA00DF50CEEC28F0024A032A02C0D9FF03C0CD
:10530A00DAFFDF50D8A48CEF29F08EEF29F079EF7D
:10531A0029F0120001C003F002C004F097EF29F04F
:10532A00014A022A01C0D9FF02C0DAFFDF50D8A41D
:10533A00A1EF29F0A3EF29F095EF29F00350015CC2
:10534A00016E04500258026E12006C0EF66E510E77
:10535A00F76E000EF86E00EE9FF010EE0CF00900EA
:10536A00F5CFEEFFE550E150FAE100EE60F0290ECC
:10537A00EE6AE806FDE1000EF86E0001F0EF2AF091
:10538A0014BED2EF29F0145006E11304D8B0D0EFBE
:10539A0029F0D2EF29F0E0EF29F013C015F014C07C
:1053AA0016F0151E161E154A162A15C013F016C039
:1053BA0014F0E4EF29F013C013F014C014F0120033
:1053CA00000E106E000E0F6EF6EF29F00EC001F0FF
:1053DA00026A0CC003F00DC004F0ACEC2CF00F4ACA
:1053EA00102A0F500A24D96E10500B20DA6EDF50A3
:1053FA000E6E0E50D8A404EF2AF006EF2AF0EBEF57
:10540A0029F01200000E151A000E161A000E171AAD
:10541A00800E181A11C001F012C002F013C003F076
:10542A0014C004F015C005F016C006F017C007F046
:10543A0018C008F0E8EC35F001C011F002C012F013
:10544A0003C013F004C014F012005C0E00018B6F4D
:10545A00000E8C6F58C08DF059C08EF0000E906F00
:10546A00000E8F6F000E926F000E916F8D0E506EB0
:10547A00000E516E5AC052F05BC053F08B0E546E40
:10548A00000E556E53EC2AF000018F515824D96E44
:10549A0090515920DA6E000EDF6E120052C056F09B
:1054AA0053C057F0000E0001616F000E606F71EF7C
:1054BA002AF050C040F051C041F0560E426E000E24
:1054CA00436E54C044F055C045F011EC30F04050E2
:1054DA00000160274150612356C0F6FF57C0F7FF0D
:1054EA000800F5500009D8A47DEF2AF07FEF2AF0D2
:1054FA005EEF2AF060C050F061C051F01200035014
:10550A000410D8B48BEF2AF08DEF2AF0B1EF2AF00D
:10551A00010E056E95EF2AF0D89003360436052A57
:10552A0004AE9AEF2AF09CEF2AF091EF2AF003508A
:10553A00015C04500258D8A0A5EF2AF0A7EF2AF080
:10554A00ABEF2AF00350015E0450025AD89004329D
:10555A000332052E9CEF2AF001C001F002C002F0CE
:10556A001200000E066E000E056E03500410D8B429
:10557A00C1EF2AF0C3EF2AF0EBEF2AF0010E076E13
:10558A00CBEF2AF0D89003360436072A04AED0EFC0
:10559A002AF0D2EF2AF0C7EF2AF0D890053606365D
:1055AA000350015C04500258D8A0DEEF2AF0E0EF65
:1055BA002AF0E5EF2AF00350015E0450025A0580F2
:1055CA00D89004320332072ED2EF2AF005C001F038
:1055DA0006C002F01200700ED3120F0EC16ED9EC83
:1055EA0028F0800E256E250E266E000E276E000E00
:1055FA00286EC5EC31F0E20E026E7F0E036E2AECC5
:10560A002BF0100E00019E6F390E9D6F0D0EE82EC5
:10561A00FED79D2FFCD79E2FFAD700D0F5EC2BF0A2
:10562A006BEC2BF016EC2EF00B0E00019E6F260E83
:10563A009D6F5D0EE82EFED79D2FFCD79E2FFAD7C1
:10564A0000D015EF2BF000EF00F040EF2BF002C076
:10565A00F6FF03C0F7FFF86A070EF76403D00800E5
:10566A00F55005D0F6CFE9FFF7CFEAFFEF50CEECC1
:10567A0028F0024A032A02C0F6FF03C0F7FFF86ABD
:10568A00070EF76403D00800F55005D0F6CFE9FFFE
:10569A00F7CFEAFFEF500009D8A456EF2BF058EFE6
:1056AA002BF02CEF2BF00A0EAD6EACA25FEF2BF0B5
:1056BA0061EF2BF05AEF2BF00D0EAD6EACA268EF36
:1056CA002BF06AEF2BF063EF2BF0120039EC29F084
:1056DA00D00E61EC29F0000E61EC29F025EC29F0DE
:1056EA00D10E61EC29F0010EAEEC2BF0046E0450E1
:1056FA000001A56FA66B010EAEEC2BF0046E0450F0
:10570A000001A76FA86B010EAEEC2BF0046E0450DB
:10571A000001A96FAA6B010EAEEC2BF0010EAEECE4
:10572A002BF0046E045000019F6FA06B010EAEECCB
:10573A002BF0046E04500001A16FA26B000EAEECB8
:10574A002BF0046E04500001A36FA46B4DEC29F0FA
:10575A001200026EC7B4B4EF2BF0B6EF2BF0AFEF26
:10576A002BF0C5CF01F01F0E0116D8A4BFEF2BF006
:10577A00C1EF2BF0AFEF2BF0C586C7B4C7EF2BF004
:10578A00C9EF2BF0C2EF2BF0C5CF01F01F0E0116A7
:10579A00D8A4D2EF2BF0D4EF2BF0C2EF2BF0C9CF65
:1057AA0003F0C7B4DBEF2BF0DDEF2BF0D6EF2BF0D5
:1057BA00C5CF01F01F0E0116D8A4E6EF2BF0E8EFD3
:1057CA002BF0D6EF2BF00250D8B4EEEF2BF0F1EF1E
:1057DA002BF0C58AF2EF2BF0C59AC5880350120048
:1057EA00000E11EC29F0BCEC28F0AE0EF1EC28F01A
:1057FA00D50EF1EC28F0800EF1EC28F0A80EF1ECB1
:10580A0028F03F0EF1EC28F0D30EF1EC28F0000E50
:10581A00F1EC28F0400EF1EC28F08D0EF1EC28F0B6
:10582A00140EF1EC28F0200EF1EC28F0000EF1EC49
:10583A0028F0A10EF1EC28F0C80EF1EC28F0DA0EEF
:10584A00F1EC28F0120EF1EC28F0810EF1EC28F0C0
:10585A00CF0EF1EC28F0D90EF1EC28F0F10EF1ECB4
:10586A0028F0DB0EF1EC28F0400EF1EC28F0A40E43
:10587A00F1EC28F0A60EF1EC28F02E0EF1EC28F04F
:10588A00AF0EF1EC28F01200000166A14FEF2CF0E8
:10589A0051EF2CF05BEF2CF013C00AF014C00BF0A0
:1058AA0011C00CF012C00DF0E5EC29F016BE60EF45
:1058BA002CF062EF2CF068EF2CF015C01AF016C02D
:1058CA001BF06CEF2CF0000E1B6E000E1A6E000E11
:1058DA00196E000E186E7EEF2CF0000E026E200E6E
:1058EA00016E11C003F012C004F0ACEC2CF0184A9F
:1058FA00192A1A50185C1950800A176E1B50800A10
:10590A001758D8A08BEF2CF08DEF2CF072EF2CF0FB
:10591A00000166B193EF2CF095EF2CF09FEF2CF07D
:10592A0013C00AF014C00BF011C00CF012C00DF035
:10593A00E5EC29F013C001F014C002F08FEC29F055
:10594A001A500124116E1B500220126E12000350CD
:10595A000410D8B4B3EF2CF0B5EF2CF0BEEF2CF056
:10596A0003500410D8A4BCEF2CF0BEEF2CF0C3EF08
:10597A002CF00150B5EC28F010EF2DF020EE04F0D9
:10598A000350D9260450DA22DE50DE10D8B4D0EF04
:10599A002CF0D2EF2CF0EDEF2CF020EE04F00350B7
:1059AA00D9260450DA2210EE02F00350E126045000
:1059BA00E222DE50E65CE650800A096EDE50800A7A
:1059CA000958D8B0EBEF2CF0EDEF2CF010EF2DF0DA
:1059DA0020EE02F00350D9260450DA22DECF05F079
:1059EA00DDCF06F003C0D9FF04C0DAFFDECF07F02F
:1059FA00DDCF08F005500724D96E06500820DA6E6C
:105A0A0001C0DFFF20EE02F00350D9260450DA224B
:105A1A00DE2A000EDD221200000E1914216E000E7D
:105A2A001A14226E800E1B14236E7F0E1C14246E11
:105A3A002150221023102410D8A426EF2DF028EF8D
:105A4A002DF030EF2DF0000E196E000E1A6E000EBA
:105A5A001B6E000E1C6E000E1D14216E000E1E140D
:105A6A00226E800E1F14236E7F0E2014246E215086
:105A7A00221023102410D8A445EF2DF047EF2DF063
:105A8A004FEF2DF0000E1D6E000E1E6E000E1F6EE3
:105A9A00000E206E1CAE54EF2DF056EF2DF05FEF86
:105AAA002DF0196C1A1ED8B01A2A1B1ED8B01B2A40
:105ABA00800E1C5620AE64EF2DF066EF2DF06FEFCE
:105ACA002DF01D6C1E1ED8B01E2A1F1ED8B01F2A0C
:105ADA00800E2056000E191A000E1A1A000E1B1AF2
:105AEA00800E1C1A000E1D1A000E1E1A000E1F1A16
:105AFA00800E201A1D50195C1E501A581F501B5830
:105B0A0020501C58D8B08CEF2DF08EEF2DF091EF6D
:105B1A002DF0D89092EF2DF0D8801200033404347F
:105B2A000A6E0A50D8A49CEF2DF09EEF2DF0A8EF34
:105B3A002DF0000E016E000E026E000E036E000EB6
:105B4A00046E15EF2EF001C005F002C006F003C086
:105B5A0007F004C008F0200EB8EF2DF0D8900832F4
:105B6A00073206320532E82EB3EF2DF00550096EE2
:105B7A00038EFF0E0116FF0E0216FF0E0316000E0D
:105B8A000416960E0A5E0ABECFEF2DF0CDEF2DF069
:105B9A00E5EF2DF00A50800A970FD8B0D7EF2DF015
:105BAA00D9EF2DF0DBEF2DF09EEF2DF0D8900432D7
:105BBA000332023201320A3EDBEF2DF0FDEF2DF007
:105BCA001F0E0A64EBEF2DF0EDEF2DF0F5EF2DF03F
:105BDA009EEF2DF0D89001360236033604360A06B7
:105BEA000A50D8A4FBEF2DF0FDEF2DF0EFEF2DF0CA
:105BFA000950D8B403EF2EF005EF2EF00DEF2EF07A
:105C0A00041E031E021E016C000E0222032204223D
:105C1A0001C001F002C002F003C003F004C004F0A6
:105C2A001200930E586E000E596EED0E5A6E7F0ECC
:105C3A005B6EA9C001F0AAC002F0000E046E0A0E43
:105C4A00036EB6EC2AF001C05CF002C05DF0A9C098
:105C5A0001F0AAC002F0000E046E0A0E036E84EC74
:105C6A002AF001C05EF002C05FF02AEC2AF0930E1F
:105C7A00026E000E036E77EC29F0930E586E000E3A
:105C8A00596EED0E5A6E7F0E5B6EA7C001F0A8C06A
:105C9A0002F0000E046E0A0E036EB6EC2AF001C082
:105CAA005CF002C05DF0A7C001F0A8C002F0000ECF
:105CBA00046E0A0E036E84EC2AF001C05EF002C084
:105CCA005FF02AEC2AF0930E026E000E036E77EC58
:105CDA0029F0930E586E000E596EF90E5A6E7F0E09
:105CEA005B6EA5C001F0A6C002F0000E046E0A0E9B
:105CFA00036EB6EC2AF001C05CF002C05DF0A5C0EC
:105D0A0001F0A6C002F0000E046E0A0E036E84ECC7
:105D1A002AF001C05EF002C05FF02AEC2AF0930E6E
:105D2A00026E000E036E2AEC2BF01200000E126EA9
:105D3A0008BEA4EF2EF0A2EF2EF0B6EF2EF0081E4A
:105D4A00071E061E051E041E031E021E016C000EFF
:105D5A000222032204220522062207220822010E19
:105D6A00126E10BEBDEF2EF0BBEF2EF0CDEF2EF06F
:105D7A00101E0F1E0E1E0D1E0C1E0B1E0A1E096C77
:105D8A00000E0A220B220C220D220E220F221022B2
:105D9A0009500A100B100C100D100E100F101010D5
:105DAA00D8B4DAEF2EF0DCEF2EF024EF2FF0010E4C
:105DBA00116EEAEF2EF0D89009360A360B360C36F9
:105DCA000D360E360F361036112A10AEEFEF2EF0C2
:105DDA00F1EF2EF0E0EF2EF00950015C0A50025864
:105DEA000B5003580C5004580D5005580E500658C5
:105DFA000F50075810500858D8A006EF2FF008EF98
:105E0A002FF018EF2FF00950015E0A50025A0B507A
:105E1A00035A0C50045A0D50055A0E50065A0F5088
:105E2A00075A1050085AD89010320F320E320D32DB
:105E3A000C320B320A320932112EF1EF2EF01250C7
:105E4A00D8B42AEF2FF02CEF2FF03CEF2FF0081EDA
:105E5A00071E061E051E041E031E021E016C000EEE
:105E6A00022203220422052206220722082201C056
:105E7A0001F002C002F003C003F004C004F005C040
:105E8A0005F006C006F007C007F008C008F01200C7
:105E9A00000E126E10BE56EF2FF054EF2FF068EF7F
:105EAA002FF0101E0F1E0E1E0D1E0C1E0B1E0A1E9C
:105EBA00096C000E0A220B220C220D220E220F223E
:105ECA001022010E126E08BE6FEF2FF06DEF2FF049
:105EDA0081EF2FF0081E071E061E051E041E031E54
:105EEA00021E016C000E022203220422052206224F
:105EFA0007220822010E121A20EE13F0070EDE6A9C
:105F0A00E806FDE209500A100B100C100D100E10D5
:105F1A000F101010D8B494EF2FF096EF2FF0E8EF8F
:105F2A002FF0010E116EA4EF2FF0D89009360A3621
:105F3A000B360C360D360E360F361036112A10AEC9
:105F4A00A9EF2FF0ABEF2FF09AEF2FF0D89013367E
:105F5A001436153616361736183619361A360950C3
:105F6A00015C0A5002580B5003580C5004580D504B
:105F7A0005580E5006580F50075810500858D8A008
:105F8A00C9EF2FF0CBEF2FF0DCEF2FF00950015EB5
:105F9A000A50025A0B50035A0C50045A0D50055A13
:105FAA000E50065A0F50075A1050085A1380D890AC
:105FBA0010320F320E320D320C320B320A320932E3
:105FCA00112EABEF2FF01250D8B4EEEF2FF0F0EF06
:105FDA002FF000EF30F01A1E191E181E171E161E7B
:105FEA00151E141E136C000E1422152216221722D7
:105FFA00182219221A2213C001F014C002F015C087
:10600A0003F016C004F017C005F018C006F019C056
:10601A0007F01AC008F0120042C0D9FF43C0DAFFE5
:10602A00DECFF6FFDDCFF7FF0800F550250AD8A42A
:10603A0021EF30F023EF30F0CFEF30F042C0D9FF3C
:10604A0043C0DAFFDE2A000EDD22000E0001636F74
:10605A00000E626F62C066F063C067F064696569CA
:10606A0042C0D9FF43C0DAFFDECFF6FFDDCFF7FF2C
:10607A000800F550640AD8B445EF30F047EF30F025
:10608A0059EF30F042C0D9FF43C0DAFFDECFF6FF46
:10609A00DDCFF7FF0800F550690AD8A457EF30F0B2
:1060AA0059EF30F099EF30F042C0D9FF43C0DAFF20
:1060BA00DE2A000EDD2244C0D9FF45C0DAFFDFCF59
:1060CA0046F0020EDE26DFCF47F0000EDD2246C084
:1060DA00D9FF47C0DAFFDECF48F0DDCF49F0000E26
:1060EA0049BEFF0E4A6E4B6E4C6E4D6E4E6E4F6E33
:1060FA0040C01CF041C01DF048C01EF049C01FF04E
:10610A004AC020F04BC021F04CC022F04DC023F011
:10611A004EC024F04FC025F0AAEC32F01CC040F06B
:10612A001DC041F0EAEF30F042C0D9FF43C0DAFFA8
:10613A00DECFF6FFDDCFF7FF0800F550250AD8A419
:10614A00A9EF30F0ABEF30F0C2EF30F042C0D9FF28
:10615A0043C0DAFFDE2A000EDD22000E026E250E93
:10616A00016E40C003F041C004F0ACEC2CF0000E0C
:10617A00416E010E406EEAEF30F042C0D9FF43C0D3
:10618A00DAFFDE2A000EDD22000E416E000E406E9E
:10619A00EAEF30F042C0D9FF43C0DAFFDECFF6FFA4
:1061AA00DDCFF7FF0800F550016E026A40C003F028
:1061BA0041C004F0ACEC2CF042C0D9FF43C0DAFF76
:1061CA00DE2A000EDD22BCEF30F01200096E095003
:1061DA00D8B4F2EF30F0F4EF30F016EF31F004BE3D
:1061EA00FBEF30F0F9EF30F016EF31F001C005F0B7
:1061FA0002C006F003C007F004C008F0051E061E20
:10620A00071E081E052A000E06220722082205C0BC
:10621A000BF006C00CF007C00DF008C00EF01EEF20
:10622A0031F001C00BF002C00CF003C00DF004C045
:10623A000EF00150021003100410D8A427EF31F019
:10624A0029EF31F033EF31F0000E016E000E026ECD
:10625A00000E036E000E046EC4EF31F0960E0A6E45
:10626A003DEF31F00A2AD8900E320D320C320B3241
:10627A00000E0B14056E000E0C14066E000E0D14A3
:10628A00076EFE0E0E14086E055006100710081051
:10629A00D8A452EF31F054EF31F037EF31F062EF1A
:1062AA0031F00A2A010E0B26000E0C220D220E22B4
:1062BA00D8900E320D320C320B32000E0B14056ED2
:1062CA00000E0C14066E000E0D14076EFF0E0E144F
:1062DA00086E0550061007100810D8A477EF31F0A1
:1062EA0079EF31F056EF31F081EF31F00A06D890AC
:1062FA000B360C360D360E360DBE86EF31F088EFB2
:10630A0031F090EF31F0020E0A608EEF31F090EF2B
:10631A0031F07BEF31F00AB095EF31F097EF31F0C1
:10632A0098EF31F00D9ED8900A320AC005F0066A3D
:10633A00076A086A05C008F0076A066A056A05500E
:10634A000B1206500C1207500D1208500E1209506B
:10635A00D8B4B2EF31F0B4EF31F0BCEF31F004BE93
:10636A00BBEF31F0B9EF31F0BCEF31F00E8E0BC05C
:10637A0001F00CC002F00DC003F00EC004F01200D0
:10638A00000E2D6E240E2E6EF40E2F6E4A0E306EF7
:10639A0025C001F026C002F027C003F028C004F08F
:1063AA00000EEBEC30F001C029F002C02AF003C065
:1063BA002BF004C02CF02DC001F02EC002F02FC02B
:1063CA0003F030C004F029C005F02AC006F02BC043
:1063DA0007F02CC008F01BEC34F001C02DF002C00D
:1063EA002EF003C02FF004C030F02850271008E127
:1063FA0025044B0E2658D8B005EF32F007EF32F0DD
:10640A0024EF32F0AC942DC001F02EC002F02FC060
:10641A0003F030C004F0000E056E000E066E800E0A
:10642A00076E420E086E1BEC34F001C02DF002C05C
:10643A002EF003C02FF004C030F03FEF32F0AC84EE
:10644A002DC001F02EC002F02FC003F030C004F0BE
:10645A00000E056E000E066E800E076E410E086E67
:10646A001BEC34F001C02DF002C02EF003C02FF057
:10647A0004C030F02DC001F02EC002F02FC003F08E
:10648A0030C004F0000E056E000E066E800E076E18
:10649A00BF0E086EE8EC35F001C02DF002C02EF0F8
:1064AA0003C02FF004C030F02DC001F02EC002F05E
:1064BA002FC003F030C004F093EC2DF001C025F09A
:1064CA0002C026F003C027F004C028F025C001F05E
:1064DA0026C002F027C003F028C004F0000EEBEC3F
:1064EA0030F001C015F002C016F003C017F004C066
:1064FA0018F02DC011F02EC012F02FC013F030C0CA
:10650A0014F007EC2AF011C019F012C01AF013C0E7
:10651A001BF014C01CF0000E1D6E000E1E6E000E45
:10652A001F6E3F0E206E11EC2DF0D8A09FEF32F0B7
:10653A00A1EF32F0A7EF32F0010E2526000E262237
:10654A002722282225C0AFFF12001EC036F01FC026
:10655A0037F020C038F021C039F022C03AF023C009
:10656A003BF024C03CF025C03DF03DBEBFEF32F009
:10657A00C2EF32F0010EC3EF32F0000E346E356A0C
:10658A0034503510D8B4CCEF32F0CEEF32F0DEEF23
:10659A0032F03D1E3C1E3B1E3A1E391E381E371E67
:1065AA00366C000E3722382239223A223B223C220C
:1065BA003D22000165BFE4EF32F0E6EF32F0E7EF8B
:1065CA0032F0669365BFF4EF32F0655106E1640577
:1065DA00D8B0F2EF32F0F4EF32F0FAEF32F0000E08
:1065EA00316E010E306EFEEF32F064C030F065C0DD
:1065FA0031F062C032F063C033F034503510D8A4A1
:10660A0009EF33F00BEF33F012EF33F066A510EF1A
:10661A0033F012EF33F015EF33F03206D8A0330619
:10662A00000E3F6E1F0E3E6E000E886F99EF33F01C
:10663A003E06D8A03F06690E3E24D96E000E3F20C2
:10664A00DA6E36C001F037C002F038C003F039C044
:10665A0004F03AC005F03BC006F03CC007F03DC06C
:10666A0008F00A0E096E000E0A6E000E0B6E000E7E
:10667A000C6E000E0D6E000E0E6E000E0F6E000EEA
:10668A00106E9BEC2EF001C026F002C027F003C06A
:10669A0028F004C029F005C02AF006C02BF007C074
:1066AA002CF008C02DF026C013F028C014F0C5EC59
:1066BA0029F01350300FDF6E3006D8A031063206AB
:1066CA00D8A0330636C001F037C002F038C003F054
:1066DA0039C004F03AC005F03BC006F03CC007F0F0
:1066EA003DC008F00A0E096E000E0A6E000E0B6E0F
:1066FA00000E0C6E000E0D6E000E0E6E000E0F6E6A
:10670A00000E106E4DEC2FF001C036F002C037F0CB
:10671A0003C038F004C039F005C03AF006C03BF0B7
:10672A0007C03CF008C03DF03FBEA4EF33F03F5035
:10673A0008E13E04D8A0A4EF33F0A6EF33F0D7EF78
:10674A0033F036503710381039103A103B103C10DD
:10675A003D10D8A4B3EF33F0B5EF33F01DEF33F0AB
:10676A0031BEC2EF33F0315006E13004D8B0C0EF89
:10677A0033F0C2EF33F01DEF33F033BECDEF33F019
:10678A00335008E13204D8A0CDEF33F0CFEF33F025
:10679A00D7EF33F0000166B3D5EF33F0D7EF33F01C
:1067AA001DEF33F034503510D8A4DEEF33F0E0EFAC
:1067BA0033F0E8EF33F0000166A5E6EF33F0E8EFD7
:1067CA0033F006EF34F03E06D8A03F0634503510B9
:1067DA00D8A4F2EF33F0F4EF33F0FAEF33F0000E0F
:1067EA002F6E2B0E2E6EFEEF33F0000E2F6E2D0E37
:1067FA002E6E690E3E24D96E000E3F20DA6E2EC030
:10680A00DFFF1CC011F01DC012F0690E3E24136E8A
:10681A00000E3F20146E32C015F033C016F049EC5A
:10682A002CF011C01CF012C01DF012000450800B95
:10683A00116E04500424186E03AE26EF34F028EFCC
:10684A0034F029EF34F018801850D8B42FEF34F010
:10685A0031EF34F046EF34F01828D8A437EF34F08B
:10686A0039EF34F041EF34F0000E016E000E026E83
:10687A00000E036E000E046E038E000E046E4EEFC1
:10688A0034F0000E016E000E026E000E036E000E52
:10689A00046E0850800B111A08500824196E07AEAE
:1068AA0059EF34F05BEF34F05CEF34F01980195093
:1068BA00D8B462EF34F064EF34F079EF34F0192889
:1068CA00D8A46AEF34F06CEF34F074EF34F0000EB1
:1068DA00056E000E066E000E076E000E086E078E1D
:1068EA00000E086E81EF34F0000E056E000E066E83
:1068FA00000E076E000E086E0550061007100810ED
:10690A00D8A48AEF34F08CEF34F0A4EF34F0000E00
:10691A00016E000E026E000E036E000E046E800EF3
:10692A0003127F0E04121150041201C001F002C0BA
:10693A0002F003C003F004C004F0E7EF35F018508A
:10694A00D8A4AAEF34F0ACEF34F0B6EF34F0000E6E
:10695A00016E000E026E000E036E000E046EE7EF6B
:10696A0035F0195018C009F00A6A095E000E0A5A71
:10697A007F0E0924126E000E0A20136E01C00DF05C
:10698A0002C00EF003C00FF004C010F0000E016E3A
:10699A00000E026E000E036E000E046E000E146EE0
:1069AA00000E156E000E166E000E176E000E196E92
:1069BA0017EF35F01950D8B4E5EF34F0E7EF34F0BB
:1069CA00FEEF34F0D8900D360E360F361036D890CA
:1069DA00013602360336043617AEF6EF34F0F8EF16
:1069EA0034F0F9EF34F00180D890143615361636A3
:1069FA00173605500D5C06500E5807500F580850B0
:106A0A001058D8A00BEF35F00DEF35F016EF35F032
:106A1A00178C05500D5E06500E5A07500F5A085033
:106A2A00105A192A190E19641DEF35F01FEF35F0A7
:106A3A00DFEF34F00D500E100F101010D8B428EFFD
:106A4A0035F02AEF35F042EF35F0148042EF35F099
:106A5A00D890013602360336043617AE37EF35F0D2
:106A6A0039EF35F03AEF35F00180D8901436153603
:106A7A00163617361206D8A0130603AE47EF35F0BE
:106A8A0049EF35F02DEF35F0000E196E17AE50EFC5
:106A9A0035F052EF35F076EF35F0FF0E1414096E2B
:106AAA00FF0E15140A6EFF0E16140B6E7F0E1714C6
:106ABA000C6E09500A100B100C10D8B467EF35F0A1
:106ACA0069EF35F06DEF35F0010E196E76EF35F09E
:106ADA0001A072EF35F074EF35F076EF35F069EF1B
:106AEA0035F01950D8B47CEF35F07EEF35F0A2EFCF
:106AFA0035F0010E0126000E02220322042204A010
:106B0A0089EF35F08BEF35F0A2EF35F001C009F0CF
:106B1A0002C00AF003C00BF004C00CF00C340C32B3
:106B2A000B320A32093209C001F00AC002F00BC066
:106B3A0003F00CC004F0124A132A13BEADEF35F06D
:106B4A00135008E11228D8A0ADEF35F0AFEF35F0B9
:106B5A00BAEF35F0000E136E1268000E016E000EC9
:106B6A00026E000E036E000E046E13BEC7EF35F000
:106B7A00135006E11204D8B0C5EF35F0C7EF35F06F
:106B8A00D5EF35F0000E136E000E126E000E016E78
:106B9A00000E026E000E036E000E046E000E116EE1
:106BAA0012C018F018A0DCEF35F0DEEF35F0E1EF97
:106BBA0035F0038EE2EF35F0039ED8901830046E5C
:106BCA0098EF34F012000450800B0D6E0450042428
:106BDA000F6E03AEF3EF35F0F5EF35F0F6EF35F063
:106BEA000F800F50D8B4FCEF35F0FEEF35F013EFFD
:106BFA0036F00F28D8A404EF36F006EF36F00EEF81
:106C0A0036F0000E016E000E026E000E036E000ECC
:106C1A00046E038E000E046E1BEF36F0000E016E3A
:106C2A00000E026E000E036E000E046E0850800BFA
:106C3A000E6E0D500E18D8B425EF36F027EF36F049
:106C4A0028EF36F00D8C085008240E6E07AE30EF90
:106C5A0036F032EF36F033EF36F00E800E50D8B4FD
:106C6A0039EF36F03BEF36F050EF36F00E28D8A465
:106C7A0041EF36F043EF36F04BEF36F0000E056E7B
:106C8A00000E066E000E076E000E086E078E000ECE
:106C9A00086E58EF36F0000E056E000E066E000EF6
:106CAA00076E000E086E0F500E5CD8B05FEF36F01C
:106CBA0061EF36F088EF36F00DAC66EF36F068EF2C
:106CCA0036F06AEF36F0800E0D1A0FC010F00EC0C3
:106CDA000FF010C00EF001C010F005C001F010C096
:106CEA0005F002C010F006C002F010C006F003C0A2
:106CFA0010F007C003F010C007F004C010F008C07D
:106D0A0004F010C008F0000E106E0F500EC009F00B
:106D1A000A6A095E000E0A5A0ABE9DEF36F00A5048
:106D2A0009E11A0E095CD8A09DEF36F09FEF36F004
:106D3A00D6EF36F00150021003100410D8A4A8EFC1
:106D4A0036F0ABEF36F0010EACEF36F0000E106EF7
:106D5A00000E016E000E026E000E036E000E046E2F
:106D6A000EC00FF0DFEF36F010A0BEEF36F0C0EF26
:106D7A0036F0C6EF36F0D89010300109106EC8EF21
:106D8A0036F0D890103201A0CDEF36F0CFEF36F0C2
:106D9A00D0EF36F0108E043404320332023201325C
:106DAA000F2A0E500F5CD8A0DDEF36F0DFEF36F079
:106DBA00B9EF36F00DBCE4EF36F0E6EF36F026EF29
:106DCA0037F00F50D8A4ECEF36F0EEEF36F0F8EFCC
:106DDA0036F0000E016E000E026E000E036E000EFB
:106DEA00046E47EF38F0055001260650022207507C
:106DFA0003220850042204A005EF37F007EF37F00A
:106E0A00B3EF37F010A00CEF37F00EEF37F014EFB6
:106E1A0037F0D89010300109106E16EF37F0D8907D
:106E2A00103201A01BEF37F01DEF37F01EEF37F0DD
:106E3A00108E043404320332023201320F2AB3EFC5
:106E4A0037F00550015C06500258075003580450A9
:106E5A00800A096E0850800A0958D8B037EF37F00F
:106E6A0039EF37F064EF37F00150055C096E0250D4
:106E7A0006580A6E035007580B6E045008580C6ED9
:106E8A00FF0E0924016EFF0E0A20026EFF0E0B2070
:106E9A00036EFF0E0C20046E800E0D1A106C10503B
:106EAA00D8A45AEF37F05CEF37F06CEF37F0010EE9
:106EBA000126000E0222032204226CEF37F005504D
:106ECA00015E0650025A0750035A0850045A0150EC
:106EDA00021003100410D8A475EF37F077EF37F0DB
:106EEA00ACEF37F01050D8A47DEF37F07FEF37F0D2
:106EFA00ACEF37F0000E016E000E026E000E036E4C
:106F0A00000E046E47EF38F0D89001360236033689
:106F1A00043610AE93EF37F095EF37F096EF37F06F
:106F2A00018010A09BEF37F09DEF37F0A1EF37F00B
:106F3A00D8801036A3EF37F0D89010360F50D8B457
:106F4A00A9EF37F0ABEF37F0ACEF37F00F0603AE2F
:106F5A00B1EF37F0B3EF37F089EF37F0000E0E6E6E
:106F6A0010AEBAEF37F0BCEF37F0D4EF37F010C0FD
:106F7A0009F07F0E0916D8B4C5EF37F0C7EF37F01E
:106F8A00CBEF37F0010E0E6ED4EF37F001A0D0EF41
:106F9A0037F0D2EF37F0D4EF37F0C7EF37F00E50B3
:106FAA00D8B4DAEF37F0DCEF37F007EF38F0010E3C
:106FBA000126000E02220322042204A0E7EF37F082
:106FCA00E9EF37F007EF38F001C009F002C00AF024
:106FDA0003C00BF004C00CF00C340C320B320A3232
:106FEA00093209C001F00AC002F00BC003F00CC05C
:106FFA0004F00F28D8B404EF38F006EF38F007EFA2
:10700A0038F00F2A0F28D8B40DEF38F00FEF38F008
:10701A0017EF38F00F50D8A415EF38F017EF38F003
:10702A0029EF38F0000E016E000E026E000E036E9C
:10703A00000E046E0F50D8A425EF38F027EF38F071
:10704A0029EF38F0000E0D6E0FA02EEF38F030EF5A
:10705A0038F033EF38F0038E34EF38F0039ED890CF
:10706A000F30046E0DAE3CEF38F03EEF38F03FEFD4
:10707A0038F0048E01C001F002C002F003C003F030
:10708A0004C004F01200000000000000000000002C
:10709A0000000000000000000000000000000000E6
:1070AA000000000000000000000000F8FCFCFCF8F2
:1070BA00000000000000000000000000737373006D
:1070CA0000000000000000000000001E3E3E00001C
:1070DA00003E3E1E0000000000000000000000000C
:1070EA000000000000000000303030FEFE3030307A
:1070FA0030FEFE30303000000C0C0C7F7F0C0C0C84
:10710A000C7F7F0C0C0C00000000F0F898FE989899
:10711A00FE9898180000000000001819197F191924
:10712A007F191F0F0000000000000038383880C0A7
:10713A00E0703800000000000000001C0E07030188
:10714A001C1C1C0000000000000038FCC4C4FC38F1
:10715A00000000800000000000001E3F2121333F94
:10716A001E1E372300000000000000203C3C1C00CB
:10717A000000000000000000000000000000000005
:10718A000000000000000000000000C0E0F0381C11
:10719A000C0404000000000000000003070F1C3864
:1071AA00302020000000000000000004040C1C38FD
:1071BA00F0E0C00000000000000000202030381C71
:1071CA000F0703000000000000808890E0E0FCFC4C
:1071DA00E0E09088800000000001110907073F3FA6
:1071EA000707091101000000000000808080F0F00C
:1071FA0080808000000000000000000101010F0FE4
:10720A000101010000000000000000000000000071
:10721A0000000000000000000000004078783800FC
:10722A000000000000000000000080808080808054
:10723A00808080800000000000000101010101013E
:10724A000101010100000000000000000000000030
:10725A00000000000000000000000000383838007C
:10726A000000000000000000000000000000000014
:10727A0080C0E070381C000000002030381C0E0767
:10728A0003010000000000000000F8FCFC0484E494
:10729A0074FCFCF80000000000001F3F3F2E27216D
:1072AA00203F3F1F000000000000606060F0FCFC0F
:1072BA00000000000000000000002020203F3F3FA7
:1072CA0020202000000000000000181C1C04048478
:1072DA00CCFC783000000000000030383C2E272318
:1072EA0021383838000000000000181C1C848484EF
:1072FA00CC7C7830000000000000183838212121A9
:10730A00333E1E0C00000000000080C0603018FCF4
:10731A00FCFC000000000000000003030323233FDD
:10732A003F3F2323000000000000FCFCFC8484840F
:10733A008484040400000000000019393921212145
:10734A00333F1F0E000000000000E0F0F89C8C8420
:10735A00848480000000000000001F3F3F2121219B
:10736A00213F3F1F0000000000003C3C3C04040495
:10737A000484FCFC7C0000000000000000383C3E55
:10738A0007030100000000000000787CFCC4C484EC
:10739A0084FC7C780000000000001E3E3F2121236F
:1073AA00233F3E1E000000000000F8FCFC84848499
:1073BA0084FCFCF8000000000000000121212131BA
:1073CA00391F0F07000000000000000000707070F5
:1073DA00000000000000000000000000000E0E0E79
:1073EA000000000000000000000000000070707043
:1073FA00000000000000000000000000101E1E0E29
:10740A000000000000000000000080C0E070381C8E
:10741A000E0602000000000000000103070E1C38DF
:10742A0070604000000000000060606060606060A2
:10743A006060606060000000000606060606060638
:10744A000606060606000000000002060E1C38703A
:10745A00E0C08000000000000000406070381C0E90
:10746A0007030100000000000000181C0C0E06862D
:10747A00CEFC7C380000000000000000000073739E
:10748A0073000000000000000000FCFEFE0202C2C1
:10749A00C2C2FEFEFC00000000003F3F7F60606346
:1074AA0063636343030000000000E0F0F81C0C0C67
:1074BA001CF8F0E00000000000003F3F3F0202021B
:1074CA00023F3F3F00000000000004FCFCFC8484F3
:1074DA0084FCFC78000000000000203F3F3F21218F
:1074EA00213F3F1E000000000000F0F8FC0C0404DD
:1074FA00041C1C180000000000000F1F3F30202051
:10750A002038381800000000000004FCFCFC0404C9
:10751A000CFCF8F0000000000000203F3F3F202054
:10752A00303F1F0F00000000000004FCFCFC8484B4
:10753A0084C4CC1C000000000000203F3F3F2121F2
:10754A002123333800000000000004FCFCFC848482
:10755A0084C4CC1C000000000000203F3F3F2101F2
:10756A0001030300000000000000F0F8FC0C040412
:10757A00043C3C380000000000000F1F3F3020226E
:10758A00223E3E3E000000000000FCFCFC808080A1
:10759A00FCFCFC000000000000003F3F3F0101012D
:1075AA003F3F3F00000000000000000404FCFCFC18
:1075BA00040400000000000000000020203F3F3FBC
:1075CA002020000000000000000000000000040469
:1075DA00FCFCFC0404000000001E1E3E20202020AB
:1075EA003F3F1F0000000000000004FCFCFCC0E05C
:1075FA00703C1C0C000000000000203F3F3F0307C6
:10760A000E3C383000000000000004FCFCFC0400C2
:10761A0000000000000000000000203F3F3F202043
:10762A002030383C000000000000FCFCFC78F0E050
:10763A00F078FCFCFC00000000003F3F3F00000126
:10764A0000003F3F3F0000000000FCFCFC70E0C06F
:10765A008000FCFCFC00000000003F3F3F000001EE
:10766A0003073F3F3F0000000000E0F0F81C0C0C4D
:10767A000C1CF8F0E00000000000070F1F38303043
:10768A0030381F0F07000000000004FCFCFC848453
:10769A0084FCFC78000000000000203F3F3F2101ED
:1076AA0001010100000000000000E0F8F81C0C04D1
:1076BA000C1CF8F8E00000000000071F1F18185CF7
:1076CA005E7E7F7F47000000000004FCFCFC84848F
:1076DA0084FCFC78000000000000203F3F3F0101CD
:1076EA00033F3F3C00000000000078FCFC848484D7
:1076FA0084BC3C380000000000001C3C3D212121D4
:10770A00213F3F1E0000000000001C0C0404FCFC8A
:10771A00FC04040C1C0000000000000020203F3F75
:10772A003F202000000000000000FCFCFC000000DC
:10773A00FCFCFC000000000000001F3F3F2020204E
:10774A003F3F1F00000000000000FCFCFC0000009E
:10775A00FCFCFC00000000000000070F1F38303856
:10776A001F0F0700000000000000FCFCFC00008066
:10777A000000FCFCFC0000000000030F3F3C3C0F33
:10778A003C3C3F0F0300000000001C3C7CE0C0E0D2
:10779A007C3C1C00000000000000383C3E07030748
:1077AA003E3C38000000000000007CFCFC800080A9
:1077BA00FCFC7C000000000000000020213F3F3F4D
:1077CA00212000000000000000003C1C0C0484C4BE
:1077DA00E47C3C1C000000000000383C3E272321CA
:1077EA002030383C0000000000000000FCFCFC04D3
:1077FA000404040000000000000000003F3F3F2096
:10780A00202020000000000000001C3870E0C0802A
:10781A00000000000000000000000000000001035A
:10782A00070E1C1830202000000000000404040485
:10783A00FCFCFC00000000000000000020202020CA
:10784A003F3F3F000000000000002030381C0E0EB1
:10785A001C3830200000000000000000000000007A
:10786A00000000000000000000000000000000000E
:10787A000000000000000000C0C0C0C0C0C0C0C0FE
:10788A00C0C0C0C0C0C0C00000000C0C3C303000FA
:10789A0000000000000000000000000000000000DE
:1078AA00000000000000000000000040404040408E
:1078BA00C0C080000000000000001C3E3E222222C0
:1078CA003F1F3F2000000000000004FCFCFC404079
:1078DA0040C0C080000000000000203F1F3F202061
:1078EA00203F3F1F00000000000080C0C040404011
:1078FA00C0C080000000000000001F3F3F20202081
:10790A003939190000000000000080C0C04040441E
:10791A00FCFCFC040000000000001F3F3F20202068
:10792A003F1F3F2000000000000080C0C0404040D0
:10793A00C0C080000000000000001F3F3F2222223A
:10794A003B3B1B000000000000008080F8FCFC8428
:10795A009C9C180000000000000021213F3F3F21AD
:10796A002101000000000000000080C0C04040402B
:10797A00C080C04000000000000047CFDF98989800
:10798A00FFFF7F0000000000000004FCFCFC8040B8
:10799A0040C0C080000000000000203F3F3F0100BF
:1079AA00003F3F3F00000000000000404040DCDC98
:1079BA00DC000000000000000000002020203F3F03
:1079CA003F2020200000000000000000004040404E
:1079DA00DCDCDC000000000000002060E08080C0E9
:1079EA00FFFF7F0000000000000004FCFCFC000018
:1079FA0080C0C040000000000000203F3F3F020757
:107A0A000F3D383000000000000000040404FCFCB4
:107A1A00FC000000000000000000002020203F3F82
:107A2A003F202020000000000000C0C0C04040C02D
:107A3A004040C0C08000000000003F3F3F00003FC0
:107A4A0000003F3F3F0000000000C0C0C04040406F
:107A5A00C0C080000000000000003F3F3F0000005F
:107A6A003F3F3F0000000000000080C0C04040408F
:107A7A00C0C080000000000000001F3F3F202020FF
:107A8A003F3F1F0000000000000040C080C040408F
:107A9A0040C0C08000000000000080FFFFFF90107F
:107AAA00101F1F0F000000000080C0C0404040C0EF
:107ABA0080C0400000000000000F1F1F101090FF40
:107ACA00FFFF800000000000000040C0C0C080C06E
:107ADA00C0C0C080000000000000203F3F3F2100DE
:107AEA000001010100000000000080C0C0404040C9
:107AFA0040C08000000000000000193B2326262613
:107B0A003C3D19000000000000004040E0F0F84051
:107B1A004040400000000000000000001F3F3F20DE
:107B2A0038381800000000000000C0C0C000000083
:107B3A00C0C0C0000000000000001F3F3F202020FE
:107B4A003F1F3F20000000000000C0C0C00000002E
:107B5A00C0C0C000000000000000070F1F38303806
:107B6A001F0F0700000000000000C0C0C000000096
:107B7A000000C0C0C00000000000070F3F38380EE8
:107B8A0038383F0F070000000000C0C0C00000C026
:107B9A00C0C0000000000000000030393F0F0F3F56
:107BAA003930000000000000000000C0C0C0000022
:107BBA0000C0C0C000000000000080878F9FD8F876
:107BCA00783F0F07000000000000C0C0404040C0DE
:107BDA00C0C0000000000000000031383C2E2723FE
:107BEA00313800000000000000008080C0787C3C32
:107BFA00040404040000000000000101031E3E3CCE
:107C0A002020202000000000000000000000FEFEEE
:107C1A00FE000000000000000000000000007F7F5E
:107C2A007F000000000000000000040404043C7C03
:107C3A0078C08080000000000000202020203C3E08
:107C4A001E0301010000000000383C3C040C1C38F3
:107C5A0030203C3C1C000000000000000000000036
:107C6A00000000000000000000000000000000000A
:107C7A002F000000000700070000147F147F140083
:107C8A00242A7F2A120023130864620036495522E7
:107C9A005000000503000000001C224100000041C2
:107CAA00221C000014083E08140008083E080800B8
:107CBA000000A060000008080808080000606000D2
:107CCA0000002010080402003E5149453E000042CF
:107CDA007F4000004261514946002141454B310035
:107CEA001814127F10002745454539003C4A494976
:107CFA003000017109050300364949493600064931
:107D0A0049291E00003636000000005636000000E1
:107D1A0008142241000014141414140000412214FF
:107D2A000800020151090600324959513E007C12ED
:107D3A0011127C007F49494936003E4141412200E7
:107D4A007F4141221C007F49494941007F090909B5
:107D5A0001003E4149497A007F0808087F00004136
:107D6A007F4100002040413F01007F08142241006A
:107D7A007F40404040007F020C027F007F040810D1
:107D8A007F003E4141413E007F09090906003E410C
:107D9A0051215E007F0919294600464949493100A7
:107DAA0001017F0101003F4040403F001F20402069
:107DBA001F003F4038403F0063140814630007085F
:107DCA0070080700615149454300007F414100AAFC
:107DDA0055AA55AA55000041417F0000040201023C
:107DEA0004004040404040000003050000002054C9
:107DFA00545478007F4844443800384444442000AE
:107E0A00384444487F00385454541800087E090105
:107E1A00020018A4A4A47C007F080404780000448B
:107E2A007D4000004080847D00007F1028440000CF
:107E3A0000417F4000007C04180478007C08040498
:107E4A007800384444443800FC24242418001824B8
:107E5A002418FC007C0804040800485454542000E8
:107E6A00043F444020003C4040207C001C2040202D
:107E7A001C003C4030403C004428102844001CA010
:107E8A00A0A07C004464544C440000107C82000092
:107E9A000000FF00000000827C10000000060909B3
:107EAA000600000003A000C00C00F94F806BEB0035
:107EBA00988C8052A58003000001C88089C00050B8
:107ECA00850021C200084000208200002000188C92
:107EDA0000FA2F804BE0805A66808AA500E08F80E6
:107EEA00EAAB0072A9009A8C00FAAF804AA7000197
:107EFA0040000940002148805145008942004266FD
:107F0A000072A6807A8780FAA500722500FA2700F7
:107F1A00FAA880FA8800722B00F88F808BE8808B91
:107F2A00E800F88D80F82080F90F80F9CF80722759
:107F3A0000FA8400722740FA85804AA90083E80083
:107F4A00F02F00E06E00F0EF00D88D80C0EC009AB0
:107F5A00AC8003E880C081808BE0004204000820E6
:107F6A0080020400312380F92300312480312F80DC
:107F7A0031628023EA00255380F9038002E000067B
:107F8A00E000F8428003E0007987803903803123DA
:107F9A00007D23003127C078840029400043E40093
:107FAA0070270060660070670048C4807457805963
:107FBA00E68023E8800360008BE200610C00C000C9
:107FCA00F000FC00FF00524547495354524F2050DD
:107FDA004552534F4E414C00486F6C61206D756E8F
:107FEA00646F00256425643A004C45434F4D0025D3
:057FFA00642564000095
:020000040020DA
:08000000FFFFFFFFFFFFFFFF00
:020000040030CA
:0E000000010B191EFF0080FF0FC00FE00F4024
:00000001FF
